:020000040800F2
:10800000104B0020398100083D8100083F810008A5
:10801000418100084381000845810008478100082C
:108020004781000847810008478100084781000810
:108030004781000847810008A38A000809DF00087B
:10804000EB9600082F9500087F9500084D950008D5
:10805000F394000839950008AD940008B79400081F
:10806000CB940008D5940008DF94000833940008EE
:108070003D94000847940008519400085B94000860
:10808000659400086F94000801940008D7960008D2
:10809000E19600082994000815940008E994000866
:1080A00025950008D9950008899500089395000842
:1080B0009D950008A7950008B19500080795000850
:1080C000FD9400081B9500081195000861950008B3
:1080D0006B950008F9950008B9960008C39600084A
:1080E000C194000843950008CD960008C595000886
:1080F000CF95000857950008BB95000875950008B6
:10810000E3950008ED950008799400088394000831
:108110008D94000897940008A19400080B9400081F
:108120001F940008DFF80CD000F02AFC004800473C
:108130009D060108104B002004480047FEE7FEE7BB
:10814000FEE7FEE7FEE7FEE7FEE700002581000808
:1081500072B6704762B67047EFF3108072B6704720
:1081600080F31088704730BF704720BF7047B0FA67
:1081700080F0704790FAA0F0B0FA80F0704790FA63
:10818000A0F0704740EA01039B0703D009E008C94B
:10819000121F08C0042AFAD203E011F8013B00F8CC
:1081A000013B521EF9D27047D2B201E000F8012B18
:1081B000491EFBD270470022F6E710B513460A4667
:1081C00004461946FFF7F0FF204610BD30B50546BE
:1081D0000020034600E05B1C934205D2EC5CC85CC7
:1081E000201A01D1002CF6D130BDF0B480EA010292
:1081F000D40F4200B2EB410F02D2024608461146AC
:108200004A0042D0C30DDDB2C1F3C752AD1A202DD2
:1082100035DAC1F3160141F4000204B15242C5F14E
:10822000200602FA06F12A411044B3EBD05F23D0B6
:10823000C4B1012DA0EBC35009DCF0BC4FF00042EB
:1082400002EAC352DBB200F5000000F0F7BA4000CA
:1082500000F1807000EBC350A0F1807040EAD17053
:10826000490009E0490841EAC071A0EBC35000F59C
:108270000000400800EBC350F0BC00F0D6BA6142E9
:10828000012202EB4101001BF6E7F0BC704781F0D0
:108290000041AAE780F00040A7E780EA010210B59C
:1082A00002F00043400022D04A001FD0010E01EB33
:1082B0001261C0F35600C2F3560240F4000042F4CB
:1082C0000002A0FB022000047F39140400D0401CEF
:1082D00050EA124001D44000491EC2B20C0604EB21
:1082E000D010401C4008802A02D003E0002010BDBE
:1082F00020F00100002900DA0020184310BD30B43E
:1083000080EA010202F0004530F0004221F0004016
:1083100013D090B1C30DD40DC2F31601C0F31600F3
:10832000E41A41F4000140F400027D34914201D38B
:10833000641C00E04900002C02DA30BC00207047C9
:108340004FF400000023914201D3891A03434008EF
:108350004FEA4101F7D151B1914202D14FF00041B2
:1083600005E002D24FF0010101E06FF0010103EBE3
:10837000C450284430BC00F058BA2DE9FE4F804666
:1083800081EA0300C00F0C46009021F0004123F069
:108390000045B8EB0200A94105D24046214690466F
:1083A0001C460B46024623F00040104347D0270DE1
:1083B000C7F30A00C3F30A510290401A0190402803
:1083C0006BDAC3F3130040F4801B0098924620B18F
:1083D0000023D2EB030A63EB0B0B01985946C0F163
:1083E0004002504600F0F0F906460D465046594608
:1083F000019A00F008FA10EB08006141002487EAB6
:10840000115284EAE7731A4340D0009A62B3019A8A
:10841000012A4FEA075215DC001B61EB02014FF005
:10842000004202EA0752CDE90042001C41F58011EA
:1084300032462B4600F03FFA03B0BDE8F08F4046CD
:108440002146F9E7001B61EB0201001C41F5801396
:1084500000185B412018A2F5001747EB030140EA22
:10846000D570B6196D4111E06D084FEA360645EA40
:10847000C0754FEA0752001B61EB0201001C41F579
:10848000801149084FEA30000019514132462B460D
:1084900003B0BDE8F04F00F0FFB9009801224000A2
:1084A0000023D0EB020263EBE073009821464FEA11
:1084B000E074B8EB000061EB0401E9E783F00043EE
:1084C0005BE781F0004158E72DE9FE4F81EA0304A4
:1084D00004F0004421F0004100944FF0000B23F021
:1084E000004350EA01045ED052EA03045BD0C3F3B8
:1084F0000A54C1F30A552C44A4F2F3340194A0FBAE
:108500000254C1F3130141F48011C3F3130343F484
:10851000801301FB024400FB034E840A970A44EADD
:10852000815447EA8357A4FB076802958D0A05FB2F
:1085300007854FEA932C04FB0C542705029D4FEA54
:10854000065847EA1637B5EB08056EEB070C870EA1
:10855000920E47EA811742EA8312A7FB0201B6EBAB
:108560000B0164EB00042B0D43EA0C335E1844EB63
:108570001C50DA465146E7FB0201C5F313044FEAEB
:108580000B3343EA14534FEA0432019C43EA0603D7
:10859000A4F10C040294009CCDE900B400F08BF926
:1085A00003B0BDE8F08F00200146F9E72DE9F04D5A
:1085B00081EA030404F0004B21F0004514464FF01B
:1085C000000A23F0004150EA050220D054EA0102DB
:1085D0001DD0C5F30A570246C5F31303C1F31300B8
:1085E000C1F30A5640F4801543F48013A7EB060844
:1085F000101BD64608F2FD3873EB050002D308F1D4
:10860000010801E092185B41B8F1000F03DA002085
:108610000146BDE8F08D00204FF4801106468446E7
:108620000EE0171B73EB050705D3121B63EB050365
:1086300006434CEA010C49084FEA300092185B41AE
:1086400050EA0107EDD152EA030012D082EA040099
:1086500083EA0501084305D0101BAB4106D2012275
:10866000002306E000224FF0004302E06FF0010219
:1086700053101AEB06004CEB085110EB0A0041EBCB
:108680000B01BDE8F04D00F007B9C10F80EAE070C2
:108690000844CA079623002100F0D0B89623002290
:1086A000114600F0CBB80EB5C10F80EAE070084467
:1086B000CA07002140F233438DE80E000A460B46FC
:1086C00000F0F9F803B000BD0EB540F2334102915D
:1086D0000021CDE900110A460B4600F0ECF803B08A
:1086E00000BD00F0004230F000400AD0C10D01F59D
:1086F0006071C0F3160042EA0151C20840071143FD
:10870000704700200146704730B5041E71F1000427
:1087100004DB4FF00044404264EB0101141E73F18E
:10872000000405DB1C464FF00043524263EB040398
:108730008B4208BF824230BD30B5041E71F1000487
:1087400004DB4FF00044404264EB0101141E73F15E
:10875000000405DB1C464FF00043524263EB040368
:10876000994208BF904230BD01F0004330B421F07F
:10877000004150EA010206D00A0DA2F56072C1F371
:108780001301002A02DC30BC00207047440F44EA89
:10879000C104C100E01830BC00EBC25000F045B885
:1087A000002801DBC0F10040002901DBC1F10041DC
:1087B00081427047002801DBC0F10040002901DB45
:1087C000C1F1004188427047202A04DB203A00FAB8
:1087D00002F1002070479140C2F1200320FA03F318
:1087E000194390407047202A04DB203A21FA02F016
:1087F0000021704721FA02F3D040C2F120029140DB
:10880000084319467047202A06DBCB17203A41FA65
:1088100002F043EAE07306E041FA02F3D040C2F10D
:10882000200291400843194670470029A8BF7047AD
:10883000401C490008BF20F00100704710B4B0FA96
:1088400080FC00FA0CF050EA010404BF10BC704731
:1088500049B1CCF1200421FA04F411FA0CF118BF4B
:10886000012121430843A3EB0C01CB1D4FEA00611A
:108870004FEA102042BF002010BC704700EBC350ED
:1088800010440029A4BF10BC7047401C490008BF19
:1088900020F0010010BC704710B5141E73F10004E5
:1088A00008DA401C41F1000192185B411A4301D1E2
:1088B00020F0010010BD2DE9F04D92469B4611B10C
:1088C000B1FA81F202E0B0FA80F220329046FFF76E
:1088D0007BFF04460F4640EA0A0041EA0B0153467B
:1088E0005A46084313D0114653EA010019D0C8F183
:1088F00040025046FFF777FF05460E465046594660
:108900004246FFF761FF084305D0012004E02046FE
:108910003946BDE8F08D0020054346EAE0762C4359
:1089200037430A986305E40AA0EB08000022FD0A19
:1089300044EA47540A3002D500200146E9E7010520
:1089400010196941DDE9084500196941BDE8F04D9C
:10895000A2E770B521F0004303430CD0C1F30A55E0
:108960000024D5EB040564EB0403D617AD1AB3411C
:1089700002DB0020014670BD201841EB025170BDA2
:10898000064C074D06E0E06840F0010394E807005C
:1089900098471034AC42F6D3FFF7C8FB30140108F7
:1089A000501401082DE9F04D00231A461B1A8A4184
:1089B00003DB00200146BDE8F08DC1F30A52C1F38C
:1089C000130141F480154FF0000BD10702D10018BC
:1089D0006D41521E0027044640F2FF11384601EB5C
:1089E000620A3E468046024600204FF48011FFF79F
:1089F000FAFEC2197141BB1846EB0100B4EB030C3F
:108A000075EB000C04D3E41A65EB000517460E461F
:108A1000241908F101006D4180463428E3DDF9197D
:108A200046EB0600091BA84103D24FF0FF32134664
:108A300001E0002213461BEB070046EB0A51BDE89C
:108A4000F04DFFF729BF30B58C1810F8012B12F04C
:108A50000F0301D110F8013B120906D110F8012BC8
:108A600003E010F8015B01F8015B5B1EF9D101E046
:108A700001F8013B521EFBD1A142E6D3002030BDDC
:108A800018484FF0FF010170002080F30988164854
:108A9000016881F3088815484FF08051016062B683
:108AA000FEE772B6EFF3098028B1203880E8F00FB6
:108AB0000F490968086000B50E4880475DF804EB6F
:108AC0000D480E490A78027009480D490A6802608B
:108AD000106890E8F00F203080F309884EF0040E03
:108AE00062B6704722ED00E04401002004ED00E092
:108AF0003801002031DA0008C6000020C70000203D
:108B00003C0100203EB54FF4FA7400F0E7F805464A
:108B100009220021042000F043F90CE002A8002102
:108B20000A230A46CDE90010084605F027F8601E22
:108B3000041E00D13EBD00F0A3F80028EED000F0E6
:108B4000CDF805462846F5E770B504460D461646AD
:108B50000DB1402100E0002141EAC4010EB1042220
:108B600000E000221143C8B207F0F8F970BD000020
:108B70002DE9F04F89B083464FF0000A002007909E
:108B80000690012007F048F93448008A00F04000C0
:108B900000285CD100F0D0F8002007F0DFF9824611
:108BA0004FEA0A2A002007F0D9F940EA0A0A4FEAF8
:108BB0000A2A002007F0D2F940EA0A0A10212748C1
:108BC00001F099FBAAF500002549096808442449E9
:108BD000086024480068401C224908602248007848
:108BE00010B9BBF1000F32D11E480068FFF76CFDD1
:108BF000CDE900011A480068FFF755FD80460022C4
:108C00001A4BFFF761FC0646DDE90023FFF7CEFCB7
:108C10000022174BCDE90201FFF7C8FC0022154BDB
:108C2000CDE90401FFF7C2FC0446FFF79DFD079064
:108C300011490798C1F82A000020094908600A492B
:108C4000087001200D4908700020064908601021B5
:108C5000024801F050FB09B0BDE8F08F000002406F
:108C600064000020600000205C0000200088B34009
:108C70000000404000006041541E00205D000020C4
:108C80000248008A012121EA90107047000002404A
:108C900010B5012007F0C0F800BF00BF00BF00BF43
:108CA00000F052F8002201210420FFF74DFF0020C0
:108CB00007F054F90749087000F088F80649087071
:108CC00000F023F80446FFF71DFF012000F04BF8E9
:108CD000002010BD380000203900002010B500240D
:108CE000002201210620FFF72FFF002007F036F9B0
:108CF00004462402002007F031F904432402002036
:108D000007F02CF90443204610BD10B500240022C2
:108D100001210720FFF718FF002007F01FF9044684
:108D20002402002007F01AF904432402002007F06F
:108D300015F90443204610BD10B504462246012112
:108D40000320FFF701FF10BD10B5002404E0FF2051
:108D500007F004F9601CC4B2042CF8DB00BF00BFAC
:108D600000BF00BF10BD3EB50446012007F054F817
:108D700002A800210A230A46CDE90010084604F0A3
:108D8000FDFE07220021084600F00AF8012000231A
:108D900005221946CDE90004184600F023F83EBD2F
:108DA00070B504460D461646002211460120FFF715
:108DB000CBFE0DB1102100E0002141EA4411C8B200
:108DC00007F0CCF8304607F0C9F870BD10B50022A6
:108DD00001211046FFF7B8FE002007F0BFF8044657
:108DE000204610BD2DE9F04704460D4616461F46A5
:108DF000DDE90889002211460220FFF7A5FE0CB12B
:108E0000202100E000210DB1102200E000221143DA
:108E100041EA060007F0A2F80FB1202100E000218E
:108E2000B8F1000F01D0102200E00022114341EA06
:108E3000090007F093F8BDE8F08721B1826842F09D
:108E40000102826003E0826822F0010282607047C2
:108E50000A460021816821F0F001114381607047CA
:108E60000146886D80B270470246002013680B40AF
:108E70000BB1012000E000207047000030B5024631
:108E8000002000235068104C20400D790C6844EA03
:108E900005242043506090680C4C2040D1E90354D5
:108EA0002C438D682C434D7944EA4504204390605F
:108EB000106B20F0F8700C7D641EE4B2234340EA8E
:108EC0000350106330BD0000FFFEFFFCFDF7FFC044
:108ED0001AB143680B43436002E043688B4343602D
:108EE0007047F0B504460D46002000211D2D11DD10
:108EF000E06DA5F11E0606EB4607072606FA07F108
:108F00008843A5F11E0606EB460603FA06F1084360
:108F1000E06534E0132D11DDE068A5F1140606EBE1
:108F20004607072606FA07F18843A5F1140606EB63
:108F3000460603FA06F10843E06020E0092D11DD42
:108F40002069A5F10A0606EB4607072606FA07F18F
:108F50008843A5F10A0606EB460603FA06F1084324
:108F600020610CE0606905EB4507072606FA07F16A
:108F7000884305EB450603FA06F108436061072ABA
:108F80000FDA206C561E06EB86071F2606FA07F13D
:108F90008843561E06EB860605FA06F10843206450
:108FA0004AE00D2A0FDAE06BD61F06EB86071F2674
:108FB00006FA07F18843D61F06EB860605FA06F186
:108FC0000843E06338E0132A11DAA06BA2F10D0622
:108FD00006EB86071F2606FA07F18843A2F10D0665
:108FE00006EB860605FA06F10843A06324E0192A79
:108FF00011DA606BA2F1130606EB86071F2606FA4C
:1090000007F18843A2F1130606EB860605FA06F17E
:109010000843606310E0206BA2F1190606EB860797
:109020001F2606FA07F18843A2F1190606EB860609
:1090300005FA06F108432063F0BD816841F08041E4
:1090400081607047002101600171417181604FF0C2
:109050004071C1600021016101210175704700006C
:109060008AB0002600F063F900F080FB00F058F9A8
:10907000044677480068B4FBF0F5284604F066FF24
:1090800009A804F039F909AA0121084603F0F0FF04
:109090004FF4806003F0E4FD01F074F801F00CFA85
:1090A0006C49B1F8AE0007F06DF806F0D7FEFFF797
:1090B000EFFD09A80021684A0223CDE90032CDE97D
:1090C00002100A230A4665A1664804F05DFE00BF4F
:1090D00000BFFFF741F8064600BF00BF09A8032103
:1090E00000220592CDE90621089010464021062273
:1090F0005D4BCDE90132CDE90310042000235B4A2A
:109100005BA100905D4804F079F909A803210022D1
:109110000592CDE90621089010464FF400713322E4
:10912000574BCDE90132CDE9031003200023554A06
:1091300055A10090594804F061F909A803210022C3
:109140000592CDE90621089010464FF4807119224E
:10915000534BCDE90132CDE9031005200023514ADC
:1091600051A10090534804F049F909A803210022B5
:109170000592CDE906210890104680210C224E4B25
:10918000CDE90132CDE90310072000234B4A4CA161
:1091900000904F4804F032F909A8032100220592FB
:1091A000CDE906210890104680210C22494BCDE9DB
:1091B0000132CDE9031006200023474A47A1009061
:1091C000494804F01BF909A8032100220592CDE9C2
:1091D00006210890104640210622444BCDE9013279
:1091E000CDE9031009200023414A42A100904448E0
:1091F00004F004F909A8032100220592CDE9062113
:1092000008901046402106223E4BCDE90132CDE9BF
:1092100003100A2000233C4A3CA100903E4804F081
:10922000EDF800BF00BF3046FEF79AFF00BF00BF59
:109230000DE009A800210B460122CDE900100846E7
:1092400004F09CFC3548006A401C34490862F0E791
:10925000EC110108F41C002055110108746D7231E5
:109260000000000018040020D80D002045970008D9
:10927000434C43574454205461736B00100D00203D
:109280001005002035AA0008496E73747275637466
:10929000696F6E205461736B000000004C04002065
:1092A000A00F0020F9F90008504153205461736B5E
:1092B00000000000D80E002030170020D5BA0008AA
:1092C0004D41494E504F574552205461736B000039
:1092D00068160020681400207100010854454D50A4
:1092E000205461736B000000A0130020F8190020C7
:1092F00009AD00084C454430205461736B000000F8
:1093000030190020C01B00204DAD00084C454431F1
:10931000205461736B000000F81A0020541E0020D6
:109320001FB5684606F03AFC019804B010BD10B5B0
:1093300000F0E0F906F006FC012006F0DDFC00BFBD
:10934000312006F0ABFC0028FAD0012000F03AFEF4
:10935000012000F025FE012000F046FE0121080753
:1093600006F0B0FB4FF4006006F08EFB00BF10204B
:1093700006F07EFB0028FAD106F0B2FC002006F0D1
:10938000D5FC002006F0C6FCC0220421012006F016
:10939000DFFC012006F0D6FC00BF392006F07EFC81
:1093A0000028FAD0032006F0DDFC00BF06F090FC98
:1093B0000C28FBD110BD10B5FEF7CAFE10BD000091
:1093C00070B50446002600BF00BFFEF7C5FE064686
:1093D00000BF00BF03F036FD00BF00BF3046FEF700
:1093E000BFFE00BF00BF392C04D2044850F82450FF
:1093F00005B1A84703F03CFD70BD0000EC2600203D
:1094000010B51220FFF7DCFF10BD10B53720FFF7B5
:10941000D7FF10BD10B51620FFF7D2FF10BD10B555
:109420003820FFF7CDFF10BD10B51520FFF7C8FF9E
:1094300010BD10B50B20FFF7C3FF10BD10B50C20F9
:10944000FFF7BEFF10BD10B50D20FFF7B9FF10BD2F
:1094500010B50E20FFF7B4FF10BD10B50F20FFF7B9
:10946000AFFF10BD10B51020FFF7AAFF10BD10B55B
:109470000B20FFF7A5FF10BD10B53220FFF7A0FFAE
:1094800010BD10B53320FFF79BFF10BD10B5342081
:10949000FFF796FF10BD10B53520FFF791FF10BD07
:1094A00010B53620FFF78CFF10BD704710B50620B1
:1094B000FFF786FF10BD10B50720FFF781FF10BD35
:1094C00010B52820FFF77CFF10BD10B50820FFF76E
:1094D00077FF10BD10B50920FFF772FF10BD10B562
:1094E0000A20FFF76DFF10BD10B51720FFF768FFCA
:1094F00010BD10B50420FFF763FF10BD10B520208C
:10950000FFF75EFF10BD10B51F20FFF759FF10BD1C
:1095100010B52220FFF754FF10BD10B52120FFF732
:109520004FFF10BD10B51820FFF74AFF10BD10B552
:109530000120FFF745FF10BD10B50520FFF740FFE4
:1095400010BD10B52920FFF73BFF10BD10B503205B
:10955000FFF736FF10BD10B52D20FFF731FF10BD0E
:1095600010B52320FFF72CFF10BD10B52420FFF706
:1095700027FF10BD10B52F20FFF722FF10BD10B53B
:109580000220FFF71DFF10BD10B51A20FFF718FFCE
:1095900010BD10B51B20FFF713FF10BD10B51C2028
:1095A000FFF70EFF10BD10B51D20FFF709FF10BD1E
:1095B00010B51E20FFF704FF10BD10B52E20FFF7D9
:1095C000FFFE10BD10B52B20FFF7FAFE10BD10B541
:1095D0002C20FFF7F5FE10BD10B51920FFF7F0FEA7
:1095E00010BD10B53020FFF7EBFE10BD10B53120D7
:1095F000FFF7E6FE10BD00002DE9F041294C0026E2
:1096000000BF00BFFEF7A8FD064600BF00BF03F085
:1096100019FC00BF00BF3046FEF7A2FD00BF00BF2F
:109620000120214908700002204908802048008854
:1096300000F0200010B31E4806F073FFC5B21C48AE
:10964000008840F2DF310840194908801948007845
:1096500020BBD4E90001401AB0F5806F08D2208801
:10966000C0F3090104F1080045542068401C206043
:1096700020782179401A0F4948700FE040F22441C8
:109680000B4806F06FFE48B109480088C7B2084889
:10969000001D0088C7B201200649087003F0E8FBEE
:1096A000BDE8F081E42200204D0000201A040240B1
:1096B00000380140E01E002010B52620FFF780FE94
:1096C00010BD10B52720FFF77BFE10BD10B52A2076
:1096D000FFF776FE10BD10B51320FFF771FE10BD29
:1096E00010B51420FFF76CFE10BD10B50020FFF779
:1096F00067FE10BD10B5002404E00449204600F0C8
:1097000007F8641C392CF8D310BD0000AB94000896
:1097100070B504460D460026392C10D200BF00BF9C
:10972000FEF71AFD064600BF00BF054840F824506A
:1097300000BF00BF3046FEF713FD00BF00BF70BD85
:10974000EC2600200EB500BF0CE002A80021322359
:109750000A46CDE90010084604F010FA022102483A
:1097600000F0C3FDF1E700000000024010B500F07A
:109770001FF800F019F810BD10B5002400BF00BF9D
:10978000FEF7EAFC044600BF00BF1021054802F0C6
:10979000D7F900BF00BF2046FEF7E2FC00BF00BFC4
:1097A00010BD0000FC3E002010B5FFF7E5FF10BD26
:1097B00010B500200249086000F00AF810BD000052
:1097C000400100200149086070470000400100206E
:1097D00010B5FFF7A5FD04460848006840F080700A
:1097E000064908600020064948600846006840F0C5
:1097F000010008602046FFF7E5FF10BDFCED00E02A
:10980000001000E00149486870470000001000E0C7
:1098100070B502464FF6FF70002313E012F8015BAB
:10982000684000240AE000F0010525B14AF2010574
:1098300085EA600000E04010651CECB2082CF2DB09
:109840005D1CEBB28B42E9DB70BD0000FEB5064645
:1098500000270024082E00D004270422454946484A
:10986000FEF7B4FC00B104274448007800B905278E
:1098700047B14048001F807820B1384602F0C2FB53
:109880000020FEBD002406E000213D4800EB8400DE
:109890000160601CC4B2052CF6DB002407E0002147
:1098A0003748143000EB84000160601CC4B2052C02
:1098B000F5DB002407E000213148283000EB84006C
:1098C0000160601CC4B2052CF5DB002407E0002118
:1098D0002B483C3000EB84000160601CC4B2052CB6
:1098E000F5DB002407E000212548503000EB840020
:1098F0000160601CC4B2052CF5DB002407E00021E8
:109900001F48643000EB84000160601CC4B2052C69
:10991000F5DB78221A49662000F0F2FA184834384C
:109920000088C0B28DF800001248001FC0788DF882
:10993000010000208DF802001A208DF8030000209D
:109940008DF804003C208DF8050006216846FFF7DD
:109950005FFF0546E8B28DF8060028128DF8070073
:109960000448001F807818B10821684606F0F4FB0F
:10997000012086E7E41E0020400000204C0000206B
:10998000281D002030B504460425680300F038FB8C
:109990000546042D01D100202060284630BD00007E
:1099A00070B504460D460426700300F029FB0646F8
:1099B000042E0AD10648006820F48070044908602B
:1099C0002560700300F01CFB0646304670BD0000A9
:1099D000043C02400348006840F00100014908606F
:1099E00070470000043C02402DE9F04104460D465A
:1099F000042600274FF00008700300F001FB064624
:109A0000042E1CD12DB12570400300F0F9FA064652
:109A100015E024F00308D8F80070A007C10EFF205D
:109A200000FA01F827EA080724F00300FFF7AAFF6D
:109A3000064624F003003946FFF7B2FF06463046DB
:109A4000BDE8F0810548006800F0010028B1044835
:109A5000024908310860034808607047043C02402E
:109A6000EFCDAB890504030210B50023002453E0B9
:109A70005B104148006820F040703F49086008468C
:109A8000006840F080700860081D008820F4805055
:109A9000091D08800846008840F480500880081D91
:109AA000006820F04070091D08600846006840F01A
:109AB00040700860081D006820F04070091D0860B3
:109AC0000846006840F08070086088142A491A31FE
:109AD000088000BF00BF2848006820F04070264979
:109AE000086025480C30006820F0407022490C3195
:109AF00008600846006840F08070086000BF1E489B
:109B00001030008800F4805008B143F080033A2000
:109B100000F0A8F9601CC4B2082CA9DB1648006844
:109B200020F04070144908600846006840F08070DA
:109B30000860081D008820F48050091D0880084630
:109B4000008840F480500880081D006820F04070B4
:109B5000091D08600846006840F040700860081D54
:109B6000006820F04070091D08600846006840F059
:109B700080700860184610BD0004024000B54448DB
:109B8000006820F04070424908600846006840F0D4
:109B900080700860081D008820F48050091D08802E
:109BA0000846008840F480500880081D006820F0B6
:109BB0004070091D08600846006840F04070086069
:109BC000081D006820F04070091D08600846006804
:109BD00040F08070086088142D491A3108804FF4D5
:109BE000F07000F03FF94FF4805029491831088097
:109BF0002748006820F040702549086024480C3050
:109C0000006820F0407022490C3108600846006866
:109C100040F080700860372000F024F91C481030B4
:109C200000880023F02000F01DF91948006820F09A
:109C30004070174908600846006840F0807008606E
:109C4000081D008820F48050091D088008460088FF
:109C500040F480500880081D006820F04070091D05
:109C600008600846006840F040700860081D006801
:109C700020F04070091D08600846006840F08070C0
:109C800008608814024918310880184600BD000099
:109C9000000402402DE9F04F85B00020029000BF83
:109CA00000203D49087003A803F0A8F9FFF766FFFC
:109CB00030B103A803F00EFA384805B0BDE8F08FC4
:109CC000CC2000F073F8BE2000F070F8FFF7CCFE57
:109CD0008246FFF7C9FE8346FFF750FF20B103A875
:109CE00003F0F8F92D48E8E7CC2000F05FF84420B5
:109CF00000F05CF803A803F0EDF92748007850B1B4
:109D000003A800214FF461730A46CDE9001008460C
:109D100003F034FFC4E74AEA0B2404F47840A8B106
:109D2000E043401C84B2C4F30A00FEF7BCFC0746C3
:109D300000221B4BFEF7C8FB0546FEF715FD8146CA
:109D400049460020FEF7A3FA04900EE0C4F30A008F
:109D5000FEF7A9FC05460022114BFEF7B5FB0746AE
:109D6000FEF702FD8146CDF810900E490498FEF7EB
:109D700017FD04D30C490498FEF71CFD0AD203A872
:109D800000214FF461730A46CDE90010084603F044
:109D9000F5FE85E7049890E74D0000200000AAC278
:109DA0000000B03F000020C20000AA4210B50346E8
:109DB0002B48006820F04070294908600846006878
:109DC00040F080700860081D008820F48050091D54
:109DD00008800846008840F480500880081D00680C
:109DE00020F04070091D08600846006840F040708F
:109DF0000860081D006820F04070091D08600846D2
:109E0000006840F080700860002426E003F0010044
:109E100080B14FF4805012491A310880022000F0BE
:109E200021F84FF480500E49183108803A2000F094
:109E300019F80FE04FF4805009491A3108803C208E
:109E400000F010F84FF480500549183108800220C6
:109E500000F008F85B10601CC4B2082CD6DB10BD03
:109E600000040240002100BF01E000BF491C814204
:109E7000FBD370472DE9F04105460C4616464FF0DE
:109E8000000800270C482F18DFF8308000BF00F0D2
:109E90006DF8012804D1B8F10000A8F10108F6D14D
:109EA00003E017F8010B04F8010B301EA6F10101C5
:109EB0008EB2F6D1BDE8F08180020808FFFF0F00E6
:109EC0002DE9F04105460C46174600260B482E1892
:109ED000FFF7B8FD00BF00F049F80128FBD003E010
:109EE00016F8010B04F8010B381EA7F101018FB21F
:109EF000F6D1FFF76FFDBDE8F08100000000080813
:109F00002DE9F04105460C4616460027B84615488F
:109F10002F18FFF797FD00BF00F028F80428FBD1A9
:109F200017E000BF00BFFEF717F9804600BF00BF73
:109F300002210D4800F0D9F914F8011B38467F1CA6
:109F4000FFF752FD00BF00BF4046FEF709F900BF12
:109F500000BF301EA6F101018EB2E2D1FFF73AFD3B
:109F6000BDE8F081800208080000024004200B498F
:109F7000096801F0010109B101200EE007490968F3
:109F800001F4807109B1022007E00449096801F475
:109F9000F05109B1032000E004207047183C024052
:109FA00030B10749096841F00201054A116005E036
:109FB0000349096821F00201014A1160704700005D
:109FC000003C024030B10749096841F00401054AEC
:109FD000116005E00349096821F00401014A11609C
:109FE00070470000003C024001460020034A106810
:109FF00020F001000843106070470000003C024060
:10A0000008B5024604200090FFF7B0FF009003E07F
:10A01000FFF7ACFF0090521E9DF80000012801D10F
:10A02000002AF5D10AB9052000909DF8000008BD6E
:10A030002DE9FE4306460027B8460024082E00D02E
:10A040000427042249494A48FEF7C0F830B10422E7
:10A0500046494848FEF7BAF800B104274648007858
:10A0600000B905272FB1384601F0CCFF0020BDE82C
:10A07000FE833E48001F90F803804048D0F82A40F5
:10A08000A8F14300062844D2DFE800F003161F2899
:10A09000313A3B488461042200F118014A20FFF75D
:10A0A0002FFF3648D0F826003549086304223031A6
:10A0B0006220FFF725FF2DE03148C461042200F142
:10A0C0001C014E20FFF71CFF24E02D4804620422EF
:10A0D00000F120015220FFF713FF1BE028484462E3
:10A0E000042200F124015620FFF70AFF12E0244861
:10A0F0008462042200F128015A20FFF701FF09E0E1
:10A100001F48C462042200F12C015E20FFF7F8FE14
:10A1100000E000BF00BF1A480088C0B28DF8000000
:10A120001248001FC0788DF8010000208DF8020051
:10A130000A208DF8030000208DF8040002208DF81D
:10A14000050006216846FFF763FB0546E8B28DF877
:10A15000060028128DF807000448001F807818B107
:10A160000821684605F0F8FF012080E7E41E002082
:10A1700040000020440000204C000020541E00201D
:10A18000F41C00201CB500240121032005F08AFCEA
:10A190000A20009001208DF8040000208DF80600B0
:10A1A00001208DF807008DF8050069461A4800F077
:10A1B00037F80820184908834FF4407000900120B8
:10A1C0008DF8040000208DF8060001208DF80700AE
:10A1D0008DF805006946114800F022F84FF48070B0
:10A1E0000E49183108800001009001208DF804000C
:10A1F0008DF806008DF807008DF8050069460748C0
:10A2000000F00EF800BF01E000BF641C43F6FF70D1
:10A210008442F9D31CBD000000000240000402404B
:10A22000F0B502460B46002100240025002000BFA7
:10A2300035E0012606FA01F41E6806EA0405A54287
:10A240002CD110684F000326BE40B0431E794F004A
:10A25000BE40304310601E79012E02D01E79022EBE
:10A2600012D190684F000326BE40B0435E794F0084
:10A27000BE4030439060908801268E40B0439E7966
:10A280008E40B6B230439080D0684F000326BE4067
:10A29000B043DE794F00BE403043D060491C1029E6
:10A2A000C7D3F0BDF0B5002300244D07ED0E02FA30
:10A2B00005F3CE1000F1200555F826504E07F70E95
:10A2C0000F26BE40B543CF1000F1200646F82750B8
:10A2D000CE1000F1200555F8265045EA0304CE10B3
:10A2E00000F1200545F82640F0BD828A4A4082826E
:10A2F00070474183704701837047000010B54FF6E7
:10A30000FF740948FEF799FE00BF02210648FEF7D8
:10A31000ABFD20B9201EA4F101018CB2F5D1024899
:10A32000FEF79EFD10BD0000002401402DE9F04F16
:10A3300085B004464FF00009CB46002002908246CB
:10A3400019E000BF00BFFDF707FF029000BF00BF8C
:10A35000FFF7D4FF814400BF00BF0298FDF700FF64
:10A3600000BF00BF04AA0520039903F0A5FB0AF172
:10A37000010000F0FF0AA245E3DBB9FBF4F948460F
:10A38000FEF7A2F9094A0A4BCDE90001FEF79CF855
:10A3900007460022074BFEF709F90546FEF7E4F9E8
:10A3A0008346584605B0BDE8F08F00002592E86569
:10A3B000149F42400000B0401FB500200090019063
:10A3C00002900390102269464FF4C070FFF778FDA9
:10A3D00000240EE0012000EB44001DF800001DF8F1
:10A3E000141040EA0121054800EB44000180601C84
:10A3F000C4B2082CEEDB012004B010BD5C1E0020AE
:10A4000010B588B0012005F07FFC042000900320E7
:10A410008DF8040000208DF8070069462448FFF7F6
:10A42000FFFE4FF6FF7400BF212005F037FC20B976
:10A43000201EA4F101018CB2F6D10121480205F0E1
:10A4400061FB02A8FEF7FEFD002002908DF80C00D3
:10A4500001208DF80D0000200490069001208DF859
:10A460001C0002A91348FEF709FD0723012202215F
:10A470001048FEF736FD10210E48FEF7E9FC0122D8
:10A480004FF440310B48FEF723FD01210948FEF748
:10A49000D4FC4FF6FF7400BF40210648FEF7E4FCF1
:10A4A00020B9201EA4F101018CB2F5D108B010BD75
:10A4B000000002400024014038B500200090002434
:10A4C000022269461620FFF7D5FC02219B48FFF7C0
:10A4D0000CFF9DF80000122879D09DF80100342867
:10A4E000FAD002219548FFF700FF01209449088027
:10A4F0000020488048608860142088814FF40070F4
:10A50000C881904808610020486118223220FFF776
:10A51000F7FC02218948FFF7E8FE00BF0BE004EBDF
:10A5200084014800FEF7B1F88549183101EB840138
:10A530000860601CC4B2062CF1DB834880490863C4
:10A540001C2218314A20FFF7DBFC02217B48FFF771
:10A55000CCFE002407E000217948343000EB840071
:10A560000160601CC4B2052CF5DB002407E000216B
:10A570007348483000EB84000160601CC4B2052CB5
:10A58000F5DB002407E000216D485C3000EB84001F
:10A590000160601CC4B2052CF5DB002407E000213B
:10A5A0006748703000EB84000160601CC4B2052C69
:10A5B000F5DB002407E000216148843000EB8400D3
:10A5C0000160601CC4B2052CF5DB002408E04AE001
:10A5D00000215B48983000EB84000160601CC4B22D
:10A5E000052CF5DB7822564934316620FFF788FCCC
:10A5F00002215248FFF779FE03205149A1F8AC002F
:10A60000A1F8AE000422AC31DE20FFF779FC022174
:10A610004A48FFF76AFE01204C4908704C48808C7C
:10A62000C0B240F480704A49888412208DF800003E
:10A6300034208DF80100022269461620FFF760FCE5
:10A6400002213E48FFF751FE34208DF80000122011
:10A650008DF80100022269462420FFF751FC0221F7
:10A660003648FFF742FE00208DF800008DF801000B
:10A67000022269462420FFF7FDFB9DF800003428E4
:10A680000ED19DF8010012280AD101202F4908702F
:10A690002F48808CC0B240F480702D49888409E036
:10A6A00000202A4908702A48808CC0B240F400700B
:10A6B0002749888402212148FFF717FEB02220494C
:10A6C0003220FFF7D7FB1E48B0F8AC00002805DBAE
:10A6D0001B48B0F8AC00B0F5807F03DD03201849BB
:10A6E000A1F8AC0016480088012803DB1448008854
:10A6F000F72802DD0120124908801148B0F8AE00A9
:10A70000012804DB0E48B0F8AE00072803DD032063
:10A710000B49A1F8AE0040F2C6200D49088040F276
:10A720000340488002210548FFF7DFFDFFF744FEA4
:10A7300002210248FFF7D9FD38BD000000000240A9
:10A74000F41C0020F2D21C410000A0414C0000206B
:10A75000541E002010B5464800880006000C4449ED
:10A76000098840EA11204349088041484088000692
:10A77000000C3F49498840EA11203E4948803C4846
:10A78000006A00063A49096A01F47F4140EA012063
:10A790003749096A01F47F0140EA11203449096A06
:10A7A00040EA1160334908623148808C0006000C91
:10A7B0002F49898C40EA11202E4988842C49D1F8F0
:10A7C0003E0005F020FF2B49C1F83E002849D1F892
:10A7D000260005F018FF2749C1F826002449D1F8C2
:10A7E0003A0005F010FF2349C1F83A002049D1F89A
:10A7F0002A0005F008FF1F49C1F82A001C49D1F8BA
:10A800002E0005F000FF1B49C1F82E00002414E0C3
:10A810001748083000EB440000880006010C14487B
:10A82000083000EB4400008841EA1021114808304C
:10A8300000EB44000180601CC4B2082CE8DB0C492A
:10A84000D1F8360005F0DFFE0A49C1F836000849A4
:10A85000D1F8320005F0D7FE0649C1F832000449AC
:10A86000D1F8420005F0CFFE0249C1F8420010BD08
:10A87000541E00209A1E002010B504466A488078B5
:10A880006A49098888426ED16748C07844285BD0FD
:10A8900010DC092839D006DC03281CD004281ED07F
:10A8A000062872D126E0102833D041283CD0432816
:10A8B0006BD148E048284BD006DC452845D04628D7
:10A8C00044D0472861D142E049284DD0662836D08F
:10A8D00068285AD14CE0E0B201F080FA59E0E0B2C9
:10A8E00001F0E8F95248808C00F47F40801C504908
:10A8F00088844EE0E0B201F0ADFC4D48808C00F45D
:10A900007F40C01C4A49888443E0204605F036FA5F
:10A910003FE0E0B201F0BAFD4548808C00F47F4092
:10A92000001D4349888434E0E0B201F08FFB4048C9
:10A93000808C00F47F40401D3D49888429E0E0B2CE
:10A9400001F0ECFB25E000BF00BF00BF00BF00BF6F
:10A95000E0B2FFF76DFB3648808C00F47F40C01DED
:10A960003349888415E015E0E0B2FEF76FFF10E090
:10A97000E0B201F01FF92E48808C00F47F4040F0D7
:10A9800009002B49888404E0FFE7012001F03AFB2D
:10A9900000BF48E024488078B0BB2348C0784628F0
:10A9A00025D008DC41280FD043281DD044281CD0D6
:10A9B000452836D11AE047281AD0482819D06628E9
:10A9C0000ED068282DD120E0E0B201F03FFB1848FE
:10A9D000808C00F47F4040F011001549888421E00C
:10A9E000E0B201F09BFB1DE000BF00BF00BF00BF55
:10A9F00000BFE0B2FFF71CFB0D48808C00F47F40E5
:10AA0000C01D0B4988840DE00DE0E0B201F0D2F8E2
:10AA10000748808C00F47F4040F01300044988848C
:10AA200000E000BF00BF10BDE01E0020F41C0020AD
:10AA3000541E00200EB5002700BF20203B4908808F
:10AA400072E03B480078002865D000BF00BFFDF7EA
:10AA500083FB074600BF00BF002240F22551354866
:10AA600005F0AAFC002240F22441324805F0A4FC83
:10AA7000002507E005F028FCC1B22D48801C415597
:10AA8000681CC5B22A484078A842F3DC28484478BC
:10AA900005F00AFC002026494870087000BF00BF7E
:10AAA0003846FDF75DFB00BF00BFA01EC1B22048C5
:10AAB000801CFEF7ADFE0646A01E1D49891C0A5CDF
:10AAC000601E085C42EA0020B04207D0601E085CAD
:10AAD000FF2806D1A01E085CFF2802D12046FFF700
:10AAE000CBFE05F0E1FB00201149487008704021C1
:10AAF000104805F015FC0F480688001D0688012245
:10AB000040F22551001F05F057FC012240F224417C
:10AB1000084805F051FC02A800210A230A46CDE9A5
:10AB20000010084603F02AF88BE700001A040240E0
:10AB3000E01E00200038014010B571480088000672
:10AB4000000C6F49098840EA11206E4908806C4862
:10AB500040880006000C6A49498840EA112069498A
:10AB600048806749486805F04EFD66494860644979
:10AB7000886805F048FD634988606148808900065F
:10AB8000000C5F49898940EA11205E4988815C4850
:10AB9000C0890006000C5A49C98940EA1120594968
:10ABA000C8815749086905F02EFD56490861544986
:10ABB000486905F028FD5349486100240EE05049DA
:10ABC000183101EB8401086805F01DFD01464D4870
:10ABD000183000EB84000160601CC4B2062CEEDB70
:10ABE0004749086B05F00FFD4649086300240DE056
:10ABF0004349343101EB8401086805F004FD414903
:10AC0000343101EB84010860601CC4B2052CEFDB19
:10AC100000240DE03A49483101EB8401086805F051
:10AC2000F2FC3849483101EB84010860601CC4B271
:10AC3000052CEFDB00240EE031495C3101EB84018F
:10AC4000086805F0E0FC01462E485C3000EB84000B
:10AC50000160601CC4B2052CEEDB00240EE0284924
:10AC6000703101EB8401086805F0CDFC01462548F0
:10AC7000703000EB84000160601CC4B2052CEEDB78
:10AC800000240DE01E49843101EB8401086805F0C1
:10AC9000BAFC1C49843101EB84010860601CC4B219
:10ACA000052CEFDB00240DE01549983101EB840100
:10ACB000086805F0A8FC1349983101EB840108608D
:10ACC000601CC4B2052CEFDB0D48B0F8AC000006E8
:10ACD000000C0B49B1F8AC1040EA11200949A1F869
:10ACE000AC000748B0F8AE000006000C0449B1F80B
:10ACF000AE1040EA11200349A1F8AE0010BD0000DB
:10AD0000F41C0020A41D00200EB500BF1BE04FF472
:10AD100000700D49088002A8002128230A46CDE9C9
:10AD20000010084602F02AFF4FF400700649891E01
:10AD3000088002A800214FF4BE730122CDE9001063
:10AD4000084602F01BFFE2E71A0402400EB500BFFE
:10AD50000CE04FF480700649088002A800216423AB
:10AD60000A46CDE90010084602F008FFF1E70000AE
:10AD70001804024003B5FBB0182173A8FDF71BFAB5
:10AD800018216DA8FDF717FA00206C906B906A905F
:10AD900000BF28215EA8FDF70EFA282154A8FDF770
:10ADA0000AFA28214AA8FDF706FA282140A8FDF74B
:10ADB00002FA282136A8FDF7FEF928212CA8FDF774
:10ADC000FAF9302120A8FDF7F6F900BF00BF0020F6
:10ADD0001A901B90202112A8FDF7EDF9FE48C089BA
:10ADE00000F47060B0F5807F04D10021FB48CDE90C
:10ADF0001A102FE0F848C08900F47060B0F5007FA9
:10AE000005D14FF03331F648CDE91A1022E0F2486F
:10AE1000C08900F47060B0F5407F04D1F149F24878
:10AE2000CDE91A1016E0EC48C08900F47060B0F566
:10AE3000806F04D1ED49EE48CDE91A100AE0E648EA
:10AE4000C08900F47060B0F5A06F03D1E949EA4809
:10AE5000CDE91A10002079901CE0DF4880890D9020
:10AE6000FDF71CFC0F907998FDF718FC0E900F99D8
:10AE7000FDF713FAE1491090FDF70FFAE049119040
:10AE8000FDF73DFA73AA799942F821007998401CA0
:10AE9000C0B2799079980628DFDB7C98FDF721FC19
:10AEA00069916890DDE91A01CDE91C017B986A90EF
:10AEB000C948C069014611906A98FDF771FC29D212
:10AEC000C54880690E90C448C0690D900E99FDF781
:10AED000DEF9109073980C9074980B900C99FDF714
:10AEE000D6F90E90BC48806901460C906A98FDF72F
:10AEF000CEF90D900E99FDF7D0F90F901099FDF74E
:10AF0000FEF911907398014610901198FDF76DF9B4
:10AF10006B90BEE0B048006A014611906A98FDF758
:10AF20003FFC29D2AC48C0690E90AB48006A0D9036
:10AF30000E99FDF7ACF9109074980C9075980B90E1
:10AF40000C99FDF7A4F90E90A348C06901460C9036
:10AF50006A98FDF79CF90D900E99FDF79EF90F90F8
:10AF60001099FDF7CCF91190749801461090119842
:10AF7000FDF73BF96B908CE09748406A01461190D1
:10AF80006A98FDF70DFC29D29348006A0E9092480A
:10AF9000406A0D900E99FDF77AF9109075980C9013
:10AFA00076980B900C99FDF772F90E908A48006A1A
:10AFB00001460C906A98FDF76AF90D900E99FDF71D
:10AFC0006CF90F901099FDF79AF911907598014658
:10AFD00010901198FDF709F96B905AE07E48806A4D
:10AFE000014611906A98FDF7DBFB29D27A48406A46
:10AFF0000E907948806A0D900E99FDF748F91090EF
:10B0000076980C9077980B900C99FDF740F90E907C
:10B010007148406A01460C906A98FDF738F90D9026
:10B020000E99FDF73AF90F901099FDF768F9119014
:10B030007698014610901198FDF7D7F86B9028E0AC
:10B040006548806A0E906448C06A0D900E99FDF7BD
:10B050001EF9109077980C9078980B900C99FDF74A
:10B0600016F90E905C48806A01460C906A98FDF7CC
:10B070000EF90D900E99FDF710F90F901099FDF74C
:10B080003EF911907798014610901198FDF7ADF8B0
:10B090006B90514800690790FDF723FB0022594B44
:10B0A000CDE90A01DDE91A01FDF70EFACDE9080143
:10B0B000DDE90A23FDF708FACDE90E016B98FDF7EB
:10B0C00010FBCDE90C01DDE90E23FDF76FFACDE9A8
:10B0D0001001FDF749FB6C9048496C98FDF7DDF8CD
:10B0E0006C9049496C98C1F832003B4880681190D7
:10B0F0000846D0F8320010901199FDF7C8F842497F
:10B10000C1F83600344800690790FDF7EAFA0022DA
:10B110003C4BCDE90A01DDE91C01FDF7D5F9CDE98C
:10B120000801DDE90A23FDF7CFF9CDE90E016B989F
:10B13000FDF7D7FACDE90C01DDE90E23FDF736FA6C
:10B14000CDE91001FDF710FB6C902C496C98FDF7D0
:10B15000A4F86C900020799025E01F4800690990C0
:10B16000FDF7BFFACDE90A01DDE91C23FDF7ACF9D3
:10B17000CDE90E0173A9799851F820000B90FDF7E5
:10B18000B0FACDE90C01DDE90E23FDF70FFACDE9A8
:10B190001001FDF7E9FA6DAA799942F82100799832
:10B1A000401CC0B2799079980628D6DB00207990AF
:10B1B00033E009483430799900EB810000680F9042
:10B1C000FDF78FFA00220F4BCDE91001FDF7EEF9E4
:10B1D0005EAB799A1AE00000F41C00200000F03FFA
:10B1E0003333F13FF0A7C64B3789F13F736891EDD8
:10B1F0007C3FF13F713D0AD7A370F13F00007A44D4
:10B200000000A04000408F40541E002003EBC2020B
:10B2100003C27998401CC0B2799079980528C8DBA0
:10B220000020799016E0FE48799900EB81000068D3
:10B230000F90FDF756FA0022FA4BCDE91001FDF709
:10B24000B5F954AB799A03EBC20203C27998401C5A
:10B25000C0B2799079980528E5DB0020799017E055
:10B26000EF481430799900EB810000680F90FDF7EA
:10B2700038FA0022EB4BCDE91001FDF797F94AAB04
:10B28000799A03EBC20203C27998401CC0B279904C
:10B2900079980528E4DB0020799017E0E048283011
:10B2A000799900EB810000680F90FDF71AFA0022EF
:10B2B000DC4BCDE91001FDF779F940AB799A03EB4E
:10B2C000C20203C27998401CC0B2799079980528CF
:10B2D000E4DB0020799017E0D1483C30799900EB0D
:10B2E000810000680F90FDF7FCF90022CD4BCDE9FD
:10B2F0001001FDF75BF936AB799A03EBC20203C28A
:10B300007998401CC0B2799079980528E4DB002038
:10B31000799017E0C2485030799900EB81000068BD
:10B320000F90FDF7DEF90022BE4BCDE91001FDF7CD
:10B330003DF92CAB799A03EBC20203C27998401C09
:10B34000C0B2799079980528E4DB61996098CDE9DD
:10B350000A01699B689AFDF7B7F8CDE90E01639978
:10B360006298CDE90401699B689AFDF7ADF8CDE9D3
:10B370000601699B689AFDF7A7F80022AA4BCDE960
:10B380000A016999689805F0D3F9CDE90201659938
:10B390006498CDE90001DDE90223FDF795F800226C
:10B3A000A24BCDE906016999689805F0C1F9CDE98C
:10B3B000020167996698CDE90001DDE90223FDF7F6
:10B3C00083F8CDE90401DDE90623FCF7D6FFCDE9DA
:10B3D0000801DDE90A23FCF7D0FFCDE90C01DDE926
:10B3E0000E23FCF7CAFFCDE910015F995E98CDE905
:10B3F0000E01DDE91023FCF7C0FFCDE920015799CC
:10B400005698CDE90A01699B689AFDF75DF8CDE988
:10B410000E0159995898CDE90401699B689AFDF786
:10B4200053F8CDE90601699B689AFDF74DF80022B3
:10B430007D4BCDE90A016999689805F079F9CDE964
:10B4400002015B995A98CDE90001DDE90223FDF77D
:10B450003BF80022754BCDE906016999689805F023
:10B4600067F9CDE902015D995C98CDE90001DDE95C
:10B470000223FDF729F8CDE90401DDE90623FCF7F5
:10B480007CFFCDE90801DDE90A23FCF776FFCDE971
:10B490000C01DDE90E23FCF770FFCDE91001559991
:10B4A0005498CDE90E01DDE91023FCF766FFCDE9E4
:10B4B00022014D994C98CDE90A01699B689AFDF7E4
:10B4C00003F8CDE90E014F994E98CDE90401699B2F
:10B4D000689AFCF7F9FFCDE90601699B689AFCF7C9
:10B4E000F3FF0022504BCDE90A016999689805F0F5
:10B4F0001FF9CDE9020151995098CDE90001DDE92C
:10B500000223FCF7E1FF0022484BCDE906016999CF
:10B51000689805F00DF9CDE9020153995298CDE9EB
:10B520000001DDE90223FCF7CFFFCDE90401DDE9ED
:10B530000623FCF722FFCDE90801DDE90A23FCF729
:10B540001CFFCDE90C01DDE90E23FCF716FFCDE968
:10B5500010014B994A98CDE90E01DDE91023FCF763
:10B560000CFFCDE9240143994298CDE90A01699B7A
:10B57000689AFCF7A9FFCDE90E0145994498CDE9F9
:10B580000401699B689AFCF79FFFCDE90601699B5E
:10B59000689AFCF799FF0022234BCDE90A016999CB
:10B5A000689805F0C5F8CDE9020147994698CDE9BC
:10B5B0000001DDE90223FCF787FF00221B4BCDE9E8
:10B5C00006016999689805F0B3F8CDE90201499937
:10B5D0004898CDE90001DDE90223FCF775FFCDE9CC
:10B5E0000401DDE90623FCF7C8FECDE90801DDE929
:10B5F0000A23FCF7C2FECDE90C01DDE90E23FCF7BE
:10B60000BCFECDE9100141994098CDE90E01DDE97C
:10B610001023FCF7B2FECDE92601DDE9380107E091
:10B620003C1D002000408F400000084000001040FA
:10B63000CDE90A01699B689AFCF746FFCDE90E0146
:10B64000DDE93A01CDE90401699B689AFCF73CFF0A
:10B65000CDE90601699B689AFCF736FF0022FE4B94
:10B66000CDE90A016999689805F062F8CDE902010F
:10B67000DDE93C01CDE90001DDE90223FCF724FF0F
:10B680000022F64BCDE906016999689805F050F85B
:10B69000CDE90201DDE93E01CDE90001DDE902234A
:10B6A000FCF712FFCDE90401DDE90623FCF765FE96
:10B6B000CDE90801DDE90A23FCF75FFECDE90C01C5
:10B6C000DDE90E23FCF759FECDE91001DDE9360175
:10B6D000CDE90E01DDE91023FCF74FFECDE928018D
:10B6E000DDE92E01CDE90A01699B689AFCF7ECFEC1
:10B6F000CDE90E01DDE93001CDE90401699B689ACD
:10B70000FCF7E2FECDE90601699B689AFCF7DCFED6
:10B710000022D14BCDE90A016999689805F008F833
:10B72000CDE90201DDE93201CDE90001DDE90223C5
:10B73000FCF7CAFE0022C94BCDE906016999689859
:10B7400004F0F6FFCDE90201DDE93401CDE90001A5
:10B75000DDE90223FCF7B8FECDE90401DDE90623AB
:10B76000FCF70BFECDE90801DDE90A23FCF705FE35
:10B77000CDE90C01DDE90E23FCF7FFFDCDE9100159
:10B78000DDE92C01CDE90E01DDE91023FCF7F5FD23
:10B79000CDE92A010020799020E0B14800690D90A0
:10B7A000FCF79FFFCDE90E01DDE91C23FCF78CFEC1
:10B7B000CDE9100120A9799801EBC00103C9CDE9B9
:10B7C0000E01DDE91023FCF7F1FE20AB799A03EBC3
:10B7D000C20203C27998401CC0B2799079980628B9
:10B7E000DBDB9F48C069014611906A98FCF7D8FFDF
:10B7F0003BD26D980A906E9809900A99FCF747FD24
:10B800000B90FCF76EFFCDE90E01DDE92001CDE9DB
:10B810000601DDE92201CDE90401DDE90623FCF79B
:10B820004DFECDE90A016D98014606906C98FCF733
:10B830002EFD0790FCF755FFCDE90801DDE90A234D
:10B84000FCF742FECDE90C01DDE90E23FCF7AEFE6C
:10B85000CDE91001DDE92001CDE90E01DDE910237C
:10B86000FCF78BFDCDE91E010EE17D48006A014623
:10B8700011906A98FCF794FF3BD26E980A906F98EB
:10B8800009900A99FCF703FD0B90FCF72AFFCDE91C
:10B890000E01DDE92201CDE90601DDE92401CDE952
:10B8A0000401DDE90623FCF709FECDE90A016E98E3
:10B8B000014606906C98FCF7EAFC0790FCF711FF34
:10B8C000CDE90801DDE90A23FCF7FEFDCDE90C0115
:10B8D000DDE90E23FCF76AFECDE91001DDE9220166
:10B8E000CDE90E01DDE91023FCF747FDCDE91E018E
:10B8F000CAE05B48406A014611906A98FCF750FF25
:10B900003BD26F980A90709809900A99FCF7BFFC97
:10B910000B90FCF7E6FECDE90E01DDE92401CDE94F
:10B920000601DDE92601CDE90401DDE90623FCF786
:10B93000C5FDCDE90A016F98014606906C98FCF7A9
:10B94000A6FC0790FCF7CDFECDE90801DDE90A234E
:10B95000FCF7BAFDCDE90C01DDE90E23FCF726FE6C
:10B96000CDE91001DDE92401CDE90E01DDE9102367
:10B97000FCF703FDCDE91E0186E03948806A0146E7
:10B9800011906A98FCF70CFF3BD270980A9071985E
:10B9900009900A99FCF77BFC0B90FCF7A2FECDE91D
:10B9A0000E01DDE92601CDE90601DDE92801CDE939
:10B9B0000401DDE90623FCF781FDCDE90A01709859
:10B9C000014606906C98FCF762FC0790FCF789FE34
:10B9D000CDE90801DDE90A23FCF776FDCDE90C018C
:10B9E000DDE90E23FCF7E2FDCDE91001DDE92601DA
:10B9F000CDE90E01DDE91023FCF7BFFCCDE91E0106
:10BA000042E071980A90729809900A99FCF73FFCFD
:10BA10000B90FCF766FECDE90E01DDE92801CDE9CA
:10BA20000601DDE92A01CDE90401DDE90623FCF781
:10BA300045FDCDE90A017198014606906C98FCF726
:10BA400026FC0790FCF74DFECDE90801DDE90A234D
:10BA5000FCF73AFD06E0000000000840000010403E
:10BA6000F41C0020CDE90C01DDE90E23FCF79EFD5E
:10BA7000CDE91001DDE92801CDE90E01DDE9102352
:10BA8000FCF77BFCCDE91E016C98FCF72AFECDE9A2
:10BA90000E01DDE91E23FCF711FDCDE91001FCF7D5
:10BAA00063FE6C9009496B98C1F82E006C98C1F840
:10BAB0003A0007484068014611906C98FCF7E7FB94
:10BAC0000249C1F83E007DB000BD0000541E0020B8
:10BAD000F41C00200EB500BF02A800210B46012275
:10BAE000CDE90010084602F049F823E00020124991
:10BAF00008701248808C00F47F4040F022000F490B
:10BB00008884FEF77DFC0520FEF710FC0B49C1F888
:10BB10004200002004F0F8F800214FF4007003F018
:10BB2000F1FF02A800210B460222CDE900100846D1
:10BB300002F024F8DAE7000022000020541E002062
:10BB400030B505460C4622460021284600F001F893
:10BB500030BD2DE9F04103460C4617460FB9BDE84C
:10BB6000F08103B9FBE70025002202E02D02254306
:10BB7000521C042AFAD3384603F0030C1946BCF1D0
:10BB8000000F08D0624603E001F8014B401E521C32
:10BB900008B1042AF8D30E4601E020C6001F04288D
:10BBA000FBD2314602E001F8014B401E0028FAD1D9
:10BBB00000BFD4E770B5C0B005460026082D00D000
:10BBC0000426042235493648FCF700FB00B1042660
:10BBD0003448007800B905264EB13048001F8078FF
:10BBE00028B1304600F00EFA002040B070BDFEF7DC
:10BBF000A3FF2D480088C0B28DF800002748001F21
:10BC0000C0788DF8010000208DF802008DF8030047
:10BC10008DF8040058208DF80500B0208DF806003E
:10BC2000B02222490DF10700FCF7ACFAB7216846B3
:10BC3000FDF7EEFD0446E0B28DF8B70020128DF856
:10BC4000B8000120184908800020486088604FF43F
:10BC50000070C8811648086100204880142088813F
:10BC60000320A1F8AC00A1F8AE0014223220FEF7A8
:10BC700047F902220C49AC31DE20FEF741F90748B2
:10BC8000001F807818B1B921684604F065FA0649AA
:10BC9000B1F8AE0004F076FA0120A6E7E41E002019
:10BCA0003C0000204C000020F41C0020A41D0020BB
:10BCB000F2D21C412DE9F04FC1B081464FF0000A8D
:10BCC00043484179007941EA00244148C1798079AB
:10BCD00041EA002804EB0800401E85B24FF0230B18
:10BCE0004FF6FF7000EA4806B9F1080F01D04FF097
:10BCF000040AB8F1000F01D14FF0020A112C0FD045
:10BD0000142C0DD0162C0BD0182C09D01A2C07D0BF
:10BD10001C2C05D01E2C03D0202C01D0222C01D1AC
:10BD20004FF0020A102D0FD0132D0DD0152D0BD072
:10BD3000172D09D0192D07D01B2D05D01D2D03D08F
:10BD40001F2D01D0212D01D14FF0020AABF10100CE
:10BD5000A84201DA4FF0020AABF10100A04201DA79
:10BD60004FF0020ABAF1000F06D0504600F04AF92F
:10BD7000002041B0BDE8F08FFEF7ECFC15480088CC
:10BD8000C0B28DF804001248C0788DF80500F0B2FA
:10BD90008DF80600104800EB440132460DF1070013
:10BDA000FCF7F0F9F01CC1B201A8FDF731FD074620
:10BDB00001AAF01C17543912301D11540448807820
:10BDC00020B1701D81B201A804F0C6F90120D0E7AE
:10BDD000E01E0020F41C00209A1E00202DE9F04FE8
:10BDE000C1B081464FF0000A83484179007941EAA9
:10BDF00000248148C179807941EA002804EB0800D9
:10BE0000401E85B24FF0580B4FF6FF7000EA48060F
:10BE1000B9F1080F01D04FF0040AB8F1000F01D1B9
:10BE20004FF0020A032C4FD0052C4DD0092C4BD0DB
:10BE30000B2C49D00D2C47D00F2C45D0112C43D0C2
:10BE4000132C41D0152C3FD0172C3DD0192C3BD0B2
:10BE50001B2C39D01D2C37D01F2C35D0212C33D0A2
:10BE6000232C31D0252C2FD0272C2DD0292C2BD092
:10BE70002B2C29D02D2C27D02F2C25D0312C23D082
:10BE8000332C21D0352C1FD0372C1DD0392C1BD072
:10BE90003B2C19D03D2C17D03F2C15D0412C13D062
:10BEA000432C11D0452C0FD0472C0DD0492C0BD052
:10BEB0004B2C09D04D2C07D04F2C05D0512C03D042
:10BEC000532C01D0552C01D14FF0020A022D4FD036
:10BED000042D4DD0082D4BD00A2D49D00C2D47D024
:10BEE0000E2D45D0102D43D0122D41D0142D3FD012
:10BEF000162D3DD0182D3BD01A2D39D01C2D37D002
:10BF00001E2D35D0202D33D0222D31D0242D2FD0F1
:10BF1000262D2DD0282D2BD02A2D29D02C2D27D0E1
:10BF20002E2D25D0302D23D0322D21D0342D1FD0D1
:10BF3000362D1DD0382D1BD03A2D19D03C2D17D0C1
:10BF40003E2D15D0402D13D0422D11D0442D0FD0B1
:10BF5000462D0DD0482D0BD04A2D09D04C2D07D0A1
:10BF60004E2D05D0502D03D0522D01D0542D01D18E
:10BF70004FF0020AABF10100A84201DA4FF0020AC9
:10BF8000ABF10100A04201DA4FF0020ABAF1000F52
:10BF900006D0504600F036F8002041B0BDE8F08FE2
:10BFA000FEF7CAFD15480088C0B28DF8040012489B
:10BFB000C0788DF80500F0B28DF80600104800EB4F
:10BFC000440132460DF10700FCF7DCF8F01CC1B269
:10BFD00001A8FDF71DFC074601AAF01C17543912F1
:10BFE000301D11540448807820B1701D81B201A821
:10BFF00004F0B2F80120D0E7E01E0020F41C00207D
:10C00000A41D00207CB50446DCB10E480088C0B2F7
:10C010008DF800000C48C07840F080008DF80100D9
:10C020008DF8024003216846FDF7F2FB0546E8B2B1
:10C030008DF8030028128DF804000521684604F0ED
:10C040008BF87CBDF41C0020E01E0020FEB50546E8
:10C050000026082D00D0042604222C492C48FCF789
:10C06000B5F800B1042646B12848001F807820B1F9
:10C070003046FFF7C7FF0020FEBD2648D0F832004B
:10C08000254988602348D0F83A0048602148D0F814
:10C09000260008630422091D3620FDF731FF042223
:10C0A0001D4908313A20FDF72BFF04221A4930318F
:10C0B0006220FDF725FF18480088C0B28DF8000007
:10C0C0001248001FC0788DF8010000208DF8020092
:10C0D00002208DF8030000208DF8040004208DF864
:10C0E000050006216846FDF793FB0446E0B28DF893
:10C0F000060020128DF807000448001F807818B150
:10C100000821684604F028F80120B5E7E41E002065
:10C1100040000020541E0020F41C0020FEB50546FF
:10C1200000260327082D00D0042604224349444852
:10C13000FCF74CF808B9012708E004223F494148C0
:10C14000FCF744F808B9022700E0042646B13B4852
:10C15000001F807820B13046FFF754FF0020FEBD5D
:10C16000012F2BD101203849087034208DF80000B0
:10C1700012208DF80100022269462420FDF7C0FE3E
:10C180003248808CC0B240F4807030498884304896
:10C190000088C0B28DF800002848001FC0788DF8D4
:10C1A000010040208DF8020060208DF803008020FF
:10C1B0008DF80400A0208DF805002AE0022F28D178
:10C1C0000020214908708DF800008DF8010002223E
:10C1D00069462420FDF794FE1C48808CC0B240F4D0
:10C1E00000701A4988841A480088C0B28DF800008F
:10C1F0001248001FC0788DF8010044208DF802001D
:10C2000066208DF8030088208DF80400AA208DF8A0
:10C21000050006216846FDF7FBFA0446E0B28DF8FA
:10C22000060020128DF807000448001F807818B11E
:10C230000821684603F090FF012090E7E41E0020EB
:10C2400048000020400000204C000020541E002028
:10C25000F41C00202DE9FF4106460027B846884817
:10C260004179007941EA00248548C179807941EA21
:10C2700000200090082E06D00420FFF7C3FE002007
:10C2800004B0BDE8F08174B1012C0CD0062C0AD0AA
:10C29000072C08D0562C06D0572C04D00220FFF7CC
:10C2A000B1FE0020ECE7092C01DD4FF001087548D4
:10C2B000007838B9B8F1010F04D10520FFF7A2FECC
:10C2C0000020DDE7072C4AD005DC4CB1012C1DD045
:10C2D000062C75D124E0562C74D0572CF9D18AE065
:10C2E000BDF8000018B1BDF80000F72804DD0320F8
:10C2F000FFF788FE0020C3E7BDF800006249088010
:10C30000022269463220FDF7FBFD91E0BDF80000F6
:10C310005D494880022269463420FDF7F1FD87E03F
:10C32000BDF80000072807D0BDF80000142803D08E
:10C33000BDF80000642801D1012000E0002020B9F0
:10C340000320FFF75FFE00209AE7BDF800004E498A
:10C350008881022269463E20FDF7D2FD68E0BDF8E3
:10C3600000000121B1EB202F17D0BDF80000022101
:10C37000B1EB202F11D0BDF800000321B1EB202F2D
:10C380000BD0BDF800000421B1EB202F05D0BDF883
:10C3900000000521B1EB202F01D1012000E0002099
:10C3A00020B90320FFF72EFE002069E7BDF800004A
:10C3B0003549C881022269464020FDF7A1FD37E0DA
:10C3C00031E0FFE7BDF80000002804DBBDF8000005
:10C3D000B0F5807F04DD0320FFF714FE00204FE757
:10C3E000BDF800002849A1F8AC0002226946DE2011
:10C3F000FDF786FD1CE0BDF80000012803DBBDF859
:10C400000000072804DD0320FFF7FCFD002037E7CC
:10C41000BDF800001C49A1F8AE0002226946E020E8
:10C42000FDF76EFD04E00320FFF7ECFD002027E799
:10C4300000BF27B13846FFF7E5FD002020E712488E
:10C440000088C0B28DF804000D48C0788DF8050052
:10C450000B484068CDF80600062101A8FDF7D8F981
:10C460000546E8B28DF80A0028128DF80B00044842
:10C47000807818B1082101A803F06EFE0120FFE6C4
:10C48000E01E00204C000020F41C00202DE9F04F9D
:10C4900089B082464FF0000800200490FE484179A0
:10C4A000007941EA0024FC48C179807941EA0027FB
:10C4B000F94890F80890E019401E85B24FF0580BEB
:10C4C000F548007A0390F5480290039809308245B8
:10C4D00001D04FF00408B9EB470F01D04FF004082A
:10C4E00017B1B9F1000F01D14FF00208032C4FD062
:10C4F000052C4DD0092C4BD00B2C49D00D2C47D0FE
:10C500000F2C45D0112C43D0132C41D0152C3FD0EB
:10C51000172C3DD0192C3BD01B2C39D01D2C37D0DB
:10C520001F2C35D0212C33D0232C31D0252C2FD0CB
:10C53000272C2DD0292C2BD02B2C29D02D2C27D0BB
:10C540002F2C25D0312C23D0332C21D0352C1FD0AB
:10C55000372C1DD0392C1BD03B2C19D03D2C17D09B
:10C560003F2C15D0412C13D0432C11D0452C0FD08B
:10C57000472C0DD0492C0BD04B2C09D04D2C07D07B
:10C580004F2C05D0512C03D0532C01D0552C01D168
:10C590004FF00208022D4FD0042D4DD0082D4BD066
:10C5A0000A2D49D00C2D47D00E2D45D0102D43D04B
:10C5B000122D41D0142D3FD0162D3DD0182D3BD03B
:10C5C0001A2D39D01C2D37D01E2D35D0202D33D02B
:10C5D000222D31D0242D2FD0262D2DD0282D2BD01B
:10C5E0002A2D29D02C2D27D02E2D25D0302D23D00B
:10C5F000322D21D0342D1FD0362D1DD0382D1BD0FB
:10C600003A2D19D03C2D17D03E2D15D0402D13D0EA
:10C61000422D11D0442D0FD0462D0DD0482D0BD0DA
:10C620004A2D09D04C2D07D04E2D05D0502D03D0CA
:10C63000522D01D0542D01D14FF00208ABF1010071
:10C64000A84201DA4FF00208ABF10100A04201DA82
:10C650004FF00208092D01DD01200490092C01DDB5
:10C66000012004908E48007820B90498012801D157
:10C670004FF00508B8F1000F06D04046FFF7C2FCA6
:10C68000002009B0BDE8F08FB02286498348FBF74F
:10C6900079FD824901EB44004A467F490931FBF7A5
:10C6A00071FD4FF000084CB97C4800880006000C72
:10C6B0007A49098840EA112078490880012C0BDC6E
:10C6C000012D09DB754840880006000C7349498834
:10C6D00040EA112071494880022C07DC032D05DB5C
:10C6E0006E49486803F08FFF6C494860042C07DCF2
:10C6F000052D05DB6949886803F085FF6749886077
:10C70000062C0BDC062D09DB644880890006000C32
:10C710006249898940EA112060498881072C0BDC35
:10C72000072D09DB5D48C0890006000C5B49C989FB
:10C7300040EA11205949C881082C07DC092D05DB86
:10C740005649086903F05FFF544908610A2C07DC69
:10C750000B2D05DB5149486903F055FF4F494861EE
:10C760000C2C07DC0D2D05DB4C49886903F04BFFD1
:10C770004A4988610E2C07DC0F2D05DB4749C86943
:10C7800003F041FF4549C861102C07DC112D05DB82
:10C790004249086A03F037FF40490862122C07DC5F
:10C7A000132D05DB3D49486A03F02DFF3B494862E4
:10C7B000142C07DC152D05DB3849886A03F023FFAC
:10C7C00036498862162C07DC172D05DB3349C86A09
:10C7D00003F019FF3149C862182C07DC192D05DB5D
:10C7E0002E49086B03F00FFF2C4908631A2C07DC55
:10C7F0001B2D05DB2949486B03F005FF27494863DA
:10C800001C2C07DC1D2D05DB2449886B03F0FBFE87
:10C81000224988631E2C07DC1F2D05DB1F49C86BCE
:10C8200003F0F1FE1D49C863202C07DC212D05DB38
:10C830001A49086C03F0E7FE18490864222C07DC4B
:10C84000232D05DB1549486C03F0DDFE13494864D0
:10C85000242C07DC252D05DB1049886C03F0D3FE62
:10C860000E498864262C07DC272D05DB0B49C86C94
:10C8700003F0C9FE0949C864282C07DC292D05DB13
:10C880000649086D03F0BFFE044908652A2C10DC38
:10C890002B2D0EDB014907E0E01E0020A41D002027
:10C8A0004C000020F41C0020486D03F0ACFEC84989
:10C8B00048652C2C07DC2D2D05DBC549886D03F060
:10C8C000A2FEC34988652E2C07DC2F2D05DBC0494D
:10C8D000C86D03F098FEBE49C865302C07DC312DC9
:10C8E00005DBBB49086E03F08EFEB9490866322CA1
:10C8F00007DC332D05DBB649486E03F084FEB449EE
:10C900004866342C07DC352D05DBB149886E03F011
:10C910007AFEAF498866362C07DC372D05DBAC493B
:10C92000C86E03F070FEAA49C866382C07DC392DA2
:10C9300005DBA749086F03F066FEA54908673A2C96
:10C9400007DC3B2D05DBA249486F03F05CFEA049E4
:10C9500048673C2C07DC3D2D05DB9D49886F03F0C3
:10C9600052FE9B4988673E2C07DC3F2D05DB98492A
:10C97000C86F03F048FE9649C867402C09DC412D7A
:10C9800007DB9349D1F8800003F03DFE9049C1F8E0
:10C990008000422C09DC432D07DB8D49D1F884004F
:10C9A00003F031FE8A49C1F88400442C09DC452D8E
:10C9B00007DB8749D1F8880003F025FE8449C1F8D8
:10C9C0008800462C09DC472D07DB8149D1F88C0013
:10C9D00003F019FE7E49C1F88C00482C09DC492D72
:10C9E00007DB7B49D1F8900003F00DFE7849C1F8D0
:10C9F00090004A2C09DC4B2D07DB7549D1F89400D7
:10CA000003F001FE7249C1F894004C2C09DC4D2D55
:10CA100007DB6F49D1F8980003F0F5FD6C49C1F8C8
:10CA200098004E2C09DC4F2D07DB6949D1F89C009A
:10CA300003F0E9FD6649C1F89C00502C09DC512D3A
:10CA400007DB6349D1F8A00003F0DDFD6049C1F8C0
:10CA5000A000522C09DC532D07DB5D49D1F8A4005E
:10CA600003F0D1FD5A49C1F8A400542C09DC552D1E
:10CA700007DB5749D1F8A80003F0C5FD5449C1F8B8
:10CA8000A800562C0EDC562D0CDB5148B0F8AC003B
:10CA90000006000C4E49B1F8AC1040EA11204C4998
:10CAA000A1F8AC00572C0EDC572D0CDB4848B0F831
:10CAB000AE000006000C4649B1F8AE1040EA112065
:10CAC0004349A1F8AE004248008818B140480088A8
:10CAD000F72801DD4FF003083D48B0F8AC0000280E
:10CAE00005DB3B48B0F8AC00B0F5807F01DD4FF0CE
:10CAF00003083748B0F8AE00012804DB3448B0F82A
:10CB0000AE00072801DD4FF0030831490869FBF743
:10CB1000E8FD304A304BCDE90001FBF7F5FD0AD3C3
:10CB20002B490869FBF7DDFD00222C4BCDE9000104
:10CB3000FBF702FE01D24FF0030825488089072841
:10CB400009D023488089142805D021488089642889
:10CB500001D04FF00308B8F1000F0FD1B0221C49EB
:10CB60001F48FBF70FFB029A02EB4401322202EB53
:10CB7000440290B24A46FDF7C3F907E019488078AD
:10CB800020B14046FFF73EFA00207AE514480088BD
:10CB9000C0B28DF814001348C0788DF81500114804
:10CBA0004068CDF81600062105A8FCF731FE0646C0
:10CBB000F0B28DF81A0030128DF81B000948807809
:10CBC00018B1082105A803F0C7FA012059E50000B3
:10CBD000A41D00208FC2F5285C8F23400000244054
:10CBE000F41C0020E01E002070B5002100230F225D
:10CBF000C4781CB3174C246804F4E064C4F5E06402
:10CC0000C4F30721C1F10404E3B20A4144789C4013
:10CC1000E1B28478144021430C07210E0E4C0578B4
:10CC20006155047804F01F050124AC4005786D11AE
:10CC3000AD0005F1E025C5F8004109E0047804F0F5
:10CC40001F050124AC40054D0678761145F82640B5
:10CC500070BD00000CED00E000E400E080E100E0C9
:10CC600002490143024A1160704700000000FA05C2
:10CC70000CED00E07047000010B50348006810B1EB
:10CC800001480068804710BD9800002070B5044638
:10CC900000F0BCF800204549087045490870454936
:10CCA000087045490860454908604549087045498C
:10CCB000087045490870454908604549086045497C
:10CCC000086045490870454800680A21B0FBF1F04A
:10CCD000434908604348006858B14348056845B176
:10CCE0004048066803E0761E002028602D1D002EB7
:10CCF000F9D100203D4908603D4908603D49086080
:10CD00003D4908603D4908603D4908603D4908606B
:10CD10003D49087001F04AFC01F084FC204601F016
:10CD200003FA208800B170BD204601F063FA208824
:10CD300000B1F8E7204601F069FA208800B1F2E777
:10CD4000204601F0A9FA208800B1ECE7204601F066
:10CD50005DFC208800B1E6E7204601F0ADFD2088AB
:10CD600000B1E0E7204601F0C3FF208800B1DAE718
:10CD7000204601F007FA208800B1D4E7204602F0EF
:10CD800035FC208800B1CEE7204601F017FF20884F
:10CD900000B1C8E7204602F099FC208800B1C2E744
:10CDA00001F0ECF8FFF766FF00BFBCE7AC00002025
:10CDB000AD000020E0000020380100203C010020F0
:10CDC000C6000020C7000020C8000020D4000020BA
:10CDD000D8000020DC000020E8000020EC11010851
:10CDE000E4000020BC110108B81101088C000020EB
:10CDF0009000002094000020980000209C0000205B
:10CE0000A0000020A4000020160100200A4A11689A
:10CE1000002002E0002204C1401C084A126890422F
:10CE2000F8D3054A1268054B1B6802EB8302121FF8
:10CE3000034B1A6070470000B8110108BC110108CB
:10CE40004401002008480078012800D070470748B6
:10CE50000078FA2800DBF9E704480078401C034911
:10CE6000087000BFF2E70000AD000020AC00002019
:10CE700010B500242E480078012800D010BD00BF56
:10CE8000FBF76AF9044600BF2A48007828B900BFBA
:10CE90002046FBF765F900BFF0E726480078401E02
:10CEA0002449087008460078002805DD00BF2046A8
:10CEB000FBF756F900BFE1E71F480078002805DDC1
:10CEC00000BF2046FBF74CF900BFD7E701F05AFB43
:10CED0001A4908700846007800EB4000184951F8DC
:10CEE0002000184908600846006817490968884208
:10CEF00005D100BF2046FBF733F900BFBEE711485C
:10CF00000068D0F89000401C0E490968C1F89000F4
:10CF10000E480068401C0D4908604FF080500C49D5
:10CF2000086000BF2046FBF71BF900BF00BFA5E764
:10CF3000AD000020AC000020E0000020C700002071
:10CF4000F03B00203C010020380100200C010020B3
:10CF500004ED00E010B5002420480078002800DD32
:10CF600010BD1F480078002800DDF9E700BFFBF77F
:10CF7000F3F8044600BF01F005FB1A4908700846A3
:10CF8000007800EB4000184951F82000174908606C
:10CF90000846006816490968884205D100BF204646
:10CFA000FBF7DEF800BFDBE710480068D0F8900020
:10CFB000401C0E490968C1F890000E480068401CEA
:10CFC0000C4908604FF080500B49086000BF2046B4
:10CFD000FBF7C6F800BF00BFC2E70000AC000020AE
:10CFE000E0000020C7000020F03B00203C010020B2
:10CFF000380100200C01002004ED00E070B504466B
:10D00000002518480078002803DD46F6625020808D
:10D0100070BD15480078012803D045F6896020804E
:10D02000F6E712480078FA2803DB45F20920208051
:10D03000EEE700BF00BFFBF78FF8054600BF00BF5B
:10D040000A480078401C0949087001F0A1FB00BFA4
:10D0500000BF2846FBF784F800BF00BF00202080F7
:10D0600000BFD5E7AC000020AD000020E0000020AC
:10D070002DE9F04105460C461646002700BF00BFCB
:10D08000FBF76AF8074600BF00BF012D03D0002060
:10D090000D49087002E001200B49087014B10B48DB
:10D0A000046006E00A4800680A21B0FBF1F0074975
:10D0B000086000BF00BF3846FBF752F800BF00BF52
:10D0C00000203080BDE8F081E8000020E40000206E
:10D0D000EC11010870B504460025204800780028AE
:10D0E00003DD46F66550208070BD1D48007801289C
:10D0F00003D045F689602080F6E71A48007818B911
:10D1000046F664502080EFE700BF00BFFBF724F82D
:10D11000054600BF00BF13480078401E1149087043
:10D120000846007800280ADD00BF00BF2846FBF74C
:10D1300017F800BF00BF46F663502080D4E701F027
:10D1400035FB00BF00BF2846FBF70AF800BF00BF51
:10D15000FFF700FF0020208000BFC5E7AC000020E3
:10D16000AD000020E000002010B504461248007811
:10D17000E8B901F007FA114908700846007810492B
:10D1800008700E48007800EB40000E4951F820006E
:10D190000D490860084600680C49086001200649EE
:10D1A0000870FBF76DFC43F69920208002E045F6FD
:10D1B0008A60208010BD0000AD000020C700002064
:10D1C000C6000020F03B00203C0100203801002078
:10D1D0002DE9F04107464FF0000800BF00BFFAF705
:10D1E000BBFF804600BF00BF00203B4908803B4991
:10D1F00008603B4908603B4908603B4908603B497F
:10D20000088100BF00BF4046FAF7AAFF00BF00BF79
:10D2100000BF00BFFAF7A0FF804600BF00BF344840
:10D22000046800BF00BF4046FAF79AFF00BF00BF86
:10D2300021E000BF00BFFAF78FFF804600BF00BFAC
:10D2400000207834E06320602063A061A082E08247
:10D250006062A062FCF7D6FA2062783C04F16406B2
:10D260000020B081D4F8BC4000BF00BF4046FAF7B0
:10D2700077FF00BF00BF002CDBD100BF00BFFAF773
:10D280006BFF804600BF00BF1A48056800BF00BFA3
:10D290004046FAF765FF00BF00BF12E000BF00BFC5
:10D2A000FAF75AFF804600BF00BF05F120060020B4
:10D2B000B081AD6900BF00BF4046FAF751FF00BF23
:10D2C00000BF002DEAD102F0A5F802F0FBFA002021
:10D2D0003880BDE8F0810000F60000200801002041
:10D2E0001C01002028010020D8000020E43B002081
:10D2F00010010020CC000020F8B504460026694645
:10D30000324800F079FBBDF8000018B1BDF800000C
:10D310002080F8BD6A460021022000F0CDFBBDF858
:10D32000000018B1BDF800002080F2E700BF00BF88
:10D33000FAF712FF064600BF00BF0020244908602C
:10D3400000BF00BF3046FAF70BFF00BF00BF00254B
:10D350002048006820490968884205D91D480068AE
:10D360001D490968B0FBF1F525B91A4800680A2182
:10D37000B0FBF1F56A460021284600F09DFB6946A6
:10D38000124800F021F9BDF8000018B1BDF8000006
:10D390002080BEE700BF00BFFAF7DEFE064600BFF2
:10D3A00000BF00200D490860094800680C4908606A
:10D3B00001200C49087000BF00BF3046FAF7D0FECC
:10D3C00000BF00BF0020208000BFA2E7383E002041
:10D3D000F8000020EC110108D41101080801002018
:10D3E000FC0000200401002010B50348006810B1C3
:10D3F00001480068804710BD9C0000202DE9FF4FC8
:10D4000085B004469046DDE91995159F139E0020CE
:10D41000029061480078002805DD47F24A10288014
:10D4200009B0BDE8F08F1CB947F2AD102880F7E7CE
:10D43000B8F1000F03D147F24F102880F0E71EB972
:10D4400046F62F602880EBE754480068874203D2F5
:10D4500046F630602880E3E71498B84203D346F6D6
:10D4600031602880DCE71298102803D346F273203D
:10D470002880D5E712980F2806D14948844203D066
:10D4800046F273202880CBE7204601F041FC0020C3
:10D49000288009F0010088B109F0020070B1B3469C
:10D4A0000020049007E00020CBF800000BF1040BF3
:10D4B0000498401C04900498B842F4D3149806EBE6
:10D4C00080000390CDE9007932464046039B0899DD
:10D4D00000F032FA8346C4F828800898E062069883
:10D4E0002062129884F83700C4F800B00398A06056
:10D4F00017986065179818B92A480068A06501E078
:10D500001798A065189860606662A763A4F83C90BD
:10D510004FF0000A08E0002104F17C0040F82A10D6
:10D520000AF1010000F0FF0ABAF1000FF3D004F194
:10D530006400169900F0A8FE204600F039F800BFFC
:10D5400000BFFAF709FE029000BF00BF94F8370051
:10D5500001F038F8204601F0ADF8204601F0B0FBAC
:10D5600011480088401C10490880104800780128A4
:10D5700007D000BF00BF0298FAF7F2FD00BF00BF5E
:10D580004EE700BF00BF0298FAF7EAFD00BF00BFF8
:10D59000FFF7E0FC00BF43E7AC000020E811010802
:10D5A000203B0020E400002014010020AD000020FA
:10D5B00010B504460348006818B1204601490968BF
:10D5C000884710BD8C00002070B504460D4600262B
:10D5D00015480078002803DD47F25510288070BDFB
:10D5E00000BF00BFFAF7B8FD064600BF00BF1CB180
:10D5F0000E48006884420AD100BF00BF3046FAF7E7
:10D60000AFFD00BF00BF47F257102880E7E700BF1B
:10D6100000BF3046FAF7A4FD00BF00BF29462046F0
:10D6200001F0EAFB00BFDAE7AC000020380100207F
:10D6300010B504460348006818B12046014909683E
:10D64000884710BD940000202DE9F04780460E4623
:10D6500014461D464FF000096F480078002805DD8C
:10D6600046F2AE1028800020BDE8F0871EB1B6F566
:10D67000004F02D100E000BF04E045F6256028809D
:10D680000020F1E700BF0CB10020206000BF00BF08
:10D69000FAF762FD814600BF00BF60480068406C39
:10D6A000A8B35E480068406C401E5C490968486445
:10D6B0005A480068476C1CB158480068006C2060EC
:10D6C000FCF7A0F855490968096C401A53490968E4
:10D6D000C1F8A40051480068D0F8A8004F49096873
:10D6E000D1F8A410884207D24C480068D0F8A400B2
:10D6F0004A490968C1F8A80000BF00BF4846FAF7C8
:10D700002FFD00BF00BF002028803846ACE7FFE7B0
:10D7100006F4004058B100BF00BF4846FAF720FDAC
:10D7200000BF00BF46F2B010288000209CE73C48B4
:10D73000007800280BDD00BF00BF4846FAF710FD57
:10D7400000BF00BF46F66350288000208CE74346A8
:10D7500007220021084600F0ABFD00BF00BF48468D
:10D76000FAF7FEFC00BF00BFFFF7F4FB00BF00BFED
:10D77000FAF7F2FC814600BF00BF2848006890F825
:10D78000350020B1012826D0032834D12CE0FCB18B
:10D7900022480068006C2060FCF734F81F490968D3
:10D7A000096C401A1D490968C1F8A4001B480068AB
:10D7B000D0F8A80019490968D1F8A410884207D206
:10D7C00016480068D0F8A40014490968C1F8A800F8
:10D7D0000020288013E01CB110480068006C206015
:10D7E00046F2A91028800AE00CB10020206047F220
:10D7F000D920288003E046F62E60288000BF00BFB5
:10D8000006480068476C00BF00BF4846FAF7A8FC0E
:10D8100000BF00BF384627E7AC00002038010020D9
:10D82000E00000202DE9F04106460D4614461DB1EA
:10D83000B5F5004F02D100E000BF05E045F62560D8
:10D8400020800020BDE8F08100BFFBF7DBFF8046B1
:10D85000234642462946304601F060FB07463846DB
:10D86000F0E700002DE9F04705460E4617461C4636
:10D870004FF0000A2E480078002804DD47F25910C6
:10D880002080BDE8F0871EB946F2D5202080F8E759
:10D890001FB946F2D5202080F3E700BF00BFFAF79A
:10D8A0005BFC824600BF00BF0DB9224805682868AE
:10D8B00068B900BF00BF5046FAF752FC00BF00BF76
:10D8C00000203060386047F252102080D9E795F888
:10D8D0003C0000F0010068B900BF00BF5046FAF7F5
:10D8E0003FFC00BF00BF00203060386047F254109A
:10D8F0002080C6E700BF00BF5046FAF731FC00BFEA
:10D9000000BF4FF00008D5F8249003E009F10409A6
:10D9100008F10108D9F800000028F7D0C6F8008007
:10D92000A86BA0EB080038600020208000BFA8E7AB
:10D93000AC00002038010020F0B50446DDE90556B2
:10D9400002EB85004FF0807C071F3846C7F800C007
:10D95000071F38463C60DFF89CC0071F3846C7F8F1
:10D9600000C04FF0123C071F3846C7F800C04FF008
:10D97000033C071F3846C7F800C04FF0023C071FA2
:10D980003846C7F800C0071F38463B60071F3846B7
:10D9900039604FF0113C071F3846C7F800C04FF000
:10D9A000103C071F3846C7F800C04FF0093C071F5E
:10D9B0003846C7F800C04FF0083C071F3846C7F884
:10D9C00000C04FF0073C071F3846C7F800C04FF0B3
:10D9D000063C071F3846C7F800C04FF0053C071F3C
:10D9E0003846C7F800C04FF0043C071F3846C7F858
:10D9F00000C0F0BDF9EE000870B505460C460A48B7
:10DA00000078002803DD47F25D10208070BD0748D4
:10DA1000854203D147F25B102080F7E72146284674
:10DA200001F05EFB00BFF1E7AC000020203B0020CE
:10DA300010B51D48006810B11B4800688047FBF70F
:10DA4000E1FE04461948006819490968884215D062
:10DA500016480068D0F89800201A14490968C1F8DF
:10DA6000940012480068D0F89C0010490968D1F869
:10DA7000941008440D490968C1F89C000C480068DE
:10DA8000C0F8984009480068D0F8B400094909680E
:10DA9000884205D20748006804490968C1F8B40003
:10DAA00000200449086010BDA000002038010020BB
:10DAB0003C010020DC0000202DE9F04105460E4627
:10DAC000144600272A480078002804DD47F2752014
:10DAD0002080BDE8F08127480078002803DD46F665
