:020000040800F2
:10800000204A0020398100083D8100083F81000896
:10801000418100084381000845810008478100082C
:108020004781000847810008478100084781000810
:108030004781000847810008A38A000845DE000840
:10804000FB9600084F9500089F9500086D95000865
:108050001395000859950008CD940008D79400089E
:10806000EB940008F5940008FF940008539400086E
:108070005D94000867940008719400087B940008E0
:10808000859400088F94000821940008E796000862
:10809000F1960008499400083594000809950008F5
:1080A00045950008F9950008A9950008B3950008C2
:1080B000BD950008C7950008D195000827950008D0
:1080C0001D9500083B950008319500088195000832
:1080D0008B95000819960008C9960008D3960008E9
:1080E000E194000863950008DD960008E595000816
:1080F000EF95000877950008DB9500089595000836
:10810000039600080D96000899940008A3940008AF
:10811000AD940008B7940008C19400082B9400089F
:108120003F940008DFF80CD000F02AFC004800471C
:1081300009060108204A002004480047FEE7FEE740
:10814000FEE7FEE7FEE7FEE7FEE700002581000808
:1081500072B6704762B67047EFF3108072B6704720
:1081600080F31088704730BF704720BF7047B0FA67
:1081700080F0704790FAA0F0B0FA80F0704790FA63
:10818000A0F0704740EA01039B0703D009E008C94B
:10819000121F08C0042AFAD203E011F8013B00F8CC
:1081A000013B521EF9D27047D2B201E000F8012B18
:1081B000491EFBD270470022F6E710B513460A4667
:1081C00004461946FFF7F0FF204610BD30B50546BE
:1081D0000020034600E05B1C934205D2EC5CC85CC7
:1081E000201A01D1002CF6D130BDF0B480EA010292
:1081F000D40F4200B2EB410F02D2024608461146AC
:108200004A0042D0C30DDDB2C1F3C752AD1A202DD2
:1082100035DAC1F3160141F4000204B15242C5F14E
:10822000200602FA06F12A411044B3EBD05F23D0B6
:10823000C4B1012DA0EBC35009DCF0BC4FF00042EB
:1082400002EAC352DBB200F5000000F0F7BA4000CA
:1082500000F1807000EBC350A0F1807040EAD17053
:10826000490009E0490841EAC071A0EBC35000F59C
:108270000000400800EBC350F0BC00F0D6BA6142E9
:10828000012202EB4101001BF6E7F0BC704781F0D0
:108290000041AAE780F00040A7E780EA010210B59C
:1082A00002F00043400022D04A001FD0010E01EB33
:1082B0001261C0F35600C2F3560240F4000042F4CB
:1082C0000002A0FB022000047F39140400D0401CEF
:1082D00050EA124001D44000491EC2B20C0604EB21
:1082E000D010401C4008802A02D003E0002010BDBE
:1082F00020F00100002900DA0020184310BD30B43E
:1083000080EA010202F0004530F0004221F0004016
:1083100013D090B1C30DD40DC2F31601C0F31600F3
:10832000E41A41F4000140F400027D34914201D38B
:10833000641C00E04900002C02DA30BC00207047C9
:108340004FF400000023914201D3891A03434008EF
:108350004FEA4101F7D151B1914202D14FF00041B2
:1083600005E002D24FF0010101E06FF0010103EBE3
:10837000C450284430BC00F058BA2DE9FE4F804666
:1083800081EA0300C00F0C46009021F0004123F069
:108390000045B8EB0200A94105D24046214690466F
:1083A0001C460B46024623F00040104347D0270DE1
:1083B000C7F30A00C3F30A510290401A0190402803
:1083C0006BDAC3F3130040F4801B0098924620B18F
:1083D0000023D2EB030A63EB0B0B01985946C0F163
:1083E0004002504600F0F0F906460D465046594608
:1083F000019A00F008FA10EB08006141002487EAB6
:10840000115284EAE7731A4340D0009A62B3019A8A
:10841000012A4FEA075215DC001B61EB02014FF005
:10842000004202EA0752CDE90042001C41F58011EA
:1084300032462B4600F03FFA03B0BDE8F08F4046CD
:108440002146F9E7001B61EB0201001C41F5801396
:1084500000185B412018A2F5001747EB030140EA22
:10846000D570B6196D4111E06D084FEA360645EA40
:10847000C0754FEA0752001B61EB0201001C41F579
:10848000801149084FEA30000019514132462B460D
:1084900003B0BDE8F04F00F0FFB9009801224000A2
:1084A0000023D0EB020263EBE073009821464FEA11
:1084B000E074B8EB000061EB0401E9E783F00043EE
:1084C0005BE781F0004158E72DE9FE4F81EA0304A4
:1084D00004F0004421F0004100944FF0000B23F021
:1084E000004350EA01045ED052EA03045BD0C3F3B8
:1084F0000A54C1F30A552C44A4F2F3340194A0FBAE
:108500000254C1F3130141F48011C3F3130343F484
:10851000801301FB024400FB034E840A970A44EADD
:10852000815447EA8357A4FB076802958D0A05FB2F
:1085300007854FEA932C04FB0C542705029D4FEA54
:10854000065847EA1637B5EB08056EEB070C870EA1
:10855000920E47EA811742EA8312A7FB0201B6EBAB
:108560000B0164EB00042B0D43EA0C335E1844EB63
:108570001C50DA465146E7FB0201C5F313044FEAEB
:108580000B3343EA14534FEA0432019C43EA0603D7
:10859000A4F10C040294009CCDE900B400F08BF926
:1085A00003B0BDE8F08F00200146F9E72DE9F04D5A
:1085B00081EA030404F0004B21F0004514464FF01B
:1085C000000A23F0004150EA050220D054EA0102DB
:1085D0001DD0C5F30A570246C5F31303C1F31300B8
:1085E000C1F30A5640F4801543F48013A7EB060844
:1085F000101BD64608F2FD3873EB050002D308F1D4
:10860000010801E092185B41B8F1000F03DA002085
:108610000146BDE8F08D00204FF4801106468446E7
:108620000EE0171B73EB050705D3121B63EB050365
:1086300006434CEA010C49084FEA300092185B41AE
:1086400050EA0107EDD152EA030012D082EA040099
:1086500083EA0501084305D0101BAB4106D2012275
:10866000002306E000224FF0004302E06FF0010219
:1086700053101AEB06004CEB085110EB0A0041EBCB
:108680000B01BDE8F04D00F007B9C10F80EAE070C2
:108690000844CA079623002100F0D0B89623002290
:1086A000114600F0CBB80EB5C10F80EAE070084467
:1086B000CA07002140F233438DE80E000A460B46FC
:1086C00000F0F9F803B000BD0EB540F2334102915D
:1086D0000021CDE900110A460B4600F0ECF803B08A
:1086E00000BD00F0004230F000400AD0C10D01F59D
:1086F0006071C0F3160042EA0151C20840071143FD
:10870000704700200146704730B5041E71F1000427
:1087100004DB4FF00044404264EB0101141E73F18E
:10872000000405DB1C464FF00043524263EB040398
:108730008B4208BF824230BD30B5041E71F1000487
:1087400004DB4FF00044404264EB0101141E73F15E
:10875000000405DB1C464FF00043524263EB040368
:10876000994208BF904230BD01F0004330B421F07F
:10877000004150EA010206D00A0DA2F56072C1F371
:108780001301002A02DC30BC00207047440F44EA89
:10879000C104C100E01830BC00EBC25000F045B885
:1087A000002801DBC0F10040002901DBC1F10041DC
:1087B00081427047002801DBC0F10040002901DB45
:1087C000C1F1004188427047202A04DB203A00FAB8
:1087D00002F1002070479140C2F1200320FA03F318
:1087E000194390407047202A04DB203A21FA02F016
:1087F0000021704721FA02F3D040C2F120029140DB
:10880000084319467047202A06DBCB17203A41FA65
:1088100002F043EAE07306E041FA02F3D040C2F10D
:10882000200291400843194670470029A8BF7047AD
:10883000401C490008BF20F00100704710B4B0FA96
:1088400080FC00FA0CF050EA010404BF10BC704731
:1088500049B1CCF1200421FA04F411FA0CF118BF4B
:10886000012121430843A3EB0C01CB1D4FEA00611A
:108870004FEA102042BF002010BC704700EBC350ED
:1088800010440029A4BF10BC7047401C490008BF19
:1088900020F0010010BC704710B5141E73F10004E5
:1088A00008DA401C41F1000192185B411A4301D1E2
:1088B00020F0010010BD2DE9F04D92469B4611B10C
:1088C000B1FA81F202E0B0FA80F220329046FFF76E
:1088D0007BFF04460F4640EA0A0041EA0B0153467B
:1088E0005A46084313D0114653EA010019D0C8F183
:1088F00040025046FFF777FF05460E465046594660
:108900004246FFF761FF084305D0012004E02046FE
:108910003946BDE8F08D0020054346EAE0762C4359
:1089200037430A986305E40AA0EB08000022FD0A19
:1089300044EA47540A3002D500200146E9E7010520
:1089400010196941DDE9084500196941BDE8F04D9C
:10895000A2E770B521F0004303430CD0C1F30A55E0
:108960000024D5EB040564EB0403D617AD1AB3411C
:1089700002DB0020014670BD201841EB025170BDA2
:10898000064C074D06E0E06840F0010394E807005C
:1089900098471034AC42F6D3FFF7C8FB9813010890
:1089A000B81301082DE9F04D00231A461B1A8A411D
:1089B00003DB00200146BDE8F08DC1F30A52C1F38C
:1089C000130141F480154FF0000BD10702D10018BC
:1089D0006D41521E0027044640F2FF11384601EB5C
:1089E000620A3E468046024600204FF48011FFF79F
:1089F000FAFEC2197141BB1846EB0100B4EB030C3F
:108A000075EB000C04D3E41A65EB000517460E461F
:108A1000241908F101006D4180463428E3DDF9197D
:108A200046EB0600091BA84103D24FF0FF32134664
:108A300001E0002213461BEB070046EB0A51BDE89C
:108A4000F04DFFF729BF30B58C1810F8012B12F04C
:108A50000F0301D110F8013B120906D110F8012BC8
:108A600003E010F8015B01F8015B5B1EF9D101E046
:108A700001F8013B521EFBD1A142E6D3002030BDDC
:108A800018484FF0FF010170002080F30988164854
:108A9000016881F3088815484FF08051016062B683
:108AA000FEE772B6EFF3098028B1203880E8F00FB6
:108AB0000F490968086000B50E4880475DF804EB6F
:108AC0000D480E490A78027009480D490A6802608B
:108AD000106890E8F00F203080F309884EF0040E03
:108AE00062B6704722ED00E04401002004ED00E092
:108AF000380100206DD90008C6000020C700002002
:108B00003C0100203EB54FF4FA7400F0F7F805463A
:108B100009220021042000F053F90CE002A80021F2
:108B200002230A46CDE90010084604F0C5FF601E86
:108B3000041E00D13EBD00F0B3F80028EED000F0D6
:108B4000DDF805462846F5E770B504460D4616469D
:108B50000DB1402100E0002141EAC4010EB1042220
:108B600000E000221143C8B207F090F970BD000088
:108B70002DE9F04F89B083464FF0000A002007909E
:108B80000690012007F0E0F83C48008A00F0400021
:108B900000286BD100BF00BFFFF7DEFA069000BFD0
:108BA00000BF002000F0D8F8002007F06FF98246DF
:108BB0004FEA0A2A002007F069F940EA0A0A4FEA58
:108BC0000A2A002007F062F940EA0A0A00BF00BF43
:108BD0000698FFF7C5FA00BF00BF1021274801F033
:108BE00060FBAAF50000264909680844244908608A
:108BF00024480068401C234908602348007810B9C5
:108C0000BBF1000F32D11F480068FFF75DFDCDE9D1
:108C100000011B480068FFF746FD804600221B4B01
:108C2000FFF752FC0646DDE90023FFF7BFFC0022F8
:108C3000174BCDE90201FFF7B9FC0022154BCDE936
:108C40000401FFF7B3FC0446FFF78EFD07901249BD
:108C50000798C1F82A000020094908600A490870ED
:108C600001200E49087000200649086010210348C1
:108C700001F017FB09B0BDE8F08F000000000240D2
:108C80005C00002058000020540000200088B34001
:108C90000000404000006041541E002055000020AC
:108CA0000248008A012121EA90107047000002402A
:108CB00010B5012007F048F800BF00BF00BF00BF9B
:108CC00000F052F8002201210420FFF73DFF0020B0
:108CD00007F0DCF80749087000F088F806490870CA
:108CE00000F023F80446FFF70DFF012000F04BF8D9
:108CF000002010BD380000203900002010B50024ED
:108D0000002201210620FFF71FFF002007F0BEF818
:108D100004462402002007F0B9F80443240200208E
:108D200007F0B4F80443204610BD10B5002400221B
:108D300001210720FFF708FF002007F0A7F80446ED
:108D40002402002007F0A2F804432402002007F0C8
:108D50009DF80443204610BD10B50446224601216B
:108D60000320FFF7F1FE10BD10B5002404E0FF2042
:108D700007F08CF8601CC4B2042CF8DB00BF00BF05
:108D800000BF00BF10BD3EB50446012006F0DCFF69
:108D900002A800210A230A46CDE90010084604F083
:108DA0008BFE07220021084600F00AF8012000236C
:108DB00005221946CDE90004184600F023F83EBD0F
:108DC00070B504460D461646002211460120FFF7F5
:108DD000BBFE0DB1102100E0002141EA4411C8B2F0
:108DE00007F054F8304607F051F870BD10B5002276
:108DF00001211046FFF7A8FE002007F047F80446BF
:108E0000204610BD2DE9F04704460D4616461F4684
:108E1000DDE90889002211460220FFF795FE0CB11A
:108E2000202100E000210DB1102200E000221143BA
:108E300041EA060007F02AF80FB1202100E00021E6
:108E4000B8F1000F01D0102200E00022114341EAE6
:108E5000090007F01BF8BDE8F08721B1826842F0F5
:108E60000102826003E0826822F0010282607047A2
:108E70000A460021816821F0F001114381607047AA
:108E80000146886D80B270470246002013680B408F
:108E90000BB1012000E000207047000030B5024611
:108EA000002000235068104C20400D790C6844EAE3
:108EB00005242043506090680C4C2040D1E90354B5
:108EC0002C438D682C434D7944EA4504204390603F
:108ED000106B20F0F8700C7D641EE4B2234340EA6E
:108EE0000350106330BD0000FFFEFFFCFDF7FFC024
:108EF0001AB143680B43436002E043688B4343600D
:108F00007047F0B504460D46002000211D2D11DDEF
:108F1000E06DA5F11E0606EB4607072606FA07F1E7
:108F20008843A5F11E0606EB460603FA06F1084340
:108F3000E06534E0132D11DDE068A5F1140606EBC1
:108F40004607072606FA07F18843A5F1140606EB43
:108F5000460603FA06F10843E06020E0092D11DD22
:108F60002069A5F10A0606EB4607072606FA07F16F
:108F70008843A5F10A0606EB460603FA06F1084304
:108F800020610CE0606905EB4507072606FA07F14A
:108F9000884305EB450603FA06F108436061072A9A
:108FA0000FDA206C561E06EB86071F2606FA07F11D
:108FB0008843561E06EB860605FA06F10843206430
:108FC0004AE00D2A0FDAE06BD61F06EB86071F2654
:108FD00006FA07F18843D61F06EB860605FA06F166
:108FE0000843E06338E0132A11DAA06BA2F10D0602
:108FF00006EB86071F2606FA07F18843A2F10D0645
:1090000006EB860605FA06F10843A06324E0192A58
:1090100011DA606BA2F1130606EB86071F2606FA2B
:1090200007F18843A2F1130606EB860605FA06F15E
:109030000843606310E0206BA2F1190606EB860777
:109040001F2606FA07F18843A2F1190606EB8606E9
:1090500005FA06F108432063F0BD816841F08041C4
:1090600081607047002101600171417181604FF0A2
:109070004071C1600021016101210175704700004C
:109080008AB0002600F063F900F078FB00F058F990
:10909000044677480068B4FBF0F5284604F0EEFE7D
:1090A00009A804F0C7F809AA0121084603F07EFFC9
:1090B0004FF4806003F072FD01F03AF801F0D2F94C
:1090C0006C49B1F8AE0007F011F806F05FFEFFF74B
:1090D000EFFD09A80021684A0223CDE90032CDE95D
:1090E00002100A230A4665A1664804F0EBFD00BFA2
:1090F00000BFFFF731F8064600BF00BF09A80321F3
:1091000000220592CDE90621089010464021062252
:109110005D4BCDE90132CDE90310042000235B4A09
:109120005BA100905D4804F007F909A80321002223
:109130000592CDE90621089010464FF400713322C4
:10914000574BCDE90132CDE9031003200023554AE6
:1091500055A10090594804F0EFF809A80321002216
:109160000592CDE90621089010464FF4807119222E
:10917000534BCDE90132CDE9031005200023514ABC
:1091800051A10090534804F0D7F809A80321002208
:109190000592CDE906210890104680210C224E4B05
:1091A000CDE90132CDE90310072000234B4A4CA141
:1091B00000904F4804F0C0F809A80321002205924E
:1091C000CDE906210890104680210C22494BCDE9BB
:1091D0000132CDE9031006200023474A47A1009041
:1091E000494804F0A9F809A8032100220592CDE915
:1091F00006210890104640210622444BCDE9013259
:10920000CDE9031009200023414A42A100904448BF
:1092100004F092F809A8032100220592CDE9062165
:1092200008901046402106223E4BCDE90132CDE99F
:1092300003100A2000233C4A3CA100903E4804F061
:109240007BF800BF00BF3046FEF78AFF00BF00BFBB
:109250000DE009A800210B460122CDE900100846C7
:1092600004F02AFC3548006A401C34490862F0E7E3
:1092700058110108F41C0020C1100108746D7231EE
:109280000000000018040020D80D002055970008A9
:10929000434C43574454205461736B00100D00201D
:1092A00010050020C9A90008496E737472756374B3
:1092B000696F6E205461736B000000004C04002045
:1092C000A00F002029F90008504153205461736B0E
:1092D00000000000D80E00203017002001BA00085E
:1092E0004D41494E504F574552205461736B000019
:1092F0006816002068140020A1FF000854454D5056
:10930000205461736B000000A0130020F8190020A6
:1093100035AC00084C454430205461736B000000AC
:1093200030190020C01B002079AC00084C454431A6
:10933000205461736B000000F81A0020541E0020B6
:109340001FB5684606F0C2FB019804B010BD10B509
:1093500000F0D8F906F08EFB012006F065FC00BF96
:10936000312006F033FC0028FAD0012000F000FE86
:10937000012000F0EBFD012000F00CFE01210807A8
:1093800006F038FB4FF4006006F016FB00BF10201B
:1093900006F006FB0028FAD106F03AFC002006F0A1
:1093A0005DFC002006F04EFCC0220421012006F0E6
:1093B00067FC012006F05EFC00BF392006F006FCC9
:1093C0000028FAD0032006F065FC00BF06F018FC68
:1093D0000C28FBD110BD10B5FEF7BAFE10BD000081
:1093E00070B50446002600BF00BFFEF7B5FE064676
:1093F00000BF00BF03F0C4FC00BF00BF3046FEF753
:10940000AFFE00BF00BF392C04D2044850F82450EE
:1094100005B1A84703F0CAFC70BD0000FC25002080
:1094200010B51220FFF7DCFF10BD10B53720FFF795
:10943000D7FF10BD10B51620FFF7D2FF10BD10B535
:109440003820FFF7CDFF10BD10B51520FFF7C8FF7E
:1094500010BD10B50B20FFF7C3FF10BD10B50C20D9
:10946000FFF7BEFF10BD10B50D20FFF7B9FF10BD0F
:1094700010B50E20FFF7B4FF10BD10B50F20FFF799
:10948000AFFF10BD10B51020FFF7AAFF10BD10B53B
:109490000B20FFF7A5FF10BD10B53220FFF7A0FF8E
:1094A00010BD10B53320FFF79BFF10BD10B5342061
:1094B000FFF796FF10BD10B53520FFF791FF10BDE7
:1094C00010B53620FFF78CFF10BD704710B5062091
:1094D000FFF786FF10BD10B50720FFF781FF10BD15
:1094E00010B52820FFF77CFF10BD10B50820FFF74E
:1094F00077FF10BD10B50920FFF772FF10BD10B542
:109500000A20FFF76DFF10BD10B51720FFF768FFA9
:1095100010BD10B50420FFF763FF10BD10B520206B
:10952000FFF75EFF10BD10B51F20FFF759FF10BDFC
:1095300010B52220FFF754FF10BD10B52120FFF712
:109540004FFF10BD10B51820FFF74AFF10BD10B532
:109550000120FFF745FF10BD10B50520FFF740FFC4
:1095600010BD10B52920FFF73BFF10BD10B503203B
:10957000FFF736FF10BD10B52D20FFF731FF10BDEE
:1095800010B52320FFF72CFF10BD10B52420FFF7E6
:1095900027FF10BD10B52F20FFF722FF10BD10B51B
:1095A0000220FFF71DFF10BD10B51A20FFF718FFAE
:1095B00010BD10B51B20FFF713FF10BD10B51C2008
:1095C000FFF70EFF10BD10B51D20FFF709FF10BDFE
:1095D00010B51E20FFF704FF10BD10B52E20FFF7B9
:1095E000FFFE10BD10B52B20FFF7FAFE10BD10B521
:1095F0002C20FFF7F5FE10BD10B51920FFF7F0FE87
:1096000010BD10B53020FFF7EBFE10BD10B53120B6
:10961000FFF7E6FE10BD00002DE9F041264C0026C4
:1096200000BF00BFFEF798FD064600BF00BF03F075
:10963000A7FB00BF00BF3046FEF792FD00BF00BF92
:109640004FF480701D49088040F225511C4806F0F7
:109650003FFEE8B11A4806F01AFFC5B240F22551A4
:10966000174806F00DFE1748007808BBD4E9000142
:10967000401AFF2806D8217804F1080045542068D4
:10968000401C206020782179401A0E4948700FE074
:1096900040F224410A4806F01BFE48B10848008801
:1096A000C7B20748001D0088C7B2012005490870ED
:1096B00003F07CFBBDE8F081E42200201A040240A4
:1096C00000380140E01E002010B52620FFF788FE7C
:1096D00010BD10B52720FFF783FE10BD10B52A205E
:1096E000FFF77EFE10BD10B51320FFF779FE10BD09
:1096F00010B51420FFF774FE10BD10B50020FFF761
:109700006FFE10BD10B5002404E00449204600F0AF
:1097100007F8641C392CF8D310BD0000CB94000866
:1097200070B504460D460026392C10D200BF00BF8C
:10973000FEF712FD064600BF00BF054840F8245062
:1097400000BF00BF3046FEF70BFD00BF00BF70BD7D
:10975000FC2500200EB500BF0CE002A8002132233A
:109760000A46CDE90010084604F0A6F90221024895
:1097700000F091FDF1E700000000024010B500F09C
:109780001FF800F019F810BD10B5002400BF00BF8D
:10979000FEF7E2FC044600BF00BF1021054802F0BE
:1097A00065F900BF00BF2046FEF7DAFC00BF00BF2E
:1097B00010BD00000C3E002010B5FFF7E5FF10BD06
:1097C00010B500200249086000F00AF810BD000042
:1097D000400100200149086070470000400100205E
:1097E00010B5FFF7ADFD04460848006840F08070F2
:1097F000064908600020064948600846006840F0B5
:10980000010008602046FFF7E5FF10BDFCED00E019
:10981000001000E00149486870470000001000E0B7
:1098200070B502464FF6FF70002313E012F8015B9B
:10983000684000240AE000F0010525B14AF2010564
:1098400085EA600000E04010651CECB2082CF2DBF9
:109850005D1CEBB28B42E9DB70BD0000FEB5064635
:1098600000270024082E00D004270422454946483A
:10987000FEF7ACFC00B104274448007800B9052786
:1098800047B14048001F807820B1384602F050FBB5
:109890000020FEBD002406E000213D4800EB8400CE
:1098A0000160601CC4B2052CF6DB002407E0002137
:1098B0003748143000EB84000160601CC4B2052CF2
:1098C000F5DB002407E000213148283000EB84005C
:1098D0000160601CC4B2052CF5DB002407E0002108
:1098E0002B483C3000EB84000160601CC4B2052CA6
:1098F000F5DB002407E000212548503000EB840010
:109900000160601CC4B2052CF5DB002407E00021D7
:109910001F48643000EB84000160601CC4B2052C59
:10992000F5DB78221A49662000F0C6FA1848343868
:109930000088C0B28DF800001248001FC0788DF872
:10994000010000208DF802001A208DF8030000208D
:109950008DF804003C208DF8050006216846FFF7CD
:109960005FFF0546E8B28DF8060028128DF8070063
:109970000448001F807818B10821684606F09EFB55
:10998000012086E7E41E0020400000204C0000205B
:10999000281D002030B504460425680300F006FBAE
:1099A0000546042D01D100202060284630BD00006E
:1099B00070B504460D460426700300F0F7FA06461B
:1099C000042E0AD10648006820F48070044908601B
:1099D0002560700300F0EAFA0646304670BD0000CC
:1099E000043C02400348006840F00100014908605F
:1099F00070470000043C02402DE9F04104460D464A
:109A0000042600274FF00008700300F0CFFA064646
:109A1000042E1CD12DB12570400300F0C7FA064674
:109A200015E024F00308D8F80070A007C10EFF204D
:109A300000FA01F827EA080724F00300FFF7AAFF5D
:109A4000064624F003003946FFF7B2FF06463046CB
:109A5000BDE8F0810548006800F0010028B1044825
:109A6000024908310860034808607047043C02401E
:109A7000EFCDAB890504030210B50023002453E0A9
:109A80005B104148006820F040703F49086008467C
:109A9000006840F080700860081D008820F4805045
:109AA000091D08800846008840F480500880081D81
:109AB000006820F04070091D08600846006840F00A
:109AC00040700860081D006820F04070091D0860A3
:109AD0000846006840F08070086088142A491A31EE
:109AE000088000BF00BF2848006820F04070264969
:109AF000086025480C30006820F0407022490C3185
:109B000008600846006840F08070086000BF1E488A
:109B10001030008800F4805008B143F080033A20F0
:109B200000F07CF9601CC4B2082CA9DB1648006860
:109B300020F04070144908600846006840F08070CA
:109B40000860081D008820F48050091D0880084620
:109B5000008840F480500880081D006820F04070A4
:109B6000091D08600846006840F040700860081D44
:109B7000006820F04070091D08600846006840F049
:109B800080700860184610BD0004024000B54448CB
:109B9000006820F04070424908600846006840F0C4
:109BA00080700860081D008820F48050091D08801E
:109BB0000846008840F480500880081D006820F0A6
:109BC0004070091D08600846006840F04070086059
:109BD000081D006820F04070091D086008460068F4
:109BE00040F08070086088142D491A3108804FF4C5
:109BF000F07000F013F94FF48050294918310880B3
:109C00002748006820F040702549086024480C303F
:109C1000006820F0407022490C3108600846006856
:109C200040F080700860372000F0F8F81C481030D1
:109C3000008800234FF4F07000F0F0F81848006836
:109C400020F04070164908600846006840F08070B7
:109C50000860081D008820F48050091D088008460F
:109C6000008840F480500880081D006820F0407093
:109C7000091D08600846006840F040700860081D33
:109C8000006820F04070091D08600846006840F038
:109C9000807008608814024918310880184600BD99
:109CA000000402402DE9FC5F4FF0000B00BF00BF35
:109CB000FEF752FA834600BF00BFFFF767FF10B1FF
:109CC0002648BDE8FC9FCC2000F04CF8442000F072
:109CD00049F8FFF75BFF08B12048F2E7CC2000F01D
:109CE00041F8BE2000F03EF8FFF7C6FE8246FFF7BF
:109CF000C3FE814600BF00BF5846FEF731FA00BFE1
:109D000000BF4AEA092505F47840B0B1E843401C99
:109D100085B2C5F30A00FEF7C6FC0022104BCDE960
:109D20000001FEF7D1FB0746FEF71EFD0446214663
:109D30000020FEF7ACFA06460EE0C5F30A00FEF777
:109D4000B2FC07460022064BFEF7BEFBCDE9000140
:109D5000FEF70AFD044626463046B2E70000AAC2D6
:109D60000000B03F10B503462B48006820F040705B
:109D7000294908600846006840F080700860081DA6
:109D8000008820F48050091D08800846008840F4AF
:109D900080500880081D006820F04070091D086090
:109DA0000846006840F040700860081D006820F018
:109DB0004070091D08600846006840F08070086027
:109DC000002426E003F0010080B14FF480501249D6
:109DD0001A310880022000F021F84FF480500E491B
:109DE000183108803A2000F019F80FE04FF4805045
:109DF00009491A3108803C2000F010F84FF48050D7
:109E0000054918310880022000F008F85B10601C3A
:109E1000C4B2082CD6DB10BD00040240002100BFF4
:109E200001E000BF491C8142FBD370472DE9F0419E
:109E300005460C4616464FF0000800270C482F1820
:109E4000DFF8308000BF00F067F8012804D1B8F1D6
:109E50000000A8F10108F6D103E017F8010B04F89F
:109E6000010B301EA6F101018EB2F6D1BDE8F081E2
:109E700080020808FFFF0F002DE9F04105460C465F
:109E8000174600260B482E18FFF7E4FD00BF00F030
:109E900043F80128FBD003E016F8010B04F8010B8E
:109EA000381EA7F101018FB2F6D1FFF79BFDBDE887
:109EB000F0810000000008082DE9F04105460C463D
:109EC00016460027B84613482F18FFF7C3FD00BFFA
:109ED00000F022F80428FBD113E000BF00BFFEF71A
:109EE0003BF9804600BF00BF14F8011B38467F1CB9
:109EF000FFF782FD00BF00BF4046FEF731F900BF0B
:109F000000BF301EA6F101018EB2E6D1FFF76AFD57
:109F1000BDE8F0818002080804200B49096801F0BF
:109F2000010109B101200EE00749096801F48071BF
:109F300009B1022007E00449096801F4F05109B1B0
:109F4000032000E004207047183C024030B107496C
:109F5000096841F00201054A116005E003490968FA
:109F600021F00201014A116070470000003C0240EC
:109F700030B10749096841F00401054A116005E064
:109F80000349096821F00401014A1160704700008B
:109F9000003C024001460020034A106820F0010006
:109FA0000843106070470000003C024008B50246BC
:109FB00004200090FFF7B0FF009003E0FFF7ACFF34
:109FC0000090521E9DF80000012801D1002AF5D111
:109FD0000AB9052000909DF8000008BD2DE9FE4358
:109FE00006460027B8460024082E00D00427042285
:109FF00049494A48FEF7EAF830B104224649484840
:10A00000FEF7E4F800B104274648007800B90527B8
:10A010002FB1384601F08CFF0020BDE8FE833E489A
:10A02000001F90F803804048D0F82A40A8F1430070
:10A03000062844D2DFE800F003161F28313A3B48D7
:10A040008461042200F118014A20FFF735FF3648E9
:10A05000D0F8260035490863042230316220FFF72A
:10A060002BFF2DE03148C461042200F11C014E2079
:10A07000FFF722FF24E02D480462042200F12001B2
:10A080005220FFF719FF1BE028484462042200F128
:10A0900024015620FFF710FF12E0244884620422B6
:10A0A00000F128015A20FFF707FF09E01F48C462AA
:10A0B000042200F12C015E20FFF7FEFE00E000BF4D
:10A0C00000BF1A480088C0B28DF800001248001F77
:10A0D000C0788DF8010000208DF802000A208DF86C
:10A0E000030000208DF8040002208DF805000621F1
:10A0F0006846FFF795FB0546E8B28DF80600281282
:10A100008DF807000448001F807818B108216846C0
:10A1100005F0D4FF012080E7E41E0020400000206D
:10A12000440000204C000020541E0020F41C00209D
:10A130001CB500240121032005F04CFC0A200090EE
:10A1400001208DF8040000208DF8060001208DF814
:10A1500007008DF8050069461A4800F037F8082115
:10A16000184800F09EF84FF44070009001208DF8E0
:10A17000040000208DF8060001208DF807008DF8FE
:10A1800005006946104800F021F84FF480700E4930
:10A19000183108800001009001208DF804008DF82E
:10A1A00006008DF807008DF805006946064800F0A6
:10A1B0000DF800BF01E000BF641C43F6FF7084424D
:10A1C000F9D31CBD0000024000040240F0B5024675
:10A1D0000B46002100240025002000BF35E00126A9
:10A1E00006FA01F41E6806EA0405A5422CD110689F
:10A1F0004F000326BE40B0431E794F00BE4030439F
:10A2000010601E79012E02D01E79022E12D19068A4
:10A210004F000326BE40B0435E794F00BE4030433E
:10A220009060908801268E40B0439E798E40B6B2F1
:10A2300030439080D0684F000326BE40B043DE79A3
:10A240004F00BE403043D060491C1029C7D3F0BD39
:10A25000F0B5002300244D07ED0E02FA05F3CE10F1
:10A2600000F1200555F826504E07F70E0F26BE4088
:10A27000B543CF1000F1200646F82750CE1000F16C
:10A28000200555F8265045EA0304CE1000F12005BC
:10A2900045F82640F0BD828A4A4082827047418359
:10A2A000704701837047000010B54FF6FF740948EE
:10A2B000FEF7D3FE00BF02210648FEF7E5FD20B9F8
:10A2C000201EA4F101018CB2F5D10248FEF7D8FDA1
:10A2D00010BD0000002401402DE9F04F85B0044678
:10A2E0004FF00009CB4600200290824619E000BFE3
:10A2F00000BFFDF731FF029000BF00BFFFF7D4FFA2
:10A30000814400BF00BF0298FDF72AFF00BF00BFD5
:10A3100004AA0520039903F06DFB0AF1010000F087
:10A32000FF0AA245E3DBB9FBF4F94846FEF7CCF996
:10A33000094A0A4BCDE90001FEF7C6F8074600229C
:10A34000074BFEF733F90546FEF70EFA83465846EB
:10A3500005B0BDE8F08F00002592E865149F4240EB
:10A360000000B0401FB500200090019002900390C3
:10A37000102269464FF4C070FFF77EFD00240EE006
:10A38000012000EB44001DF800001DF8141040EA05
:10A390000121054800EB44000180601CC4B2082C78
:10A3A000EEDB012004B010BD5C1E002010B588B0AB
:10A3B000012005F041FC0420009003208DF80400EA
:10A3C00000208DF8070069462448FFF7FFFE4FF68E
:10A3D000FF7400BF212005F0F9FB20B9201EA4F175
:10A3E00001018CB2F6D10121480205F023FB02A83D
:10A3F000FEF738FE002002908DF80C0001208DF849
:10A400000D0000200490069001208DF81C0002A988
:10A410001348FEF743FD0723012202211048FEF7EF
:10A4200070FD10210E48FEF723FD01224FF440314C
:10A430000B48FEF75DFD01210948FEF70EFD4FF6C2
:10A44000FF7400BF40210648FEF71EFD20B9201E04
:10A45000A4F101018CB2F5D108B010BD000002409A
:10A460000024014038B500200090002402226946F3
:10A470001620FFF7DBFC9DF80000122879D09DF82C
:10A4800001003428FAD002219148FFF704FF01208F
:10A4900090490880002048804860886014208881A6
:10A4A0004FF40070C8818C48086100204861182270
:10A4B0003220FFF701FD02218548FFF7ECFE00BFC7
:10A4C0000BE004EB84014800FEF7DFF88149183106
:10A4D00001EB84010860601CC4B2062CF1DB7F48EC
:10A4E0007C4908631C2218314A20FFF7E5FC022151
:10A4F0007748FFF7D0FE002407E00021754834308C
:10A5000000EB84000160601CC4B2052CF5DB002464
:10A5100007E000216F48483000EB84000160601CB8
:10A52000C4B2052CF5DB002407E0002169485C304B
:10A5300000EB84000160601CC4B2052CF5DB002434
:10A5400007E000216348703000EB84000160601C6C
:10A55000C4B2052CF5DB002407E000215D488430FF
:10A5600000EB84000160601CC4B2052CF5DB002404
:10A5700008E04AE000215748983000EB8400016071
:10A58000601CC4B2052CF5DB7822524934316620B8
:10A59000FFF792FC02214E48FFF77DFE03204D4954
:10A5A000A1F8AC00A1F8AE000422AC31DE20FFF728
:10A5B00083FC02214648FFF76EFE012048490870DF
:10A5C0004848808CC0B240F480704649888412208C
:10A5D0008DF8000034208DF8010002226946162013
:10A5E000FFF76AFC02213A48FFF755FE34208DF848
:10A5F000000012208DF80100022269462420FFF796
:10A600005BFC02213248FFF746FE00208DF8000077
:10A610008DF80100022269462420FFF707FC9DF80F
:10A62000000034280ED19DF8010012280AD1012023
:10A630002B4908702B48808CC0B240F480702949A7
:10A64000888409E00020264908702648808CC0B222
:10A6500040F4007023498884B0221E493220FFF75D
:10A66000E5FB1C48B0F8AC00002805DB1948B0F841
:10A67000AC00B0F5807F03DD03201649A1F8AC00E3
:10A6800014480088012803DB12480088F72802DDFF
:10A690000120104908800F48B0F8AE00012804DB03
:10A6A0000C48B0F8AE00072803DD03200949A1F8E3
:10A6B000AE0040F2C6200B49088040F203404880BB
:10A6C00002210348FFF7E7FDFFF74CFE38BD00000D
:10A6D00000000240F41C0020F2D21C410000A04106
:10A6E0004C000020541E002010B54648008800068B
:10A6F000000C4449098840EA112043490880414838
:10A7000040880006000C3F49498840EA11203E4934
:10A7100048803C48006A00063A49096A01F47F41D2
:10A7200040EA01203749096A01F47F0140EA11201B
:10A730003449096A40EA1160334908623148808C23
:10A740000006000C2F49898C40EA11202E4988848C
:10A750002C49D1F83E0005F00CFF2B49C1F83E0012
:10A760002849D1F8260005F004FF2749C1F8260042
:10A770002449D1F83A0005F0FCFE2349C1F83A001B
:10A780002049D1F82A0005F0F4FE1F49C1F82A003B
:10A790001C49D1F82E0005F0ECFE1B49C1F82E0033
:10A7A000002414E01748083000EB4400008800063D
:10A7B000010C1448083000EB4400008841EA1021E5
:10A7C0001148083000EB44000180601CC4B2082C22
:10A7D000E8DB0C49D1F8360005F0CBFE0A49C1F898
:10A7E00036000849D1F8320005F0C3FE0649C1F829
:10A7F00032000449D1F8420005F0BBFE0249C1F81D
:10A80000420010BD541E00209A1E002010B50446C0
:10A810006A4880786A49098888426ED16748C0785A
:10A8200044285BD010DC092839D006DC03281CD072
:10A8300004281ED0062872D126E0102833D04128E3
:10A840003CD043286BD148E048284BD006DC452853
:10A8500045D0462844D0472861D142E049284DD010
:10A86000662836D068285AD14CE0E0B201F04CFAA4
:10A8700059E0E0B201F0B4F95248808C00F47F4016
:10A88000801C504988844EE0E0B201F079FC4D48CC
:10A89000808C00F47F40C01C4A49888443E02046F5
:10A8A00005F004FA3FE0E0B201F086FD4548808CF7
:10A8B00000F47F40001D4349888434E0E0B201F099
:10A8C0005BFB4048808C00F47F40401D3D498884FC
:10A8D00029E0E0B201F0B8FB25E000BF00BF00BFF7
:10A8E00000BF00BFE0B2FFF779FB3648808C00F470
:10A8F0007F40C01D3349888415E015E0E0B2FEF7C3
:10A90000ADFF10E0E0B201F0EBF82E48808C00F4CF
:10A910007F4040F009002B49888404E0FFE70120D4
:10A9200001F006FB00BF48E024488078B0BB234814
:10A93000C078462825D008DC41280FD043281DD0F8
:10A9400044281CD0452836D11AE047281AD0482878
:10A9500019D066280ED068282DD120E0E0B201F091
:10A960000BFB1848808C00F47F4040F01100154923
:10A97000888421E0E0B201F067FB1DE000BF00BF6A
:10A9800000BF00BF00BFE0B2FFF728FB0D48808C7E
:10A9900000F47F40C01D0B4988840DE00DE0E0B25B
:10A9A00001F09EF80748808C00F47F4040F01300CF
:10A9B0000449888400E000BF00BF10BDE01E0020F5
:10A9C000F41C0020541E00200EB500BF2021234897
:10A9D000FFF765FC40E022480078002833D00025CE
:10A9E00007E005F023FCC1B21D48801C4155681CDE
:10A9F000C5B21B484078A842F3DC1948447805F0FA
:10AA000005FC0020164948700870A01EC1B2144809
:10AA1000801CFEF705FF0646A01E1149891C0A5C32
:10AA2000601E085C42EA0021B14209D0601E0C4958
:10AA3000891C085CFF2806D1A01E085CFF2802D1F3
:10AA40002046FFF7E3FE02A8002101230A46CDE9D4
:10AA50000010084603F030F8BDE700000004024093
:10AA6000E01E002010B5714800880006000C6F49F8
:10AA7000098840EA11206E4908806C484088000629
:10AA8000000C6A49498840EA1120694948806749B1
:10AA9000486805F06EFD664948606449886805F0BD
:10AAA00068FD63498860614880890006000C5F4941
:10AAB000898940EA11205E4988815C48C089000686
:10AAC000000C5A49C98940EA11205949C88157499F
:10AAD000086905F04EFD564908615449486905F07A
:10AAE00048FD5349486100240EE05049183101EBFC
:10AAF0008401086805F03DFD01464D48183000EB23
:10AB000084000160601CC4B2062CEEDB4749086B70
:10AB100005F02FFD4649086300240DE04349343118
:10AB200001EB8401086805F024FD4149343101EB53
:10AB300084010860601CC4B2052CEFDB00240DE02A
:10AB40003A49483101EB8401086805F012FD3849A3
:10AB5000483101EB84010860601CC4B2052CEFDBB6
:10AB600000240EE031495C3101EB8401086805F0F6
:10AB700000FD01462E485C3000EB84000160601C43
:10AB8000C4B2052CEEDB00240EE02849703101EB45
:10AB90008401086805F0EDFC01462548703000EBA3
:10ABA00084000160601CC4B2052CEEDB00240DE0C3
:10ABB0001E49843101EB8401086805F0DAFC1C4968
:10ABC000843101EB84010860601CC4B2052CEFDB0A
:10ABD00000240DE01549983101EB8401086805F067
:10ABE000C8FC1349983101EB84010860601CC4B2B1
:10ABF000052CEFDB0D48B0F8AC000006000C0B494B
:10AC0000B1F8AC1040EA11200949A1F8AC0007489E
:10AC1000B0F8AE000006000C0449B1F8AE1040EAEE
:10AC200011200349A1F8AE0010BD0000F41C002063
:10AC3000A41D00200EB500BF1BE04FF400700D49AD
:10AC4000088002A8002128230A46CDE90010084602
:10AC500002F032FF4FF400700649891E088002A8F6
:10AC600000214FF4C2730122CDE90010084602F022
:10AC700023FFE2E71A0402400EB500BF0CE04FF4D8
:10AC800080700649088002A8002164230A46CDE9A5
:10AC90000010084602F010FFF1E70000180402401F
:10ACA00003B5FBB0182173A8FDF785FA18216DA82C
:10ACB000FDF781FA00206C906B906A9000BF28210C
:10ACC0005EA8FDF778FA282154A8FDF774FA282128
:10ACD0004AA8FDF770FA282140A8FDF76CFA282150
:10ACE00036A8FDF768FA28212CA8FDF764FA302170
:10ACF00020A8FDF760FA00BF00BF00201A901B904B
:10AD0000202112A8FDF757FAFE48C08900F47060B0
:10AD1000B0F5807F04D10021FB48CDE91A102FE067
:10AD2000F848C08900F47060B0F5007F05D14FF09D
:10AD30003331F648CDE91A1022E0F248C08900F418
:10AD40007060B0F5407F04D1F149F248CDE91A10A6
:10AD500016E0EC48C08900F47060B0F5806F04D153
:10AD6000ED49EE48CDE91A100AE0E648C08900F442
:10AD70007060B0F5A06F03D1E949EA48CDE91A1037
:10AD8000002079901CE0DF4880890D90FDF786FC5B
:10AD90000F907998FDF782FC0E900F99FDF77DFAE0
:10ADA000E1491090FDF779FAE0491190FDF7A7FA13
:10ADB00073AA799942F821007998401CC0B2799021
:10ADC00079980628DFDB7C98FDF78BFC6991689009
:10ADD000DDE91A01CDE91C017B986A90C948C06978
:10ADE000014611906A98FDF7DBFC29D2C5488069BD
:10ADF0000E90C448C0690D900E99FDF748FA109066
:10AE000073980C9074980B900C99FDF740FA0E9083
:10AE1000BC48806901460C906A98FDF738FA0D909D
:10AE20000E99FDF73AFA0F901099FDF768FA119014
:10AE30007398014610901198FDF7D7F96B90BEE01A
:10AE4000B048006A014611906A98FDF7A9FC29D222
:10AE5000AC48C0690E90AB48006A0D900E99FDF7A2
:10AE600016FA109074980C9075980B900C99FDF749
:10AE70000EFA0E90A348C06901460C906A98FDF73F
:10AE800006FA0D900E99FDF708FA0F901099FDF74C
:10AE900036FA11907498014610901198FDF7A5F9B3
:10AEA0006B908CE09748406A014611906A98FDF7D4
:10AEB00077FC29D29348006A0E909248406A0D9020
:10AEC0000E99FDF7E4F9109075980C9076980B9018
:10AED0000C99FDF7DCF90E908A48006A01460C9047
:10AEE0006A98FDF7D4F90D900E99FDF7D6F90F90F9
:10AEF0001099FDF704FA1190759801461090119879
:10AF0000FDF773F96B905AE07E48806A0146119014
:10AF10006A98FDF745FC29D27A48406A0E90794834
:10AF2000806A0D900E99FDF7B2F9109076980C900A
:10AF300077980B900C99FDF7AAF90E907148406A2A
:10AF400001460C906A98FDF7A2F90D900E99FDF755
:10AF5000A4F90F901099FDF7D2F911907698014657
:10AF600010901198FDF741F96B9028E06548806AD0
:10AF70000E906448C06A0D900E99FDF788F9109004
:10AF800077980C9078980B900C99FDF780F90E90BB
:10AF90005C48806A01460C906A98FDF778F90D903C
:10AFA0000E99FDF77AF90F901099FDF7A8F9119015
:10AFB0007798014610901198FDF717F96B9051485A
:10AFC00000690790FDF78DFB0022594BCDE90A017E
:10AFD000DDE91A01FDF778FACDE90801DDE90A2378
:10AFE000FDF772FACDE90E016B98FDF77AFBCDE91A
:10AFF0000C01DDE90E23FDF7D9FACDE91001FDF7CB
:10B00000B3FB6C9048496C98FDF747F96C9049493F
:10B010006C98C1F832003B48806811900846D0F81F
:10B02000320010901199FDF732F94249C1F836000B
:10B03000344800690790FDF754FB00223C4BCDE9F2
:10B040000A01DDE91C01FDF73FFACDE90801DDE960
:10B050000A23FDF739FACDE90E016B98FDF741FBA4
:10B06000CDE90C01DDE90E23FDF7A0FACDE91001D1
:10B07000FDF77AFB6C902C496C98FDF70EF96C90FB
:10B080000020799025E01F4800690990FDF729FB11
:10B09000CDE90A01DDE91C23FDF716FACDE90E0121
:10B0A00073A9799851F820000B90FDF71AFBCDE9B0
:10B0B0000C01DDE90E23FDF779FACDE91001FDF76A
:10B0C00053FB6DAA799942F821007998401CC0B2CF
:10B0D000799079980628D6DB0020799033E00948EA
:10B0E0003430799900EB810000680F90FDF7F9FA90
:10B0F00000220F4BCDE91001FDF758FA5EAB799AAB
:10B100001AE00000F41C00200000F03F3333F13F50
:10B11000F0A7C64B3789F13F736891ED7C3FF13F53
:10B12000713D0AD7A370F13F00007A440000A040AF
:10B1300000408F40541E002003EBC20203C27998E6
:10B14000401CC0B2799079980528C8DB002079901E
:10B1500016E0FE48799900EB810000680F90FDF73A
:10B16000C0FA0022FA4BCDE91001FDF71FFA54ABEB
:10B17000799A03EBC20203C27998401CC0B279905D
:10B1800079980528E5DB0020799017E0EF48143026
:10B19000799900EB810000680F90FDF7A2FA002278
:10B1A000EB4BCDE91001FDF701FA4AAB799A03EBBD
:10B1B000C20203C27998401CC0B2799079980528E0
:10B1C000E4DB0020799017E0E0482830799900EB23
:10B1D000810000680F90FDF784FA0022DC4BCDE976
:10B1E0001001FDF7E3F940AB799A03EBC20203C209
:10B1F0007998401CC0B2799079980528E4DB00204A
:10B20000799017E0D1483C30799900EB81000068D3
:10B210000F90FDF766FA0022CD4BCDE91001FDF746
:10B22000C5F936AB799A03EBC20203C27998401C88
:10B23000C0B2799079980528E4DB0020799017E076
:10B24000C2485030799900EB810000680F90FDF7FB
:10B2500048FA0022BE4BCDE91001FDF7A7F92CAB4F
:10B26000799A03EBC20203C27998401CC0B279906C
:10B2700079980528E4DB61996098CDE90A01699B1A
:10B28000689AFDF721F9CDE90E0163996298CDE93D
:10B290000401699B689AFDF717F9CDE90601699BDE
:10B2A000689AFDF711F90022AA4BCDE90A016999C4
:10B2B000689805F0F3F9CDE9020165996498CDE944
:10B2C0000001DDE90223FDF7FFF80022A24BCDE9E2
:10B2D00006016999689805F0E1F9CDE902016799DD
:10B2E0006698CDE90001DDE90223FDF7EDF8CDE92F
:10B2F0000401DDE90623FDF740F8CDE90801DDE9A9
:10B300000A23FDF73AF8CDE90C01DDE90E23FDF73C
:10B3100034F8CDE910015F995E98CDE90E01DDE9C1
:10B320001023FDF72AF8CDE9200157995698CDE969
:10B330000A01699B689AFDF7C7F8CDE90E01599992
:10B340005898CDE90401699B689AFDF7BDF8CDE9ED
:10B350000601699B689AFDF7B7F800227D4BCDE99D
:10B360000A016999689805F099F9CDE902015B999C
:10B370005A98CDE90001DDE90223FDF7A5F8002286
:10B38000754BCDE906016999689805F087F9CDE913
:10B3900002015D995C98CDE90001DDE90223FDF72A
:10B3A00093F8CDE90401DDE90623FCF7E6FFCDE9DA
:10B3B0000801DDE90A23FCF7E0FFCDE90C01DDE936
:10B3C0000E23FCF7DAFFCDE9100155995498CDE929
:10B3D0000E01DDE91023FCF7D0FFCDE922014D99E4
:10B3E0004C98CDE90A01699B689AFDF76DF8CDE9A3
:10B3F0000E014F994E98CDE90401699B689AFDF7BB
:10B4000063F8CDE90601699B689AFDF75DF80022B3
:10B41000504BCDE90A016999689805F03FF9CDE9EB
:10B42000020151995098CDE90001DDE90223FDF7B1
:10B430004BF80022484BCDE906016999689805F060
:10B440002DF9CDE9020153995298CDE90001DDE9CA
:10B450000223FDF739F8CDE90401DDE90623FCF705
:10B460008CFFCDE90801DDE90A23FCF786FFCDE971
:10B470000C01DDE90E23FCF780FFCDE910014B99AB
:10B480004A98CDE90E01DDE91023FCF776FFCDE9FE
:10B49000240143994298CDE90A01699B689AFDF716
:10B4A00013F8CDE90E0145994498CDE90401699B53
:10B4B000689AFDF709F8CDE90601699B689AFDF7DE
:10B4C00003F80022234BCDE90A016999689805F039
:10B4D000E5F8CDE9020147994698CDE90001DDE99B
:10B4E0000223FCF7F1FF00221B4BCDE9060169990D
:10B4F000689805F0D3F8CDE9020149994898CDE95B
:10B500000001DDE90223FCF7DFFFCDE90401DDE9FD
:10B510000623FCF732FFCDE90801DDE90A23FCF739
:10B520002CFFCDE90C01DDE90E23FCF726FFCDE968
:10B53000100141994098CDE90E01DDE91023FCF797
:10B540001CFFCDE92601DDE9380107E03C1D0020A4
:10B5500000408F400000084000001040CDE90A0183
:10B56000699B689AFCF7B0FFCDE90E01DDE93A016D
:10B57000CDE90401699B689AFCF7A6FFCDE90601B5
:10B58000699B689AFCF7A0FF0022FE4BCDE90A01F7
:10B590006999689805F082F8CDE90201DDE93C017E
:10B5A000CDE90001DDE90223FCF78EFF0022F64B16
:10B5B000CDE906016999689805F070F8CDE90201B6
:10B5C000DDE93E01CDE90001DDE90223FCF77CFF66
:10B5D000CDE90401DDE90623FCF7CFFECDE9080142
:10B5E000DDE90A23FCF7C9FECDE90C01DDE90E23F4
:10B5F000FCF7C3FECDE91001DDE93601CDE90E010E
:10B60000DDE91023FCF7B9FECDE92801DDE92E01C3
:10B61000CDE90A01699B689AFCF756FFCDE90E0156
:10B62000DDE93001CDE90401699B689AFCF74CFF24
:10B63000CDE90601699B689AFCF746FF0022D14BD1
:10B64000CDE90A016999689805F028F8CDE9020169
:10B65000DDE93201CDE90001DDE90223FCF734FF29
:10B660000022C94BCDE906016999689805F016F8E2
:10B67000CDE90201DDE93401CDE90001DDE9022374
:10B68000FCF722FFCDE90401DDE90623FCF775FE96
:10B69000CDE90801DDE90A23FCF76FFECDE90C01D5
:10B6A000DDE90E23FCF769FECDE91001DDE92C018F
:10B6B000CDE90E01DDE91023FCF75FFECDE92A019B
:10B6C0000020799020E0B14800690D90FDF709F85D
:10B6D000CDE90E01DDE91C23FCF7F6FECDE91001F2
:10B6E00020A9799801EBC00103C9CDE90E01DDE97C
:10B6F0001023FCF75BFF20AB799A03EBC20203C275
:10B700007998401CC0B2799079980628DBDB9F4875
:10B71000C069014611906A98FDF742F83BD26D98D6
:10B720000A906E9809900A99FCF7B1FD0B90FCF70E
:10B73000D8FFCDE90E01DDE92001CDE90601DDE903
:10B740002201CDE90401DDE90623FCF7B7FECDE9CE
:10B750000A016D98014606906C98FCF798FD0790D9
:10B76000FCF7BFFFCDE90801DDE90A23FCF7ACFED9
:10B77000CDE90C01DDE90E23FCF718FFCDE910013E
:10B78000DDE92001CDE90E01DDE91023FCF7F5FD2F
:10B79000CDE91E010EE17D48006A014611906A98CC
:10B7A000FCF7FEFF3BD26E980A906F9809900A99B9
:10B7B000FCF76DFD0B90FCF794FFCDE90E01DDE980
:10B7C0002201CDE90601DDE92401CDE90401DDE92D
:10B7D0000623FCF773FECDE90A016E980146069038
:10B7E0006C98FCF754FD0790FCF77BFFCDE908014E
:10B7F000DDE90A23FCF768FECDE90C01DDE90E2343
:10B80000FCF7D4FECDE91001DDE92201CDE90E01FE
:10B81000DDE91023FCF7B1FDCDE91E01CAE05B486C
:10B82000406A014611906A98FCF7BAFF3BD26F98C4
:10B830000A90709809900A99FCF729FD0B90FCF783
:10B8400050FFCDE90E01DDE92401CDE90601DDE976
:10B850002601CDE90401DDE90623FCF72FFECDE941
:10B860000A016F98014606906C98FCF710FD07904E
:10B87000FCF737FFCDE90801DDE90A23FCF724FED8
:10B88000CDE90C01DDE90E23FCF790FECDE91001B6
:10B89000DDE92401CDE90E01DDE91023FCF76DFDA2
:10B8A000CDE91E0186E03948806A014611906A9808
:10B8B000FCF776FF3BD270980A90719809900A992C
:10B8C000FCF7E5FC0B90FCF70CFFCDE90E01DDE980
:10B8D0002601CDE90601DDE92801CDE90401DDE914
:10B8E0000623FCF7EBFDCDE90A01709801460690AE
:10B8F0006C98FCF7CCFC0790FCF7F3FECDE908014F
:10B90000DDE90A23FCF7E0FDCDE90C01DDE90E23BA
:10B91000FCF74CFECDE91001DDE92601CDE90E0171
:10B92000DDE91023FCF729FDCDE91E0142E0719805
:10B930000A90729809900A99FCF7A9FC0B90FCF701
:10B94000D0FECDE90E01DDE92801CDE90601DDE9F2
:10B950002A01CDE90401DDE90623FCF7AFFDCDE9BD
:10B960000A017198014606906C98FCF790FC0790CC
:10B97000FCF7B7FECDE90801DDE90A23FCF7A4FDD9
:10B9800006E000000000084000001040F41C002009
:10B99000CDE90C01DDE90E23FCF708FECDE910012D
:10B9A000DDE92801CDE90E01DDE91023FCF7E5FC16
:10B9B000CDE91E016C98FCF794FECDE90E01DDE99E
:10B9C0001E23FCF77BFDCDE91001FCF7CDFE6C904A
:10B9D00009496B98C1F82E006C98C1F83A000748E5
:10B9E0004068014611906C98FCF751FC0249C1F87F
:10B9F0003E007DB000BD0000541E0020F41C00205D
:10BA00000EB500BF02A800210B460122CDE90010AF
:10BA1000084602F051F823E000201249087012484D
:10BA2000808C00F47F4040F022000F498884FEF7AC
:10BA3000BDFC0520FEF750FC0B49C1F84200002078
:10BA400004F0FAF800214FF4007003F0F3FF02A8AD
:10BA500000210B460222CDE90010084602F02CF826
:10BA6000DAE7000022000020541E002030B5054611
:10BA70000C4622460021284600F001F830BD2DE991
:10BA8000F04103460C4617460FB9BDE8F08103B9F3
:10BA9000FBE70025002202E02D022543521C042A68
:10BAA000FAD3384603F0030C1946BCF1000F08D056
:10BAB000624603E001F8014B401E521C08B1042A03
:10BAC000F8D30E4601E020C6001F0428FBD2314601
:10BAD00002E001F8014B401E0028FAD100BFD4E774
:10BAE00070B5C0B005460026082D00D004260422FB
:10BAF00035493648FCF76AFB00B104263448007823
:10BB000000B905264EB13048001F807828B1304674
:10BB100000F00EFA002040B070BDFEF7A3FF2D48E4
:10BB20000088C0B28DF800002748001FC0788DF84B
:10BB3000010000208DF802008DF803008DF804004C
:10BB400058208DF80500B0208DF80600B02222495B
:10BB50000DF10700FCF716FBB7216846FDF760FE04
:10BB60000446E0B28DF8B70020128DF8B80001202D
:10BB7000184908800020486088604FF40070C88130
:10BB80001648086100204880142088810320A1F80D
:10BB9000AC00A1F8AE0014223220FEF78DF902228B
:10BBA0000C49AC31DE20FEF787F90748001F80788A
:10BBB00018B1B921684604F081FA0649B1F8AE001F
:10BBC00004F094FA0120A6E7E41E00203C000020C7
:10BBD0004C000020F41C0020A41D0020F2D21C41C7
:10BBE0002DE9F04FC1B081464FF0000A434841793A
:10BBF000007941EA00244148C179807941EA00286E
:10BC000004EB0800401E85B24FF0230B4FF6FF7087
:10BC100000EA4806B9F1080F01D04FF0040AB8F164
:10BC2000000F01D14FF0020A112C0FD0142C0DD0AF
:10BC3000162C0BD0182C09D01A2C07D01C2C05D090
:10BC40001E2C03D0202C01D0222C01D14FF0020A4F
:10BC5000102D0FD0132D0DD0152D0BD0172D09D071
:10BC6000192D07D01B2D05D01D2D03D01F2D01D060
:10BC7000212D01D14FF0020AABF10100A84201DAF7
:10BC80004FF0020AABF10100A04201DA4FF0020AC4
:10BC9000BAF1000F06D0504600F04AF9002041B03A
:10BCA000BDE8F08FFEF720FD15480088C0B28DF882
:10BCB00004001248C0788DF80500F0B28DF8060037
:10BCC000104800EB440132460DF10700FCF75AFA28
:10BCD000F01CC1B201A8FDF7A3FD074601AAF01CA4
:10BCE00017543912301D11540448807820B1701D4A
:10BCF00081B201A804F0E2F90120D0E7E01E0020A3
:10BD0000F41C00209A1E00202DE9F04FC1B081469E
:10BD10004FF0000A83484179007941EA00248148C4
:10BD2000C179807941EA002804EB0800401E85B201
:10BD30004FF0580B4FF6FF7000EA4806B9F1080FB4
:10BD400001D04FF0040AB8F1000F01D14FF0020A00
:10BD5000032C4FD0052C4DD0092C4BD00B2C49D0A7
:10BD60000D2C47D00F2C45D0112C43D0132C41D093
:10BD7000152C3FD0172C3DD0192C3BD01B2C39D083
:10BD80001D2C37D01F2C35D0212C33D0232C31D073
:10BD9000252C2FD0272C2DD0292C2BD02B2C29D063
:10BDA0002D2C27D02F2C25D0312C23D0332C21D053
:10BDB000352C1FD0372C1DD0392C1BD03B2C19D043
:10BDC0003D2C17D03F2C15D0412C13D0432C11D033
:10BDD000452C0FD0472C0DD0492C0BD04B2C09D023
:10BDE0004D2C07D04F2C05D0512C03D0532C01D013
:10BDF000552C01D14FF0020A022D4FD0042D4DD009
:10BE0000082D4BD00A2D49D00C2D47D00E2D45D0F2
:10BE1000102D43D0122D41D0142D3FD0162D3DD0E2
:10BE2000182D3BD01A2D39D01C2D37D01E2D35D0D2
:10BE3000202D33D0222D31D0242D2FD0262D2DD0C2
:10BE4000282D2BD02A2D29D02C2D27D02E2D25D0B2
:10BE5000302D23D0322D21D0342D1FD0362D1DD0A2
:10BE6000382D1BD03A2D19D03C2D17D03E2D15D092
:10BE7000402D13D0422D11D0442D0FD0462D0DD082
:10BE8000482D0BD04A2D09D04C2D07D04E2D05D072
:10BE9000502D03D0522D01D0542D01D14FF0020A64
:10BEA000ABF10100A84201DA4FF0020AABF1010048
:10BEB000A04201DA4FF0020ABAF1000F06D0504654
:10BEC00000F036F8002041B0BDE8F08FFEF7CAFD63
:10BED00015480088C0B28DF804001248C0788DF86B
:10BEE0000500F0B28DF80600104800EB4401324620
:10BEF0000DF10700FCF746F9F01CC1B201A8FDF7EF
:10BF00008FFC074601AAF01C17543912301D11543A
:10BF10000448807820B1701D81B201A804F0CEF8E9
:10BF20000120D0E7E01E0020F41C0020A41D00200A
:10BF30007CB50446DCB10E480088C0B28DF8000024
:10BF40000C48C07840F080008DF801008DF8024068
:10BF500003216846FDF764FC0546E8B28DF803004E
:10BF600028128DF804000521684604F0A7F87CBD6E
:10BF7000F41C0020E01E0020FEB505460026082D1A
:10BF800000D0042604222C492C48FCF71FF900B1EC
:10BF9000042646B12848001F807820B13046FFF7BC
:10BFA000C7FF0020FEBD2648D0F832002549886032
:10BFB0002348D0F83A0048602148D0F826000863AA
:10BFC0000422091D3620FDF777FF04221D490831A0
:10BFD0003A20FDF771FF04221A4930316220FDF743
:10BFE0006BFF18480088C0B28DF800001248001F8F
:10BFF000C0788DF8010000208DF8020002208DF835
:10C00000030000208DF8040004208DF805000621AF
:10C010006846FDF705FC0446E0B28DF806002012E4
:10C020008DF807000448001F807818B10821684681
:10C0300004F044F80120B5E7E41E00204000002091
:10C04000541E0020F41C0020FEB5054600260327E0
:10C05000082D00D00426042243494448FCF7B6F8D2
:10C0600008B9012708E004223F494148FCF7AEF82F
:10C0700008B9022700E0042646B13B48001F80783B
:10C0800020B13046FFF754FF0020FEBD012F2BD119
:10C0900001203849087034208DF8000012208DF8F6
:10C0A0000100022269462420FDF706FF3248808CF9
:10C0B000C0B240F480703049888430480088C0B2F3
:10C0C0008DF800002848001FC0788DF8010040203E
:10C0D0008DF8020060208DF8030080208DF80400A8
:10C0E000A0208DF805002AE0022F28D10020214948
:10C0F00008708DF800008DF80100022269462420A6
:10C10000FDF7DAFE1C48808CC0B240F400701A497A
:10C1100088841A480088C0B28DF800001248001FB9
:10C12000C0788DF8010044208DF8020066208DF85B
:10C13000030088208DF80400AA208DF80500062150
:10C140006846FDF76DFB0446E0B28DF8060020124C
:10C150008DF807000448001F807818B10821684650
:10C1600003F0ACFF012090E7E41E0020480000200F
:10C17000400000204C000020541E0020F41C002031
:10C180002DE9FF4106460027B846884841790079E5
:10C1900041EA00248548C179807941EA0020009075
:10C1A000082E06D00420FFF7C3FE002004B0BDE82F
:10C1B000F08174B1012C0CD0062C0AD0072C08D0C9
:10C1C000562C06D0572C04D00220FFF7B1FE0020D9
:10C1D000ECE7092C01DD4FF001087548007838B90B
:10C1E000B8F1010F04D10520FFF7A2FE0020DDE722
:10C1F000072C4AD005DC4CB1012C1DD0062C75D182
:10C2000024E0562C74D0572CF9D18AE0BDF80000F8
:10C2100018B1BDF80000F72804DD0320FFF788FE01
:10C220000020C3E7BDF80000624908800222694689
:10C230003220FDF741FE91E0BDF800005D494880E5
:10C24000022269463420FDF737FE87E0BDF8000082
:10C25000072807D0BDF80000142803D0BDF800005F
:10C26000642801D1012000E0002020B90320FFF75D
:10C270005FFE00209AE7BDF800004E498881022247
:10C2800069463E20FDF718FE68E0BDF80000012178
:10C29000B1EB202F17D0BDF800000221B1EB202F09
:10C2A00011D0BDF800000321B1EB202F0BD0BDF859
:10C2B00000000421B1EB202F05D0BDF800000521BE
:10C2C000B1EB202F01D1012000E0002020B9032094
:10C2D000FFF72EFE002069E7BDF800003549C88150
:10C2E000022269464020FDF7E7FD37E031E0FFE735
:10C2F000BDF80000002804DBBDF80000B0F5807F29
:10C3000004DD0320FFF714FE00204FE7BDF8000016
:10C310002849A1F8AC0002226946DE20FDF7CCFDD9
:10C320001CE0BDF80000012803DBBDF80000072871
:10C3300004DD0320FFF7FCFD002037E7BDF8000017
:10C340001C49A1F8AE0002226946E020FDF7B4FDC9
:10C3500004E00320FFF7ECFD002027E700BF27B132
:10C360003846FFF7E5FD002020E712480088C0B2FC
:10C370008DF804000D48C0788DF805000B48406822
:10C38000CDF80600062101A8FDF74AFA0546E8B2F5
:10C390008DF80A0028128DF80B000448807818B137
:10C3A000082101A803F08AFE0120FFE6E01E00201C
:10C3B0004C000020F41C00202DE9F04F87B080468F
:10C3C000002700200390FE484179007941EA0024CB
:10C3D000FB48C179807941EA0029F94890F808A022
:10C3E00004EB0900401E85B24FF0580BF448007A68
:10C3F000029002980930804500D00427B9F1000F5F
:10C4000002D0BAF1000F00D10227032C4FD0052C27
:10C410004DD0092C4BD00B2C49D00D2C47D00F2CD4
:10C4200045D0112C43D0132C41D0152C3FD0172CC4
:10C430003DD0192C3BD01B2C39D01D2C37D01F2CB4
:10C4400035D0212C33D0232C31D0252C2FD0272CA4
:10C450002DD0292C2BD02B2C29D02D2C27D02F2C94
:10C4600025D0312C23D0332C21D0352C1FD0372C84
:10C470001DD0392C1BD03B2C19D03D2C17D03F2C74
:10C4800015D0412C13D0432C11D0452C0FD0472C64
:10C490000DD0492C0BD04B2C09D04D2C07D04F2C54
:10C4A00005D0512C03D0532C01D0552C00D102279C
:10C4B000022D4FD0042D4DD0082D4BD00A2D49D040
:10C4C0000C2D47D00E2D45D0102D43D0122D41D02C
:10C4D000142D3FD0162D3DD0182D3BD01A2D39D01C
:10C4E0001C2D37D01E2D35D0202D33D0222D31D00C
:10C4F000242D2FD0262D2DD0282D2BD02A2D29D0FC
:10C500002C2D27D02E2D25D0302D23D0322D21D0EB
:10C51000342D1FD0362D1DD0382D1BD03A2D19D0DB
:10C520003C2D17D03E2D15D0402D13D0422D11D0CB
:10C53000442D0FD0462D0DD0482D0BD04A2D09D0BB
:10C540004C2D07D04E2D05D0502D03D0522D01D0AB
:10C55000542D00D10227ABF10100A84200DA0227D6
:10C56000ABF10100A04200DA0227092D01DD012014
:10C570000390092C01DD012003909248007818B93E
:10C580000398012800D1052737B13846FFF7D0FCC2
:10C59000002007B0BDE8F08FB0228B498B48FBF735
:10C5A000F1FD8A4901EB4400524685490931FBF708
:10C5B000E9FD00274CB9854800880006000C834936
:10C5C000098840EA112081490880012C0BDC012DEB
:10C5D00009DB7E4840880006000C7C49498840EA17
:10C5E00011207A494880022C07DC032D05DB7749AE
:10C5F000486803F0BEFF75494860042C07DC052D30
:10C6000005DB7249886803F0B4FF70498860062C26
:10C610000BDC062D09DB6D4880890006000C6B4998
:10C62000898940EA112069498881072C0BDC072D94
:10C6300009DB6648C0890006000C6449C98940EAE4
:10C6400011206249C881082C07DC092D05DB5F49F0
:10C65000086903F08EFF5D4908610A2C07DC0B2D89
:10C6600005DB5A49486903F084FF584948610C2C9E
:10C6700007DC0D2D05DB5549886903F07AFF534926
:10C6800088610E2C07DC0F2D05DB5049C86903F0CB
:10C6900070FF4E49C861102C07DC112D05DB4B499A
:10C6A000086A03F066FF49490862122C07DC132D63
:10C6B00005DB4649486A03F05CFF44494862142C94
:10C6C00007DC152D05DB4149886A03F052FF3F491D
:10C6D0008862162C07DC172D05DB3C49C86A03F07D
:10C6E00048FF3A49C862182C07DC192D05DB374989
:10C6F000086B03F03EFF354908631A2C07DC1B2D3D
:10C7000005DB3249486B03F034FF304948631C2C89
:10C7100007DC1D2D05DB2D49886B03F02AFF2B4913
:10C7200088631E2C07DC1F2D05DB2849C86B03F02E
:10C7300020FF2649C863202C07DC212D05DB234977
:10C74000086C03F016FF21490864222C07DC232D16
:10C7500005DB1E49486C03F00CFF1C494864242C7F
:10C7600007DC252D05DB1949886C03F002FF17490A
:10C770008864262C07DC272D05DB1449C86C03F0E0
:10C78000F8FE1249C864282C07DC292D05DB0F4967
:10C79000086D03F0EEFE0D4908652A2C07DC2B2DF1
:10C7A00005DB0A49486D03F0E4FE084948652C2C76
:10C7B00010DC2D2D0EDB0549886D03F0DAFE07E055
:10C7C000E01E00204C000020F41C0020A41D0020CE
:10C7D000CD4988652E2C07DC2F2D05DBCA49C86D95
:10C7E00003F0C7FEC849C865302C07DC312D05DBD6
:10C7F000C549086E03F0BDFEC3490866322C07DC4C
:10C80000332D05DBC049486E03F0B3FEBE494866D0
:10C81000342C07DC352D05DBBB49886E03F0A9FEFF
:10C82000B9498866362C07DC372D05DBB649C86E5A
:10C8300003F09FFEB449C866382C07DC392D05DBB0
:10C84000B149086F03F095FEAF4908673A2C07DC41
:10C850003B2D05DBAC49486F03F08BFEAA494867C6
:10C860003C2C07DC3D2D05DBA749886F03F081FEDA
:10C87000A54988673E2C07DC3F2D05DBA249C86F20
:10C8800003F077FEA049C867402C09DC412D07DB87
:10C890009D49D1F8800003F06CFE9B49C1F88000EF
:10C8A000422C09DC432D07DB9749D1F8840003F0C3
:10C8B00060FE9549C1F88400442C09DC452D07DB56
:10C8C0009149D1F8880003F054FE8F49C1F88800DF
:10C8D000462C09DC472D07DB8B49D1F88C0003F08F
:10C8E00048FE8949C1F88C00482C09DC492D07DB3A
:10C8F0008549D1F8900003F03CFE8349C1F89000CF
:10C900004A2C09DC4B2D07DB7F49D1F8940003F05A
:10C9100030FE7D49C1F894004C2C09DC4D2D07DB1D
:10C920007949D1F8980003F024FE7749C1F89800BE
:10C930004E2C09DC4F2D07DB7349D1F89C0003F026
:10C9400018FE7149C1F89C00502C09DC512D07DB01
:10C950006D49D1F8A00003F00CFE6B49C1F8A000AE
:10C96000522C09DC532D07DB6749D1F8A40003F0F2
:10C9700000FE6549C1F8A400542C09DC552D07DBE5
:10C980006149D1F8A80003F0F4FD5F49C1F8A8009F
:10C99000562C0EDC562D0CDB5B48B0F8AC000006C4
:10C9A000000C5949B1F8AC1040EA11205649A1F8E1
:10C9B000AC00572C0EDC572D0CDB5348B0F8AE0002
:10C9C0000006000C5049B1F8AE1040EA11204E4963
:10C9D000A1F8AE004C48008818B14B480088F728F1
:10C9E00000DD03274848B0F8AC00002805DB4648C6
:10C9F000B0F8AC00B0F5807F00DD03274248B0F806
:10CA0000AE00012804DB4048B0F8AE00072800DD86
:10CA100003273D490869FBF764FE3C4A3C4BCDE9DE
:10CA20000001FBF771FE0AD337490869FBF759FE8D
:10CA30000022384BCDE90001FBF77EFE00D2032730
:10CA400031488089072808D02F488089142804D0CD
:10CA50002D488089642800D0032767BBB0222A496B
:10CA60002D48FBF78FFB18222B493220FDF724FAC3
:10CA700002212A48FDF70FFC1C22274918314A20C1
:10CA8000FDF71AFA02212548FDF705FC7822224914
:10CA900034316620FDF710FA02212048FDF7FBFB38
:10CAA00004221D49AC31DE20FDF706FA02211B48A5
:10CAB000FDF7F1FB07E01A48807820B13846FFF710
:10CAC00037FA002065E514480088C0B28DF81000E0
:10CAD0001348C0788DF8110011484068CDF8120055
:10CAE000062104A8FCF79CFE0646F0B28DF816005D
:10CAF00030128DF817000A48807818B1082104A870
:10CB000003F0DCFA012044E5A41D00208FC2F528C3
:10CB10005C8F234000002440F41C002000000240F1
:10CB2000E01E002070B5002100230F22C4781CB342
:10CB3000174C246804F4E064C4F5E064C4F30721EE
:10CB4000C1F10404E3B20A4144789C40E1B2847824
:10CB5000144021430C07210E0E4C057861550478D2
:10CB600004F01F050124AC4005786D11AD0005F1FE
:10CB7000E025C5F8004109E0047804F01F05012410
:10CB8000AC40054D0678761145F8264070BD000092
:10CB90000CED00E000E400E080E100E00249014328
:10CBA000024A1160704700000000FA050CED00E039
:10CBB0007047000010B50348006810B101480068D4
:10CBC000804710BD9800002070B5044600F0BCF806
:10CBD0000020454908704549087045490870454995
:10CBE000086045490860454908704549087045494D
:10CBF000087045490860454908604549086045494D
:10CC00000870454800680A21B0FBF1F0434908600C
:10CC10004348006858B14348056845B14048066834
:10CC200003E0761E002028602D1D002EF9D1002083
:10CC30003D4908603D4908603D4908603D4908603C
:10CC40003D4908603D4908603D4908603D4908701C
:10CC500001F044FC01F07EFC204601F0FDF9208843
:10CC600000B170BD204601F05DFA208800B1F8E700
:10CC7000204601F063FA208800B1F2E7204601F077
:10CC8000A3FA208800B1ECE7204601F057FC208889
:10CC900000B1E6E7204601F0A7FD208800B1E0E7FB
:10CCA000204601F0BDFF208800B1DAE7204601F000
:10CCB00001FA208800B1D4E7204602F02FFC20883A
:10CCC00000B1CEE7204601F011FF208800B1C8E78F
:10CCD000204602F093FC208800B1C2E701F0E6F89C
:10CCE000FFF766FF00BFBCE7AC000020AD000020EE
:10CCF000E0000020380100203C010020C600002098
:10CD0000C7000020C8000020D4000020D800002068
:10CD1000DC000020E800002058110108E400002099
:10CD200028110108241101088C0000209000002027
:10CD300094000020980000209C000020A00000200B
:10CD4000A4000020160100200A4A1168002002E019
:10CD5000002204C1401C084A12689042F8D3054AD8
:10CD60001268054B1B6802EB8302121F034B1A600B
:10CD70007047000024110108281101084401002017
:10CD800008480078012800D0704707480078FA2842
:10CD900000DBF9E704480078401C0349087000BF35
:10CDA000F2E70000AD000020AC00002010B5002428
:10CDB0002E480078012800D010BD00BFFBF7CCF949
:10CDC000044600BF2A48007828B900BF2046FBF778
:10CDD000C7F900BFF0E726480078401E24490870D4
:10CDE00008460078002805DD00BF2046FBF7B8F9AB
:10CDF00000BFE1E71F480078002805DD00BF20469E
:10CE0000FBF7AEF900BFD7E701F054FB1A490870F1
:10CE10000846007800EB4000184951F820001849F6
:10CE200008600846006817490968884205D100BFB4
:10CE30002046FBF795F900BFBEE711480068D0F81F
:10CE40009000401C0E490968C1F890000E48006827
:10CE5000401C0D4908604FF080500C49086000BF2D
:10CE60002046FBF77DF900BF00BFA5E7AD0000201D
:10CE7000AC000020E0000020C7000020003B0020A4
:10CE80003C010020380100200C01002004ED00E0EE
:10CE900010B5002420480078002800DD10BD1F4890
:10CEA0000078002800DDF9E700BFFBF755F90446DC
:10CEB00000BF01F0FFFA1A4908700846007800EB3D
:10CEC0004000184951F820001749086008460068DA
:10CED00016490968884205D100BF2046FBF740F992
:10CEE00000BFDBE710480068D0F89000401C0E49F6
:10CEF0000968C1F890000E480068401C0C490860A1
:10CF00004FF080500B49086000BF2046FBF728F91E
:10CF100000BF00BFC2E70000AC000020E00000201E
:10CF2000C7000020003B00203C0100203801002009
:10CF30000C01002004ED00E070B5044600251848FF
:10CF40000078002803DD46F66250208070BD154849
:10CF50000078012803D045F689602080F6E7124862
:10CF60000078FA2803DB45F209202080EEE700BFB5
:10CF700000BFFBF7F1F8054600BF00BF0A48007884
:10CF8000401C0949087001F09BFB00BF00BF284608
:10CF9000FBF7E6F800BF00BF0020208000BFD5E708
:10CFA000AC000020AD000020E00000202DE9F041A1
:10CFB00005460C461646002700BF00BFFBF7CCF81D
:10CFC000074600BF00BF012D03D000200D490870A7
:10CFD00002E001200B49087014B10B48046006E020
:10CFE0000A4800680A21B0FBF1F00749086000BF59
:10CFF00000BF3846FBF7B4F800BF00BF0020308008
:10D00000BDE8F081E8000020E4000020581101088C
:10D0100070B50446002520480078002803DD46F658
:10D020006550208070BD1D480078012803D045F66A
:10D0300089602080F6E71A48007818B946F66450EF
:10D040002080EFE700BF00BFFBF786F8054600BF72
:10D0500000BF13480078401E114908700846007848
:10D0600000280ADD00BF00BF2846FBF779F800BFA3
:10D0700000BF46F663502080D4E701F02FFB00BFCD
:10D0800000BF2846FBF76CF800BF00BFFFF700FFAA
:10D090000020208000BFC5E7AC000020AD000020CC
:10D0A000E000002010B5044612480078E8B901F00D
:10D0B00001FA1149087008460078104908700E48B6
:10D0C000007800EB40000E4951F820000D4908603F
:10D0D000084600680C490860012006490870FBF703
:10D0E000CFFC43F69920208002E045F68A6020803C
:10D0F00010BD0000AD000020C7000020C6000020C9
:10D10000003B00203C010020380100202DE9F041C7
:10D1100007464FF0000800BF00BFFBF71DF8804630
:10D1200000BF00BF00203B4908803B4908603B49E5
:10D1300008603B4908603B4908603B49088100BFE3
:10D1400000BF4046FBF70CF800BF00BF00BF00BFA8
:10D15000FBF702F8804600BF00BF3448046800BFF8
:10D1600000BF4046FAF7FCFF00BF00BF21E000BF50
:10D1700000BFFAF7F1FF804600BF00BF00207834FF
:10D18000E06320602063A061A082E0826062A06210
:10D19000FCF740FB2062783C04F164060020B0817B
:10D1A000D4F8BC4000BF00BF4046FAF7D9FF00BF2B
:10D1B00000BF002CDBD100BF00BFFAF7CDFF8046D7
:10D1C00000BF00BF1A48056800BF00BF4046FAF71D
:10D1D000C7FF00BF00BF12E000BF00BFFAF7BCFFEF
:10D1E000804600BF00BF05F120060020B081AD6978
:10D1F00000BF00BF4046FAF7B3FF00BF00BF002DDD
:10D20000EAD102F09FF802F0F5FA00203880BDE87C
:10D21000F0810000F6000020080100201C01002021
:10D2200028010020D8000020F43A0020100100203E
:10D23000CC000020F8B5044600266946324800F0CC
:10D2400079FBBDF8000018B1BDF800002080F8BDE2
:10D250006A460021022000F0CDFBBDF8000018B1A5
:10D26000BDF800002080F2E700BF00BFFAF774FFAE
:10D27000064600BF00BF00202449086000BF00BF71
:10D280003046FAF76DFF00BF00BF00252048006858
:10D2900020490968884205D91D4800681D49096868
:10D2A000B0FBF1F525B91A4800680A21B0FBF1F589
:10D2B0006A460021284600F09DFB6946124800F0AE
:10D2C00021F9BDF8000018B1BDF800002080BEE7CC
:10D2D00000BF00BFFAF740FF064600BF00BF0020B6
:10D2E0000D490860094800680C49086001200C4994
:10D2F000087000BF00BF3046FAF732FF00BF00BF22
:10D300000020208000BFA2E7483D0020F800002058
:10D31000581101084011010808010020FC000020FC
:10D320000401002010B50348006810B101480068EE
:10D33000804710BD9C0000202DE9FF4F85B00446BA
:10D340009046DDE91995159F139E002002906148D3
:10D350000078002805DD47F24A10288009B0BDE8B2
:10D36000F08F1CB947F2AD102880F7E7B8F1000F35
:10D3700003D147F24F102880F0E71EB946F62F6020
:10D380002880EBE754480068874203D246F63060B5
:10D390002880E3E71498B84203D346F6316028802A
:10D3A000DCE71298102803D346F273202880D5E7D3
:10D3B00012980F2806D14948844203D046F27320C0
:10D3C0002880CBE7204601F03BFC0020288009F0B4
:10D3D000010088B109F0020070B1B346002004904A
:10D3E00007E00020CBF800000BF1040B0498401C70
:10D3F00004900498B842F4D3149806EB800003908C
:10D40000CDE9007932464046039B089900F032FA94
:10D410008346C4F828800898E06206982062129833
:10D4200084F83700C4F800B00398A06017986065CE
:10D43000179818B92A480068A06501E01798A065F8
:10D44000189860606662A763A4F83C904FF0000AE9
:10D4500008E0002104F17C0040F82A100AF10100E4
:10D4600000F0FF0ABAF1000FF3D004F1640016993E
:10D4700000F0A2FE204600F039F800BF00BFFAF726
:10D480006BFE029000BF00BF94F8370001F032F845
:10D49000204601F0A7F8204601F0AAFB11480088B9
:10D4A000401C1049088010480078012807D000BFB0
:10D4B00000BF0298FAF754FE00BF00BF4EE700BF5E
:10D4C00000BF0298FAF74CFE00BF00BFFFF7E0FC78
:10D4D00000BF43E7AC00002054110108303A00209F
:10D4E000E400002014010020AD00002010B5044627
:10D4F0000348006818B1204601490968884710BDF3
:10D500008C00002070B504460D46002615480078B2
:10D51000002803DD47F25510288070BD00BF00BF12
:10D52000FAF71AFE064600BF00BF1CB10E4800689D
:10D5300084420AD100BF00BF3046FAF711FE00BF97
:10D5400000BF47F257102880E7E700BF00BF304612
:10D55000FAF706FE00BF00BF2946204601F0E4FBB3
:10D5600000BFDAE7AC0000203801002010B5044607
:10D570000348006818B1204601490968884710BD72
:10D58000940000202DE9F04780460E4614461D46C3
:10D590004FF000096F480078002805DD46F2AE1014
:10D5A00028800020BDE8F0871EB1B6F5004F02D1FB
:10D5B00000E000BF04E045F6256028800020F1E788
:10D5C00000BF0CB10020206000BF00BFFAF7C4FD0F
:10D5D000814600BF00BF60480068406CA8B35E4849
:10D5E0000068406C401E5C49096848645A480068FD
:10D5F000476C1CB158480068006C2060FCF70AF9C1
:10D6000055490968096C401A53490968C1F8A400D2
:10D6100051480068D0F8A8004F490968D1F8A41013
:10D62000884207D24C480068D0F8A4004A490968EB
:10D63000C1F8A80000BF00BF4846FAF791FD00BF3F
:10D6400000BF002028803846ACE7FFE706F4004022
:10D6500058B100BF00BF4846FAF782FD00BF00BFC7
:10D6600046F2B010288000209CE73C480078002853
:10D670000BDD00BF00BF4846FAF772FD00BF00BFD8
:10D6800046F66350288000208CE74346072200219D
:10D69000084600F0A5FD00BF00BF4846FAF760FD50
:10D6A00000BF00BFFFF7F4FB00BF00BFFAF754FD57
:10D6B000814600BF00BF2848006890F8350020B1BF
:10D6C000012826D0032834D12CE0FCB12248006880
:10D6D000006C2060FCF79EF81F490968096C401A2D
:10D6E0001D490968C1F8A4001B480068D0F8A800CB
:10D6F00019490968D1F8A410884207D21648006871
:10D70000D0F8A40014490968C1F8A80000202880B6
:10D7100013E01CB110480068006C206046F2A910AC
:10D7200028800AE00CB10020206047F2D920288030
:10D7300003E046F62E60288000BF00BF0648006860
:10D74000476C00BF00BF4846FAF70AFD00BF00BFA4
:10D75000384627E7AC00002038010020E000002018
:10D760002DE9F04106460D4614461DB1B5F5004FB2
:10D7700002D100E000BF05E045F6256020800020D2
:10D78000BDE8F08100BFFCF745F8804623464246DD
:10D790002946304601F05AFB07463846F0E70000BC
:10D7A0002DE9F04705460E4617461C464FF0000A85
:10D7B0002E480078002804DD47F259102080BDE88B
:10D7C000F0871EB946F2D5202080F8E71FB946F24F
:10D7D000D5202080F3E700BF00BFFAF7BDFC8246EA
:10D7E00000BF00BF0DB922480568286868B900BFAE
:10D7F00000BF5046FAF7B4FC00BF00BF0020306005
:10D80000386047F252102080D9E795F83C0000F0CC
:10D81000010068B900BF00BF5046FAF7A1FC00BF85
:10D8200000BF00203060386047F254102080C6E707
:10D8300000BF00BF5046FAF793FC00BF00BF4FF097
:10D840000008D5F8249003E009F1040908F1010863
:10D85000D9F800000028F7D0C6F80080A86BA0EB2C
:10D86000080038600020208000BFA8E7AC0000203E
:10D8700038010020F0B50446DDE9055602EB8500CD
:10D880004FF0807C071F3846C7F800C0071F384696
:10D890003C60DFF89CC0071F3846C7F800C04FF057
:10D8A000123C071F3846C7F800C04FF0033C071F63
:10D8B0003846C7F800C04FF0023C071F3846C7F88B
:10D8C00000C0071F38463B60071F384639604FF0DD
:10D8D000113C071F3846C7F800C04FF0103C071F27
:10D8E0003846C7F800C04FF0093C071F3846C7F854
:10D8F00000C04FF0083C071F3846C7F800C04FF083
:10D90000073C071F3846C7F800C04FF0063C071F0A
:10D910003846C7F800C04FF0053C071F3846C7F827
:10D9200000C04FF0043C071F3846C7F800C0F0BDE8
:10D9300029EE000870B505460C460A480078002814
:10D9400003DD47F25D10208070BD0748854203D19A
:10D9500047F25B102080F7E72146284601F058FB8C
:10D9600000BFF1E7AC000020303A002010B51D48A0
:10D97000006810B11B4800688047FBF74BFF044666
:10D980001948006819490968884215D01648006886
:10D99000D0F89800201A14490968C1F89400124878
:10D9A0000068D0F89C0010490968D1F89410084428
:10D9B0000D490968C1F89C000C480068C0F89840FF
:10D9C00009480068D0F8B40009490968884205D2BE
:10D9D0000748006804490968C1F8B40000200449F8
:10D9E000086010BDA0000020380100203C0100208C
:10D9F000DC0000202DE9F04105460E4614460027C4
:10DA00002A480078002804DD47F275202080BDE810
:10DA1000F08127480078002803DD46F66350208017
:10DA2000F5E736B1022E05D0042E0AD0082E09D112
:10DA300001E000BF00BF1DB947F27E202080E6E76D
:10DA400004E003E045F625602080E0E700BF00BF6A
:10DA500000BFFAF781FB074600BF00BF0120154950
:10DA6000096881F836002346324629461148006885
:10DA700001F06EFB208838B100BF00BF3846FAF7CE
:10DA80006FFB00BF00BFC2E70A48006800F0EAFD74
:10DA900000BF00BF3846FAF763FB00BF00BFFFF7C7
:10DAA000F7F90020208000BFB1E70000AC000020A3
:10DAB000E0000020380100202DE9FF5F05460E46FA
:10DAC00017469846DDE90EA4002000905D480078D6
:10DAD000002804DD47F275202080BDE8FF9F5A48EA
