:020000040800F2
:10800000084A0020398100083D8100083F810008AE
:10801000418100084381000845810008478100082C
:108020004781000847810008478100084781000810
:108030004781000847810008AF8A000865DE000814
:10804000F396000847950008979500086595000885
:108050000B95000851950008C5940008CF940008BE
:10806000E3940008ED940008F79400084B9400088E
:10807000559400085F940008699400087394000800
:108080007D9400088794000819940008DF96000882
:10809000E9960008419400082D9400080195000815
:1080A0003D950008F1950008A1950008AB950008E2
:1080B000B5950008BF950008C99500081F950008F0
:1080C0001595000833950008299500087995000852
:1080D0008395000811960008C1960008CB96000809
:1080E000D99400085B950008D5960008DD95000836
:1080F000E79500086F950008D39500088D95000856
:10810000FB95000805960008919400089B940008D0
:10811000A5940008AF940008B994000823940008BF
:1081200037940008DFF80CD000F022FC004800472C
:10813000FD050108084A002004480047FEE7FEE765
:10814000FEE7FEE7FEE7FEE7FEE700002581000808
:1081500072B6704762B67047EFF3108072B6704720
:1081600080F31088704730BF704720BF7047B0FA67
:1081700080F0704790FAA0F0B0FA80F0704790FA63
:10818000A0F0704740EA01039B0703D009E008C94B
:10819000121F08C0042AFAD203E011F8013B00F8CC
:1081A000013B521EF9D27047D2B201E000F8012B18
:1081B000491EFBD270470022F6E710B513460A4667
:1081C00004461946FFF7F0FF204610BD30B50546BE
:1081D0000020034600E05B1C934205D2EC5CC85CC7
:1081E000201A01D1002CF6D130BDF0B480EA010292
:1081F000D40F4200B2EB410F02D2024608461146AC
:108200004A0042D0C30DDDB2C1F3C752AD1A202DD2
:1082100035DAC1F3160141F4000204B15242C5F14E
:10822000200602FA06F12A411044B3EBD05F23D0B6
:10823000C4B1012DA0EBC35009DCF0BC4FF00042EB
:1082400002EAC352DBB200F5000000F0EFBA4000D2
:1082500000F1807000EBC350A0F1807040EAD17053
:10826000490009E0490841EAC071A0EBC35000F59C
:108270000000400800EBC350F0BC00F0CEBA6142F1
:10828000012202EB4101001BF6E7F0BC704781F0D0
:108290000041AAE780F00040A7E780EA010210B59C
:1082A00002F00043400022D04A001FD0010E01EB33
:1082B0001261C0F35600C2F3560240F4000042F4CB
:1082C0000002A0FB022000047F39140400D0401CEF
:1082D00050EA124001D44000491EC2B20C0604EB21
:1082E000D010401C4008802A02D003E0002010BDBE
:1082F00020F00100002900DA0020184310BD30B43E
:1083000080EA010202F0004530F0004221F0004016
:1083100013D090B1C30DD40DC2F31601C0F31600F3
:10832000E41A41F4000140F400027D34914201D38B
:10833000641C00E04900002C02DA30BC00207047C9
:108340004FF400000023914201D3891A03434008EF
:108350004FEA4101F7D151B1914202D14FF00041B2
:1083600005E002D24FF0010101E06FF0010103EBE3
:10837000C450284430BC00F050BA2DE9FE4F80466E
:1083800081EA0300C00F0C46009021F0004123F069
:108390000045B8EB0200A94105D24046214690466F
:1083A0001C460B46024623F00040104347D0270DE1
:1083B000C7F30A00C3F30A510290401A0190402803
:1083C0006BDAC3F3130040F4801B0098924620B18F
:1083D0000023D2EB030A63EB0B0B01985946C0F163
:1083E0004002504600F0E8F906460D465046594610
:1083F000019A00F000FA10EB08006141002487EABE
:10840000115284EAE7731A4340D0009A62B3019A8A
:10841000012A4FEA075215DC001B61EB02014FF005
:10842000004202EA0752CDE90042001C41F58011EA
:1084300032462B4600F037FA03B0BDE8F08F4046D5
:108440002146F9E7001B61EB0201001C41F5801396
:1084500000185B412018A2F5001747EB030140EA22
:10846000D570B6196D4111E06D084FEA360645EA40
:10847000C0754FEA0752001B61EB0201001C41F579
:10848000801149084FEA30000019514132462B460D
:1084900003B0BDE8F04F00F0F7B9009801224000AA
:1084A0000023D0EB020263EBE073009821464FEA11
:1084B000E074B8EB000061EB0401E9E783F00043EE
:1084C0005BE781F0004158E72DE9FE4F81EA0304A4
:1084D00004F0004421F0004100944FF0000B23F021
:1084E000004350EA01045ED052EA03045BD0C3F3B8
:1084F0000A54C1F30A552C44A4F2F3340194A0FBAE
:108500000254C1F3130141F48011C3F3130343F484
:10851000801301FB024400FB034E840A970A44EADD
:10852000815447EA8357A4FB076802958D0A05FB2F
:1085300007854FEA932C04FB0C542705029D4FEA54
:10854000065847EA1637B5EB08056EEB070C870EA1
:10855000920E47EA811742EA8312A7FB0201B6EBAB
:108560000B0164EB00042B0D43EA0C335E1844EB63
:108570001C50DA465146E7FB0201C5F313044FEAEB
:108580000B3343EA14534FEA0432019C43EA0603D7
:10859000A4F10C040294009CCDE900B400F083F92E
:1085A00003B0BDE8F08F00200146F9E72DE9F04D5A
:1085B00081EA030404F0004B21F0004514464FF01B
:1085C000000A23F0004150EA050220D054EA0102DB
:1085D0001DD0C5F30A570246C5F31303C1F31300B8
:1085E000C1F30A5640F4801543F48013A7EB060844
:1085F000101BD64608F2FD3873EB050002D308F1D4
:10860000010801E092185B41B8F1000F03DA002085
:108610000146BDE8F08D00204FF4801106468446E7
:108620000EE0171B73EB050705D3121B63EB050365
:1086300006434CEA010C49084FEA300092185B41AE
:1086400050EA0107EDD152EA030012D082EA040099
:1086500083EA0501084305D0101BAB4106D2012275
:10866000002306E000224FF0004302E06FF0010219
:1086700053101AEB06004CEB085110EB0A0041EBCB
:108680000B01BDE8F04D00F0FFB896230022114623
:1086900000F0CCB80EB5C10F80EAE0700844CA07FC
:1086A000002140F233438DE80E000A460B4600F0ED
:1086B000FAF803B000BD0EB540F23341029100213B
:1086C000CDE900110A460B4600F0EDF803B000BDFD
:1086D00000F0004230F000400AD0C10D01F5607199
:1086E000C0F3160042EA0151C20840071143704727
:1086F000002001467047000030B5041E71F10004EF
:1087000004DB4FF00044404264EB0101141E73F19E
:10871000000405DB1C464FF00043524263EB0403A8
:108720008B4208BF824230BD30B5041E71F1000497
:1087300004DB4FF00044404264EB0101141E73F16E
:10874000000405DB1C464FF00043524263EB040378
:10875000994208BF904230BD01F0004330B421F08F
:10876000004150EA010206D00A0DA2F56072C1F381
:108770001301002A02DC30BC00207047440F44EA99
:10878000C104C100E01830BC00EBC25000F045B895
:10879000002801DBC0F10040002901DBC1F10041EC
:1087A00081427047002801DBC0F10040002901DB55
:1087B000C1F1004188427047202A04DB203A00FAC8
:1087C00002F1002070479140C2F1200320FA03F328
:1087D000194390407047202A04DB203A21FA02F026
:1087E0000021704721FA02F3D040C2F120029140EB
:1087F000084319467047202A06DBCB17203A41FA76
:1088000002F043EAE07306E041FA02F3D040C2F11D
:10881000200291400843194670470029A8BF7047BD
:10882000401C490008BF20F00100704710B4B0FAA6
:1088300080FC00FA0CF050EA010404BF10BC704741
:1088400049B1CCF1200421FA04F411FA0CF118BF5B
:10885000012121430843A3EB0C01CB1D4FEA00612A
:108860004FEA102042BF002010BC704700EBC350FD
:1088700010440029A4BF10BC7047401C490008BF29
:1088800020F0010010BC704710B5141E73F10004F5
:1088900008DA401C41F1000192185B411A4301D1F2
:1088A00020F0010010BD2DE9F04D92469B4611B11C
:1088B000B1FA81F202E0B0FA80F220329046FFF77E
:1088C0007BFF04460F4640EA0A0041EA0B0153468B
:1088D0005A46084313D0114653EA010019D0C8F193
:1088E00040025046FFF777FF05460E465046594670
:1088F0004246FFF761FF084305D0012004E020460F
:108900003946BDE8F08D0020054346EAE0762C4369
:1089100037430A986305E40AA0EB08000022FD0A29
:1089200044EA47540A3002D500200146E9E7010530
:1089300010196941DDE9084500196941BDE8F04DAC
:10894000A2E770B521F0004303430CD0C1F30A55F0
:108950000024D5EB040564EB0403D617AD1AB3412C
:1089600002DB0020014670BD201841EB025170BDB2
:10897000064C074D06E0E06840F0010394E807006C
:1089800098471034AC42F6D3FFF7D0FB90130108A0
:10899000B01301082DE9F04D00231A461B1A8A4135
:1089A00003DB00200146BDE8F08DC1F30A52C1F39C
:1089B000130141F480154FF0000BD10702D10018CC
:1089C0006D41521E0027044640F2FF11384601EB6C
:1089D000620A3E468046024600204FF48011FFF7AF
:1089E000FAFEC2197141BB1846EB0100B4EB030C4F
:1089F00075EB000C04D3E41A65EB000517460E4630
:108A0000241908F101006D4180463428E3DDF9198D
:108A100046EB0600091BA84103D24FF0FF32134674
:108A200001E0002213461BEB070046EB0A51BDE8AC
:108A3000F04DFFF729BF70B58C1810F8015B15F0E9
:108A4000070301D110F8013B2A1106D110F8012BC0
:108A500003E010F8016B01F8016B5B1EF9D12B07E5
:108A600005D40023521E0DD401F8013BFAE710F89B
:108A7000013BCB1A921C03E013F8015B01F8015B88
:108A8000521EF9D5A142D8D3002070BD18484FF02E
:108A9000FF010170002080F309881648016881F306
:108AA000088815484FF08051016062B6FEE772B643
:108AB000EFF3098028B1203880E8F00F0F490968EA
:108AC000086000B50E4880475DF804EB0D480E497C
:108AD0000A78027009480D490A680260106890E837
:108AE000F00F203080F309884EF0040E62B6704714
:108AF00022ED00E03801002004ED00E02C01002010
:108B00008DD90008BA000020BB00002030010020F1
:108B10003EB54FF4FA7400F0EFF805460922002143
:108B2000042000F04BF90CE002A8002102230A46C1
:108B3000CDE90010084604F0CFFF601E041E00D1EE
:108B40003EBD00F0B3F80028EED000F0D5F80546A1
:108B50002846F5E770B504460D4616460DB140218E
:108B600000E0002141EAC4010EB1042200E000222D
:108B70001143C8B207F092F970BD00002DE9F04F23
:108B800089B083464FF0000A00200790069001202C
:108B900007F0E2F83C48008A00F0400000286BD162
:108BA00000BF00BFFFF7D8FA069000BF00BF00204B
:108BB00000F0D0F8002007F071F982464FEA0A2A47
:108BC000002007F06BF940EA0A0A4FEA0A2A00205F
:108BD00007F064F940EA0A0A00BF00BF0698FFF7F1
:108BE000BFFA00BF00BF1021274801F044FBAAF5DF
:108BF00000002649096808442449086024480068A0
:108C0000401C234908602348007810B9BBF1000FCD
:108C100032D11F480068FFF74EFDCDE900011B4827
:108C20000068FFF737FD804600221B4BFFF74CFC26
:108C30000646DDE90023FFF7B9FC0022174BCDE91A
:108C40000201FFF7B3FC0022154BCDE90401FFF749
:108C5000ADFC0446FFF780FD079012490798C1F864
:108C60002A000020094908600A49087001200E49BD
:108C700008700020064908601021034801F0FBFA43
:108C800009B0BDE8F08F0000000002405000002055
:108C90004C000020480000200088B3400000404005
:108CA00000006041401E0020490000200248008A68
:108CB000012121EA901070470000024070B50024A5
:108CC0000025012007F048F800F04CF800220121AF
:108CD0000420FFF73FFF002007F0E0F8054600F012
:108CE00083F8044600F01FF80646FFF711FF012045
:108CF00000F047F8204670BD10B500240022012185
:108D00000620FFF727FF002007F0C8F804462402DA
:108D1000002007F0C3F804432402002007F0BEF847
:108D20000443204610BD10B5002400220121072075
:108D3000FFF710FF002007F0B1F8044624020020DE
:108D400007F0ACF804432402002007F0A7F804431E
:108D5000204610BD10B50446224601210320FFF72E
:108D6000F9FE10BD10B5002404E0FF2007F096F8CE
:108D7000601CC4B2042CF8DB00BF00BF00BF00BF02
:108D800010BD3EB50446012006F0E6FF02A8002112
:108D90000A230A46CDE90010084604F09DFE07228A
:108DA0000021084600F00AF8012000230522194698
:108DB000CDE90004184600F023F83EBD70B5044626
:108DC0000D461646002211460120FFF7C3FE0DB1E5
:108DD000102100E0002141EA4411C8B207F05EF81A
:108DE000304607F05BF870BD10B500220121104637
:108DF000FFF7B0FE002007F051F80446204610BDF2
:108E00002DE9F04704460D4616461F46DDE9088960
:108E1000002211460220FFF79DFE0CB1202100E048
:108E200000210DB1102200E00022114341EA0600AA
:108E300007F034F80FB1202100E00021B8F1000F55
:108E400001D0102200E00022114341EA090007F09E
:108E500025F8BDE8F08721B1826842F00102826006
:108E600003E0826822F00102826070470A46002116
:108E7000816821F0F0011143816070470146886DDF
:108E800080B270470246002013680B400BB10120EE
:108E900000E000207047000030B5024600200023AB
:108EA0005068104C20400D790C6844EA052420439A
:108EB000506090680C4C2040D1E903542C438D68DD
:108EC0002C434D7944EA450420439060106B20F018
:108ED000F8700C7D641EE4B2234340EA0350106333
:108EE00030BD0000FFFEFFFCFDF7FFC01AB1436874
:108EF0000B43436002E043688B4343607047F0B527
:108F000004460D46002000211D2D11DDE06DA5F168
:108F10001E0606EB4607072606FA07F18843A5F169
:108F20001E0606EB460603FA06F10843E06534E048
:108F3000132D11DDE068A5F1140606EB46070726A0
:108F400006FA07F18843A5F1140606EB460603FA74
:108F500006F10843E06020E0092D11DD2069A5F14C
:108F60000A0606EB4607072606FA07F18843A5F12D
:108F70000A0606EB460603FA06F1084320610CE0F8
:108F8000606905EB4507072606FA07F1884305EBFC
:108F9000450603FA06F108436061072A0FDA206CE0
:108FA000561E06EB86071F2606FA07F18843561E53
:108FB00006EB860605FA06F1084320644AE00D2A0E
:108FC0000FDAE06BD61F06EB86071F2606FA07F1BD
:108FD0008843D61F06EB860605FA06F10843E063D0
:108FE00038E0132A11DAA06BA2F10D0606EB860712
:108FF0001F2606FA07F18843A2F10D0606EB860646
:1090000005FA06F10843A06324E0192A11DA606B1F
:10901000A2F1130606EB86071F2606FA07F188431E
:10902000A2F1130606EB860605FA06F10843606313
:1090300010E0206BA2F1190606EB86071F2606FA40
:1090400007F18843A2F1190606EB860605FA06F138
:1090500008432063F0BD816841F080418160704722
:10906000002101600171417181604FF04071C16068
:109070000021016101210175704700008AB00026BE
:1090800000F061F900F076FB00F056F904467748ED
:109090000068B4FBF0F5284604F000FF09A804F0CE
:1090A000D9F809AA0121084603F090FF4FF4806027
:1090B00003F084FD01F02EF84FF4164007F032F86B
:1090C00006F06CFEFFF7FAFD01F0B6F909A80021E1
:1090D000674A0223CDE90032CDE902100A230A468D
:1090E00064A1664804F0FEFD00BF00BFFFF734F83E
:1090F000064600BF00BF09A8032100220592CDE962
:10910000062108901046402106225D4BCDE9013230
:10911000CDE90310042000235A4A5BA100905D486A
:1091200004F01AF909A8032100220592CDE90621CD
:10913000089010464FF400713322574BCDE90132AD
:10914000CDE9031003200023544A55A1009059484B
:1091500004F002F909A8032100220592CDE90621B5
:10916000089010464FF480711922534BCDE901321B
:10917000CDE9031005200023504A51A10090534827
:1091800004F0EAF809A8032100220592CDE906219E
:109190000890104680210C224D4BCDE90132CDE9DB
:1091A0000310072000234B4A4BA100904E4804F0C7
:1091B000D3F809A8032100220592CDE906210890E1
:1091C000104680210C22494BCDE90132CDE9031034
:1091D00006200023464A47A10090494804F0BCF805
:1091E00009A8032100220592CDE906210890104626
:1091F00040210622434BCDE90132CDE9031009207D
:109200000023414A41A10090434804F0A5F809A871
:10921000032100220592CDE9062108901046402145
:1092200006223E4BCDE90132CDE903100A2000238E
:109230003B4A3CA100903E4804F08EF800BF00BFBE
:109240003046FEF78DFF00BF00BF0DE009A80021EA
:109250000B460122CDE90010084604F03DFC3548DC
:10926000006A401C33490862F0E700004C11010815
:10927000B5100108746D7231000000000804002070
:10928000C80D00204D970008434C435744542054C8
:1092900061736B00000D00200005002035A9000857
:1092A000496E737472756374696F6E205461736B69
:1092B000000000003C040020900F002049F9000845
:1092C000504153205461736B00000000C80E002011
:1092D0002017002071BB00084D41494E504F5745A3
:1092E00052205461736B000058160020581400205F
:1092F000B1FF000854454D50205461736B000000CD
:1093000090130020E819002089AB00084C45443038
:10931000205461736B00000020190020B01B002056
:10932000CDAB00084C454431205461736B00000004
:10933000E81A0020401E00201FB5684606F0CEFB4C
:10934000019804B010BD10B500F0D8F906F09AFBF2
:10935000012006F071FC00BF312006F03FFC002820
:10936000FAD0012000F0F6FD012000F0E1FD01201F
:1093700000F002FE0121080706F044FB4FF40060F4
:1093800006F022FB00BF102006F012FB0028FAD1E5
:1093900006F046FC002006F069FC002006F05AFCAE
:1093A000C0220421012006F073FC012006F06AFCB3
:1093B00000BF392006F012FC0028FAD0032006F086
:1093C00071FC00BF06F024FC0C28FBD110BD10B5C9
:1093D000FEF7BEFE10BD000070B50446002600BFBB
:1093E00000BFFEF7B9FE064600BF00BF03F0D8FC81
:1093F00000BF00BF3046FEF7B3FE00BF00BF392CF0
:1094000004D2044850F8245005B1A84703F0DEFC0C
:1094100070BD0000E825002010B51220FFF7DCFF2A
:1094200010BD10B53720FFF7D7FF10BD10B51620BF
:10943000FFF7D2FF10BD10B53820FFF7CDFF10BDEC
:1094400010B51520FFF7C8FF10BD10B50B20FFF7B2
:10945000C3FF10BD10B50C20FFF7BEFF10BD10B547
:109460000D20FFF7B9FF10BD10B50E20FFF7B4FFB8
:1094700010BD10B50F20FFF7AFFF10BD10B51020C5
:10948000FFF7AAFF10BD10B50B20FFF7A5FF10BD19
:1094900010B53220FFF7A0FF10BD10B53320FFF745
:1094A0009BFF10BD10B53420FFF796FF10BD10B51F
:1094B0003520FFF791FF10BD10B53620FFF78CFF68
:1094C00010BD704710B50620FFF786FF10BD10B520
:1094D0000720FFF781FF10BD10B52820FFF77CFFA4
:1094E00010BD10B50820FFF777FF10BD10B509209B
:1094F000FFF772FF10BD10B50A20FFF76DFF10BD1A
:1095000010B51720FFF768FF10BD10B50420FFF756
:1095100063FF10BD10B52020FFF75EFF10BD10B532
:109520001F20FFF759FF10BD10B52220FFF754FF91
:1095300010BD10B52120FFF74FFF10BD10B518204A
:10954000FFF74AFF10BD10B50120FFF745FF10BD22
:1095500010B50520FFF740FF10BD10B52920FFF71B
:109560003BFF10BD10B50320FFF736FF10BD10B54F
:109570002D20FFF731FF10BD10B52320FFF72CFF82
:1095800010BD10B52420FFF727FF10BD10B52F2008
:10959000FFF722FF10BD10B50220FFF71DFF10BD21
:1095A00010B51A20FFF718FF10BD10B51B20FFF7EC
:1095B00013FF10BD10B51C20FFF70EFF10BD10B536
:1095C0001D20FFF709FF10BD10B51E20FFF704FF97
:1095D00010BD10B52E20FFF7FFFE10BD10B52B20DB
:1095E000FFF7FAFE10BD10B52C20FFF7F5FE10BDF9
:1095F00010B51920FFF7F0FE10BD10B53020FFF7B1
:10960000EBFE10BD10B53120FFF7E6FE10BD0000E7
:109610002DE9F041264C002600BF00BFFEF79CFD5F
:10962000064600BF00BF03F0BBFB00BF00BF3046D3
:10963000FEF796FD00BF00BF4FF480701D49088003
:1096400040F225511C4806F03DFEE8B11A4806F0EC
:1096500018FFC5B240F22551174806F00BFE174817
:10966000007808BBD4E90001401AFF2806D8217809
:1096700004F1080045542068401C206020782179BE
:10968000401A0E4948700FE040F224410A4806F0A3
:1096900019FE48B108480088C7B20748001D008875
:1096A000C7B201200549087003F090FBBDE8F081C6
:1096B000D02200201A04024000380140CC1E0020B5
:1096C00010B52620FFF788FE10BD10B52720FFF744
:1096D00083FE10BD10B52A20FFF77EFE10BD10B529
:1096E0001320FFF779FE10BD10B51420FFF774FEAC
:1096F00010BD10B50020FFF76FFE10BD10B500249F
:1097000004E00449204600F007F8641C392CF8D323
:1097100010BD0000C394000870B504460D46002635
:10972000392C10D200BF00BFFEF716FD064600BF61
:1097300000BF054840F8245000BF00BF3046FEF788
:109740000FFD00BF00BF70BDE82500200EB500BFB3
:109750000DE002A8002140F2EE230A46CDE90010F8
:10976000084604F0B9F90221014800F07EFDF0E757
:109770000000024010B500F01FF800F019F810BD0D
:1097800010B5002400BF00BFFEF7E6FC044600BF92
:1097900000BF1021054802F021FA00BF00BF20469B
:1097A000FEF7DEFC00BF00BF10BD0000F83D00204A
:1097B00010B5FFF7E5FF10BD10B5002002490860A5
:1097C00000F00AF810BD00003401002001490860D3
:1097D000704700003401002010B5FFF7ADFD0446CE
:1097E0000848006840F0807006490860002006497B
:1097F00048600846006840F0010008602046FFF716
:10980000E5FF10BDFCED00E0001000E001494868F4
:1098100070470000001000E070B502464FF6FF7080
:10982000002313E012F8015B684000240AE000F016
:10983000010525B14AF2010585EA600000E040100B
:10984000651CECB2082CF2DB5D1CEBB28B42E9DB51
:1098500070BD0000FEB5064600270024082E00D08B
:109860000427042245494648FEF7B0FC00B104270E
:109870004448007800B9052747B14048001F807868
:1098800020B1384602F006FC0020FEBD002406E0B0
:1098900000213D4800EB84000160601CC4B2052C2F
:1098A000F6DB002407E000213748143000EB840089
:1098B0000160601CC4B2052CF5DB002407E0002128
:1098C0003148283000EB84000160601CC4B2052CD4
:1098D000F5DB002407E000212B483C3000EB84003E
:1098E0000160601CC4B2052CF5DB002407E00021F8
:1098F0002548503000EB84000160601CC4B2052C88
:10990000F5DB002407E000211F48643000EB8400F1
:109910000160601CC4B2052CF5DB78221A49662070
:1099200000F0BCFA184834380088C0B28DF8000046
:109930001248001FC0788DF8010000208DF8020049
:109940001A208DF8030000208DF804003C208DF8CB
:10995000050006216846FFF75FFF0546E8B28DF86F
:10996000060028128DF807000448001F807818B1FF
:109970000821684606F0BEFB012086E7D01E0020C5
:109980003700002043000020181D002030B5044699
:109990000425680300F0FCFA0546042D01D10020DF
:1099A0002060284630BD000070B504460D460426F0
:1099B000700300F0EDFA0646042E0AD1064800684E
:1099C00020F48070044908602560700300F0E0FA1C
:1099D0000646304670BD0000043C02400348006863
:1099E00040F001000149086070470000043C02405B
:1099F0002DE9F04104460D46042600274FF00008EB
:109A0000700300F0C5FA0646042E1CD12DB1257056
:109A1000400300F0BDFA064615E024F00308D8F82C
:109A20000070A007C10EFF2000FA01F827EA08071E
:109A300024F00300FFF7AAFF064624F0030039468E
:109A4000FFF7B2FF06463046BDE8F08105480068E2
:109A500000F0010028B104480249083108600348B9
:109A600008607047043C0240EFCDAB890504030257
:109A700010B50023002456E05B104348006820F036
:109A80004070414908600846006840F080700860F6
:109A9000081D008820F48050091D088008460088B1
:109AA00040F480500880081D006820F04070091DB7
:109AB00008600846006840F040700860081D0068B3
:109AC00020F04070091D08600846006840F0807072
:109AD000086088142C491A310880012000F090F9A0
:109AE0002948006820F040702749086026480C305B
:109AF000006820F0407024490C3108600846006876
:109B000040F080700860002000F07AF91E481030A4
:109B1000008800F4805008B143F080033A2000F040
:109B20006FF9601CC4B2082CA6DB1748006820F04F
:109B30004070154908600846006840F08070086071
:109B4000081D008820F48050091D08800846008800
:109B500040F480500880081D006820F04070091D06
:109B600008600846006840F040700860081D006802
:109B700020F04070091D08600846006840F08070C1
:109B80000860184610BD00000004024000B54448BB
:109B9000006820F04070424908600846006840F0C4
:109BA00080700860081D008820F48050091D08801E
:109BB0000846008840F480500880081D006820F0A6
:109BC0004070091D08600846006840F04070086059
:109BD000081D006820F04070091D086008460068F4
:109BE00040F08070086088142D491A3108804FF4C5
:109BF000F07000F005F94FF48050294918310880C1
:109C00002748006820F040702549086024480C303F
:109C1000006820F0407022490C3108600846006856
:109C200040F080700860372000F0EAF81C481030DF
:109C3000008800234FF4F07000F0E2F81848006844
:109C400020F04070164908600846006840F08070B7
:109C50000860081D008820F48050091D088008460F
:109C6000008840F480500880081D006820F0407093
:109C7000091D08600846006840F040700860081D33
:109C8000006820F04070091D08600846006840F038
:109C9000807008608814024918310880184600BD99
:109CA000000402402DE9FC47FFF770FF10B1244883
:109CB000BDE8FC87CC2000F047F8442000F044F8D1
:109CC000FFF764FF08B11E48F2E7CC2000F03CF833
:109CD000BE2000F039F8FFF7CBFE8246FFF7C8FE42
:109CE00081464AEA092505F47840B0B1E843401CB2
:109CF00085B2C5F30A00FEF7CDFC0022114BCDE979
:109D00000001FEF7E1FB0746FEF726FD044621466B
:109D10000020FEF7BCFA06460EE0C5F30A00FEF787
:109D2000B9FC07460022074BFEF7CEFBCDE9000148
:109D3000FEF712FD0446264602253046B8E700002D
:109D40000000AAC20000B03F10B503462B480068CF
:109D500020F04070294908600846006840F0807093
:109D60000860081D008820F48050091D08800846FE
:109D7000008840F480500880081D006820F0407082
:109D8000091D08600846006840F040700860081D22
:109D9000006820F04070091D08600846006840F027
:109DA00080700860002426E003F0010080B14FF4C9
:109DB000805012491A310880022000F021F84FF437
:109DC00080500E49183108803C2000F019F80FE04F
:109DD0004FF4805009491A3108803C2000F010F8F7
:109DE0004FF48050054918310880022000F008F82F
:109DF0005B10601CC4B2082CD6DB10BD000402400E
:109E0000002100BF01E000BF491C8142FBD3704725
:109E10002DE9F04105460C4616464FF00008002794
:109E20000C482F18DFF8308000BF00F067F80128D9
:109E300004D1B8F10000A8F10108F6D103E017F849
:109E4000010B04F8010B301EA6F101018EB2F6D110
:109E5000BDE8F08180020808FFFF0F002DE9F04106
:109E600005460C46174600260B482E18FFF7EEFD58
:109E700000BF00F043F80128FBD003E016F8010B07
:109E800004F8010B381EA7F101018FB2F6D1FFF7DC
:109E9000A5FDBDE8F0810000000008082DE9F041B3
:109EA00005460C4616460027B84613482F18FFF7FC
:109EB000CDFD00BF00F022F80428FBD113E000BF65
:109EC00000BFFEF749F9804600BF00BF14F8011B30
:109ED00038467F1CFFF78CFD00BF00BF4046FEF7F1
:109EE0003FF900BF00BF301EA6F101018EB2E6D1DE
:109EF000FFF774FDBDE8F0818002080804200B49DB
:109F0000096801F0010109B101200EE00749096863
:109F100001F4807109B1022007E00449096801F4E5
:109F2000F05109B1032000E004207047183C0240C2
:109F300030B10749096841F00201054A116005E0A6
:109F40000349096821F00201014A116070470000CD
:109F5000003C024030B10749096841F00401054A5C
:109F6000116005E00349096821F00401014A11600C
:109F700070470000003C024001460020034A106880
:109F800020F001000843106070470000003C0240D0
:109F900008B5024604200090FFF7B0FF009003E0F0
:109FA000FFF7ACFF0090521E9DF80000012801D180
:109FB000002AF5D10AB9052000909DF8000008BDDF
:109FC0002DE9FE4306460027B8460024082E00D09F
:109FD0000427042249494A48FEF7F8F830B1042220
:109FE00046494848FEF7F2F800B104274648007891
:109FF00000B905272FB1384602F04CF80020BDE823
:10A00000FE833E48001F90F803804048D0F82A4065
:10A01000A8F14300062844D2DFE800F003161F2809
:10A02000313A3B488461042200F118014A20FFF7CD
:10A0300035FF3648D0F82600354908630422303110
:10A040006220FFF72BFF2DE03148C461042200F1AC
:10A050001C014E20FFF722FF24E02D480462042259
:10A0600000F120015220FFF719FF1BE0284844624D
:10A07000042200F124015620FFF710FF12E02448CB
:10A080008462042200F128015A20FFF707FF09E04B
:10A090001F48C462042200F12C015E20FFF7FEFE7F
:10A0A00000E000BF00BF1A480088C0B28DF8000071
:10A0B0001248001FC0788DF8010000208DF80200C2
:10A0C0000A208DF8030000208DF8040002208DF88E
:10A0D000050006216846FFF79FFB0546E8B28DF8AC
:10A0E000060028128DF807000448001F807818B178
:10A0F0000821684605F0FEFF012080E7D01E002001
:10A10000370000203B00002043000020401E0020BC
:10A11000E41C00201CB50121032005F063FC0A208B
:10A12000009001208DF8040000208DF80600012029
:10A130008DF807008DF805006946174800F030F8E3
:10A140000821154800F097F84FF440700090012066
:10A150008DF8040000208DF8060001208DF807001E
:10A160008DF8050069460D4800F01AF84FF480702C
:10A170000A49183108800001009001208DF8040080
:10A180008DF806008DF807008DF805006946034834
:10A1900000F006F81CBD0000000002400004024070
:10A1A000F0B502460B46002100240025002000BF28
:10A1B00035E0012606FA01F41E6806EA0405A54208
:10A1C0002CD110684F000326BE40B0431E794F00CB
:10A1D000BE40304310601E79012E02D01E79022E3F
:10A1E00012D190684F000326BE40B0435E794F0005
:10A1F000BE4030439060908801268E40B0439E79E7
:10A200008E40B6B230439080D0684F000326BE40E7
:10A21000B043DE794F00BE403043D060491C102966
:10A22000C7D3F0BDF0B5002300244D07ED0E02FAB0
:10A2300005F3CE1000F1200555F826504E07F70E15
:10A240000F26BE40B543CF1000F1200646F8275038
:10A25000CE1000F1200555F8265045EA0304CE1033
:10A2600000F1200545F82640F0BD828A4A408282EE
:10A2700070474183704701837047000010B54FF667
:10A28000FF740948FEF7E7FE00BF02210648FEF70B
:10A29000F9FD20B9201EA4F101018CB2F5D10248CC
:10A2A000FEF7ECFD10BD0000002401402DE9F04F49
:10A2B00085B004464FF00009CB460020029082464C
:10A2C00019E000BF00BFFDF747FF029000BF00BFCD
:10A2D000FFF7D4FF814400BF00BF0298FDF740FFA5
:10A2E00000BF00BF04AA0520039903F093FB0AF105
:10A2F000010000F0FF0AA245E3DBB9FBF4F9484690
:10A30000FEF7D9F9094A0A4BCDE90001FEF7DCF85E
:10A3100007460022074BFEF749F90546FEF71CFAEF
:10A320008346584605B0BDE8F08F00002592E865E9
:10A33000149F42400000B0401FB5002000900190E3
:10A3400002900390102269464FF4C070FFF786FD1B
:10A3500000240EE0012000EB44001DF800001DF871
:10A36000141040EA0121054800EB44000180601C04
:10A37000C4B2082CEEDB012004B010BD481E002042
:10A3800010B588B0012005F05FFC04200090032088
:10A390008DF8040000208DF8070069462448FFF777
:10A3A000FFFE4FF6FF7400BF212005F017FC20B917
:10A3B000201EA4F101018CB2F6D10121480205F062
:10A3C00041FB02A8FEF74CFE002002908DF80C0025
:10A3D00001208DF80D0000200490069001208DF8DA
:10A3E0001C0002A91348FEF757FD07230122022192
:10A3F0001048FEF784FD10210E48FEF737FD0122BC
:10A400004FF440310B48FEF771FD01210948FEF77A
:10A4100022FD4FF6FF7400BF40210648FEF732FDD3
:10A4200020B9201EA4F101018CB2F5D108B010BDF5
:10A43000000002400024014038B5002000900024B4
:10A44000022269461620FFF7E3FC9DF8000012285F
:10A450007ED09DF801003428FAD0142278493220A9
:10A46000FFF7D6FC0120764908800020486088600C
:10A470004FF40070C88173480861002048801420A0
:10A4800088810320A1F8AC0002216F48FFF7EDFEA0
:10A4900014226B493220FFF701FD00BF07E00021C5
:10A4A0006748343000EB84000160601CC4B2052CA6
:10A4B000F5DB002407E000216148483000EB840010
:10A4C0000160601CC4B2052CF5DB002407E000210C
:10A4D0005B485C3000EB84000160601CC4B2052C5A
:10A4E000F5DB002407E000215548703000EB8400C4
:10A4F0000160601CC4B2052CF5DB002407E00021DC
:10A500004F48843000EB84000160601CC4B2052C0D
:10A51000F5DB002407E000214948983000EB840077
:10A520000160601CC4B2052CF5DB7822444934314B
:10A530006620FFF7B3FC02214348FFF796FE022294
:10A540003F49AC31DE20FFF7A9FC02213E4800E084
:10A5500021E0FFF78AFE34208DF8000012208DF8EC
:10A560000100022269462420FFF798FC01203749A8
:10A5700008703748808CC0B240F4807034498884B9
:10A5800012208DF8000034208DF801000222694667
:10A590001620FFF783FC00208DF800008DF80100E5
:10A5A000022269462420FFF733FC9DF8000034287E
:10A5B0000ED19DF8010012280AD10120234908700C
:10A5C0002348808CC0B240F480702149888409E01F
:10A5D00000201E4908701E48808CC0B240F40070F4
:10A5E0001B498884AE2216493220FFF711FC14481B
:10A5F000B0F8AC00002805DB1148B0F8AC00B0F5AD
:10A60000807F03DD03200E49A1F8AC000C480088D0
:10A61000012803DB0A480088F72802DD01200849E9
:10A62000088040F2C6200A49088040F20140488074
:10A6300002210548FFF719FEFFF77EFE38BD000036
:10A64000E41C0020F2D21C41000002404300002024
:10A65000401E002010B5464800880006000C444902
:10A66000098840EA11204349088041484088000693
:10A67000000C3F49498840EA11203E4948803C4847
:10A68000006A00063A49096A01F47F4140EA012064
:10A690003749096A01F47F0140EA11203449096A07
:10A6A00040EA1160334908623148808C0006000C92
:10A6B0002F49898C40EA11202E4988842C49D1F8F1
:10A6C0003E0005F050FF2B49C1F83E002849D1F863
:10A6D000260005F048FF2749C1F826002449D1F893
:10A6E0003A0005F040FF2349C1F83A002049D1F86B
:10A6F0002A0005F038FF1F49C1F82A001C49D1F88B
:10A700002E0005F030FF1B49C1F82E00002414E094
:10A710001748083000EB440000880006010C14487C
:10A72000083000EB4400008841EA1021114808304D
:10A7300000EB44000180601CC4B2082CE8DB0C492B
:10A74000D1F8360005F00FFF0A49C1F83600084974
:10A75000D1F8320005F007FF0649C1F8320004497C
:10A76000D1F8420005F0FFFE0249C1F8420010BDD9
:10A77000401E0020861E002010B504466A488078DE
:10A780006A490988884271D16748C07844285AD0FC
:10A7900010DC092839D006DC03281CD004281ED080
:10A7A000062871D126E0102833D041283BD0432819
:10A7B0006AD147E048284AD006DC452844D04628DC
:10A7C00043D0472860D141E049284BD0662835D096
:10A7D000682859D14BE0E0B201F048FB58E0E0B204
:10A7E00001F0B0FA5248808C00F47F40801C504940
:10A7F00088844DE0E0B201F075FD4D48808C00F496
:10A800007F40C01C4A49888442E0204605F056FA41
:10A810003EE001F037FE4648808C00F47F40001D8A
:10A820004349888434E0E0B201F058FC4048808C11
:10A8300000F47F40401D3E49888429E0E0B201F0E9
:10A84000B5FC25E000BF00BF00BF00BF00BFE0B205
:10A85000FFF7B6FB3648808C00F47F40C01D3449BA
:10A86000888415E0E0B2FEF7F5FF11E011E0E0B2F8
:10A8700001F0EEF92E48808C00F47F4040F0090092
:10A880002B49888404E0FFE7012001F003FC00BFAE
:10A8900048E025488078B0BB2348C078462825D0BA
:10A8A00008DC41280FD043281DD044281CD045285F
:10A8B00036D11AE047281AD0482819D066280ED079
:10A8C00068282DD120E0E0B201F008FC1848808C07
:10A8D00000F47F4040F011001549888421E0E0B287
:10A8E00001F064FC1DE000BF00BF00BF00BF00BF5F
:10A8F000E0B2FFF765FB0E48808C00F47F40C01D7E
:10A900000B4988840DE00DE0E0B201F0A1F90848A0
:10A91000808C00F47F4040F013000549888400E0FB
:10A9200000BF00BF10BD0000CC1E0020E41C0020B2
:10A93000401E00200EB500BF20212348FFF799FCE0
:10A9400040E022480078002833D0002507E005F0D9
:10A9500067FCC1B21D48801C4155681CC5B21B482C
:10A960004078A842F3DC1948447805F049FC0020FF
:10A97000164948700870A01EC1B21448801CFEF72A
:10A980004BFF0646A01E1149891C0A5C601E085C2C
:10A9900042EA0021B14209D0601E0C49891C085CC2
:10A9A000FF2806D1A01E085CFF2802D12046FFF731
:10A9B000E3FE02A8002101230A46CDE90010084663
:10A9C00003F08AF8BDE7000000040240CC1E00201E
:10A9D00010B56B4800880006000C6949098840EAF8
:10A9E000112068490880664840880006000C6449C8
:10A9F000498840EA1120634948806149486805F068
:10AA0000B2FD604948605E49886805F0ACFD5D496B
:10AA100088605B4880890006000C5949898940EAB2
:10AA20001120584988815648C0890006000C5449B5
:10AA3000C98940EA11205349C8815149086905F084
:10AA400092FD504908614E49486905F08CFD4D4919
:10AA5000486100240DE04A49183101EB840108687F
:10AA600005F081FD4749183101EB84010860601C45
:10AA7000C4B2062CEFDB4249086B05F074FD414976
:10AA8000086300240EE03E49343101EB840108687C
:10AA900005F069FD01463B48343000EB840001605D
:10AAA000601CC4B2052CEEDB00240DE034494831B3
:10AAB00001EB8401086805F056FD3249483101EB8D
:10AAC00084010860601CC4B2052CEFDB00240EE09A
:10AAD0002B495C3101EB8401086805F044FD014617
:10AAE00028485C3000EB84000160601CC4B2052C77
:10AAF000EEDB00240EE02249703101EB840108688E
:10AB000005F031FD01461F48703000EB8400016004
:10AB1000601CC4B2052CEEDB00240EE01849843121
:10AB200001EB8401086805F01EFD014615488430DC
:10AB300000EB84000160601CC4B2052CEEDB002435
:10AB40000EE00F49983101EB8401086805F00BFD18
:10AB500001460C48983000EB84000160601CC4B2D0
:10AB6000052CEEDB0648B0F8AC000006000C0449EA
:10AB7000B1F8AC1040EA11200249A1F8AC0010BDB8
:10AB8000E41C0020921D00200EB500BF1BE04FF416
:10AB900000700D49088002A8002128230A46CDE94B
:10ABA0000010084602F098FF4FF400700649891E15
:10ABB000088002A800214FF4C2730122CDE90010E1
:10ABC000084602F089FFE2E71A0402400EB500BF12
:10ABD0000CE04FF480700649088002A8002164232D
:10ABE0000A46CDE90010084602F076FFF1E70000C2
:10ABF0001804024003B5FBB0182173A8FDF7DBFA77
:10AC000018216DA8FDF7D7FA00206C9000216B91F8
:10AC10006A9000BF28215EA8FDF7CDFA282154A82C
:10AC2000FDF7C9FA28214AA8FDF7C5FA282140A84E
:10AC3000FDF7C1FA282136A8FDF7BDFA28212CA876
:10AC4000FDF7B9FA302120A8FDF7B5FA00BF00BF23
:10AC500000BF202112A8FDF7AEFAFC48C08900F41D
:10AC60007060B0F5807F10D1F948FA49CDE9120142
:10AC7000F949FA4ACDE91412F949FA4ACDE916120E
:10AC80000021F94ACDE918125FE0F048C08900F4CC
:10AC90007060B0F5007F11D1F448F549CDE912019B
:10ACA000F449F54ACDE91412F449F54ACDE91612F2
:10ACB0004FF03331F34ACDE9181246E0E348C0893A
:10ACC00000F47060B0F5407F10D1EF48EF49CDE956
:10ACD0001201EF49EF4ACDE91412EF49EF4ACDE9ED
:10ACE0001612EF49EF4ACDE918122EE0D748C08975
:10ACF00000F47060B0F5806F10D1EB48EB49CDE9FE
:10AD00001201EB49EB4ACDE91412EB49EB4ACDE9CC
:10AD10001612EB49EB4ACDE9181216E0CB48C08970
:10AD200000F47060B0F5A06F0FD1E748E749CDE9B6
:10AD30001201E749E74ACDE91412E749E74ACDE9AC
:10AD40001612E749E74ACDE918120021E648689152
:10AD50006990DDE91601CDE90A01699B689AFDF762
:10AD6000B3FBCDE90E01DDE91401CDE90401699BD6
:10AD7000689AFDF7A9FBCDE90601699B689AFDF782
:10AD8000A3FBCDE90A01DDE91201CDE90201699BCE
:10AD9000689AFDF799FBCDE90401699B689AFDF774
:10ADA00093FBCDE90601699B689AFDF78DFBCDE920
:10ADB0000801DDE90A23FDF7E0FACDE90C01DDE940
:10ADC0000E23FDF7DAFACDE91001DDE91801CDE92E
:10ADD0000E01DDE91023FDF7D0FACDE91A017C98C8
:10ADE000FDF776FC69916890DDE91601CDE90A016D
:10ADF000699B689AFDF768FBCDE90E01DDE9140156
:10AE0000CDE90401699B689AFDF75EFBCDE9060177
:10AE1000699B689AFDF758FBCDE90A01DDE912014B
:10AE2000CDE90201699B689AFDF74EFBCDE904016B
:10AE3000699B689AFDF748FBCDE90601699B689A12
:10AE4000FDF742FBCDE90801DDE90A23FDF795FA9C
:10AE5000CDE90C01DDE90E23FDF78FFACDE91001F4
:10AE6000DDE91801CDE90E01DDE91023FDF785FAD2
:10AE7000CDE91C01002079901DE0744880890D9077
:10AE8000FDF703FC0F907998FDF7FFFB0E900F99EB
:10AE9000FDF703FA95491090FDF7FFF994491190D9
:10AEA000FDF72DFA014673AA799842F82010799897
:10AEB000401CC1B2799179980628DEDB7B996A91B2
:10AEC0006248C16911916A98FDF762FC29D25F4816
:10AED00080690E905D48C1690D91DDE90D01FDF7B6
:10AEE000D6F9109073990C9174990B91DDE90B01CF
:10AEF000FDF7CDF90E905548806901460C906A988F
:10AF0000FDF7C5F90D900E99FDF7C7F90F9010994F
:10AF1000FDF7F5F9119073991091FDF766F96B90B3
:10AF200011E14A48006A014611906A98FDF730FC29
:10AF300029D24648C0690E904448016A0D91DDE966
:10AF40000D01FDF7A4F9109074990C9175990B916E
:10AF5000DDE90B01FDF79BF90E903C48C069014605
:10AF60000C906A98FDF793F90D900E99FDF795F9FD
:10AF70000F901099FDF7C3F9119074991091FDF796
:10AF800034F96B90DFE03148416A11916A98FDF71E
:10AF9000FFFB29D22D48006A0E902C48416A0D9182
:10AFA000DDE90D01FDF773F9109075990C91769913
:10AFB0000B91DDE90B01FDF76AF90E902348006A59
:10AFC00001460C906A98FDF762F90D900E99FDF715
:10AFD00064F90F901099FDF792F9119075991091FD
:10AFE000FDF703F96B90AEE01848806A01461190B6
:10AFF0006A98FDF7CDFB7ED21448406A0E90134844
:10B00000816A0D91DDE90D01FDF741F91090769807
:10B010000C9077990B9101460B98FDF738F90E903B
:10B020000A48406A01460C906A98FDF730F90D9085
:10B030000E99FDF732F90F901099FDF760F9119014
:10B0400076991091FDF7D1F86B907CE0E41C00201C
:10B050004A541144361F543E0E95F83C7C22DABE09
:10B06000641B5D4A0279FB3E0000F03F73A8BD916E
:10B07000751A283E54525F4AE824C7BE4BC2CFC956
:10B080009C7838BF3333F13F97D5F71DBEC062BE01
:10B09000643801FA3BE3B43E3447567E198C41BF15
:10B0A000F0A7C64B3789F13F8CB00DD1BE8760BE8B
:10B0B0006DD9997A4875A43E72CE3E45C4833CBF93
:10B0C000736891ED7C3FF13F6BAFCDD0317956BEC7
:10B0D000DE65A6BF952F8ABE8EBDCDD1996A3CBFD5
:10B0E000713D0AD7A370F13F0000344000007A445C
:10B0F0000000A040FFE7FE48816A0E91C16A0D91F1
:10B10000DDE90D01FDF7C3F8109077990C9178995E
:10B110000B91DDE90B01FDF7BAF80E90F448806A57
:10B1200001460C906A98FDF7B2F80D900E99FDF764
:10B13000B4F80F901099FDF7E2F8119077991091FB
:10B14000FDF753F86B90EA4800690790FDF7C0FAE5
:10B150000022E84BCDE90A01DDE91A01FDF7B4F957
:10B16000CDE90801DDE90A23FDF7AEF9CDE90E01CD
:10B170006B98FDF7ADFACDE90C01DDE90E23FDF783
:10B1800015FACDE91001FDF7E7FA6C90DA496C98F1
:10B19000FDF783F86C90D9496C98C1F83200D44817
:10B1A0008168D6481191D0F832101091DDE9100174
:10B1B000FDF76DF8D149C1F83600CD480169084660
:10B1C0000791FDF785FA0022CA4BCDE90A01DDE9B6
:10B1D0001C01FDF779F9CDE90801DDE90A23FDF746
:10B1E00073F9CDE90E016B98FDF772FACDE90C0108
:10B1F000DDE90E23FDF7DAF9CDE91001FDF7ACFA30
:10B200006C90BD496C98FDF748F86C9000217991DD
:10B2100026E0B74800690990FDF75AFACDE90A011E
:10B22000DDE91C23FDF750F9CDE90E0173A97998EA
:10B2300051F8201008460B91FDF74AFACDE90C01B0
:10B24000DDE90E23FDF7B2F9CDE91001FDF784FA2F
:10B250006DAA799942F821007998401CC0B2799082
:10B2600079980628D5DB0020799018E0A048343082
:10B27000799900EB8100016808460F91FDF728FAE3
:10B2800000229C4BCDE91001FDF790F95EAB799A55
:10B2900003EBC20203C27998401CC0B2799079983E
:10B2A0000528E3DB0020799018E09148483079992F
:10B2B00000EB8100016808460F91FDF709FA0022B2
:10B2C0008C4BCDE91001FDF771F954AB799A03EB82
:10B2D000C20203C27998401CC0B2799079980528BF
:10B2E000E3DB0020799018E081485C30799900EB2D
:10B2F0008100016808460F91FDF7EAF900227D4BB5
:10B30000CDE91001FDF752F94AAB799A03EBC2027D
:10B3100003C27998401CC0B2799079980528E3DB84
:10B320000020799018E072487030799900EB810024
:10B33000016808460F91FDF7CBF900226D4BCDE96E
:10B340001001FDF733F940AB799A03EBC20203C257
:10B350007998401CC0B2799079980528E3DB0020E9
:10B36000799018E062498431799801EB8000016896
:10B3700008460F91FDF7ACF900225E4BCDE91001B4
:10B38000FDF714F936AB799A03EBC20203C2799840
:10B39000401CC0B2799079980528E3DB00207990B1
:10B3A00018E053499831799801EB8000016808460C
:10B3B0000F91FDF78DF900224E4BCDE91001FDF7FD
:10B3C000F5F82CAB799A03EBC20203C27998401CC2
:10B3D000C0B2799079980528E3DB61996098CDE94E
:10B3E0000A01699B689AFDF76FF8CDE90E01639930
:10B3F0006298CDE90401699B689AFDF765F8CDE98B
:10B400000601699B689AFDF75FF800223C4BCDE985
:10B410000A016999689805F03BF9CDE9020165993F
:10B420006498CDE90001DDE90223FDF74DF8002223
:10B43000344BCDE906016999689805F029F9CDE901
:10B44000020167996698CDE90001DDE90223FDF765
:10B450003BF8CDE90401DDE90623FCF78EFFCDE9D9
:10B460000801DDE90A23FCF788FFCDE90C01DDE9DD
:10B470000E23FCF782FFCDE910015F995E98CDE9BC
:10B480000E01DDE91023FCF778FFCDE92001579983
:10B490005698CDE90A01699B689AFDF715F8CDE940
:10B4A0000E0159995898CDE90401699B689AFDF7F6
:10B4B0000BF8CDE90601699B689AFDF705F80022B3
:10B4C0000F4BCDE90A016999689805F0E1F8CDE9DB
:10B4D00002015B995A98CDE90001DDE90223FCF7EE
:10B4E000F3FF0022074BCDE90601699968980BE04C
:10B4F000E41C002000408F4000007A44401E0020E1
:10B50000000008400000104005F0C2F8CDE902013B
:10B510005D995C98CDE90001DDE90223FCF7D4FFD9
:10B52000CDE90401DDE90623FCF727FFCDE9080199
:10B53000DDE90A23FCF721FFCDE90C01DDE90E234B
:10B54000FCF71BFFCDE9100155995498CDE90E0188
:10B55000DDE91023FCF711FFCDE922014D994C984C
:10B56000CDE90A01699B689AFCF7AEFFCDE90E01AF
:10B570004F994E98CDE90401699B689AFCF7A4FFA6
:10B58000CDE90601699B689AFCF79EFF0022FE4BFD
:10B59000CDE90A016999689805F07AF8CDE90201C8
:10B5A00051995098CDE90001DDE90223FCF78CFFA9
:10B5B0000022F64BCDE906016999689805F068F814
:10B5C000CDE9020153995298CDE90001DDE902234A
:10B5D000FCF77AFFCDE90401DDE90623FCF7CDFE97
:10B5E000CDE90801DDE90A23FCF7C7FECDE90C012E
:10B5F000DDE90E23FCF7C1FECDE910014B994A9815
:10B60000CDE90E01DDE91023FCF7B7FECDE92401F9
:10B6100043994298CDE90A01699B689AFCF754FF67
:10B62000CDE90E0145994498CDE90401699B689ADA
:10B63000FCF74AFFCDE90601699B689AFCF744FFD5
:10B640000022D14BCDE90A016999689805F020F8EC
:10B65000CDE9020147994698CDE90001DDE90223D1
:10B66000FCF732FF0022C94BCDE9060169996898C1
:10B6700005F00EF8CDE9020149994898CDE900019D
:10B68000DDE90223FCF720FFCDE90401DDE9062313
:10B69000FCF773FECDE90801DDE90A23FCF76DFE36
:10B6A000CDE90C01DDE90E23FCF767FECDE91001C1
:10B6B00041994098CDE90E01DDE91023FCF75DFECC
:10B6C000CDE92601DDE93801CDE90A01699B689AD7
:10B6D000FCF7FAFECDE90E01DDE93A01CDE90401FE
:10B6E000699B689AFCF7F0FECDE90601699B689AB0
:10B6F000FCF7EAFE0022A44BCDE90A01699968989B
:10B7000004F0C6FFCDE90201DDE93C01CDE900010D
:10B71000DDE90223FCF7D8FE00229C4BCDE90601AF
:10B720006999689804F0B4FFCDE90201DDE93E01B2
:10B73000CDE90001DDE90223FCF7C6FECDE90401F5
:10B74000DDE90623FCF719FECDE90801DDE90A234E
:10B75000FCF713FECDE90C01DDE90E23FCF70DFE2D
:10B76000CDE91001DDE93601CDE90E01DDE9102357
:10B77000FCF703FECDE92801DDE92E01CDE90A0140
:10B78000699B689AFCF7A0FECDE90E01DDE9300166
:10B79000CDE90401699B689AFCF796FECDE90601A4
:10B7A000699B689AFCF790FE0022774BCDE90A016D
:10B7B0006999689804F06CFFCDE90201DDE9320176
:10B7C000CDE90001DDE90223FCF77EFE00226F4B8C
:10B7D000CDE906016999689804F05AFFCDE90201A4
:10B7E000DDE93401CDE90001DDE90223FCF76CFE5F
:10B7F000CDE90401DDE90623FCF7BFFDCDE9080131
:10B80000DDE90A23FCF7B9FDCDE90C01DDE90E23E2
:10B81000FCF7B3FDCDE91001DDE92C01CDE90E0106
:10B82000DDE91023FCF7A9FD0246CDE92A2100201D
:10B83000799020E0564800690D90FCF749FFCDE96A
:10B840000E01DDE91C23FCF73FFECDE9100120A924
:10B85000799801EBC00103C9CDE90E01DDE91023A0
:10B86000FCF7A4FE20AB799A03EBC20203C27998DD
:10B87000401CC0B2799079980628DBDB4448C06947
:10B88000014611906A98FCF783FF3CD26D990A91AA
:10B890006E990991DDE90901FCF7F9FC0B90FCF7C1
:10B8A00017FFCDE90E01DDE92001CDE90601DDE953
:10B8B0002201CDE90401DDE90623FCF7FFFDCDE916
:10B8C0000A016D98014606906C98FCF7E0FC079021
:10B8D000FCF7FEFECDE90801DDE90A23FCF7F4FDE3
:10B8E000CDE90C01DDE90E23FCF760FECDE9100186
:10B8F000DDE92001CDE90E01DDE91023FCF73DFD76
:10B90000CDE91E010FE12248006A014611906A98B4
:10B91000FCF73EFF43D26E990A916F990991DDE9D8
:10B920000901FCF7B4FC0B90FCF7D2FECDE90E0147
:10B93000DDE92201CDE90601DDE92401CDE90401BB
:10B94000DDE90623FCF7BAFDCDE90A016E990691FF
:10B950006C98FCF79CFC0790FCF7BAFECDE9080157
:10B96000DDE90A23FCF7B0FDCDE90C01DDE90E238A
:10B97000FCF71CFECDE91001DDE92201CDE90E0145
:10B98000DDE9102306E00000000008400000104040
:10B99000E41C0020FCF7F1FCCDE91E01C3E0724875
:10B9A000406A014611906A98FCF7F2FE3CD26F990A
:10B9B0000A9170990991DDE90901FCF768FC0B9087
:10B9C000FCF786FECDE90E01DDE92401CDE9060193
:10B9D000DDE92601CDE90401DDE90623FCF76EFD72
:10B9E000CDE90A016F98014606906C98FCF74FFC70
:10B9F0000790FCF76DFECDE90801DDE90A23FCF7AD
:10BA000063FDCDE90C01DDE90E23FCF7CFFDCDE9A7
:10BA10001001DDE92401CDE90E01DDE91023FCF779
:10BA2000ACFCCDE91E017EE04F48806A01461190D2
:10BA30006A98FCF7ADFE3BD270990A917199099111
:10BA4000DDE90901FCF723FC0B90FCF741FECDE991
:10BA50000E01DDE92601CDE90601DDE92801CDE988
:10BA60000401DDE90623FCF729FDCDE90A017099FF
:10BA700006916C98FCF70BFC0790FCF729FECDE9CA
:10BA80000801DDE90A23FCF71FFDCDE90C01DDE922
:10BA90000E23FCF78BFDCDE91001DDE92601CDE990
:10BAA0000E01DDE91023FCF768FCCDE91E013AE048
:10BAB00071990A9172990991DDE90901FCF7E7FB97
:10BAC0000B90FCF705FECDE90E01DDE92801CDE97B
:10BAD0000601DDE92A01CDE90401DDE90623FCF7D1
:10BAE000EDFCCDE90A01719906916C98FCF7CFFB4A
:10BAF0000790FCF7EDFDCDE90801DDE90A23FCF72D
:10BB0000E3FCCDE90C01DDE90E23FCF74FFDCDE9A7
:10BB10001001DDE92801CDE90E01DDE91023FCF774
:10BB20002CFCCDE91E016C98FCF7D2FDCDE90E018D
:10BB3000DDE91E23FCF7C2FCCDE91001FCF70CFE89
:10BB40006C900A496B98C1F82E006C98C1F83A00C5
:10BB500005484068014611906C98FCF798FB034932
:10BB6000C1F83E007DB000BDE41C0020401E002056
:10BB70000EB500BF02A800210B460122CDE900103E
:10BB8000084601F0A9FF23E000201249087012487E
:10BB9000808C00F47F4040F022000F498884FEF73B
:10BBA000EFFB0520FEF782FB0B49C1F842000020A5
:10BBB00004F04AF800214FF4007003F043FF02A89C
:10BBC00000210B460222CDE90010084601F084FF57
:10BBD000DAE7000022000020401E002030B50546B4
:10BBE0000C4622460021284600F001F830BD2DE920
:10BBF000F04103460C4617460FB9BDE8F08103B982
:10BC0000FBE70025002202E02D022543521C042AF6
:10BC1000FAD3384603F0030C1946BCF1000F08D0E4
:10BC2000624603E001F8014B401E521C08B1042A91
:10BC3000F8D30E4601E020C6001F0428FBD231468F
:10BC400002E001F8014B401E0028FAD100BFD4E702
:10BC500070B5C0B005460026082D00D00426042289
:10BC600032493348FCF7B2FA00B104263148007873
:10BC700000B905264EB12D48001F807828B1304606
:10BC800000F008FA002040B070BDFEF7A1FE2A487F
:10BC90000088C0B28DF800002448001FC0788DF8DD
:10BCA000010000208DF802008DF803008DF80400DB
:10BCB00057208DF80500AE208DF80600AE221F49F2
:10BCC0000DF10700FCF75EFAB5216846FDF7A4FD0B
:10BCD0000446E0B28DF8B50020128DF8B6000120C0
:10BCE000154908800020486088604FF40070C881C2
:10BCF0001348086100204880142088810320A1F89F
:10BD0000AC0014223220FEF7C9F802220A49AC31F5
:10BD1000DE20FEF7C3F80548001F807818B1B72170
:10BD2000684604F0E7F90120ADE70000D01E0020CE
:10BD30003300002043000020E41C0020921D00205E
:10BD4000F2D21C412DE9F04FC1B081464FF0000AFC
:10BD500043484179007941EA00244148C17980791A
:10BD600041EA002804EB0800401E85B24FF0230B87
:10BD70004FF6FF7000EA4806B9F1080F01D04FF006
:10BD8000040AB8F1000F01D14FF0020A112C0FD0B4
:10BD9000142C0DD0162C0BD0182C09D01A2C07D02F
:10BDA0001C2C05D01E2C03D0202C01D0222C01D11C
:10BDB0004FF0020A102D0FD0132D0DD0152D0BD0E2
:10BDC000172D09D0192D07D01B2D05D01D2D03D0FF
:10BDD0001F2D01D0212D01D14FF0020AABF101003E
:10BDE000A84201DA4FF0020AABF10100A04201DAE9
:10BDF0004FF0020ABAF1000F06D0504600F04AF99F
:10BE0000002041B0BDE8F08FFEF724FC1548008803
:10BE1000C0B28DF804001248C0788DF80500F0B269
:10BE20008DF80600104800EB440132460DF1070082
:10BE3000FCF7A8F9F01CC1B201A8FDF7EDFC07461C
:10BE400001AAF01C17543912301D1154044880788F
:10BE500020B1701D81B201A804F04CF90120D0E797
:10BE6000CC1E0020E41C0020861E00202DE9F04F8F
:10BE7000C1B081464FF0000A83484179007941EA18
:10BE800000248148C179807941EA002804EB080048
:10BE9000401E85B24FF0570B4FF6FF7000EA480680
:10BEA000B9F1080F01D04FF0040AB8F1000F01D129
:10BEB0004FF0020A032C4FD0052C4DD0092C4BD04B
:10BEC0000B2C49D00D2C47D00F2C45D0112C43D032
:10BED000132C41D0152C3FD0172C3DD0192C3BD022
:10BEE0001B2C39D01D2C37D01F2C35D0212C33D012
:10BEF000232C31D0252C2FD0272C2DD0292C2BD002
:10BF00002B2C29D02D2C27D02F2C25D0312C23D0F1
:10BF1000332C21D0352C1FD0372C1DD0392C1BD0E1
:10BF20003B2C19D03D2C17D03F2C15D0412C13D0D1
:10BF3000432C11D0452C0FD0472C0DD0492C0BD0C1
:10BF40004B2C09D04D2C07D04F2C05D0512C03D0B1
:10BF5000532C01D0552C01D14FF0020A022D4FD0A5
:10BF6000042D4DD0082D4BD00A2D49D00C2D47D093
:10BF70000E2D45D0102D43D0122D41D0142D3FD081
:10BF8000162D3DD0182D3BD01A2D39D01C2D37D071
:10BF90001E2D35D0202D33D0222D31D0242D2FD061
:10BFA000262D2DD0282D2BD02A2D29D02C2D27D051
:10BFB0002E2D25D0302D23D0322D21D0342D1FD041
:10BFC000362D1DD0382D1BD03A2D19D03C2D17D031
:10BFD0003E2D15D0402D13D0422D11D0442D0FD021
:10BFE000462D0DD0482D0BD04A2D09D04C2D07D011
:10BFF0004E2D05D0502D03D0522D01D0542D01D1FE
:10C000004FF0020AABF10100A84201DA4FF0020A38
:10C01000ABF10100A04201DA4FF0020ABAF1000FC1
:10C0200006D0504600F036F8002041B0BDE8F08F51
:10C03000FEF7CEFC15480088C0B28DF80400124807
:10C04000C0788DF80500F0B28DF80600104800EBBE
:10C05000440132460DF10700FCF794F8F01CC1B220
:10C0600001A8FDF7D9FB074601AAF01C17543912A5
:10C07000301D11540448807820B1701D81B201A890
:10C0800004F038F80120D0E7CC1E0020E41C00208A
:10C09000921D00207CB50446DCB10E480088C0B279
:10C0A0008DF800000C48C07840F080008DF8010049
:10C0B0008DF8024003216846FDF7AEFB0546E8B265
:10C0C0008DF8030028128DF804000521684604F05D
:10C0D00011F87CBDE41C0020CC1E0020FEB50546F6
:10C0E0000026082D00D0042604222C492C48FCF7F9
:10C0F0006DF800B1042646B12848001F807820B1B1
:10C100003046FFF7C7FF0020FEBD2648D0F83200BA
:10C11000254988602348D0F83A0048602148D0F883
:10C12000260008630422091D3620FDF7B7FE04220D
:10C130001D4908313A20FDF7B1FE04221A49303179
:10C140006220FDF7ABFE18480088C0B28DF80000F1
:10C150001248001FC0788DF8010000208DF8020001
:10C1600002208DF8030000208DF8040004208DF8D3
:10C17000050006216846FDF74FFB0446E0B28DF846
:10C18000060020128DF807000448001F807818B1BF
:10C190000821684603F0AEFF0120B5E7D01E00205D
:10C1A00037000020401E0020E41C0020FEB505469C
:10C1B00000260327082D00D00426042243494448C2
:10C1C000FCF704F808B9012708E004223F49414878
:10C1D000FBF7FCFF08B9022700E0042646B13B4804
:10C1E000001F807820B13046FFF754FF0020FEBDCD
:10C1F000012F2BD101203849087034208DF8000020
:10C2000012208DF80100022269462420FDF746FE27
:10C210003248808CC0B240F4807030498884304805
:10C220000088C0B28DF800002848001FC0788DF843
:10C23000010040208DF8020060208DF8030080206E
:10C240008DF80400A0208DF805002AE0022F28D1E7
:10C250000020214908708DF800008DF801000222AD
:10C2600069462420FDF71AFE1C48808CC0B240F4B9
:10C2700000701A4988841A480088C0B28DF80000FE
:10C280001248001FC0788DF8010044208DF802008C
:10C2900066208DF8030088208DF80400AA208DF810
:10C2A000050006216846FDF7B7FA0446E0B28DF8AE
:10C2B000060020128DF807000448001F807818B18E
:10C2C0000821684603F016FF012090E7D01E0020E9
:10C2D0003F0000203700002043000020401E0020C7
:10C2E000E41C00202DE9FF41064600276348417900
:10C2F000007941EA00246148C179807941EA00204F
:10C300000090082E00D0042744B1012C06D0062C42
:10C3100004D0072C02D0562C00D002278CB9BDF8CF
:10C32000000018B1BDF80000F72801DD022708E081
:10C33000BDF8000052490880022269463220FDF70C
:10C34000ADFD012C08D1BDF800004D494880022206
:10C3500069463420FDF7A2FD062C1BD1BDF8000074
:10C36000142803D0BDF80000642801D1012000E0AA
:10C37000002030B90420FFF78DFE002004B0BDE896
:10C38000F081BDF800003E498881022269463E20C6
:10C39000FDF784FD072C2FD1BDF800000121B1EB82
:10C3A000202F17D0BDF800000221B1EB202F11D0B3
:10C3B000BDF800000321B1EB202F0BD0BDF8000029
:10C3C0000421B1EB202F05D0BDF800000521B1EB11
:10C3D000202F01D1012000E0002020B90420FFF728
:10C3E00059FE0020CAE7BDF800002549C881022295
:10C3F00069464020FDF752FD562C17D1BDF80000CC
:10C40000002804DBBDF80000B0F5807F04DD0420C7
:10C41000FFF740FE0020B1E7BDF800001849A1F881
:10C42000AC0002226946DE20FDF738FD27B1384610
:10C43000FFF730FE0020A1E711480088C0B28DF858
:10C4400004000E48C0788DF805000C484068CDF80F
:10C450000600062101A8FDF7DFF90546E8B28DF8D0
:10C460000A0028128DF80B000448807818B10821C2
:10C4700001A803F03FFE012080E70000CC1E002051
:10C48000E41C00202DE9F04F85B00027BB46FE4894
:10C490004179007941EA0024FB48C179807941EA79
:10C4A0000028F94890F8089004EB0800401E85B277
:10C4B0004FF0570AB8F1000F02D0B9F1000F00D1C8
:10C4C0000227032C4FD0052C4DD0092C4BD00B2C20
:10C4D00049D00D2C47D00F2C45D0112C43D0132C14
:10C4E00041D0152C3FD0172C3DD0192C3BD01B2C04
:10C4F00039D01D2C37D01F2C35D0212C33D0232CF4
:10C5000031D0252C2FD0272C2DD0292C2BD02B2CE3
:10C5100029D02D2C27D02F2C25D0312C23D0332CD3
:10C5200021D0352C1FD0372C1DD0392C1BD03B2CC3
:10C5300019D03D2C17D03F2C15D0412C13D0432CB3
:10C5400011D0452C0FD0472C0DD0492C0BD04B2CA3
:10C5500009D04D2C07D04F2C05D0512C03D0532C93
:10C5600001D0552C00D10227022D4FD0042D4DD0E3
:10C57000082D4BD00A2D49D00C2D47D00E2D45D07B
:10C58000102D43D0122D41D0142D3FD0162D3DD06B
:10C59000182D3BD01A2D39D01C2D37D01E2D35D05B
:10C5A000202D33D0222D31D0242D2FD0262D2DD04B
:10C5B000282D2BD02A2D29D02C2D27D02E2D25D03B
:10C5C000302D23D0322D21D0342D1FD0362D1DD02B
:10C5D000382D1BD03A2D19D03C2D17D03E2D15D01B
:10C5E000402D13D0422D11D0442D0FD0462D0DD00B
:10C5F000482D0BD04A2D09D04C2D07D04E2D05D0FB
:10C60000502D03D0522D01D0542D00D10227AAF174
:10C610000100A84200DA0227AAF10100A04200DAD4
:10C620000227092D01DD4FF0010B092C01DD4FF030
:10C63000010B9648007818B9BBF1010F00D105270E
:10C6400037B13846FFF726FD002005B0BDE8F08F72
:10C65000AE228F498F48FBF795FD8E4901EB4400D0
:10C660004A4689490931FBF78DFD00274CB98948B5
:10C6700000880006000C8749098840EA1120854996
:10C680000880012C0BDC012D09DB82484088000664
:10C69000000C8049498840EA11207E494880022CDC
:10C6A00007DC032D05DB7B49486803F05CFF794913
:10C6B0004860042C07DC052D05DB7649886803F00B
:10C6C00052FF74498860062C0BDC062D09DB71488B
:10C6D00080890006000C6F49898940EA11206D4964
:10C6E0008881072C0BDC072D09DB6A48C08900060E
:10C6F000000C6849C98940EA11206649C881082CA4
:10C7000007DC092D05DB6349086903F02CFF61494B
:10C7100008610A2C07DC0B2D05DB5E49486903F034
:10C7200022FF5C4948610C2C07DC0D2D05DB5949C3
:10C73000886903F018FF574988610E2C07DC0F2D1C
:10C7400005DB5449C86903F00EFF5249C861102C3B
:10C7500007DC112D05DB4F49086A03F004FF4D4942
:10C760000862122C07DC132D05DB4A49486A03F0E6
:10C77000FAFE48494862142C07DC152D05DB4549B3
:10C78000886A03F0F0FE43498862162C07DC172DF7
:10C7900005DB4049C86A03F0E6FE3E49C862182C32
:10C7A00007DC192D05DB3B49086B03F0DCFE39493A
:10C7B00008631A2C07DC1B2D05DB3649486B03F098
:10C7C000D2FE344948631C2C07DC1D2D05DB3149A2
:10C7D000886B03F0C8FE2F4988631E2C07DC1F2DD1
:10C7E00005DB2C49C86B03F0BEFE2A49C863202C28
:10C7F00007DC212D05DB2749086C03F0B4FE254931
:10C800000864222C07DC232D05DB2249486C03F049
:10C81000AAFE20494864242C07DC252D05DB1D4990
:10C82000886C03F0A0FE1B498864262C07DC272DAA
:10C8300005DB1849C86C03F096FE1649C864282C1D
:10C8400007DC292D05DB1349086D03F08CFE114927
:10C8500008652A2C07DC2B2D05DB0E49486D03F0FB
:10C8600082FE0C4948652C2C07DC2D2D05DB09497F
:10C87000886D03F078FE074988652E2C10DC2F2D7B
:10C880000EDB0449C86D07E0CC1E002043000020E9
:10C89000E41C0020921D002003F065FEA349C8653A
:10C8A000302C07DC312D05DBA049086E03F05BFE60
:10C8B0009E490866322C07DC332D05DB9B49486E08
:10C8C00003F051FE99494866342C07DC352D05DB11
:10C8D0009649886E03F047FE94498866362C07DC3B
:10C8E000372D05DB9149C86E03F03DFE8F49C866C0
:10C8F000382C07DC392D05DB8C49086F03F033FE3B
:10C900008A4908673A2C07DC3B2D05DB8749486FCD
:10C9100003F029FE854948673C2C07DC3D2D05DBEB
:10C920008249886F03F01FFE804988673E2C07DC30
:10C930003F2D05DB7D49C86F03F015FE7B49C867B5
:10C94000402C09DC412D07DB7849D1F8800003F049
:10C950000AFE7649C1F88000422C09DC432D07DB32
:10C960007249D1F8840003F0FEFD7049C1F88400DB
:10C97000442C09DC452D07DB6C49D1F8880003F015
:10C98000F2FD6A49C1F88800462C09DC472D07DB17
:10C990006649D1F88C0003F0E6FD6449C1F88C00CB
:10C9A000482C09DC492D07DB6049D1F8900003F0E1
:10C9B000DAFD5E49C1F890004A2C09DC4B2D07DBFB
:10C9C0005A49D1F8940003F0CEFD5849C1F89400BB
:10C9D0004C2C09DC4D2D07DB5449D1F8980003F0AD
:10C9E000C2FD5249C1F898004E2C09DC4F2D07DBDF
:10C9F0004E49D1F89C0003F0B6FD4C49C1F89C00AB
:10CA0000502C09DC512D07DB4849D1F8A00003F078
:10CA1000AAFD4649C1F8A000522C09DC532D07DBC2
:10CA20004249D1F8A40003F09EFD4049C1F8A4009A
:10CA3000542C09DC552D07DB3C49D1F8A80003F044
:10CA400092FD3A49C1F8A800562C0EDC562D0CDB9D
:10CA50003648B0F8AC000006000C3449B1F8AC1010
:10CA600040EA11203149A1F8AC003048008818B1E3
:10CA70002E480088F72800DD03272C48B0F8AC00CA
:10CA8000002805DB2948B0F8AC00B0F5807F00DD58
:10CA9000032726490869FBF71BFE254A254BCDE9EC
:10CAA0000001FBF729FE0AD320490869FBF710FEB5
:10CAB0000022214BCDE90001FBF736FE00D203270F
:10CAC00057B9AE2219491D48FBF75CFBAE22174946
:10CAD0003220FDF7E3F907E01948807820B13846A5
:10CAE000FFF7D8FA0020B0E514480088C0B28DF8EE
:10CAF00008001348C0788DF8090011484068CDF847
:10CB00000A00062102A8FCF787FE0646F0B28DF85F
:10CB10000E0030128DF80F000948807818B10821F6
:10CB200002A803F0E7FA01208FE50000921D002023
:10CB30008FC2F5285C8F234000002440E41C0020B5
:10CB4000CC1E002070B5002100230F22C4781CB336
:10CB5000174C246804F4E064C4F5E064C4F30721CE
:10CB6000C1F10404E3B20A4144789C40E1B2847804
:10CB7000144021430C07210E0E4C057861550478B2
:10CB800004F01F050124AC4005786D11AD0005F1DE
:10CB9000E025C5F8004109E0047804F01F050124F0
:10CBA000AC40054D0678761145F8264070BD000072
:10CBB0000CED00E000E400E080E100E00249014308
:10CBC000024A1160704700000000FA050CED00E019
:10CBD0007047000010B50348006810B101480068B4
:10CBE000804710BD8C00002070B5044600F0BCF8F2
:10CBF0000020454908704549087045490870454975
:10CC0000086045490860454908704549087045492C
:10CC1000087045490860454908604549086045492C
:10CC20000870454800680A21B0FBF1F043490860EC
:10CC30004348006858B14348056845B14048066814
:10CC400003E0761E002028602D1D002EF9D1002063
:10CC50003D4908603D4908603D4908603D4908601C
:10CC60003D4908603D4908603D4908603D490870FC
:10CC700001F044FC01F07EFC204601F0FDF9208823
:10CC800000B170BD204601F05DFA208800B1F8E7E0
:10CC9000204601F063FA208800B1F2E7204601F057
:10CCA000A3FA208800B1ECE7204601F057FC208869
:10CCB00000B1E6E7204601F0A7FD208800B1E0E7DB
:10CCC000204601F0BDFF208800B1DAE7204601F0E0
:10CCD00001FA208800B1D4E7204602F02FFC20881A
:10CCE00000B1CEE7204601F011FF208800B1C8E76F
:10CCF000204602F093FC208800B1C2E701F0E6F87C
:10CD0000FFF766FF00BFBCE7A0000020A1000020E5
:10CD1000D40000202C01002030010020BA000020A7
:10CD2000BB000020BC000020C8000020CC00002078
:10CD3000D0000020DC0000204C110108D8000020A9
:10CD40001C11010818110108800000208400002037
:10CD5000880000208C00002090000020940000201B
:10CD6000980000200A0100200A4A1168002002E011
:10CD7000002204C1401C084A12689042F8D3054AB8
:10CD80001268054B1B6802EB8302121F034B1A60EB
:10CD900070470000181101081C110108380100201B
:10CDA00008480078012800D0704707480078FA2822
:10CDB00000DBF9E704480078401C0349087000BF15
:10CDC000F2E70000A1000020A000002010B5002420
:10CDD0002E480078012800D010BD00BFFBF7BCF939
:10CDE000044600BF2A48007828B900BF2046FBF758
:10CDF000B7F900BFF0E726480078401E24490870C4
:10CE000008460078002805DD00BF2046FBF7A8F99A
:10CE100000BFE1E71F480078002805DD00BF20467D
:10CE2000FBF79EF900BFD7E701F054FB1A490870E1
:10CE30000846007800EB4000184951F820001849D6
:10CE400008600846006817490968884205D100BF94
:10CE50002046FBF785F900BFBEE711480068D0F80F
:10CE60009000401C0E490968C1F890000E48006807
:10CE7000401C0D4908604FF080500C49086000BF0D
:10CE80002046FBF76DF900BF00BFA5E7A100002019
:10CE9000A0000020D4000020BB000020EC3A0020BD
:10CEA000300100202C0100200001002004ED00E0F2
:10CEB00010B5002420480078002800DD10BD1F4870
:10CEC0000078002800DDF9E700BFFBF745F90446CC
:10CED00000BF01F0FFFA1A4908700846007800EB1D
:10CEE0004000184951F820001749086008460068BA
:10CEF00016490968884205D100BF2046FBF730F982
:10CF000000BFDBE710480068D0F89000401C0E49D5
:10CF10000968C1F890000E480068401C0C49086080
:10CF20004FF080500B49086000BF2046FBF718F90E
:10CF300000BF00BFC2E70000A0000020D400002016
:10CF4000BB000020EC3A0020300100202C01002022
:10CF50000001002004ED00E070B5044600251848EB
:10CF60000078002803DD46F66250208070BD154829
:10CF70000078012803D045F689602080F6E7124842
:10CF80000078FA2803DB45F209202080EEE700BF95
:10CF900000BFFBF7E1F8054600BF00BF0A48007874
:10CFA000401C0949087001F09BFB00BF00BF2846E8
:10CFB000FBF7D6F800BF00BF0020208000BFD5E7F8
:10CFC000A0000020A1000020D40000202DE9F041A5
:10CFD00005460C461646002700BF00BFFBF7BCF80D
:10CFE000074600BF00BF012D03D000200D49087087
:10CFF00002E001200B49087014B10B48046006E000
:10D000000A4800680A21B0FBF1F00749086000BF38
:10D0100000BF3846FBF7A4F800BF00BF00203080F7
:10D02000BDE8F081DC000020D80000204C11010890
:10D0300070B50446002520480078002803DD46F638
:10D040006550208070BD1D480078012803D045F64A
:10D0500089602080F6E71A48007818B946F66450CF
:10D060002080EFE700BF00BFFBF776F8054600BF62
:10D0700000BF13480078401E114908700846007828
:10D0800000280ADD00BF00BF2846FBF769F800BF93
:10D0900000BF46F663502080D4E701F02FFB00BFAD
:10D0A00000BF2846FBF75CF800BF00BFFFF700FF9A
:10D0B0000020208000BFC5E7A0000020A1000020C4
:10D0C000D400002010B5044612480078E8B901F0F9
:10D0D00001FA1149087008460078104908700E4896
:10D0E000007800EB40000E4951F820000D4908601F
:10D0F000084600680C490860012006490870FBF7E3
:10D10000C5FC43F69920208002E045F68A60208025
:10D1100010BD0000A1000020BB000020BA000020CC
:10D12000EC3A0020300100202C0100202DE9F041D4
:10D1300007464FF0000800BF00BFFBF70DF8804620
:10D1400000BF00BF00203B4908803B4908603B49C5
:10D1500008603B4908603B4908603B49088100BFC3
:10D1600000BF4046FAF7FCFF00BF00BF00BF00BF92
:10D17000FAF7F2FF804600BF00BF3448046800BFE2
:10D1800000BF4046FAF7ECFF00BF00BF21E000BF40
:10D1900000BFFAF7E1FF804600BF00BF00207834EF
:10D1A000E06320602063A061A082E0826062A062F0
:10D1B000FCF72CFB2062783C04F164060020B0816F
:10D1C000D4F8BC4000BF00BF4046FAF7C9FF00BF1B
:10D1D00000BF002CDBD100BF00BFFAF7BDFF8046C7
:10D1E00000BF00BF1A48056800BF00BF4046FAF7FD
:10D1F000B7FF00BF00BF12E000BF00BFFAF7ACFFEF
:10D20000804600BF00BF05F120060020B081AD6957
:10D2100000BF00BF4046FAF7A3FF00BF00BF002DCC
:10D22000EAD102F09FF802F0F5FA00203880BDE85C
:10D23000F0810000EA000020FC0000201001002026
:10D240001C010020CC000020E03A00200401002056
:10D25000C0000020F8B5044600266946324800F0B8
:10D2600079FBBDF8000018B1BDF800002080F8BDC2
:10D270006A460021022000F0CDFBBDF8000018B185
:10D28000BDF800002080F2E700BF00BFFAF764FF9E
:10D29000064600BF00BF00202449086000BF00BF51
:10D2A0003046FAF75DFF00BF00BF00252048006848
:10D2B00020490968884205D91D4800681D49096848
:10D2C000B0FBF1F525B91A4800680A21B0FBF1F569
:10D2D0006A460021284600F09DFB6946124800F08E
:10D2E00021F9BDF8000018B1BDF800002080BEE7AC
:10D2F00000BF00BFFAF730FF064600BF00BF0020A6
:10D300000D490860094800680C49086001200C4973
:10D31000087000BF00BF3046FAF722FF00BF00BF11
:10D320000020208000BFA2E7343D0020EC00002058
:10D330004C11010834110108FC000020F00000200D
:10D34000F800002010B50348006810B101480068DB
:10D35000804710BD900000202DE9FF4F85B00446A6
:10D360009046DDE91995159F139E002002906148B3
:10D370000078002805DD47F24A10288009B0BDE892
:10D38000F08F1CB947F2AD102880F7E7B8F1000F15
:10D3900003D147F24F102880F0E71EB946F62F6000
:10D3A0002880EBE754480068874203D246F6306095
:10D3B0002880E3E71498B84203D346F6316028800A
:10D3C000DCE71298102803D346F273202880D5E7B3
:10D3D00012980F2806D14948844203D046F27320A0
:10D3E0002880CBE7204601F03BFC0020288009F094
:10D3F000010088B109F0020070B1B346002004902A
:10D4000007E00020CBF800000BF1040B0498401C4F
:10D4100004900498B842F4D3149806EB800003906B
:10D42000CDE9007932464046039B089900F032FA74
:10D430008346C4F828800898E06206982062129813
:10D4400084F83700C4F800B00398A06017986065AE
:10D45000179818B92A480068A06501E01798A065D8
:10D46000189860606662A763A4F83C904FF0000AC9
:10D4700008E0002104F17C0040F82A100AF10100C4
:10D4800000F0FF0ABAF1000FF3D004F1640016991E
:10D4900000F0A2FE204600F039F800BF00BFFAF706
:10D4A0005BFE029000BF00BF94F8370001F032F835
:10D4B000204601F0A7F8204601F0AAFB1148008899
:10D4C000401C1049088010480078012807D000BF90
:10D4D00000BF0298FAF744FE00BF00BF4EE700BF4E
:10D4E00000BF0298FAF73CFE00BF00BFFFF7E0FC68
:10D4F00000BF43E7A0000020481101081C3A0020AB
:10D50000D800002008010020A100002010B504462A
:10D510000348006818B1204601490968884710BDD2
:10D520008000002070B504460D460026154800789E
:10D53000002803DD47F25510288070BD00BF00BFF2
:10D54000FAF70AFE064600BF00BF1CB10E4800688D
:10D5500084420AD100BF00BF3046FAF701FE00BF87
:10D5600000BF47F257102880E7E700BF00BF3046F2
:10D57000FAF7F6FD00BF00BF2946204601F0E4FBA4
:10D5800000BFDAE7A00000202C01002010B50446FF
:10D590000348006818B1204601490968884710BD52
:10D5A000880000202DE9F04780460E4614461D46AF
:10D5B0004FF000096F480078002805DD46F2AE10F4
:10D5C00028800020BDE8F0871EB1B6F5004F02D1DB
:10D5D00000E000BF04E045F6256028800020F1E768
:10D5E00000BF0CB10020206000BF00BFFAF7B4FDFF
:10D5F000814600BF00BF60480068406CA8B35E4829
:10D600000068406C401E5C49096848645A480068DC
:10D61000476C1CB158480068006C2060FCF7F6F8B5
:10D6200055490968096C401A53490968C1F8A400B2
:10D6300051480068D0F8A8004F490968D1F8A410F3
:10D64000884207D24C480068D0F8A4004A490968CB
:10D65000C1F8A80000BF00BF4846FAF781FD00BF2F
:10D6600000BF002028803846ACE7FFE706F4004002
:10D6700058B100BF00BF4846FAF772FD00BF00BFB7
:10D6800046F2B010288000209CE73C480078002833
:10D690000BDD00BF00BF4846FAF762FD00BF00BFC8
:10D6A00046F66350288000208CE74346072200217D
:10D6B000084600F0A5FD00BF00BF4846FAF750FD40
:10D6C00000BF00BFFFF7F4FB00BF00BFFAF744FD47
:10D6D000814600BF00BF2848006890F8350020B19F
:10D6E000012826D0032834D12CE0FCB12248006860
:10D6F000006C2060FCF78AF81F490968096C401A21
:10D700001D490968C1F8A4001B480068D0F8A800AA
:10D7100019490968D1F8A410884207D21648006850
:10D72000D0F8A40014490968C1F8A8000020288096
:10D7300013E01CB110480068006C206046F2A9108C
:10D7400028800AE00CB10020206047F2D920288010
:10D7500003E046F62E60288000BF00BF0648006840
:10D76000476C00BF00BF4846FAF7FAFC00BF00BF95
:10D77000384627E7A00000202C010020D40000201C
:10D780002DE9F04106460D4614461DB1B5F5004F92
:10D7900002D100E000BF05E045F6256020800020B2
:10D7A000BDE8F08100BFFCF731F8804623464246D1
:10D7B0002946304601F05AFB07463846F0E700009C
:10D7C0002DE9F04705460E4617461C464FF0000A65
:10D7D0002E480078002804DD47F259102080BDE86B
:10D7E000F0871EB946F2D5202080F8E71FB946F22F
:10D7F000D5202080F3E700BF00BFFAF7ADFC8246DA
:10D8000000BF00BF0DB922480568286868B900BF8D
:10D8100000BF5046FAF7A4FC00BF00BF00203060F4
:10D82000386047F252102080D9E795F83C0000F0AC
:10D83000010068B900BF00BF5046FAF791FC00BF75
:10D8400000BF00203060386047F254102080C6E7E7
:10D8500000BF00BF5046FAF783FC00BF00BF4FF087
:10D860000008D5F8249003E009F1040908F1010843
:10D87000D9F800000028F7D0C6F80080A86BA0EB0C
:10D88000080038600020208000BFA8E7A00000202A
:10D890002C010020F0B50446DDE9055602EB8500B9
:10D8A0004FF0807C071F3846C7F800C0071F384676
:10D8B0003C60DFF89CC0071F3846C7F800C04FF037
:10D8C000123C071F3846C7F800C04FF0033C071F43
:10D8D0003846C7F800C04FF0023C071F3846C7F86B
:10D8E00000C0071F38463B60071F384639604FF0BD
:10D8F000113C071F3846C7F800C04FF0103C071F07
:10D900003846C7F800C04FF0093C071F3846C7F833
:10D9100000C04FF0083C071F3846C7F800C04FF062
:10D92000073C071F3846C7F800C04FF0063C071FEA
:10D930003846C7F800C04FF0053C071F3846C7F807
:10D9400000C04FF0043C071F3846C7F800C0F0BDC8
:10D9500049EE000870B505460C460A4800780028D4
:10D9600003DD47F25D10208070BD0748854203D17A
:10D9700047F25B102080F7E72146284601F058FB6C
:10D9800000BFF1E7A00000201C3A002010B51D48A0
:10D99000006810B11B4800688047FBF737FF04465A
:10D9A0001948006819490968884215D01648006866
:10D9B000D0F89800201A14490968C1F89400124858
:10D9C0000068D0F89C0010490968D1F89410084408
:10D9D0000D490968C1F89C000C480068C0F89840DF
:10D9E00009480068D0F8B40009490968884205D29E
:10D9F0000748006804490968C1F8B40000200449D8
:10DA0000086010BD940000202C010020300100208F
:10DA1000D00000202DE9F04105460E4614460027AF
:10DA20002A480078002804DD47F275202080BDE8F0
:10DA3000F08127480078002803DD46F663502080F7
:10DA4000F5E736B1022E05D0042E0AD0082E09D1F2
:10DA500001E000BF00BF1DB947F27E202080E6E74D
:10DA600004E003E045F625602080E0E700BF00BF4A
:10DA700000BFFAF771FB074600BF00BF0120154940
:10DA8000096881F836002346324629461148006865
:10DA900001F06EFB208838B100BF00BF3846FAF7AE
:10DAA0005FFB00BF00BFC2E70A48006800F0EAFD64
:10DAB00000BF00BF3846FAF753FB00BF00BFFFF7B7
:10DAC000F7F90020208000BFB1E70000A00000208F
:10DAD000D40000202C0100202DE9FF5F05460E46F2
