:020000040800F2
:10800000084B0020398100083D8100083F810008AD
:10801000418100084381000845810008478100082C
:108020004781000847810008478100084781000810
:108030004781000847810008A38A0008A5DE0008E0
:10804000E39600082F9500087F9500084D950008DD
:10805000F394000839950008AD940008B79400081F
:10806000CB940008D5940008DF94000833940008EE
:108070003D94000847940008519400085B94000860
:10808000659400086F94000801940008CF960008DA
:10809000D99600082994000815940008E99400086E
:1080A00025950008D9950008899500089395000842
:1080B0009D950008A7950008B19500080795000850
:1080C000FD9400081B9500081195000861950008B3
:1080D0006B950008F9950008B1960008BB9600085A
:1080E000C194000843950008C5960008C59500088E
:1080F000CF95000857950008BB95000875950008B6
:10810000E3950008ED950008799400088394000831
:108110008D94000897940008A19400080B9400081F
:108120001F940008DFF80CD000F02AFC004800473C
:1081300061060108084B002004480047FEE7FEE7FF
:10814000FEE7FEE7FEE7FEE7FEE700002581000808
:1081500072B6704762B67047EFF3108072B6704720
:1081600080F31088704730BF704720BF7047B0FA67
:1081700080F0704790FAA0F0B0FA80F0704790FA63
:10818000A0F0704740EA01039B0703D009E008C94B
:10819000121F08C0042AFAD203E011F8013B00F8CC
:1081A000013B521EF9D27047D2B201E000F8012B18
:1081B000491EFBD270470022F6E710B513460A4667
:1081C00004461946FFF7F0FF204610BD30B50546BE
:1081D0000020034600E05B1C934205D2EC5CC85CC7
:1081E000201A01D1002CF6D130BDF0B480EA010292
:1081F000D40F4200B2EB410F02D2024608461146AC
:108200004A0042D0C30DDDB2C1F3C752AD1A202DD2
:1082100035DAC1F3160141F4000204B15242C5F14E
:10822000200602FA06F12A411044B3EBD05F23D0B6
:10823000C4B1012DA0EBC35009DCF0BC4FF00042EB
:1082400002EAC352DBB200F5000000F0F7BA4000CA
:1082500000F1807000EBC350A0F1807040EAD17053
:10826000490009E0490841EAC071A0EBC35000F59C
:108270000000400800EBC350F0BC00F0D6BA6142E9
:10828000012202EB4101001BF6E7F0BC704781F0D0
:108290000041AAE780F00040A7E780EA010210B59C
:1082A00002F00043400022D04A001FD0010E01EB33
:1082B0001261C0F35600C2F3560240F4000042F4CB
:1082C0000002A0FB022000047F39140400D0401CEF
:1082D00050EA124001D44000491EC2B20C0604EB21
:1082E000D010401C4008802A02D003E0002010BDBE
:1082F00020F00100002900DA0020184310BD30B43E
:1083000080EA010202F0004530F0004221F0004016
:1083100013D090B1C30DD40DC2F31601C0F31600F3
:10832000E41A41F4000140F400027D34914201D38B
:10833000641C00E04900002C02DA30BC00207047C9
:108340004FF400000023914201D3891A03434008EF
:108350004FEA4101F7D151B1914202D14FF00041B2
:1083600005E002D24FF0010101E06FF0010103EBE3
:10837000C450284430BC00F058BA2DE9FE4F804666
:1083800081EA0300C00F0C46009021F0004123F069
:108390000045B8EB0200A94105D24046214690466F
:1083A0001C460B46024623F00040104347D0270DE1
:1083B000C7F30A00C3F30A510290401A0190402803
:1083C0006BDAC3F3130040F4801B0098924620B18F
:1083D0000023D2EB030A63EB0B0B01985946C0F163
:1083E0004002504600F0F0F906460D465046594608
:1083F000019A00F008FA10EB08006141002487EAB6
:10840000115284EAE7731A4340D0009A62B3019A8A
:10841000012A4FEA075215DC001B61EB02014FF005
:10842000004202EA0752CDE90042001C41F58011EA
:1084300032462B4600F03FFA03B0BDE8F08F4046CD
:108440002146F9E7001B61EB0201001C41F5801396
:1084500000185B412018A2F5001747EB030140EA22
:10846000D570B6196D4111E06D084FEA360645EA40
:10847000C0754FEA0752001B61EB0201001C41F579
:10848000801149084FEA30000019514132462B460D
:1084900003B0BDE8F04F00F0FFB9009801224000A2
:1084A0000023D0EB020263EBE073009821464FEA11
:1084B000E074B8EB000061EB0401E9E783F00043EE
:1084C0005BE781F0004158E72DE9FE4F81EA0304A4
:1084D00004F0004421F0004100944FF0000B23F021
:1084E000004350EA01045ED052EA03045BD0C3F3B8
:1084F0000A54C1F30A552C44A4F2F3340194A0FBAE
:108500000254C1F3130141F48011C3F3130343F484
:10851000801301FB024400FB034E840A970A44EADD
:10852000815447EA8357A4FB076802958D0A05FB2F
:1085300007854FEA932C04FB0C542705029D4FEA54
:10854000065847EA1637B5EB08056EEB070C870EA1
:10855000920E47EA811742EA8312A7FB0201B6EBAB
:108560000B0164EB00042B0D43EA0C335E1844EB63
:108570001C50DA465146E7FB0201C5F313044FEAEB
:108580000B3343EA14534FEA0432019C43EA0603D7
:10859000A4F10C040294009CCDE900B400F08BF926
:1085A00003B0BDE8F08F00200146F9E72DE9F04D5A
:1085B00081EA030404F0004B21F0004514464FF01B
:1085C000000A23F0004150EA050220D054EA0102DB
:1085D0001DD0C5F30A570246C5F31303C1F31300B8
:1085E000C1F30A5640F4801543F48013A7EB060844
:1085F000101BD64608F2FD3873EB050002D308F1D4
:10860000010801E092185B41B8F1000F03DA002085
:108610000146BDE8F08D00204FF4801106468446E7
:108620000EE0171B73EB050705D3121B63EB050365
:1086300006434CEA010C49084FEA300092185B41AE
:1086400050EA0107EDD152EA030012D082EA040099
:1086500083EA0501084305D0101BAB4106D2012275
:10866000002306E000224FF0004302E06FF0010219
:1086700053101AEB06004CEB085110EB0A0041EBCB
:108680000B01BDE8F04D00F007B9C10F80EAE070C2
:108690000844CA079623002100F0D0B89623002290
:1086A000114600F0CBB80EB5C10F80EAE070084467
:1086B000CA07002140F233438DE80E000A460B46FC
:1086C00000F0F9F803B000BD0EB540F2334102915D
:1086D0000021CDE900110A460B4600F0ECF803B08A
:1086E00000BD00F0004230F000400AD0C10D01F59D
:1086F0006071C0F3160042EA0151C20840071143FD
:10870000704700200146704730B5041E71F1000427
:1087100004DB4FF00044404264EB0101141E73F18E
:10872000000405DB1C464FF00043524263EB040398
:108730008B4208BF824230BD30B5041E71F1000487
:1087400004DB4FF00044404264EB0101141E73F15E
:10875000000405DB1C464FF00043524263EB040368
:10876000994208BF904230BD01F0004330B421F07F
:10877000004150EA010206D00A0DA2F56072C1F371
:108780001301002A02DC30BC00207047440F44EA89
:10879000C104C100E01830BC00EBC25000F045B885
:1087A000002801DBC0F10040002901DBC1F10041DC
:1087B00081427047002801DBC0F10040002901DB45
:1087C000C1F1004188427047202A04DB203A00FAB8
:1087D00002F1002070479140C2F1200320FA03F318
:1087E000194390407047202A04DB203A21FA02F016
:1087F0000021704721FA02F3D040C2F120029140DB
:10880000084319467047202A06DBCB17203A41FA65
:1088100002F043EAE07306E041FA02F3D040C2F10D
:10882000200291400843194670470029A8BF7047AD
:10883000401C490008BF20F00100704710B4B0FA96
:1088400080FC00FA0CF050EA010404BF10BC704731
:1088500049B1CCF1200421FA04F411FA0CF118BF4B
:10886000012121430843A3EB0C01CB1D4FEA00611A
:108870004FEA102042BF002010BC704700EBC350ED
:1088800010440029A4BF10BC7047401C490008BF19
:1088900020F0010010BC704710B5141E73F10004E5
:1088A00008DA401C41F1000192185B411A4301D1E2
:1088B00020F0010010BD2DE9F04D92469B4611B10C
:1088C000B1FA81F202E0B0FA80F220329046FFF76E
:1088D0007BFF04460F4640EA0A0041EA0B0153467B
:1088E0005A46084313D0114653EA010019D0C8F183
:1088F00040025046FFF777FF05460E465046594660
:108900004246FFF761FF084305D0012004E02046FE
:108910003946BDE8F08D0020054346EAE0762C4359
:1089200037430A986305E40AA0EB08000022FD0A19
:1089300044EA47540A3002D500200146E9E7010520
:1089400010196941DDE9084500196941BDE8F04D9C
:10895000A2E770B521F0004303430CD0C1F30A55E0
:108960000024D5EB040564EB0403D617AD1AB3411C
:1089700002DB0020014670BD201841EB025170BDA2
:10898000064C074D06E0E06840F0010394E807005C
:1089900098471034AC42F6D3FFF7C8FBF013010838
:1089A000101401082DE9F04D00231A461B1A8A41C4
:1089B00003DB00200146BDE8F08DC1F30A52C1F38C
:1089C000130141F480154FF0000BD10702D10018BC
:1089D0006D41521E0027044640F2FF11384601EB5C
:1089E000620A3E468046024600204FF48011FFF79F
:1089F000FAFEC2197141BB1846EB0100B4EB030C3F
:108A000075EB000C04D3E41A65EB000517460E461F
:108A1000241908F101006D4180463428E3DDF9197D
:108A200046EB0600091BA84103D24FF0FF32134664
:108A300001E0002213461BEB070046EB0A51BDE89C
:108A4000F04DFFF729BF30B58C1810F8012B12F04C
:108A50000F0301D110F8013B120906D110F8012BC8
:108A600003E010F8015B01F8015B5B1EF9D101E046
:108A700001F8013B521EFBD1A142E6D3002030BDDC
:108A800018484FF0FF010170002080F30988164854
:108A9000016881F3088815484FF08051016062B683
:108AA000FEE772B6EFF3098028B1203880E8F00FB6
:108AB0000F490968086000B50E4880475DF804EB6F
:108AC0000D480E490A78027009480D490A6802608B
:108AD000106890E8F00F203080F309884EF0040E03
:108AE00062B6704722ED00E03C01002004ED00E09A
:108AF00030010020CDD90008BE000020BF000020BA
:108B0000340100203EB54FF4FA7400F0E7F8054652
:108B100009220021042000F043F90CE002A8002102
:108B200002230A46CDE90010084604F0F5FF601E56
:108B3000041E00D13EBD00F0A3F80028EED000F0E6
:108B4000CDF805462846F5E770B504460D461646AD
:108B50000DB1402100E0002141EAC4010EB1042220
:108B600000E000221143C8B207F0C0F970BD000058
:108B70002DE9F04F89B083464FF0000A002007909E
:108B80000690012007F010F93448008A00F04000F8
:108B900000285CD100F0D0F8002007F0A7F9824649
:108BA0004FEA0A2A002007F0A1F940EA0A0A4FEA30
:108BB0000A2A002007F09AF940EA0A0A10212748F9
:108BC00001F067FBAAF5000025490968084424491B
:108BD000086024480068401C224908602248007848
:108BE00010B9BBF1000F32D11E480068FFF76CFDD1
:108BF000CDE900011A480068FFF755FD80460022C4
:108C00001A4BFFF761FC0646DDE90023FFF7CEFCB7
:108C10000022174BCDE90201FFF7C8FC0022154BDB
:108C2000CDE90401FFF7C2FC0446FFF79DFD079064
:108C300011490798C1F82A000020094908600A492B
:108C4000087001200D4908700020064908601021B5
:108C5000024801F01EFB09B0BDE8F08F00000240A1
:108C60005C00002058000020540000200088B34021
:108C700000004040000060414C1E002055000020D4
:108C80000248008A012121EA90107047000002404A
:108C900010B5012007F088F800BF00BF00BF00BF7B
:108CA00000F052F8002201210420FFF74DFF0020C0
:108CB00007F01CF90749087000F088F806490870A9
:108CC00000F023F80446FFF71DFF012000F04BF8E9
:108CD000002010BD380000203900002010B500240D
:108CE000002201210620FFF72FFF002007F0FEF8E9
:108CF00004462402002007F0F9F80443240200206F
:108D000007F0F4F80443204610BD10B500240022FB
:108D100001210720FFF718FF002007F0E7F80446BD
:108D20002402002007F0E2F804432402002007F0A8
:108D3000DDF80443204610BD10B50446224601214B
:108D40000320FFF701FF10BD10B5002404E0FF2051
:108D500007F0CCF8601CC4B2042CF8DB00BF00BFE5
:108D600000BF00BF10BD3EB50446012007F01CF84F
:108D700002A800210A230A46CDE90010084604F0A3
:108D8000CBFE07220021084600F00AF8012000234C
:108D900005221946CDE90004184600F023F83EBD2F
:108DA00070B504460D461646002211460120FFF715
:108DB000CBFE0DB1102100E0002141EA4411C8B200
:108DC00007F094F8304607F091F870BD10B5002216
:108DD00001211046FFF7B8FE002007F087F804468F
:108DE000204610BD2DE9F04704460D4616461F46A5
:108DF000DDE90889002211460220FFF7A5FE0CB12B
:108E0000202100E000210DB1102200E000221143DA
:108E100041EA060007F06AF80FB1202100E00021C6
:108E2000B8F1000F01D0102200E00022114341EA06
:108E3000090007F05BF8BDE8F08721B1826842F0D5
:108E40000102826003E0826822F0010282607047C2
:108E50000A460021816821F0F001114381607047CA
:108E60000146886D80B270470246002013680B40AF
:108E70000BB1012000E000207047000030B5024631
:108E8000002000235068104C20400D790C6844EA03
:108E900005242043506090680C4C2040D1E90354D5
:108EA0002C438D682C434D7944EA4504204390605F
:108EB000106B20F0F8700C7D641EE4B2234340EA8E
:108EC0000350106330BD0000FFFEFFFCFDF7FFC044
:108ED0001AB143680B43436002E043688B4343602D
:108EE0007047F0B504460D46002000211D2D11DD10
:108EF000E06DA5F11E0606EB4607072606FA07F108
:108F00008843A5F11E0606EB460603FA06F1084360
:108F1000E06534E0132D11DDE068A5F1140606EBE1
:108F20004607072606FA07F18843A5F1140606EB63
:108F3000460603FA06F10843E06020E0092D11DD42
:108F40002069A5F10A0606EB4607072606FA07F18F
:108F50008843A5F10A0606EB460603FA06F1084324
:108F600020610CE0606905EB4507072606FA07F16A
:108F7000884305EB450603FA06F108436061072ABA
:108F80000FDA206C561E06EB86071F2606FA07F13D
:108F90008843561E06EB860605FA06F10843206450
:108FA0004AE00D2A0FDAE06BD61F06EB86071F2674
:108FB00006FA07F18843D61F06EB860605FA06F186
:108FC0000843E06338E0132A11DAA06BA2F10D0622
:108FD00006EB86071F2606FA07F18843A2F10D0665
:108FE00006EB860605FA06F10843A06324E0192A79
:108FF00011DA606BA2F1130606EB86071F2606FA4C
:1090000007F18843A2F1130606EB860605FA06F17E
:109010000843606310E0206BA2F1190606EB860797
:109020001F2606FA07F18843A2F1190606EB860609
:1090300005FA06F108432063F0BD816841F08041E4
:1090400081607047002101600171417181604FF0C2
:109050004071C1600021016101210175704700006C
:109060008AB0002600F063F900F07CFB00F058F9AC
:10907000044677480068B4FBF0F5284604F02EFF5C
:1090800009A804F007F909AA0121084603F0BEFF68
:109090004FF4806003F0B2FD01F042F801F0DAF91C
:1090A0006C49B1F8AE0007F04FF806F09FFEFFF7ED
:1090B000EFFD09A80021684A0223CDE90032CDE97D
:1090C00002100A230A4665A1664804F02BFE00BF81
:1090D00000BFFFF741F8064600BF00BF09A8032103
:1090E00000220592CDE90621089010464021062273
:1090F0005D4BCDE90132CDE90310042000235B4A2A
:109100005BA100905D4804F047F909A80321002203
:109110000592CDE90621089010464FF400713322E4
:10912000574BCDE90132CDE9031003200023554A06
:1091300055A10090594804F02FF909A803210022F5
:109140000592CDE90621089010464FF4807119224E
:10915000534BCDE90132CDE9031005200023514ADC
:1091600051A10090534804F017F909A803210022E7
:109170000592CDE906210890104680210C224E4B25
:10918000CDE90132CDE90310072000234B4A4CA161
:1091900000904F4804F000F909A80321002205922D
:1091A000CDE906210890104680210C22494BCDE9DB
:1091B0000132CDE9031006200023474A47A1009061
:1091C000494804F0E9F809A8032100220592CDE9F5
:1091D00006210890104640210622444BCDE9013279
:1091E000CDE9031009200023414A42A100904448E0
:1091F00004F0D2F809A8032100220592CDE9062146
:1092000008901046402106223E4BCDE90132CDE9BF
:1092100003100A2000233C4A3CA100903E4804F081
:10922000BBF800BF00BF3046FEF79AFF00BF00BF8B
:109230000DE009A800210B460122CDE900100846E7
:1092400004F06AFC3548006A401C34490862F0E7C3
:10925000B0110108EC1C002019110108746D723165
:109260000000000010040020D00D00203D970008F1
:10927000434C43574454205461736B00080D002045
:1092800008050020D1A90008496E737472756374D3
:10929000696F6E205461736B00000000440400206D
:1092A000980F002089F90008504153205461736BD6
:1092B00000000000D00E00202817002071BA00081E
:1092C0004D41494E504F574552205461736B000039
:1092D00060160020601400200100010854454D5024
:1092E000205461736B00000098130020F0190020D7
:1092F000A5AC00084C454430205461736B0000005D
:1093000028190020B81B0020E9AC00084C45443166
:10931000205461736B000000F01A00204C1E0020E6
:109320001FB5684606F002FC019804B010BD10B5E8
:1093300000F0DCF906F0CEFB012006F0A5FC00BF32
:10934000312006F073FC0028FAD0012000F008FE5E
:10935000012000F0F3FD012000F014FE01210807B8
:1093600006F078FB4FF4006006F056FB00BF1020BB
:1093700006F046FB0028FAD106F07AFC002006F041
:109380009DFC002006F08EFCC0220421012006F086
:10939000A7FC012006F09EFC00BF392006F046FC29
:1093A0000028FAD0032006F0A5FC00BF06F058FC08
:1093B0000C28FBD110BD10B5FEF7CAFE10BD000091
:1093C00070B50446002600BF00BFFEF7C5FE064686
:1093D00000BF00BF03F004FD00BF00BF3046FEF732
:1093E000BFFE00BF00BF392C04D2044850F82450FF
:1093F00005B1A84703F00AFD70BD0000E426002077
:1094000010B51220FFF7DCFF10BD10B53720FFF7B5
:10941000D7FF10BD10B51620FFF7D2FF10BD10B555
:109420003820FFF7CDFF10BD10B51520FFF7C8FF9E
:1094300010BD10B50B20FFF7C3FF10BD10B50C20F9
:10944000FFF7BEFF10BD10B50D20FFF7B9FF10BD2F
:1094500010B50E20FFF7B4FF10BD10B50F20FFF7B9
:10946000AFFF10BD10B51020FFF7AAFF10BD10B55B
:109470000B20FFF7A5FF10BD10B53220FFF7A0FFAE
:1094800010BD10B53320FFF79BFF10BD10B5342081
:10949000FFF796FF10BD10B53520FFF791FF10BD07
:1094A00010B53620FFF78CFF10BD704710B50620B1
:1094B000FFF786FF10BD10B50720FFF781FF10BD35
:1094C00010B52820FFF77CFF10BD10B50820FFF76E
:1094D00077FF10BD10B50920FFF772FF10BD10B562
:1094E0000A20FFF76DFF10BD10B51720FFF768FFCA
:1094F00010BD10B50420FFF763FF10BD10B520208C
:10950000FFF75EFF10BD10B51F20FFF759FF10BD1C
:1095100010B52220FFF754FF10BD10B52120FFF732
:109520004FFF10BD10B51820FFF74AFF10BD10B552
:109530000120FFF745FF10BD10B50520FFF740FFE4
:1095400010BD10B52920FFF73BFF10BD10B503205B
:10955000FFF736FF10BD10B52D20FFF731FF10BD0E
:1095600010B52320FFF72CFF10BD10B52420FFF706
:1095700027FF10BD10B52F20FFF722FF10BD10B53B
:109580000220FFF71DFF10BD10B51A20FFF718FFCE
:1095900010BD10B51B20FFF713FF10BD10B51C2028
:1095A000FFF70EFF10BD10B51D20FFF709FF10BD1E
:1095B00010B51E20FFF704FF10BD10B52E20FFF7D9
:1095C000FFFE10BD10B52B20FFF7FAFE10BD10B541
:1095D0002C20FFF7F5FE10BD10B51920FFF7F0FEA7
:1095E00010BD10B53020FFF7EBFE10BD10B53120D7
:1095F000FFF7E6FE10BD00002DE9F041284C0026E3
:1096000000BF00BFFEF7A8FD064600BF00BF03F085
:10961000E7FB00BF00BF3046FEF7A2FD00BF00BF62
:109620004FF480701F4908801F48008800F0200018
:1096300010B31D4806F057FFC5B21B48008840F222
:10964000DF310840184908801848007820BBD4E969
:109650000001401AB0F5806F08D22088C0F30901DC
:1096600004F1080045542068401C206020782179CE
:10967000401A0E4948700FE040F224410A4806F0B3
:1096800053FE48B108480088C7B20748001D00884B
:10969000C7B201200549087003F0B8FBBDE8F081AE
:1096A000DC2200201A04024000380140D81E0020AD
:1096B00010B52620FFF784FE10BD10B52720FFF758
:1096C0007FFE10BD10B52A20FFF77AFE10BD10B541
:1096D0001320FFF775FE10BD10B51420FFF770FEC4
:1096E00010BD10B50020FFF76BFE10BD10B50024B3
:1096F00004E00449204600F007F8641C392CF8D334
:1097000010BD0000AB94000870B504460D4600265D
:10971000392C10D200BF00BFFEF71EFD064600BF69
:1097200000BF054840F8245000BF00BF3046FEF798
:1097300017FD00BF00BF70BDE42600200EB500BFBE
:109740000CE002A8002132230A46CDE900100846A9
:1097500004F0E2F90221024800F095FDF1E7000073
:109760000000024010B500F01FF800F019F810BD1D
:1097700010B5002400BF00BFFEF7EEFC044600BF9A
:1097800000BF1021054802F0A9F900BF00BF204624
:10979000FEF7E6FC00BF00BF10BD0000F43E002055
:1097A00010B5FFF7E5FF10BD10B5002002490860B5
:1097B00000F00AF810BD00003801002001490860DF
:1097C000704700003801002010B5FFF7A9FD0446DE
:1097D0000848006840F0807006490860002006498B
:1097E00048600846006840F0010008602046FFF726
:1097F000E5FF10BDFCED00E0001000E00149486805
:1098000070470000001000E070B502464FF6FF7090
:10981000002313E012F8015B684000240AE000F026
:10982000010525B14AF2010585EA600000E040101B
:10983000651CECB2082CF2DB5D1CEBB28B42E9DB61
:1098400070BD0000FEB5064600270024082E00D09B
:109850000427042245494648FEF7B8FC00B1042716
:109860004448007800B9052747B14048001F807878
:1098700020B1384602F094FB0020FEBD002406E033
:1098800000213D4800EB84000160601CC4B2052C3F
:10989000F6DB002407E000213748143000EB840099
:1098A0000160601CC4B2052CF5DB002407E0002138
:1098B0003148283000EB84000160601CC4B2052CE4
:1098C000F5DB002407E000212B483C3000EB84004E
:1098D0000160601CC4B2052CF5DB002407E0002108
:1098E0002548503000EB84000160601CC4B2052C98
:1098F000F5DB002407E000211F48643000EB840002
:109900000160601CC4B2052CF5DB78221A49662080
:1099100000F0C4FA184834380088C0B28DF800004E
:109920001248001FC0788DF8010000208DF8020059
:109930001A208DF8030000208DF804003C208DF8DB
:10994000050006216846FFF75FFF0546E8B28DF87F
:10995000060028128DF807000448001F807818B10F
:109960000821684606F0DAFB012086E7DC1E0020AD
:10997000400000204C000020201D002030B504468F
:109980000425680300F00AFB0546042D01D10020E0
:109990002060284630BD000070B504460D46042600
:1099A000700300F0FBFA0646042E0AD10648006850
:1099B00020F48070044908602560700300F0EEFA1E
:1099C0000646304670BD0000043C02400348006873
:1099D00040F001000149086070470000043C02406B
:1099E0002DE9F04104460D46042600274FF00008FB
:1099F000700300F0D3FA0646042E1CD12DB1257059
:109A0000400300F0CBFA064615E024F00308D8F82E
:109A10000070A007C10EFF2000FA01F827EA08072E
:109A200024F00300FFF7AAFF064624F0030039469E
:109A3000FFF7B2FF06463046BDE8F08105480068F2
:109A400000F0010028B104480249083108600348C9
:109A500008607047043C0240EFCDAB890504030267
:109A600010B50023002453E05B104148006820F04B
:109A700040703F4908600846006840F08070086008
:109A8000081D008820F48050091D088008460088C1
:109A900040F480500880081D006820F04070091DC7
:109AA00008600846006840F040700860081D0068C3
:109AB00020F04070091D08600846006840F0807082
:109AC000086088142A491A31088000BF00BF28485E
:109AD000006820F040702649086025480C30006876
:109AE00020F0407022490C3108600846006840F0C0
:109AF0008070086000BF1E481030008800F480505D
:109B000008B143F080033A2000F07AF9601CC4B237
:109B1000082CA9DB1648006820F040701449086042
:109B20000846006840F080700860081D008820F436
:109B30008050091D08800846008840F48050088045
:109B4000081D006820F04070091D08600846006884
:109B500040F040700860081D006820F04070091D4A
:109B600008600846006840F080700860184610BD24
:109B70000004024000B54448006820F040704249AB
:109B800008600846006840F080700860081D008882
:109B900020F48050091D08800846008840F4805059
:109BA0000880081D006820F04070091D0860084604
:109BB000006840F040700860081D006820F04070A8
:109BC000091D08600846006840F08070086088142D
:109BD0002D491A3108804FF4F07000F011F94FF45C
:109BE00080502949183108802748006820F04070CB
:109BF0002549086024480C30006820F04070224954
:109C00000C3108600846006840F08070086037201A
:109C100000F0F6F81C481030008800234FF4F07074
:109C200000F0EEF81848006820F04070164908600F
:109C30000846006840F080700860081D008820F425
:109C40008050091D08800846008840F48050088034
:109C5000081D006820F04070091D08600846006873
:109C600040F040700860081D006820F04070091D39
:109C700008600846006840F0807008608814024957
:109C800018310880184600BD000402402DE9FE4F3F
:109C90004FF0000B02A803F07FF9FFF76BFF28B12C
:109CA00002A803F0E5F92648BDE8FE8FCC2000F0BD
:109CB0004BF8442000F048F8FFF75CFF20B102A801
:109CC00003F0D6F91E48EFE7CC2000F03DF8BE20A7
:109CD00000F03AF8FFF7C4FE8146FFF7C1FE824666
:109CE00002A803F0C5F949EA0A2505F47840B0B1A5
:109CF000E843401C85B2C5F30A00FEF7D4FC0022FD
:109D0000104BCDE90001FEF7DFFB0746FEF72CFD07
:109D1000044621460020FEF7BAFA06460EE0C5F3D7
:109D20000A00FEF7C0FC07460022064BFEF7CCFBFC
:109D3000CDE90001FEF718FD044626463046B3E79C
:109D40000000AAC20000B03F10B503462B480068CF
:109D500020F04070294908600846006840F0807093
:109D60000860081D008820F48050091D08800846FE
:109D7000008840F480500880081D006820F0407082
:109D8000091D08600846006840F040700860081D22
:109D9000006820F04070091D08600846006840F027
:109DA00080700860002426E003F0010080B14FF4C9
:109DB000805012491A310880022000F021F84FF437
:109DC00080500E49183108803A2000F019F80FE051
:109DD0004FF4805009491A3108803C2000F010F8F7
:109DE0004FF48050054918310880022000F008F82F
:109DF0005B10601CC4B2082CD6DB10BD000402400E
:109E0000002100BF01E000BF491C8142FBD3704725
:109E10002DE9F04105460C4616464FF00008002794
:109E20000C482F18DFF8308000BF00F06DF80128D3
:109E300004D1B8F10000A8F10108F6D103E017F849
:109E4000010B04F8010B301EA6F101018EB2F6D110
:109E5000BDE8F08180020808FFFF0F002DE9F04106
:109E600005460C46174600260B482E18FFF7E6FD60
:109E700000BF00F049F80128FBD003E016F8010B01
:109E800004F8010B381EA7F101018FB2F6D1FFF7DC
:109E90009DFDBDE8F0810000000008082DE9F041BB
:109EA00005460C4616460027B84615482F18FFF7FA
:109EB000C5FD00BF00F028F80428FBD117E000BF63
:109EC00000BFFEF749F9804600BF00BF02210D48E0
:109ED00000F0D9F914F8011B38467F1CFFF780FD0C
:109EE00000BF00BF4046FEF73BF900BF00BF301E79
:109EF000A6F101018EB2E2D1FFF768FDBDE8F08165
:109F0000800208080000024004200B49096801F0A3
:109F1000010109B101200EE00749096801F48071CF
:109F200009B1022007E00449096801F4F05109B1C0
:109F3000032000E004207047183C024030B107497C
:109F4000096841F00201054A116005E0034909680A
:109F500021F00201014A116070470000003C0240FC
:109F600030B10749096841F00401054A116005E074
:109F70000349096821F00401014A1160704700009B
:109F8000003C024001460020034A106820F0010016
:109F90000843106070470000003C024008B50246CC
:109FA00004200090FFF7B0FF009003E0FFF7ACFF44
:109FB0000090521E9DF80000012801D1002AF5D121
:109FC0000AB9052000909DF8000008BD2DE9FE4368
:109FD00006460027B8460024082E00D00427042295
:109FE00049494A48FEF7F2F830B104224649484848
:109FF000FEF7ECF800B104274648007800B90527C1
:10A000002FB1384601F0CCFF0020BDE8FE833E486A
:10A01000001F90F803804048D0F82A40A8F1430080
:10A02000062844D2DFE800F003161F28313A3B48E7
:10A030008461042200F118014A20FFF72FFF3648FF
:10A04000D0F8260035490863042230316220FFF73A
:10A0500025FF2DE03148C461042200F11C014E208F
:10A06000FFF71CFF24E02D480462042200F12001C8
:10A070005220FFF713FF1BE028484462042200F13E
:10A0800024015620FFF70AFF12E0244884620422CC
:10A0900000F128015A20FFF701FF09E01F48C462C0
:10A0A000042200F12C015E20FFF7F8FE00E000BF63
:10A0B00000BF1A480088C0B28DF800001248001F87
:10A0C000C0788DF8010000208DF802000A208DF87C
:10A0D000030000208DF8040002208DF80500062101
:10A0E0006846FFF791FB0546E8B28DF80600281296
:10A0F0008DF807000448001F807818B108216846D1
:10A1000006F00CF8012080E7DC1E00204000002053
:10A11000440000204C0000204C1E0020EC1C0020BD
:10A120001CB500240121032005F084FC0A200090C6
:10A1300001208DF8040000208DF8060001208DF824
:10A1400007008DF8050069461A4800F037F8082026
:10A15000184908834FF44070009001208DF80400E6
:10A1600000208DF8060001208DF807008DF805000D
:10A170006946114800F022F84FF480700E491831FA
:10A1800008800001009001208DF804008DF8060081
:10A190008DF807008DF805006946074800F00EF8B5
:10A1A00000BF01E000BF641C43F6FF708442F9D396
:10A1B0001CBD00000000024000040240F0B5024651
:10A1C0000B46002100240025002000BF35E00126B9
:10A1D00006FA01F41E6806EA0405A5422CD11068AF
:10A1E0004F000326BE40B0431E794F00BE403043AF
:10A1F00010601E79012E02D01E79022E12D19068B5
:10A200004F000326BE40B0435E794F00BE4030434E
:10A210009060908801268E40B0439E798E40B6B201
:10A2200030439080D0684F000326BE40B043DE79B3
:10A230004F00BE403043D060491C1029C7D3F0BD49
:10A24000F0B5002300244D07ED0E02FA05F3CE1001
:10A2500000F1200555F826504E07F70E0F26BE4098
:10A26000B543CF1000F1200646F82750CE1000F17C
:10A27000200555F8265045EA0304CE1000F12005CC
:10A2800045F82640F0BD828A4A4082827047418369
:10A29000704701837047000010B54FF6FF740948FE
:10A2A000FEF7CBFE00BF02210648FEF7DDFD20B918
:10A2B000201EA4F101018CB2F5D10248FEF7D0FDB9
:10A2C00010BD0000002401402DE9F04F85B0044688
:10A2D0004FF00009CB4600200290824619E000BFF3
:10A2E00000BFFDF739FF029000BF00BFFFF7D4FFAA
:10A2F000814400BF00BF0298FDF732FF00BF00BFDE
:10A3000004AA0520039903F0A5FB0AF1010000F05F
:10A31000FF0AA245E3DBB9FBF4F94846FEF7D4F99E
:10A32000094A0A4BCDE90001FEF7CEF807460022A4
:10A33000074BFEF73BF90546FEF716FA83465846EB
:10A3400005B0BDE8F08F00002592E865149F4240FB
:10A350000000B0401FB500200090019002900390D3
:10A36000102269464FF4C070FFF778FD00240EE01C
:10A37000012000EB44001DF800001DF8141040EA15
:10A380000121054800EB44000180601CC4B2082C88
:10A39000EEDB012004B010BD541E002010B588B0C3
:10A3A000012005F079FC0420009003208DF80400C2
:10A3B00000208DF8070069462448FFF7FFFE4FF69E
:10A3C000FF7400BF212005F031FC20B9201EA4F14C
:10A3D00001018CB2F6D10121480205F05BFB02A815
:10A3E000FEF730FE002002908DF80C0001208DF861
:10A3F0000D0000200490069001208DF81C0002A999
:10A400001348FEF73BFD0723012202211048FEF707
:10A4100068FD10210E48FEF71BFD01224FF440316C
:10A420000B48FEF755FD01210948FEF706FD4FF6E2
:10A43000FF7400BF40210648FEF716FD20B9201E1C
:10A44000A4F101018CB2F5D108B010BD00000240AA
:10A450000024014038B50020009000240222694603
:10A460001620FFF7D5FC02219B48FFF70CFF9DF853
:10A470000000122879D09DF801003428FAD002217A
:10A480009548FFF700FF012094490880002048808C
:10A4900048608860072088814FF40070C881904828
:10A4A00008610020486118223220FFF7F7FC0221E2
:10A4B0008948FFF7E8FE00BF0BE004EB8401480089
:10A4C000FEF7E3F88549183101EB84010860601C50
:10A4D000C4B2062CF1DB8348804908631C22183182
:10A4E0004A20FFF7DBFC02217B48FFF7CCFE00246B
:10A4F00007E000217948343000EB84000160601CE3
:10A50000C4B2052CF5DB002407E000217348483075
:10A5100000EB84000160601CC4B2052CF5DB002454
:10A5200007E000216D485C3000EB84000160601C96
:10A53000C4B2052CF5DB002407E000216748703029
:10A5400000EB84000160601CC4B2052CF5DB002424
:10A5500007E000216148843000EB84000160601C4A
:10A56000C4B2052CF5DB002408E04AE000215B487A
:10A57000983000EB84000160601CC4B2052CF5DB50
:10A580007822564934316620FFF788FC0221524870
:10A59000FFF779FE03205149A1F8AC00A1F8AE0005
:10A5A0000422AC31DE20FFF779FC02214A48FFF794
:10A5B0006AFE01204C4908704C48808CC0B240F4BF
:10A5C00080704A49888412208DF8000034208DF86C
:10A5D0000100022269461620FFF760FC02213E4876
:10A5E000FFF751FE34208DF8000012208DF8010095
:10A5F000022269462420FFF751FC02213648FFF76A
:10A6000042FE00208DF800008DF80100022269460C
:10A610002420FFF7FDFB9DF8000034280ED19DF8A3
:10A62000010012280AD101202F4908702F48808C80
:10A63000C0B240F480702D49888409E000202A4986
:10A6400008702A48808CC0B240F400702749888482
:10A6500002212148FFF717FEB02220493220FFF7E0
:10A66000D7FB1E48B0F8AC00002805DB1B48B0F84B
:10A67000AC00B0F5807F03DD03201849A1F8AC00E1
:10A6800016480088012803DB14480088F72802DDFB
:10A690000120124908801148B0F8AE00012804DBFF
:10A6A0000E48B0F8AE00072803DD03200B49A1F8DF
:10A6B000AE0040F2C6200D49088040F201404880BB
:10A6C00002210548FFF7DFFDFFF744FE02210248A3
:10A6D000FFF7D9FD38BD000000000240EC1C00204F
:10A6E000F2D21C410000A0414C0000204C1E002072
:10A6F00010B5464800880006000C4449098840EA25
:10A70000112043490880414840880006000C3F4919
:10A71000498840EA11203E4948803C48006A0006CA
:10A720003A49096A01F47F4140EA01203749096A40
:10A7300001F47F0140EA11203449096A40EA1160BE
:10A74000334908623148808C0006000C2F49898CFF
:10A7500040EA11202E4988842C49D1F83E0005F0AA
:10A7600034FF2B49C1F83E002849D1F8260005F0F6
:10A770002CFF2749C1F826002449D1F83A0005F0FA
:10A7800024FF2349C1F83A002049D1F82A0005F0F6
:10A790001CFF1F49C1F82A001C49D1F82E0005F002
:10A7A00014FF1B49C1F82E00002414E0174808309C
:10A7B00000EB440000880006010C1448083000EB50
:10A7C0004400008841EA10211148083000EB4400A1
:10A7D0000180601CC4B2082CE8DB0C49D1F83600BB
:10A7E00005F0F3FE0A49C1F836000849D1F83200F5
:10A7F00005F0EBFE0649C1F832000449D1F84200E9
:10A8000005F0E3FE0249C1F8420010BD4C1E0020D5
:10A81000921E002010B504466A4880786A4909886B
:10A8200088426ED16748C07844285BD010DC092884
:10A8300039D006DC03281CD004281ED0062872D18B
:10A8400026E0102833D041283CD043286BD148E083
:10A8500048284BD006DC452845D0462844D0472818
:10A8600061D142E049284DD0662836D068285AD1B7
:10A870004CE0E0B201F080FA59E0E0B201F0E8F912
:10A880005248808C00F47F40801C504988844EE000
:10A89000E0B201F0ADFC4D48808C00F47F40C01C5C
:10A8A0004A49888443E0204605F030FA3FE0E0B2B0
:10A8B00001F0BAFD4548808C00F47F40001D4349FB
:10A8C000888434E0E0B201F08FFB4048808C00F4D3
:10A8D0007F40401D3D49888429E0E0B201F0ECFB57
:10A8E00025E000BF00BF00BF00BF00BFE0B2FFF720
:10A8F0006DFB3648808C00F47F40C01D334988844E
:10A9000015E015E0E0B2FEF79DFF10E0E0B201F0C7
:10A910001FF92E48808C00F47F4040F009002B493D
:10A92000888404E0FFE7012001F03AFB00BF48E023
:10A9300024488078B0BB2348C078462825D008DC5E
:10A9400041280FD043281DD044281CD0452836D19B
:10A950001AE047281AD0482819D066280ED068284F
:10A960002DD120E0E0B201F03FFB1848808C00F4CC
:10A970007F4040F011001549888421E0E0B201F0E9
:10A980009BFB1DE000BF00BF00BF00BF00BFE0B2E7
:10A99000FFF71CFB0D48808C00F47F40C01D0B4965
:10A9A00088840DE00DE0E0B201F0D2F80748808C19
:10A9B00000F47F4040F013000449888400E000BFA9
:10A9C00000BF10BDD81E0020EC1C00204C1E002033
:10A9D0000EB5002700BF20203B49088072E03B48AD
:10A9E0000078002865D000BF00BFFDF7B5FB074623
:10A9F00000BF00BF002240F22551354805F0BEFCE3
:10AA0000002240F22441324805F0B8FC002507E05E
:10AA100005F03CFCC1B22D48801C4155681CC5B2F4
:10AA20002A484078A842F3DC2848447805F01EFC08
:10AA3000002026494870087000BF00BF3846FDF767
:10AA40008FFB00BF00BFA01EC1B22048801CFEF7D4
:10AA5000DBFE0646A01E1D49891C0A5C601E085CC0
:10AA600042EA0020B04207D0601E085CFF2806D1F1
:10AA7000A01E085CFF2802D12046FFF7CBFE05F0A0
:10AA8000F5FB00201149487008704021104805F07E
:10AA900029FC0F480688001D0688012240F2255136
:10AAA000001F05F06BFC012240F22441084805F02C
:10AAB00065FC02A8002102230A46CDE900100846E1
:10AAC00003F02AF88BE700001A040240D81E002089
:10AAD0000038014010B5714800880006000C6F492D
:10AAE000098840EA11206E4908806C4840880006B9
:10AAF000000C6A49498840EA112069494880674941
:10AB0000486805F062FD664948606449886805F058
:10AB10005CFD63498860614880890006000C5F49DC
:10AB2000898940EA11205E4988815C48C089000615
:10AB3000000C5A49C98940EA11205949C88157492E
:10AB4000086905F042FD564908615449486905F015
:10AB50003CFD5349486100240EE05049183101EB97
:10AB60008401086805F031FD01464D48183000EBBE
:10AB700084000160601CC4B2062CEEDB4749086B00
:10AB800005F023FD4649086300240DE043493431B4
:10AB900001EB8401086805F018FD4149343101EBEF
:10ABA00084010860601CC4B2052CEFDB00240DE0BA
:10ABB0003A49483101EB8401086805F006FD38493F
:10ABC000483101EB84010860601CC4B2052CEFDB46
:10ABD00000240EE031495C3101EB8401086805F086
:10ABE000F4FC01462E485C3000EB84000160601CE0
:10ABF000C4B2052CEEDB00240EE02849703101EBD5
:10AC00008401086805F0E1FC01462548703000EB3E
:10AC100084000160601CC4B2052CEEDB00240DE052
:10AC20001E49843101EB8401086805F0CEFC1C4903
:10AC3000843101EB84010860601CC4B2052CEFDB99
:10AC400000240DE01549983101EB8401086805F0F6
:10AC5000BCFC1349983101EB84010860601CC4B24C
:10AC6000052CEFDB0D48B0F8AC000006000C0B49DA
:10AC7000B1F8AC1040EA11200949A1F8AC0007482E
:10AC8000B0F8AE000006000C0449B1F8AE1040EA7E
:10AC900011200349A1F8AE0010BD0000EC1C0020FB
:10ACA0009C1D00200EB500BF1BE04FF400700D4945
:10ACB000088002A8002128230A46CDE90010084692
:10ACC00002F02AFF4FF400700649891E088002A88E
:10ACD00000214FF4C2730122CDE90010084602F0B2
:10ACE0001BFFE2E71A0402400EB500BF0CE04FF470
:10ACF00080700649088002A8002164230A46CDE935
:10AD00000010084602F008FFF1E7000018040240B6
:10AD100003B5FBB0182173A8FDF74DFA18216DA8F3
:10AD2000FDF749FA00206C906B906A9000BF2821D3
:10AD30005EA8FDF740FA282154A8FDF73CFA282127
:10AD40004AA8FDF738FA282140A8FDF734FA28214F
:10AD500036A8FDF730FA28212CA8FDF72CFA30216F
:10AD600020A8FDF728FA00BF00BF00201A901B9012
:10AD7000202112A8FDF71FFAFE48C08900F4706078
:10AD8000B0F5807F04D10021FB48CDE91A102FE0F7
:10AD9000F848C08900F47060B0F5007F05D14FF02D
:10ADA0003331F648CDE91A1022E0F248C08900F4A8
:10ADB0007060B0F5407F04D1F149F248CDE91A1036
:10ADC00016E0EC48C08900F47060B0F5806F04D1E3
:10ADD000ED49EE48CDE91A100AE0E648C08900F4D2
:10ADE0007060B0F5A06F03D1E949EA48CDE91A10C7
:10ADF000002079901CE0DF4880890D90FDF74EFC23
:10AE00000F907998FDF74AFC0E900F99FDF745FADF
:10AE1000E1491090FDF741FAE0491190FDF76FFA12
:10AE200073AA799942F821007998401CC0B27990B0
:10AE300079980628DFDB7C98FDF753FC69916890D0
:10AE4000DDE91A01CDE91C017B986A90C948C06907
:10AE5000014611906A98FDF7A3FC29D2C548806984
:10AE60000E90C448C0690D900E99FDF710FA10902D
:10AE700073980C9074980B900C99FDF708FA0E904B
:10AE8000BC48806901460C906A98FDF700FA0D9065
:10AE90000E99FDF702FA0F901099FDF730FA119014
:10AEA0007398014610901198FDF79FF96B90BEE0E2
:10AEB000B048006A014611906A98FDF771FC29D2EA
:10AEC000AC48C0690E90AB48006A0D900E99FDF732
:10AED000DEF9109074980C9075980B900C99FDF712
:10AEE000D6F90E90A348C06901460C906A98FDF708
:10AEF000CEF90D900E99FDF7D0F90F901099FDF74E
:10AF0000FEF911907498014610901198FDF76DF9B3
:10AF10006B908CE09748406A014611906A98FDF763
:10AF20003FFC29D29348006A0E909248406A0D90E7
:10AF30000E99FDF7ACF9109075980C9076980B90DF
:10AF40000C99FDF7A4F90E908A48006A01460C900E
:10AF50006A98FDF79CF90D900E99FDF79EF90F90F8
:10AF60001099FDF7CCF91190759801461090119841
:10AF7000FDF73BF96B905AE07E48806A01461190DC
:10AF80006A98FDF70DFC29D27A48406A0E907948FC
:10AF9000806A0D900E99FDF77AF9109076980C90D2
:10AFA00077980B900C99FDF772F90E907148406AF2
:10AFB00001460C906A98FDF76AF90D900E99FDF71D
:10AFC0006CF90F901099FDF79AF911907698014657
:10AFD00010901198FDF709F96B9028E06548806A98
:10AFE0000E906448C06A0D900E99FDF750F91090CC
:10AFF00077980C9078980B900C99FDF748F90E9083
:10B000005C48806A01460C906A98FDF740F90D9003
:10B010000E99FDF742F90F901099FDF770F9119014
:10B020007798014610901198FDF7DFF86B90514822
:10B0300000690790FDF755FB0022594BCDE90A0145
:10B04000DDE91A01FDF740FACDE90801DDE90A233F
:10B05000FDF73AFACDE90E016B98FDF742FBCDE919
:10B060000C01DDE90E23FDF7A1FACDE91001FDF792
:10B070007BFB6C9048496C98FDF70FF96C9049493F
:10B080006C98C1F832003B48806811900846D0F8AF
:10B09000320010901199FDF7FAF84249C1F83600D4
:10B0A000344800690790FDF71CFB00223C4BCDE9BA
:10B0B0000A01DDE91C01FDF707FACDE90801DDE928
:10B0C0000A23FDF701FACDE90E016B98FDF709FBA4
:10B0D000CDE90C01DDE90E23FDF768FACDE9100199
:10B0E000FDF742FB6C902C496C98FDF7D6F86C90FC
:10B0F0000020799025E01F4800690990FDF7F1FADA
:10B10000CDE90A01DDE91C23FDF7DEF9CDE90E01E9
:10B1100073A9799851F820000B90FDF7E2FACDE978
:10B120000C01DDE90E23FDF741FACDE91001FDF731
:10B130001BFB6DAA799942F821007998401CC0B296
:10B14000799079980628D6DB0020799033E0094879
:10B150003430799900EB810000680F90FDF7C1FA57
:10B1600000220F4BCDE91001FDF720FA5EAB799A72
:10B170001AE00000EC1C00200000F03F3333F13FE8
:10B18000F0A7C64B3789F13F736891ED7C3FF13FE3
:10B19000713D0AD7A370F13F00007A440000A0403F
:10B1A00000408F404C1E002003EBC20203C279987E
:10B1B000401CC0B2799079980528C8DB00207990AE
:10B1C00016E0FE48799900EB810000680F90FDF7CA
:10B1D00088FA0022FA4BCDE91001FDF7E7F954ABEC
:10B1E000799A03EBC20203C27998401CC0B27990ED
:10B1F00079980528E5DB0020799017E0EF481430B6
:10B20000799900EB810000680F90FDF76AFA00223F
:10B21000EB4BCDE91001FDF7C9F94AAB799A03EB85
:10B22000C20203C27998401CC0B27990799805286F
:10B23000E4DB0020799017E0E0482830799900EBB2
:10B24000810000680F90FDF74CFA0022DC4BCDE93D
:10B250001001FDF7ABF940AB799A03EBC20203C2D0
:10B260007998401CC0B2799079980528E4DB0020D9
:10B27000799017E0D1483C30799900EB8100006863
:10B280000F90FDF72EFA0022CD4BCDE91001FDF70E
:10B290008DF936AB799A03EBC20203C27998401C50
:10B2A000C0B2799079980528E4DB0020799017E006
:10B2B000C2485030799900EB810000680F90FDF78B
:10B2C00010FA0022BE4BCDE91001FDF76FF92CAB4F
:10B2D000799A03EBC20203C27998401CC0B27990FC
:10B2E00079980528E4DB61996098CDE90A01699BAA
:10B2F000689AFDF7E9F8CDE90E0163996298CDE906
:10B300000401699B689AFDF7DFF8CDE90601699BA6
:10B31000689AFDF7D9F80022AA4BCDE90A0169998C
:10B32000689805F0E7F9CDE9020165996498CDE9DF
:10B330000001DDE90223FDF7C7F80022A24BCDE9A9
:10B3400006016999689805F0D5F9CDE90201679978
:10B350006698CDE90001DDE90223FDF7B5F8CDE9F6
:10B360000401DDE90623FDF708F8CDE90801DDE970
:10B370000A23FDF702F8CDE90C01DDE90E23FCF705
:10B38000FCFFCDE910015F995E98CDE90E01DDE982
:10B390001023FCF7F2FFCDE9200157995698CDE92B
:10B3A0000A01699B689AFDF78FF8CDE90E0159995A
:10B3B0005898CDE90401699B689AFDF785F8CDE9B5
:10B3C0000601699B689AFDF77FF800227D4BCDE965
:10B3D0000A016999689805F08DF9CDE902015B9938
:10B3E0005A98CDE90001DDE90223FDF76DF800224E
:10B3F000754BCDE906016999689805F07BF9CDE9AF
:10B4000002015D995C98CDE90001DDE90223FDF7B9
:10B410005BF8CDE90401DDE90623FCF7AEFFCDE9D9
:10B420000801DDE90A23FCF7A8FFCDE90C01DDE9FD
:10B430000E23FCF7A2FFCDE9100155995498CDE9F0
:10B440000E01DDE91023FCF798FFCDE922014D99AB
:10B450004C98CDE90A01699B689AFDF735F8CDE96A
:10B460000E014F994E98CDE90401699B689AFDF74A
:10B470002BF8CDE90601699B689AFDF725F80022B3
:10B48000504BCDE90A016999689805F033F9CDE987
:10B49000020151995098CDE90001DDE90223FDF741
:10B4A00013F80022484BCDE906016999689805F028
:10B4B00021F9CDE9020153995298CDE90001DDE966
:10B4C0000223FDF701F8CDE90401DDE90623FCF7CD
:10B4D00054FFCDE90801DDE90A23FCF74EFFCDE971
:10B4E0000C01DDE90E23FCF748FFCDE910014B9973
:10B4F0004A98CDE90E01DDE91023FCF73EFFCDE9C6
:10B50000240143994298CDE90A01699B689AFCF7A6
:10B51000DBFFCDE90E0145994498CDE90401699B13
:10B52000689AFCF7D1FFCDE90601699B689AFCF7A0
:10B53000CBFF0022234BCDE90A016999689805F0F9
:10B54000D9F8CDE9020147994698CDE90001DDE936
:10B550000223FCF7B9FF00221B4BCDE906016999D4
:10B56000689805F0C7F8CDE9020149994898CDE9F6
:10B570000001DDE90223FCF7A7FFCDE90401DDE9C5
:10B580000623FCF7FAFECDE90801DDE90A23FCF702
:10B59000F4FECDE90C01DDE90E23FCF7EEFECDE96A
:10B5A000100141994098CDE90E01DDE91023FCF727
:10B5B000E4FECDE92601DDE9380107E0341D002075
:10B5C00000408F400000084000001040CDE90A0113
:10B5D000699B689AFCF778FFCDE90E01DDE93A0135
:10B5E000CDE90401699B689AFCF76EFFCDE906017D
:10B5F000699B689AFCF768FF0022FE4BCDE90A01BF
:10B600006999689805F076F8CDE90201DDE93C0119
:10B61000CDE90001DDE90223FCF756FF0022F64BDD
:10B62000CDE906016999689805F064F8CDE9020151
:10B63000DDE93E01CDE90001DDE90223FCF744FF2D
:10B64000CDE90401DDE90623FCF797FECDE9080109
:10B65000DDE90A23FCF791FECDE90C01DDE90E23BB
:10B66000FCF78BFECDE91001DDE93601CDE90E01D5
:10B67000DDE91023FCF781FECDE92801DDE92E018B
:10B68000CDE90A01699B689AFCF71EFFCDE90E011E
:10B69000DDE93001CDE90401699B689AFCF714FFEC
:10B6A000CDE90601699B689AFCF70EFF0022D14B99
:10B6B000CDE90A016999689805F01CF8CDE9020105
:10B6C000DDE93201CDE90001DDE90223FCF7FCFEF2
:10B6D0000022C94BCDE906016999689805F00AF87E
:10B6E000CDE90201DDE93401CDE90001DDE9022304
:10B6F000FCF7EAFECDE90401DDE90623FCF73DFE97
:10B70000CDE90801DDE90A23FCF737FECDE90C019C
:10B71000DDE90E23FCF731FECDE91001DDE92C0156
:10B72000CDE90E01DDE91023FCF727FECDE92A0162
:10B730000020799020E0B14800690D90FCF7D1FF1E
:10B74000CDE90E01DDE91C23FCF7BEFECDE91001B9
:10B7500020A9799801EBC00103C9CDE90E01DDE90B
:10B760001023FCF723FF20AB799A03EBC20203C23C
:10B770007998401CC0B2799079980628DBDB9F4805
:10B78000C069014611906A98FDF70AF83BD26D989E
:10B790000A906E9809900A99FCF779FD0B90FCF7D6
:10B7A000A0FFCDE90E01DDE92001CDE90601DDE9CB
:10B7B0002201CDE90401DDE90623FCF77FFECDE996
:10B7C0000A016D98014606906C98FCF760FD0790A1
:10B7D000FCF787FFCDE90801DDE90A23FCF774FED9
:10B7E000CDE90C01DDE90E23FCF7E0FECDE9100107
:10B7F000DDE92001CDE90E01DDE91023FCF7BDFDF7
:10B80000CDE91E010EE17D48006A014611906A985B
:10B81000FCF7C6FF3BD26E980A906F9809900A9980
:10B82000FCF735FD0B90FCF75CFFCDE90E01DDE97F
:10B830002201CDE90601DDE92401CDE90401DDE9BC
:10B840000623FCF73BFECDE90A016E9801460690FF
:10B850006C98FCF71CFD0790FCF743FFCDE908014D
:10B86000DDE90A23FCF730FECDE90C01DDE90E230A
:10B87000FCF79CFECDE91001DDE92201CDE90E01C6
:10B88000DDE91023FCF779FDCDE91E01CAE05B4834
:10B89000406A014611906A98FCF782FF3BD26F988C
:10B8A0000A90709809900A99FCF7F1FC0B90FCF74C
:10B8B00018FFCDE90E01DDE92401CDE90601DDE93E
:10B8C0002601CDE90401DDE90623FCF7F7FDCDE90A
:10B8D0000A016F98014606906C98FCF7D8FC079017
:10B8E000FCF7FFFECDE90801DDE90A23FCF7ECFDDA
:10B8F000CDE90C01DDE90E23FCF758FECDE910017E
:10B90000DDE92401CDE90E01DDE91023FCF735FD69
:10B91000CDE91E0186E03948806A014611906A9897
:10B92000FCF73EFF3BD270980A90719809900A99F3
:10B93000FCF7ADFC0B90FCF7D4FECDE90E01DDE980
:10B940002601CDE90601DDE92801CDE90401DDE9A3
:10B950000623FCF7B3FDCDE90A0170980146069075
:10B960006C98FCF794FC0790FCF7BBFECDE908014E
:10B97000DDE90A23FCF7A8FDCDE90C01DDE90E2382
:10B98000FCF714FECDE91001DDE92601CDE90E0139
:10B99000DDE91023FCF7F1FCCDE91E0142E07198CE
:10B9A0000A90729809900A99FCF771FC0B90FCF7C9
:10B9B00098FECDE90E01DDE92801CDE90601DDE9BA
:10B9C0002A01CDE90401DDE90623FCF777FDCDE985
:10B9D0000A017198014606906C98FCF758FC079094
:10B9E000FCF77FFECDE90801DDE90A23FCF76CFDD9
:10B9F00006E000000000084000001040EC1C0020A1
:10BA0000CDE90C01DDE90E23FCF7D0FDCDE91001F5
:10BA1000DDE92801CDE90E01DDE91023FCF7ADFCDD
:10BA2000CDE91E016C98FCF75CFECDE90E01DDE965
:10BA30001E23FCF743FDCDE91001FCF795FE6C9049
:10BA400009496B98C1F82E006C98C1F83A00074874
:10BA50004068014611906C98FCF719FC0249C1F846
:10BA60003E007DB000BD00004C1E0020EC1C0020FC
:10BA70000EB500BF02A800210B460122CDE900103F
:10BA8000084602F049F823E00020124908701248E5
:10BA9000808C00F47F4040F022000F498884FEF73C
:10BAA0007DFC0520FEF710FC0B49C1F84200002088
:10BAB00004F0F2F800214FF4007003F0EBFF02A84D
:10BAC00000210B460222CDE90010084602F024F8BE
:10BAD000DAE70000220000204C1E002030B50546A9
:10BAE0000C4622460021284600F001F830BD2DE921
:10BAF000F04103460C4617460FB9BDE8F08103B983
:10BB0000FBE70025002202E02D022543521C042AF7
:10BB1000FAD3384603F0030C1946BCF1000F08D0E5
:10BB2000624603E001F8014B401E521C08B1042A92
:10BB3000F8D30E4601E020C6001F0428FBD2314690
:10BB400002E001F8014B401E0028FAD100BFD4E703
:10BB500070B5C0B005460026082D00D0042604228A
:10BB600035493648FCF732FB00B1042634480078EA
:10BB700000B905264EB13048001F807828B1304604
:10BB800000F00EFA002040B070BDFEF7A3FF2D4874
:10BB90000088C0B28DF800002748001FC0788DF8DB
:10BBA000010000208DF802008DF803008DF80400DC
:10BBB00058208DF80500B0208DF80600B0222249EB
:10BBC0000DF10700FCF7DEFAB7216846FDF71CFE11
:10BBD0000446E0B28DF8B70020128DF8B8000120BD
:10BBE000184908800020486088604FF40070C881C0
:10BBF0001648086100204880072088810320A1F8AA
:10BC0000AC00A1F8AE0014223220FEF747F9022260
:10BC10000C49AC31DE20FEF741F90748001F80785F
:10BC200018B1B921684604F079FA0649B1F8AE00B6
:10BC300004F08AFA0120A6E7DC1E00203C00002068
:10BC40004C000020EC1C00209C1D0020F2D21C4166
:10BC50002DE9F04FC1B081464FF0000A43484179C9
:10BC6000007941EA00244148C179807941EA0028FD
:10BC700004EB0800401E85B24FF0230B4FF6FF7017
:10BC800000EA4806B9F1080F01D04FF0040AB8F1F4
:10BC9000000F01D14FF0020A112C0FD0142C0DD03F
:10BCA000162C0BD0182C09D01A2C07D01C2C05D020
:10BCB0001E2C03D0202C01D0222C01D14FF0020ADF
:10BCC000102D0FD0132D0DD0152D0BD0172D09D001
:10BCD000192D07D01B2D05D01D2D03D01F2D01D0F0
:10BCE000212D01D14FF0020AABF10100A84201DA87
:10BCF0004FF0020AABF10100A04201DA4FF0020A54
:10BD0000BAF1000F06D0504600F04AF9002041B0C9
:10BD1000BDE8F08FFEF7ECFC15480088C0B28DF846
:10BD200004001248C0788DF80500F0B28DF80600C6
:10BD3000104800EB440132460DF10700FCF722FAEF
:10BD4000F01CC1B201A8FDF75FFD074601AAF01C77
:10BD500017543912301D11540448807820B1701DD9
:10BD600081B201A804F0DAF90120D0E7D81E002042
:10BD7000EC1C0020921E00202DE9F04FC1B081463E
:10BD80004FF0000A83484179007941EA0024814854
:10BD9000C179807941EA002804EB0800401E85B291
:10BDA0004FF0580B4FF6FF7000EA4806B9F1080F44
:10BDB00001D04FF0040AB8F1000F01D14FF0020A90
:10BDC000032C4FD0052C4DD0092C4BD00B2C49D037
:10BDD0000D2C47D00F2C45D0112C43D0132C41D023
:10BDE000152C3FD0172C3DD0192C3BD01B2C39D013
:10BDF0001D2C37D01F2C35D0212C33D0232C31D003
:10BE0000252C2FD0272C2DD0292C2BD02B2C29D0F2
:10BE10002D2C27D02F2C25D0312C23D0332C21D0E2
:10BE2000352C1FD0372C1DD0392C1BD03B2C19D0D2
:10BE30003D2C17D03F2C15D0412C13D0432C11D0C2
:10BE4000452C0FD0472C0DD0492C0BD04B2C09D0B2
:10BE50004D2C07D04F2C05D0512C03D0532C01D0A2
:10BE6000552C01D14FF0020A022D4FD0042D4DD098
:10BE7000082D4BD00A2D49D00C2D47D00E2D45D082
:10BE8000102D43D0122D41D0142D3FD0162D3DD072
:10BE9000182D3BD01A2D39D01C2D37D01E2D35D062
:10BEA000202D33D0222D31D0242D2FD0262D2DD052
:10BEB000282D2BD02A2D29D02C2D27D02E2D25D042
:10BEC000302D23D0322D21D0342D1FD0362D1DD032
:10BED000382D1BD03A2D19D03C2D17D03E2D15D022
:10BEE000402D13D0422D11D0442D0FD0462D0DD012
:10BEF000482D0BD04A2D09D04C2D07D04E2D05D002
:10BF0000502D03D0522D01D0542D01D14FF0020AF3
:10BF1000ABF10100A84201DA4FF0020AABF10100D7
:10BF2000A04201DA4FF0020ABAF1000F06D05046E3
:10BF300000F036F8002041B0BDE8F08FFEF7CAFDF2
:10BF400015480088C0B28DF804001248C0788DF8FA
:10BF50000500F0B28DF80600104800EB44013246AF
:10BF60000DF10700FCF70EF9F01CC1B201A8FDF7B6
:10BF70004BFC074601AAF01C17543912301D11540E
:10BF80000448807820B1701D81B201A804F0C6F881
:10BF90000120D0E7D81E0020EC1C00209C1D0020B2
:10BFA0007CB50446DCB10E480088C0B28DF80000B4
:10BFB0000C48C07840F080008DF801008DF80240F8
:10BFC00003216846FDF720FC0546E8B28DF8030022
:10BFD00028128DF804000521684604F09FF87CBD06
:10BFE000EC1C0020D81E0020FEB505460026082DBA
:10BFF00000D0042604222C492C48FCF7E7F800B1B5
:10C00000042646B12848001F807820B13046FFF74B
:10C01000C7FF0020FEBD2648D0F8320025498860C1
:10C020002348D0F83A0048602148D0F82600086339
:10C030000422091D3620FDF731FF04221D49083175
:10C040003A20FDF72BFF04221A4930316220FDF718
:10C0500025FF18480088C0B28DF800001248001F64
:10C06000C0788DF8010000208DF8020002208DF8C4
:10C07000030000208DF8040004208DF8050006213F
:10C080006846FDF7C1FB0446E0B28DF806002012B9
:10C090008DF807000448001F807818B10821684611
:10C0A00004F03CF80120B5E7DC1E00204000002031
:10C0B0004C1E0020EC1C0020FEB505460026032780
:10C0C000082D00D00426042243494448FCF77EF89A
:10C0D00008B9012708E004223F494148FCF776F8F7
:10C0E00008B9022700E0042646B13B48001F8078CB
:10C0F00020B13046FFF754FF0020FEBD012F2BD1A9
:10C1000001203849087034208DF8000012208DF885
:10C110000100022269462420FDF7C0FE3248808CCF
:10C12000C0B240F480703049888430480088C0B282
:10C130008DF800002848001FC0788DF801004020CD
:10C140008DF8020060208DF8030080208DF8040037
:10C15000A0208DF805002AE0022F28D100202149D7
:10C1600008708DF800008DF8010002226946242035
:10C17000FDF794FE1C48808CC0B240F400701A4950
:10C1800088841A480088C0B28DF800001248001F49
:10C19000C0788DF8010044208DF8020066208DF8EB
:10C1A000030088208DF80400AA208DF805000621E0
:10C1B0006846FDF729FB0446E0B28DF80600201220
:10C1C0008DF807000448001F807818B108216846E0
:10C1D00003F0A4FF012090E7DC1E002048000020AF
:10C1E000400000204C0000204C1E0020EC1C0020D1
:10C1F0002DE9FF4106460027B84688484179007975
:10C2000041EA00248548C179807941EA0020009004
:10C21000082E06D00420FFF7C3FE002004B0BDE8BE
:10C22000F08174B1012C0CD0062C0AD0072C08D058
:10C23000562C06D0572C04D00220FFF7B1FE002068
:10C24000ECE7092C01DD4FF001087548007838B99A
:10C25000B8F1010F04D10520FFF7A2FE0020DDE7B1
:10C26000072C4AD005DC4CB1012C1DD0062C75D111
:10C2700024E0562C74D0572CF9D18AE0BDF8000088
:10C2800018B1BDF80000F72804DD0320FFF788FE91
:10C290000020C3E7BDF80000624908800222694619
:10C2A0003220FDF7FBFD91E0BDF800005D494880BC
:10C2B000022269463420FDF7F1FD87E0BDF8000059
:10C2C000072807D0BDF80000142803D0BDF80000EF
:10C2D000642801D1012000E0002020B90320FFF7ED
:10C2E0005FFE00209AE7BDF800004E4988810222D7
:10C2F00069463E20FDF7D2FD68E0BDF8000001214F
:10C30000B1EB202F17D0BDF800000221B1EB202F98
:10C3100011D0BDF800000321B1EB202F0BD0BDF8E8
:10C3200000000421B1EB202F05D0BDF8000005214D
:10C33000B1EB202F01D1012000E0002020B9032023
:10C34000FFF72EFE002069E7BDF800003549C881DF
:10C35000022269464020FDF7A1FD37E031E0FFE70A
:10C36000BDF80000002804DBBDF80000B0F5807FB8
:10C3700004DD0320FFF714FE00204FE7BDF80000A6
:10C380002849A1F8AC0002226946DE20FDF786FDAF
:10C390001CE0BDF80000012803DBBDF80000072801
:10C3A00004DD0320FFF7FCFD002037E7BDF80000A7
:10C3B0001C49A1F8AE0002226946E020FDF76EFD9F
:10C3C00004E00320FFF7ECFD002027E700BF27B1C2
:10C3D0003846FFF7E5FD002020E712480088C0B28C
:10C3E0008DF804000D48C0788DF805000B484068B2
:10C3F000CDF80600062101A8FDF706FA0546E8B2C9
:10C400008DF80A0028128DF80B000448807818B1C6
:10C41000082101A803F082FE0120FFE6D81E0020BB
:10C420004C000020EC1C00202DE9F04F89B0824622
:10C430004FF0000800200490FE484179007941EA5D
:10C440000024FC48C179807941EA0027F94890F836
:10C450000890E019401E85B24FF0580BF548007A5D
:10C460000390F548029003980930824501D04FF0BF
:10C470000408B9EB470F01D04FF0040817B1B9F128
:10C48000000F01D14FF00208032C4FD0052C4DD0E6
:10C49000092C4BD00B2C49D00D2C47D00F2C45D05C
:10C4A000112C43D0132C41D0152C3FD0172C3DD04C
:10C4B000192C3BD01B2C39D01D2C37D01F2C35D03C
:10C4C000212C33D0232C31D0252C2FD0272C2DD02C
:10C4D000292C2BD02B2C29D02D2C27D02F2C25D01C
:10C4E000312C23D0332C21D0352C1FD0372C1DD00C
:10C4F000392C1BD03B2C19D03D2C17D03F2C15D0FC
:10C50000412C13D0432C11D0452C0FD0472C0DD0EB
:10C51000492C0BD04B2C09D04D2C07D04F2C05D0DB
:10C52000512C03D0532C01D0552C01D14FF00208CF
:10C53000022D4FD0042D4DD0082D4BD00A2D49D0BF
:10C540000C2D47D00E2D45D0102D43D0122D41D0AB
:10C55000142D3FD0162D3DD0182D3BD01A2D39D09B
:10C560001C2D37D01E2D35D0202D33D0222D31D08B
:10C57000242D2FD0262D2DD0282D2BD02A2D29D07B
:10C580002C2D27D02E2D25D0302D23D0322D21D06B
:10C59000342D1FD0362D1DD0382D1BD03A2D19D05B
:10C5A0003C2D17D03E2D15D0402D13D0422D11D04B
:10C5B000442D0FD0462D0DD0482D0BD04A2D09D03B
:10C5C0004C2D07D04E2D05D0502D03D0522D01D02B
:10C5D000542D01D14FF00208ABF10100A84201DA5D
:10C5E0004FF00208ABF10100A04201DA4FF002085F
:10C5F000092D01DD01200490092C01DD01200490AA
:10C600008E48007820B90498012801D14FF0050820
:10C61000B8F1000F06D04046FFF7C2FC002009B079
:10C62000BDE8F08FB02286498348FBF7ABFD824915
:10C6300001EB44004A467F490931FBF7A3FD4FF067
:10C6400000084CB97C4800880006000C7A4909882B
:10C6500040EA112078490880012C0BDC012D09DB10
:10C66000754840880006000C7349498840EA11204B
:10C6700071494880022C07DC032D05DB6E494868B0
:10C6800003F0A3FF6C494860042C07DC052D05DB93
:10C690006949886803F099FF67498860062C0BDCBC
:10C6A000062D09DB644880890006000C62498989EF
:10C6B00040EA112060498881072C0BDC072D09DB3B
:10C6C0005D48C0890006000C5B49C98940EA112019
:10C6D0005949C881082C07DC092D05DB5649086932
:10C6E00003F073FF544908610A2C07DC0B2D05DBAE
:10C6F0005149486903F069FF4F4948610C2C07DC38
:10C700000D2D05DB4C49886903F05FFF4A498861BC
:10C710000E2C07DC0F2D05DB4749C86903F055FFD8
:10C720004549C861102C07DC112D05DB4249086A18
:10C7300003F04BFF40490862122C07DC132D05DB88
:10C740003D49486A03F041FF3B494862142C07DC2D
:10C75000152D05DB3849886A03F037FF36498862B2
:10C76000162C07DC172D05DB3349C86A03F02DFFB3
:10C770003149C862182C07DC192D05DB2E49086BDE
:10C7800003F023FF2C4908631A2C07DC1B2D05DB63
:10C790002949486B03F019FF274948631C2C07DC23
:10C7A0001D2D05DB2449886B03F00FFF22498863A8
:10C7B0001E2C07DC1F2D05DB1F49C86B03F005FF8E
:10C7C0001D49C863202C07DC212D05DB1A49086CA4
:10C7D00003F0FBFE18490864222C07DC232D05DB3F
:10C7E0001549486C03F0F1FE13494864242C07DC1A
:10C7F000252D05DB1049886C03F0E7FE0E4988649F
:10C80000262C07DC272D05DB0B49C86C03F0DDFE69
:10C810000949C864282C07DC292D05DB0649086D69
:10C8200003F0D3FE044908652A2C10DC2B2D0EDB07
:10C83000014907E0D81E00209C1D00204C0000206C
:10C84000EC1C0020486D03F0C0FEC84948652C2C44
:10C8500007DC2D2D05DBC549886D03F0B6FEC34905
:10C8600088652E2C07DC2F2D05DBC049C86D03F031
:10C87000ACFEBE49C865302C07DC312D05DBBB4959
:10C88000086E03F0A2FEB9490866322C07DC332D8E
:10C8900005DBB649486E03F098FEB4494866342C6F
:10C8A00007DC352D05DBB149886E03F08EFEAF49FC
:10C8B0008866362C07DC372D05DBAC49C86E03F0E3
:10C8C00084FEAA49C866382C07DC392D05DBA74948
:10C8D000086F03F07AFEA54908673A2C07DC3B2D68
:10C8E00005DBA249486F03F070FEA04948673C2C65
:10C8F00007DC3D2D05DB9D49886F03F066FE9B49F3
:10C9000088673E2C07DC3F2D05DB9849C86F03F094
:10C910005CFE9649C867402C09DC412D07DB934932
:10C92000D1F8800003F051FE9049C1F88000422CFC
:10C9300009DC432D07DB8D49D1F8840003F045FE67
:10C940008A49C1F88400442C09DC452D07DB87495E
:10C95000D1F8880003F039FE8449C1F88800462CDC
:10C9600009DC472D07DB8149D1F88C0003F02DFE4F
:10C970007E49C1F88C00482C09DC492D07DB7B4936
:10C98000D1F8900003F021FE7849C1F890004A2CBC
:10C9900009DC4B2D07DB7549D1F8940003F015FE37
:10C9A0007249C1F894004C2C09DC4D2D07DB6F490E
:10C9B000D1F8980003F009FE6C49C1F898004E2C9C
:10C9C00009DC4F2D07DB6949D1F89C0003F0FDFD20
:10C9D0006649C1F89C00502C09DC512D07DB6349E6
:10C9E000D1F8A00003F0F1FD6049C1F8A000522C7D
:10C9F00009DC532D07DB5D49D1F8A40003F0E5FD08
:10CA00005A49C1F8A400542C09DC552D07DB5749BD
:10CA1000D1F8A80003F0D9FD5449C1F8A800562C5C
:10CA20000EDC562D0CDB5148B0F8AC000006000CB3
:10CA30004E49B1F8AC1040EA11204C49A1F8AC00C5
:10CA4000572C0EDC572D0CDB4848B0F8AE00000622
:10CA5000000C4649B1F8AE1040EA11204349A1F854
:10CA6000AE004248008818B140480088F72801DD30
:10CA70004FF003083D48B0F8AC00002805DB3B4808
:10CA8000B0F8AC00B0F5807F01DD4FF00308374807
:10CA9000B0F8AE00012804DB3448B0F8AE00072837
:10CAA00001DD4FF0030831490869FBF71AFE304AEF
:10CAB000304BCDE90001FBF727FE0AD32B4908696B
:10CAC000FBF70FFE00222C4BCDE90001FBF734FEF3
:10CAD00001D24FF0030825488089072809D0234850
:10CAE0008089142805D021488089642801D04FF01E
:10CAF0000308B8F1000F0FD1B0221C491F48FBF703
:10CB000041FB029A02EB4401322202EB440290B252
:10CB10004A46FDF7C3F907E01948807820B140463E
:10CB2000FFF73EFA00207AE514480088C0B28DF87D
:10CB300014001348C0788DF8150011484068CDF8EE
:10CB40001600062105A8FCF75FFE0646F0B28DF838
:10CB50001A0030128DF81B000948807818B108219E
:10CB600005A803F0DBFA012059E500009C1D002018
:10CB70008FC2F5285C8F234000002440EC1C00206D
:10CB8000D81E002070B5002100230F22C4781CB3EA
:10CB9000174C246804F4E064C4F5E064C4F307218E
:10CBA000C1F10404E3B20A4144789C40E1B28478C4
:10CBB000144021430C07210E0E4C05786155047872
:10CBC00004F01F050124AC4005786D11AD0005F19E
:10CBD000E025C5F8004109E0047804F01F050124B0
:10CBE000AC40054D0678761145F8264070BD000032
:10CBF0000CED00E000E400E080E100E002490143C8
:10CC0000024A1160704700000000FA050CED00E0D8
:10CC10007047000010B50348006810B10148006873
:10CC2000804710BD9000002070B5044600F0BCF8AD
:10CC30000020454908704549087045490870454934
:10CC400008604549086045490870454908704549EC
:10CC500008704549086045490860454908604549EC
:10CC60000870454800680A21B0FBF1F043490860AC
:10CC70004348006858B14348056845B140480668D4
:10CC800003E0761E002028602D1D002EF9D1002023
:10CC90003D4908603D4908603D4908603D490860DC
:10CCA0003D4908603D4908603D4908603D490870BC
:10CCB00001F044FC01F07EFC204601F0FDF92088E3
:10CCC00000B170BD204601F05DFA208800B1F8E7A0
:10CCD000204601F063FA208800B1F2E7204601F017
:10CCE000A3FA208800B1ECE7204601F057FC208829
:10CCF00000B1E6E7204601F0A7FD208800B1E0E79B
:10CD0000204601F0BDFF208800B1DAE7204601F09F
:10CD100001FA208800B1D4E7204602F02FFC2088D9
:10CD200000B1CEE7204601F011FF208800B1C8E72E
:10CD3000204602F093FC208800B1C2E701F0E6F83B
:10CD4000FFF766FF00BFBCE7A4000020A50000209D
:10CD5000D80000203001002034010020BE00002057
:10CD6000BF000020C0000020CC000020D000002028
:10CD7000D4000020E0000020B0110108DC000020F9
:10CD8000801101087C110108840000208800002027
:10CD90008C000020900000209400002098000020CB
:10CDA0009C0000200E0100200A4A1168002002E0C9
:10CDB000002204C1401C084A12689042F8D3054A78
:10CDC0001268054B1B6802EB8302121F034B1A60AB
:10CDD000704700007C110108801101083C0100200F
:10CDE00008480078012800D0704707480078FA28E2
:10CDF00000DBF9E704480078401C0349087000BFD5
:10CE0000F2E70000A5000020A400002010B50024D7
:10CE10002E480078012800D010BD00BFFBF79CF918
:10CE2000044600BF2A48007828B900BF2046FBF717
:10CE300097F900BFF0E726480078401E24490870A3
:10CE400008460078002805DD00BF2046FBF788F97A
:10CE500000BFE1E71F480078002805DD00BF20463D
:10CE6000FBF77EF900BFD7E701F054FB1A490870C1
:10CE70000846007800EB4000184951F82000184996
:10CE800008600846006817490968884205D100BF54
:10CE90002046FBF765F900BFBEE711480068D0F8EF
:10CEA0009000401C0E490968C1F890000E480068C7
:10CEB000401C0D4908604FF080500C49086000BFCD
:10CEC0002046FBF74DF900BF00BFA5E7A5000020F5
:10CED000A4000020D8000020BF000020E83B002074
:10CEE00034010020300100200401002004ED00E0A6
:10CEF00010B5002420480078002800DD10BD1F4830
:10CF00000078002800DDF9E700BFFBF725F90446AB
:10CF100000BF01F0FFFA1A4908700846007800EBDC
:10CF20004000184951F82000174908600846006879
:10CF300016490968884205D100BF2046FBF710F961
:10CF400000BFDBE710480068D0F89000401C0E4995
:10CF50000968C1F890000E480068401C0C49086040
:10CF60004FF080500B49086000BF2046FBF7F8F8EF
:10CF700000BF00BFC2E70000A4000020D8000020CE
:10CF8000BF000020E83B00203401002030010020D9
:10CF90000401002004ED00E070B5044600251848A7
:10CFA0000078002803DD46F66250208070BD1548E9
:10CFB0000078012803D045F689602080F6E7124802
:10CFC0000078FA2803DB45F209202080EEE700BF55
:10CFD00000BFFBF7C1F8054600BF00BF0A48007854
:10CFE000401C0949087001F09BFB00BF00BF2846A8
:10CFF000FBF7B6F800BF00BF0020208000BFD5E7D8
:10D00000A4000020A5000020D80000202DE9F04158
:10D0100005460C461646002700BF00BFFBF79CF8EC
:10D02000074600BF00BF012D03D000200D49087046
:10D0300002E001200B49087014B10B48046006E0BF
:10D040000A4800680A21B0FBF1F00749086000BFF8
:10D0500000BF3846FBF784F800BF00BF00203080D7
:10D06000BDE8F081E0000020DC000020B0110108E4
:10D0700070B50446002520480078002803DD46F6F8
:10D080006550208070BD1D480078012803D045F60A
:10D0900089602080F6E71A48007818B946F664508F
:10D0A0002080EFE700BF00BFFBF756F8054600BF42
:10D0B00000BF13480078401E1149087008460078E8
:10D0C00000280ADD00BF00BF2846FBF749F800BF73
:10D0D00000BF46F663502080D4E701F02FFB00BF6D
:10D0E00000BF2846FBF73CF800BF00BFFFF700FF7A
:10D0F0000020208000BFC5E7A4000020A50000207C
:10D10000D800002010B5044612480078E8B901F0B4
:10D1100001FA1149087008460078104908700E4855
:10D12000007800EB40000E4951F820000D490860DE
:10D13000084600680C490860012006490870FBF7A2
:10D140009FFC43F69920208002E045F68A6020800B
:10D1500010BD0000A5000020BF000020BE00002080
:10D16000E83B002034010020300100202DE9F0418F
:10D1700007464FF0000800BF00BFFAF7EDFF8046FA
:10D1800000BF00BF00203B4908803B4908603B4985
:10D1900008603B4908603B4908603B49088100BF83
:10D1A00000BF4046FAF7DCFF00BF00BF00BF00BF72
:10D1B000FAF7D2FF804600BF00BF3448046800BFC2
:10D1C00000BF4046FAF7CCFF00BF00BF21E000BF20
:10D1D00000BFFAF7C1FF804600BF00BF00207834CF
:10D1E000E06320602063A061A082E0826062A062B0
:10D1F000FCF704FB2062783C04F164060020B08157
:10D20000D4F8BC4000BF00BF4046FAF7A9FF00BFFA
:10D2100000BF002CDBD100BF00BFFAF79DFF8046A6
:10D2200000BF00BF1A48056800BF00BF4046FAF7BC
:10D2300097FF00BF00BF12E000BF00BFFAF78CFFEE
:10D24000804600BF00BF05F120060020B081AD6917
:10D2500000BF00BF4046FAF783FF00BF00BF002DAC
:10D26000EAD102F09FF802F0F5FA00203880BDE81C
:10D27000F0810000EE0000200001002014010020D9
:10D2800020010020D0000020DC3B0020080100200D
:10D29000C4000020F8B5044600266946324800F074
:10D2A00079FBBDF8000018B1BDF800002080F8BD82
:10D2B0006A460021022000F0CDFBBDF8000018B145
:10D2C000BDF800002080F2E700BF00BFFAF744FF7E
:10D2D000064600BF00BF00202449086000BF00BF11
:10D2E0003046FAF73DFF00BF00BF00252048006828
:10D2F00020490968884205D91D4800681D49096808
:10D30000B0FBF1F525B91A4800680A21B0FBF1F528
:10D310006A460021284600F09DFB6946124800F04D
:10D3200021F9BDF8000018B1BDF800002080BEE76B
:10D3300000BF00BFFAF710FF064600BF00BF002085
:10D340000D490860094800680C49086001200C4933
:10D35000087000BF00BF3046FAF702FF00BF00BFF1
:10D360000020208000BFA2E7303E0020F000002017
:10D37000B01101089811010800010020F4000020FC
:10D38000FC00002010B50348006810B10148006897
:10D39000804710BD940000202DE9FF4F85B0044662
:10D3A0009046DDE91995159F139E00200290614873
:10D3B0000078002805DD47F24A10288009B0BDE852
:10D3C000F08F1CB947F2AD102880F7E7B8F1000FD5
:10D3D00003D147F24F102880F0E71EB946F62F60C0
:10D3E0002880EBE754480068874203D246F6306055
:10D3F0002880E3E71498B84203D346F631602880CA
:10D40000DCE71298102803D346F273202880D5E772
:10D4100012980F2806D14948844203D046F273205F
:10D420002880CBE7204601F03BFC0020288009F053
:10D43000010088B109F0020070B1B34600200490E9
:10D4400007E00020CBF800000BF1040B0498401C0F
:10D4500004900498B842F4D3149806EB800003902B
:10D46000CDE9007932464046039B089900F032FA34
:10D470008346C4F828800898E062069820621298D3
:10D4800084F83700C4F800B00398A060179860656E
:10D49000179818B92A480068A06501E01798A06598
:10D4A000189860606662A763A4F83C904FF0000A89
:10D4B00008E0002104F17C0040F82A100AF1010084
:10D4C00000F0FF0ABAF1000FF3D004F164001699DE
:10D4D00000F0A2FE204600F039F800BF00BFFAF7C6
:10D4E0003BFE029000BF00BF94F8370001F032F815
:10D4F000204601F0A7F8204601F0AAFB1148008859
:10D50000401C1049088010480078012807D000BF4F
:10D5100000BF0298FAF724FE00BF00BF4EE700BF2D
:10D5200000BF0298FAF71CFE00BF00BFFFF7E0FC47
:10D5300000BF43E7A4000020AC110108183B002005
:10D54000DC0000200C010020A500002010B50446DE
:10D550000348006818B1204601490968884710BD92
:10D560008400002070B504460D460026154800785A
:10D57000002803DD47F25510288070BD00BF00BFB2
:10D58000FAF7EAFD064600BF00BF1CB10E4800686E
:10D5900084420AD100BF00BF3046FAF7E1FD00BF68
:10D5A00000BF47F257102880E7E700BF00BF3046B2
:10D5B000FAF7D6FD00BF00BF2946204601F0E4FB84
:10D5C00000BFDAE7A40000203001002010B50446B7
:10D5D0000348006818B1204601490968884710BD12
:10D5E0008C0000202DE9F04780460E4614461D466B
:10D5F0004FF000096F480078002805DD46F2AE10B4
:10D6000028800020BDE8F0871EB1B6F5004F02D19A
:10D6100000E000BF04E045F6256028800020F1E727
:10D6200000BF0CB10020206000BF00BFFAF794FDDE
:10D63000814600BF00BF60480068406CA8B35E48E8
:10D640000068406C401E5C49096848645A4800689C
:10D65000476C1CB158480068006C2060FCF7CEF89D
:10D6600055490968096C401A53490968C1F8A40072
:10D6700051480068D0F8A8004F490968D1F8A410B3
:10D68000884207D24C480068D0F8A4004A4909688B
:10D69000C1F8A80000BF00BF4846FAF761FD00BF0F
:10D6A00000BF002028803846ACE7FFE706F40040C2
:10D6B00058B100BF00BF4846FAF752FD00BF00BF97
:10D6C00046F2B010288000209CE73C4800780028F3
:10D6D0000BDD00BF00BF4846FAF742FD00BF00BFA8
:10D6E00046F66350288000208CE74346072200213D
:10D6F000084600F0A5FD00BF00BF4846FAF730FD20
:10D7000000BF00BFFFF7F4FB00BF00BFFAF724FD26
:10D71000814600BF00BF2848006890F8350020B15E
:10D72000012826D0032834D12CE0FCB1224800681F
:10D73000006C2060FCF762F81F490968096C401A08
:10D740001D490968C1F8A4001B480068D0F8A8006A
:10D7500019490968D1F8A410884207D21648006810
:10D76000D0F8A40014490968C1F8A8000020288056
:10D7700013E01CB110480068006C206046F2A9104C
:10D7800028800AE00CB10020206047F2D9202880D0
:10D7900003E046F62E60288000BF00BF0648006800
:10D7A000476C00BF00BF4846FAF7DAFC00BF00BF75
:10D7B000384627E7A400002030010020D8000020D0
:10D7C0002DE9F04106460D4614461DB1B5F5004F52
:10D7D00002D100E000BF05E045F625602080002072
:10D7E000BDE8F08100BFFCF709F8804623464246B9
:10D7F0002946304601F05AFB07463846F0E700005C
:10D800002DE9F04705460E4617461C464FF0000A24
:10D810002E480078002804DD47F259102080BDE82A
:10D82000F0871EB946F2D5202080F8E71FB946F2EE
:10D83000D5202080F3E700BF00BFFAF78DFC8246B9
:10D8400000BF00BF0DB922480568286868B900BF4D
:10D8500000BF5046FAF784FC00BF00BF00203060D4
:10D86000386047F252102080D9E795F83C0000F06C
:10D87000010068B900BF00BF5046FAF771FC00BF55
:10D8800000BF00203060386047F254102080C6E7A7
:10D8900000BF00BF5046FAF763FC00BF00BF4FF067
:10D8A0000008D5F8249003E009F1040908F1010803
:10D8B000D9F800000028F7D0C6F80080A86BA0EBCC
:10D8C000080038600020208000BFA8E7A4000020E6
:10D8D00030010020F0B50446DDE9055602EB850075
:10D8E0004FF0807C071F3846C7F800C0071F384636
:10D8F0003C60DFF89CC0071F3846C7F800C04FF0F7
:10D90000123C071F3846C7F800C04FF0033C071F02
:10D910003846C7F800C04FF0023C071F3846C7F82A
:10D9200000C0071F38463B60071F384639604FF07C
:10D93000113C071F3846C7F800C04FF0103C071FC6
:10D940003846C7F800C04FF0093C071F3846C7F8F3
:10D9500000C04FF0083C071F3846C7F800C04FF022
:10D96000073C071F3846C7F800C04FF0063C071FAA
:10D970003846C7F800C04FF0053C071F3846C7F8C7
:10D9800000C04FF0043C071F3846C7F800C0F0BD88
:10D9900089EE000870B505460C460A480078002854
:10D9A00003DD47F25D10208070BD0748854203D13A
:10D9B00047F25B102080F7E72146284601F058FB2C
:10D9C00000BFF1E7A4000020183B002010B51D485F
:10D9D000006810B11B4800688047FBF70FFF044642
:10D9E0001948006819490968884215D01648006826
:10D9F000D0F89800201A14490968C1F89400124818
:10DA00000068D0F89C0010490968D1F894100844C7
:10DA10000D490968C1F89C000C480068C0F898409E
:10DA200009480068D0F8B40009490968884205D25D
:10DA30000748006804490968C1F8B4000020044997
:10DA4000086010BD98000020300100203401002043
:10DA5000D40000202DE9F04105460E46144600276B
:10DA60002A480078002804DD47F275202080BDE8B0
:10DA7000F08127480078002803DD46F663502080B7
:10DA8000F5E736B1022E05D0042E0AD0082E09D1B2
:10DA900001E000BF00BF1DB947F27E202080E6E70D
:10DAA00004E003E045F625602080E0E700BF00BF0A
:10DAB00000BFFAF751FB074600BF00BF0120154920
:10DAC000096881F836002346324629461148006825
:10DAD00001F06EFB208838B100BF00BF3846FAF76E
