:020000040800F2
:10800000104A0020398100083D8100083F810008A6
:10801000418100084381000845810008478100082C
:108020004781000847810008478100084781000810
:108030004781000847810008BF8A000899DF0008CF
:10804000079700085B950008AB9500087995000834
:108050001F95000865950008D9940008E39400086E
:10806000F7940008019500080B9500085F9400083C
:1080700069940008739400087D94000887940008B0
:10808000919400089B9400082D940008F396000832
:10809000FD960008559400084194000815950008C5
:1080A0005195000805960008B5950008BF95000891
:1080B000C9950008D3950008DD95000833950008A0
:1080C00029950008479500083D9500088D95000802
:1080D0009795000825960008D5960008DF960008B9
:1080E000ED9400086F950008E9960008F1950008E6
:1080F000FB95000883950008E7950008A195000806
:108100000F96000819960008A5940008AF9400087F
:10811000B9940008C3940008CD940008379400086F
:108120004B940008DFF80CD000F02AFC0048004710
:1081300075070108104A002004480047FEE7FEE7E3
:10814000FEE7FEE7FEE7FEE7FEE700002581000808
:1081500072B6704762B67047EFF3108072B6704720
:1081600080F31088704730BF704720BF7047B0FA67
:1081700080F0704790FAA0F0B0FA80F0704790FA63
:10818000A0F0704740EA01039B0703D009E008C94B
:10819000121F08C0042AFAD203E011F8013B00F8CC
:1081A000013B521EF9D27047D2B201E000F8012B18
:1081B000491EFBD270470022F6E710B513460A4667
:1081C00004461946FFF7F0FF204610BD30B50546BE
:1081D0000020034600E05B1C934205D2EC5CC85CC7
:1081E000201A01D1002CF6D130BDF0B480EA010292
:1081F000D40F4200B2EB410F02D2024608461146AC
:108200004A0042D0C30DDDB2C1F3C752AD1A202DD2
:1082100035DAC1F3160141F4000204B15242C5F14E
:10822000200602FA06F12A411044B3EBD05F23D0B6
:10823000C4B1012DA0EBC35009DCF0BC4FF00042EB
:1082400002EAC352DBB200F5000000F0F7BA4000CA
:1082500000F1807000EBC350A0F1807040EAD17053
:10826000490009E0490841EAC071A0EBC35000F59C
:108270000000400800EBC350F0BC00F0D6BA6142E9
:10828000012202EB4101001BF6E7F0BC704781F0D0
:108290000041AAE780F00040A7E780EA010210B59C
:1082A00002F00043400022D04A001FD0010E01EB33
:1082B0001261C0F35600C2F3560240F4000042F4CB
:1082C0000002A0FB022000047F39140400D0401CEF
:1082D00050EA124001D44000491EC2B20C0604EB21
:1082E000D010401C4008802A02D003E0002010BDBE
:1082F00020F00100002900DA0020184310BD30B43E
:1083000080EA010202F0004530F0004221F0004016
:1083100013D090B1C30DD40DC2F31601C0F31600F3
:10832000E41A41F4000140F400027D34914201D38B
:10833000641C00E04900002C02DA30BC00207047C9
:108340004FF400000023914201D3891A03434008EF
:108350004FEA4101F7D151B1914202D14FF00041B2
:1083600005E002D24FF0010101E06FF0010103EBE3
:10837000C450284430BC00F058BA2DE9FE4F804666
:1083800081EA0300C00F0C46009021F0004123F069
:108390000045B8EB0200A94105D24046214690466F
:1083A0001C460B46024623F00040104347D0270DE1
:1083B000C7F30A00C3F30A510290401A0190402803
:1083C0006BDAC3F3130040F4801B0098924620B18F
:1083D0000023D2EB030A63EB0B0B01985946C0F163
:1083E0004002504600F0F0F906460D465046594608
:1083F000019A00F008FA10EB08006141002487EAB6
:10840000115284EAE7731A4340D0009A62B3019A8A
:10841000012A4FEA075215DC001B61EB02014FF005
:10842000004202EA0752CDE90042001C41F58011EA
:1084300032462B4600F03FFA03B0BDE8F08F4046CD
:108440002146F9E7001B61EB0201001C41F5801396
:1084500000185B412018A2F5001747EB030140EA22
:10846000D570B6196D4111E06D084FEA360645EA40
:10847000C0754FEA0752001B61EB0201001C41F579
:10848000801149084FEA30000019514132462B460D
:1084900003B0BDE8F04F00F0FFB9009801224000A2
:1084A0000023D0EB020263EBE073009821464FEA11
:1084B000E074B8EB000061EB0401E9E783F00043EE
:1084C0005BE781F0004158E72DE9FE4F81EA0304A4
:1084D00004F0004421F0004100944FF0000B23F021
:1084E000004350EA01045ED052EA03045BD0C3F3B8
:1084F0000A54C1F30A552C44A4F2F3340194A0FBAE
:108500000254C1F3130141F48011C3F3130343F484
:10851000801301FB024400FB034E840A970A44EADD
:10852000815447EA8357A4FB076802958D0A05FB2F
:1085300007854FEA932C04FB0C542705029D4FEA54
:10854000065847EA1637B5EB08056EEB070C870EA1
:10855000920E47EA811742EA8312A7FB0201B6EBAB
:108560000B0164EB00042B0D43EA0C335E1844EB63
:108570001C50DA465146E7FB0201C5F313044FEAEB
:108580000B3343EA14534FEA0432019C43EA0603D7
:10859000A4F10C040294009CCDE900B400F08BF926
:1085A00003B0BDE8F08F00200146F9E72DE9F04D5A
:1085B00081EA030404F0004B21F0004514464FF01B
:1085C000000A23F0004150EA050220D054EA0102DB
:1085D0001DD0C5F30A570246C5F31303C1F31300B8
:1085E000C1F30A5640F4801543F48013A7EB060844
:1085F000101BD64608F2FD3873EB050002D308F1D4
:10860000010801E092185B41B8F1000F03DA002085
:108610000146BDE8F08D00204FF4801106468446E7
:108620000EE0171B73EB050705D3121B63EB050365
:1086300006434CEA010C49084FEA300092185B41AE
:1086400050EA0107EDD152EA030012D082EA040099
:1086500083EA0501084305D0101BAB4106D2012275
:10866000002306E000224FF0004302E06FF0010219
:1086700053101AEB06004CEB085110EB0A0041EBCB
:108680000B01BDE8F04D00F007B9C10F80EAE070C2
:108690000844CA079623002100F0D0B89623002290
:1086A000114600F0CBB80EB5C10F80EAE070084467
:1086B000CA07002140F233438DE80E000A460B46FC
:1086C00000F0F9F803B000BD0EB540F2334102915D
:1086D0000021CDE900110A460B4600F0ECF803B08A
:1086E00000BD00F0004230F000400AD0C10D01F59D
:1086F0006071C0F3160042EA0151C20840071143FD
:10870000704700200146704730B5041E71F1000427
:1087100004DB4FF00044404264EB0101141E73F18E
:10872000000405DB1C464FF00043524263EB040398
:108730008B4208BF824230BD30B5041E71F1000487
:1087400004DB4FF00044404264EB0101141E73F15E
:10875000000405DB1C464FF00043524263EB040368
:10876000994208BF904230BD01F0004330B421F07F
:10877000004150EA010206D00A0DA2F56072C1F371
:108780001301002A02DC30BC00207047440F44EA89
:10879000C104C100E01830BC00EBC25000F045B885
:1087A000002801DBC0F10040002901DBC1F10041DC
:1087B00081427047002801DBC0F10040002901DB45
:1087C000C1F1004188427047202A04DB203A00FAB8
:1087D00002F1002070479140C2F1200320FA03F318
:1087E000194390407047202A04DB203A21FA02F016
:1087F0000021704721FA02F3D040C2F120029140DB
:10880000084319467047202A06DBCB17203A41FA65
:1088100002F043EAE07306E041FA02F3D040C2F10D
:10882000200291400843194670470029A8BF7047AD
:10883000401C490008BF20F00100704710B4B0FA96
:1088400080FC00FA0CF050EA010404BF10BC704731
:1088500049B1CCF1200421FA04F411FA0CF118BF4B
:10886000012121430843A3EB0C01CB1D4FEA00611A
:108870004FEA102042BF002010BC704700EBC350ED
:1088800010440029A4BF10BC7047401C490008BF19
:1088900020F0010010BC704710B5141E73F10004E5
:1088A00008DA401C41F1000192185B411A4301D1E2
:1088B00020F0010010BD2DE9F04D92469B4611B10C
:1088C000B1FA81F202E0B0FA80F220329046FFF76E
:1088D0007BFF04460F4640EA0A0041EA0B0153467B
:1088E0005A46084313D0114653EA010019D0C8F183
:1088F00040025046FFF777FF05460E465046594660
:108900004246FFF761FF084305D0012004E02046FE
:108910003946BDE8F08D0020054346EAE0762C4359
:1089200037430A986305E40AA0EB08000022FD0A19
:1089300044EA47540A3002D500200146E9E7010520
:1089400010196941DDE9084500196941BDE8F04D9C
:10895000A2E770B521F0004303430CD0C1F30A55E0
:108960000024D5EB040564EB0403D617AD1AB3411C
:1089700002DB0020014670BD201841EB025170BDA2
:10898000064C074D06E0E06840F0010394E807005C
:1089900098471034AC42F6D3FFF7C8FB081501081E
:1089A000281501082DE9F04D00231A461B1A8A41AB
:1089B00003DB00200146BDE8F08DC1F30A52C1F38C
:1089C000130141F480154FF0000BD10702D10018BC
:1089D0006D41521E0027044640F2FF11384601EB5C
:1089E000620A3E468046024600204FF48011FFF79F
:1089F000FAFEC2197141BB1846EB0100B4EB030C3F
:108A000075EB000C04D3E41A65EB000517460E461F
:108A1000241908F101006D4180463428E3DDF9197D
:108A200046EB0600091BA84103D24FF0FF32134664
:108A300001E0002213461BEB070046EB0A51BDE89C
:108A4000F04DFFF729BF70B58C1810F8015B15F0D9
:108A5000070301D110F8013B2A1106D110F8012BB0
:108A600003E010F8016B01F8016B5B1EF9D12B07D5
:108A700005D40023521E0DD401F8013BFAE710F88B
:108A8000013BCB1A921C03E013F8015B01F8015B78
:108A9000521EF9D5A142D8D3002070BD18484FF01E
:108AA000FF010170002080F309881648016881F3F6
:108AB000088815484FF08051016062B6FEE772B633
:108AC000EFF3098028B1203880E8F00F0F490968DA
:108AD000086000B50E4880475DF804EB0D480E496C
:108AE0000A78027009480D490A680260106890E827
:108AF000F00F203080F309884EF0040E62B6704704
:108B000022ED00E03801002004ED00E02C010020FF
:108B1000C1DA0008BA000020BB00002030010020AC
:108B20003EB54FF4FA7400F0EFF805460922002133
:108B3000042000F04BF90CE002A8002102230A46B1
:108B4000CDE90010084605F061F8601E041E00D152
:108B50003EBD00F0B3F80028EED000F0D5F8054691
:108B60002846F5E770B504460D4616460DB140217E
:108B700000E0002141EAC4010EB1042200E000221D
:108B80001143C8B207F024FA70BD00002DE9F04F80
:108B900089B083464FF0000A00200790069001201C
:108BA00007F074F93C48008A00F0400000286BD1BF
:108BB00000BF00BFFFF7D0FA069000BF00BF002043
:108BC00000F0D0F8002007F003FA82464FEA0A2AA4
:108BD000002007F0FDF940EA0A0A4FEA0A2A0020BD
:108BE00007F0F6F940EA0A0A00BF00BF0698FFF74F
:108BF000B7FA00BF00BF1021274801F046FBAAF5D5
:108C0000000026490968084424490860244800688F
:108C1000401C234908602348007810B9BBF1000FBD
:108C200032D11F480068FFF74FFDCDE900011B4816
:108C30000068FFF738FD804600221B4BFFF744FC1D
:108C40000646DDE90023FFF7B1FC0022174BCDE912
:108C50000201FFF7ABFC0022154BCDE90401FFF741
:108C6000A5FC0446FFF780FD079012490798C1F85C
:108C70002A000020094908600A49087001200E49AD
:108C800008700020064908601021034801F0FDFA31
:108C900009B0BDE8F08F0000000002405000002045
:108CA0004C000020480000200088B34000004040F5
:108CB00000006041441E0020490000200248008A54
:108CC000012121EA901070470000024070B5002495
:108CD0000025012007F0DAF800F04CF8002201210D
:108CE0000420FFF73FFF002007F072F9054600F06F
:108CF00083F8044600F01FF80646FFF711FF012035
:108D000000F047F8204670BD10B500240022012174
:108D10000620FFF727FF002007F05AF90446240237
:108D2000002007F055F904432402002007F050F911
:108D30000443204610BD10B5002400220121072065
:108D4000FFF710FF002007F043F90446240200203B
:108D500007F03EF904432402002007F039F90443E8
:108D6000204610BD10B50446224601210320FFF71E
:108D7000F9FE10BD10B5002404E0FF2007F028F92B
:108D8000601CC4B2042CF8DB00BF00BF00BF00BFF2
:108D900010BD3EB50446012007F078F802A8002176
:108DA0000A230A46CDE90010084604F02FFF0722E7
:108DB0000021084600F00AF8012000230522194688
:108DC000CDE90004184600F023F83EBD70B5044616
:108DD0000D461646002211460120FFF7C3FE0DB1D5
:108DE000102100E0002141EA4411C8B207F0F0F878
:108DF000304607F0EDF870BD10B500220121104695
:108E0000FFF7B0FE002007F0E3F80446204610BD4F
:108E10002DE9F04704460D4616461F46DDE9088950
:108E2000002211460220FFF79DFE0CB1202100E038
:108E300000210DB1102200E00022114341EA06009A
:108E400007F0C6F80FB1202100E00021B8F1000FB3
:108E500001D0102200E00022114341EA090007F08E
:108E6000B7F8BDE8F08721B1826842F00102826064
:108E700003E0826822F00102826070470A46002106
:108E8000816821F0F0011143816070470146886DCF
:108E900080B270470246002013680B400BB10120DE
:108EA00000E000207047000030B50246002000239B
:108EB0005068104C20400D790C6844EA052420438A
:108EC000506090680C4C2040D1E903542C438D68CD
:108ED0002C434D7944EA450420439060106B20F008
:108EE000F8700C7D641EE4B2234340EA0350106323
:108EF00030BD0000FFFEFFFCFDF7FFC01AB1436864
:108F00000B43436002E043688B4343607047F0B516
:108F100004460D46002000211D2D11DDE06DA5F158
:108F20001E0606EB4607072606FA07F18843A5F159
:108F30001E0606EB460603FA06F10843E06534E038
:108F4000132D11DDE068A5F1140606EB4607072690
:108F500006FA07F18843A5F1140606EB460603FA64
:108F600006F10843E06020E0092D11DD2069A5F13C
:108F70000A0606EB4607072606FA07F18843A5F11D
:108F80000A0606EB460603FA06F1084320610CE0E8
:108F9000606905EB4507072606FA07F1884305EBEC
:108FA000450603FA06F108436061072A0FDA206CD0
:108FB000561E06EB86071F2606FA07F18843561E43
:108FC00006EB860605FA06F1084320644AE00D2AFE
:108FD0000FDAE06BD61F06EB86071F2606FA07F1AD
:108FE0008843D61F06EB860605FA06F10843E063C0
:108FF00038E0132A11DAA06BA2F10D0606EB860702
:109000001F2606FA07F18843A2F10D0606EB860635
:1090100005FA06F10843A06324E0192A11DA606B0F
:10902000A2F1130606EB86071F2606FA07F188430E
:10903000A2F1130606EB860605FA06F10843606303
:1090400010E0206BA2F1190606EB86071F2606FA30
:1090500007F18843A2F1190606EB860605FA06F128
:1090600008432063F0BD816841F080418160704712
:10907000002101600171417181604FF04071C16058
:109080000021016101210175704700008AB00026AE
:1090900000F063F900F078FB00F058F904467748D7
:1090A0000068B4FBF0F5284604F092FF09A804F02C
:1090B0006BF909AA0121084604F022F84FF48060F8
:1090C00003F016FE01F030F801F0C0F96C49B1F878
:1090D000AE0007F0C1F806F0FBFEFFF7F7FD09A8A8
:1090E0000021684A0223CDE90032CDE902100A23AB
:1090F0000A4665A1664804F08FFE00BF00BFFFF777
:109100002BF8064600BF00BF09A8032100220592E4
:10911000CDE9062108901046402106225D4BCDE99D
:109120000132CDE90310042000235B4A5BA10090CB
:109130005D4804F0ABF909A8032100220592CDE9AE
:109140000621089010464FF400713322574BCDE9A9
:109150000132CDE9031003200023554A55A10090A8
:10916000594804F093F909A8032100220592CDE99A
:109170000621089010464FF480711922534BCDE917
:109180000132CDE9031005200023514A51A100907E
:10919000534804F07BF909A8032100220592CDE988
:1091A00006210890104680210C224E4BCDE9013259
:1091B000CDE90310072000234B4A4CA100904F48F3
:1091C00004F064F909A8032100220592CDE90621E3
:1091D0000890104680210C22494BCDE90132CDE99F
:1091E000031006200023474A47A10090494804F095
:1091F0004DF909A8032100220592CDE90621089026
:10920000104640210622444BCDE90132CDE903103E
:1092100009200023414A42A10090444804F036F955
:1092200009A8032100220592CDE9062108901046E5
:10923000402106223E4BCDE90132CDE903100A2040
:1092400000233C4A3CA100903E4804F01FF900BFB7
:1092500000BF3046FEF784FF00BF00BF0DE009A845
:1092600000210B460122CDE90010084604F0CEFC97
:109270003548006A401C34490862F0E7C41201080E
:10928000E41C00202D120108746D723100000000F2
:1092900008040020C80D002061970008434C435784
:1092A0004454205461736B00000D00200005002021
:1092B000B1A90008496E737472756374696F6E208A
:1092C0005461736B000000003C040020900F0020EC
:1092D0007DFA0008504153205461736B0000000078
:1092E000C80E00202017002005BC00084D41494E43
:1092F000504F574552205461736B000058160020A0
:1093000058140020E500010854454D502054617365
:109310006B00000090130020E81900201DAC00082D
:109320004C454430205461736B000000201900202C
:10933000B01B002061AC00084C45443120546173DF
:109340006B000000E81A0020441E00201FB568468C
:1093500006F05EFC019804B010BD10B500F0D8F91D
:1093600006F02AFC012006F001FD00BF312006F0C6
:10937000CFFC0028FAD0012000F0F6FD012000F01B
:10938000E1FD012000F002FE0121080706F0D4FBF8
:109390004FF4006006F0B2FB00BF102006F0A2FB05
:1093A0000028FAD106F0D6FC002006F0F9FC0020D7
:1093B00006F0EAFCC0220421012006F003FD012092
:1093C00006F0FAFC00BF392006F0A2FC0028FAD013
:1093D000032006F001FD00BF06F0B4FC0C28FBD111
:1093E00010BD10B5FEF7B4FE10BD000070B5044608
:1093F000002600BF00BFFEF7AFFE064600BF00BF5D
:1094000003F068FD00BF00BF3046FEF7A9FE00BFB5
:1094100000BF392C04D2044850F8245005B1A847A5
:1094200003F06EFD70BD0000EC25002010B5122089
:10943000FFF7DCFF10BD10B53720FFF7D7FF10BDD9
:1094400010B51620FFF7D2FF10BD10B53820FFF77A
:10945000CDFF10BD10B51520FFF7C8FF10BD10B52A
:109460000B20FFF7C3FF10BD10B50C20FFF7BEFFA8
:1094700010BD10B50D20FFF7B9FF10BD10B50E20BF
:10948000FFF7B4FF10BD10B50F20FFF7AFFF10BD01
:1094900010B51020FFF7AAFF10BD10B50B20FFF785
:1094A000A5FF10BD10B53220FFF7A0FF10BD10B50D
:1094B0003320FFF79BFF10BD10B53420FFF796FF58
:1094C00010BD10B53520FFF791FF10BD10B5362047
:1094D000FFF78CFF10BD704710B50620FFF786FF21
:1094E00010BD10B50720FFF781FF10BD10B5282073
:1094F000FFF77CFF10BD10B50820FFF777FF10BD08
:1095000010B50920FFF772FF10BD10B50A20FFF754
:109510006DFF10BD10B51720FFF768FF10BD10B527
:109520000420FFF763FF10BD10B52020FFF75EFF9A
:1095300010BD10B51F20FFF759FF10BD10B5222038
:10954000FFF754FF10BD10B52120FFF74FFF10BDEE
:1095500010B51820FFF74AFF10BD10B50120FFF726
:1095600045FF10BD10B50520FFF740FF10BD10B539
:109570002920FFF73BFF10BD10B50320FFF736FF92
:1095800010BD10B52D20FFF731FF10BD10B5232001
:10959000FFF72CFF10BD10B52420FFF727FF10BDEB
:1095A00010B52F20FFF722FF10BD10B50220FFF7E6
:1095B0001DFF10BD10B51A20FFF718FF10BD10B524
:1095C0001B20FFF713FF10BD10B51C20FFF70EFF87
:1095D00010BD10B51D20FFF709FF10BD10B51E20EE
:1095E000FFF704FF10BD10B52E20FFF7FFFE10BDE2
:1095F00010B52B20FFF7FAFE10BD10B52C20FFF799
:10960000F5FE10BD10B51920FFF7F0FE10BD10B526
:109610003020FFF7EBFE10BD10B53120FFF7E6FE5E
:1096200010BD00002DE9F041264C002600BF00BF10
:10963000FEF792FD064600BF00BF03F04BFC00BFE3
:1096400000BF3046FEF78CFD00BF00BF4FF48070B6
:109650001D49088040F225511C4806F0EFFEE8B194
:109660001A4806F0CAFFC5B240F22551174806F065
:10967000BDFE1748007808BBD4E90001401AFF2856
:1096800006D8217804F1080045542068401C206069
:1096900020782179401A0E4948700FE040F22441A9
:1096A0000A4806F0CBFE48B108480088C7B2074810
:1096B000001D0088C7B201200549087003F020FC96
:1096C000BDE8F081D42200201A0402400038014095
:1096D000D01E002010B52620FFF788FE10BD10B563
:1096E0002720FFF783FE10BD10B52A20FFF77EFE6E
:1096F00010BD10B51320FFF779FE10BD10B5142072
:10970000FFF774FE10BD10B50020FFF76FFE10BD0F
:1097100010B5002404E00449204600F007F8641C5A
:10972000392CF8D310BD0000D794000870B504465A
:109730000D460026392C10D200BF00BFFEF70CFDED
:10974000064600BF00BF054840F8245000BF00BFD8
:109750003046FEF705FD00BF00BF70BDEC250020C0
:109760000EB500BF0DE002A8002140F2EE230A462C
:10977000CDE90010084604F049FA0221014800F042
:109780007EFDF0E70000024010B500F01FF800F089
:1097900019F810BD10B5002400BF00BFFEF7DCFCB7
:1097A000044600BF00BF1021054802F061FA00BF67
:1097B00000BF2046FEF7D4FC00BF00BF10BD000074
:1097C000FC3D002010B5FFF7E5FF10BD10B50020EF
:1097D0000249086000F00AF810BD000034010020C2
:1097E00001490860704700003401002010B5FFF700
:1097F000ADFD04460848006840F0807006490860E6
:109800000020064948600846006840F001000860F2
:109810002046FFF7E5FF10BDFCED00E0001000E082
:109820000149486870470000001000E070B502462A
:109830004FF6FF70002313E012F8015B684000242C
:109840000AE000F0010525B14AF2010585EA600051
:1098500000E04010651CECB2082CF2DB5D1CEBB2A2
:109860008B42E9DB70BD0000FEB5064600270024F0
:10987000082E00D00427042245494648FEF7A6FCDE
:1098800000B104274448007800B9052747B1404893
:10989000001F807820B1384602F04CFC0020FEBD4D
:1098A000002406E000213D4800EB84000160601CBC
:1098B000C4B2052CF6DB002407E000213748143041
:1098C00000EB84000160601CC4B2052CF5DB0024B1
:1098D00007E000213148283000EB84000160601C63
:1098E000C4B2052CF5DB002407E000212B483C30F6
:1098F00000EB84000160601CC4B2052CF5DB002481
:1099000007E000212548503000EB84000160601C16
:10991000C4B2052CF5DB002407E000211F486430A9
:1099200000EB84000160601CC4B2052CF5DB7822DA
:109930001A49662000F0BCFA184834380088C0B2D2
:109940008DF800001248001FC0788DF8010000203B
:109950008DF802001A208DF8030000208DF8040015
:109960003C208DF8050006216846FFF75FFF05469D
:10997000E8B28DF8060028128DF807000448001F91
:10998000807818B10821684606F04EFC012086E771
:10999000D41E00203700002043000020181D0020A6
:1099A00030B504460425680300F0FCFA0546042D92
:1099B00001D100202060284630BD000070B504466B
:1099C0000D460426700300F0EDFA0646042E0AD177
:1099D0000648006820F48070044908602560700320
:1099E00000F0E0FA0646304670BD0000043C02403C
:1099F0000348006840F0010001490860704700001A
:109A0000043C02402DE9F04104460D46042600279F
:109A10004FF00008700300F0C5FA0646042E1CD172
:109A20002DB12570400300F0BDFA064615E024F084
:109A30000308D8F80070A007C10EFF2000FA01F853
:109A400027EA080724F00300FFF7AAFF064624F0E0
:109A500003003946FFF7B2FF06463046BDE8F08105
:109A60000548006800F0010028B1044802490831A7
:109A70000860034808607047043C0240EFCDAB89A2
:109A80000504030210B50023002456E05B10434890
:109A9000006820F04070414908600846006840F0C6
:109AA00080700860081D008820F48050091D08801F
:109AB0000846008840F480500880081D006820F0A7
:109AC0004070091D08600846006840F0407008605A
:109AD000081D006820F04070091D086008460068F5
:109AE00040F08070086088142C491A3108800120E9
:109AF00000F090F92948006820F04070274908607C
:109B000026480C30006820F0407024490C31086071
:109B10000846006840F080700860002000F07AF984
:109B20001E481030008800F4805008B143F08003D4
:109B30003A2000F06FF9601CC4B2082CA6DB17486D
:109B4000006820F04070154908600846006840F041
:109B500080700860081D008820F48050091D08806E
:109B60000846008840F480500880081D006820F0F6
:109B70004070091D08600846006840F040700860A9
:109B8000081D006820F04070091D08600846006844
:109B900040F080700860184610BD000000040240CC
:109BA00000B54448006820F040704249086008460B
:109BB000006840F080700860081D008820F4805024
:109BC000091D08800846008840F480500880081D60
:109BD000006820F04070091D08600846006840F0E9
:109BE00040700860081D006820F04070091D086082
:109BF0000846006840F08070086088142D491A31CA
:109C000008804FF4F07000F005F94FF480502949B6
:109C1000183108802748006820F040702549086006
:109C200024480C30006820F0407022490C31086054
:109C30000846006840F080700860372000F0EAF8BD
:109C40001C481030008800234FF4F07000F0E2F858
:109C50001848006820F040701649086008460068FF
:109C600040F080700860081D008820F48050091DB5
:109C700008800846008840F480500880081D00686D
:109C800020F04070091D08600846006840F04070F0
:109C90000860081D006820F04070091D0860084633
:109CA000006840F08070086088140249183108800C
:109CB000184600BD000402402DE9FC47FFF770FF85
:109CC00010B12448BDE8FC87CC2000F047F84420C0
:109CD00000F044F8FFF764FF08B11E48F2E7CC201B
:109CE00000F03CF8BE2000F039F8FFF7CBFE8246CA
:109CF000FFF7C8FE81464AEA092505F47840B0B16D
:109D0000E843401C85B2C5F30A00FEF7CCFC0022F4
:109D1000114BCDE90001FEF7D7FB0746FEF724FD06
:109D2000044621460020FEF7B2FA06460EE0C5F3CF
:109D30000A00FEF7B8FC07460022074BFEF7C4FBFB
:109D4000CDE90001FEF710FD044626460225304607
:109D5000B8E700000000AAC20000B03F10B50346FB
:109D60002B48006820F040702949086008460068C8
:109D700040F080700860081D008820F48050091DA4
:109D800008800846008840F480500880081D00685C
:109D900020F04070091D08600846006840F04070DF
:109DA0000860081D006820F04070091D0860084622
:109DB000006840F080700860002426E003F0010095
:109DC00080B14FF4805012491A310880022000F00F
:109DD00021F84FF480500E49183108803C2000F0E3
:109DE00019F80FE04FF4805009491A3108803C20DF
:109DF00000F010F84FF48050054918310880022017
:109E000000F008F85B10601CC4B2082CD6DB10BD53
:109E100000040240002100BF01E000BF491C814254
:109E2000FBD370472DE9F04105460C4616464FF02E
:109E3000000800270C482F18DFF8308000BF00F022
:109E400067F8012804D1B8F10000A8F10108F6D1A3
:109E500003E017F8010B04F8010B301EA6F1010115
:109E60008EB2F6D1BDE8F08180020808FFFF0F0036
:109E70002DE9F04105460C46174600260B482E18E2
:109E8000FFF7EEFD00BF00F043F80128FBD003E030
:109E900016F8010B04F8010B381EA7F101018FB26F
:109EA000F6D1FFF7A5FDBDE8F0810000000008082D
:109EB0002DE9F04105460C4616460027B8461348E2
:109EC0002F18FFF7CDFD00BF00F022F80428FBD1CA
:109ED00013E000BF00BFFEF73FF9804600BF00BFA0
:109EE00014F8011B38467F1CFFF78CFD00BF00BF34
:109EF0004046FEF735F900BF00BF301EA6F1010154
:109F00008EB2E6D1FFF774FDBDE8F081800208084B
:109F100004200B49096801F0010109B101200EE09C
:109F20000749096801F4807109B1022007E004497A
:109F3000096801F4F05109B1032000E004207047E2
:109F4000183C024030B10749096841F00201054A56
:109F5000116005E00349096821F00201014A11601E
:109F600070470000003C024030B10749096841F0E9
:109F70000401054A116005E00349096821F0040164
:109F8000014A116070470000003C02400146002079
:109F9000034A106820F00100084310607047000079
:109FA000003C024008B5024604200090FFF7B0FFD5
:109FB000009003E0FFF7ACFF0090521E9DF80000F8
:109FC000012801D1002AF5D10AB9052000909DF899
:109FD000000008BD2DE9FE4306460027B8460024D0
:109FE000082E00D00427042249494A48FEF7EEF81B
:109FF00030B1042246494848FEF7E8F800B104278A
:10A000004648007800B905272FB1384602F092F88B
:10A010000020BDE8FE833E48001F90F803804048C2
:10A02000D0F82A40A8F14300062844D2DFE800F027
:10A0300003161F28313A3B488461042200F11801BD
:10A040004A20FFF735FF3648D0F826003549086327
:10A05000042230316220FFF72BFF2DE03148C4612C
:10A06000042200F11C014E20FFF722FF24E02D48BE
:10A070000462042200F120015220FFF719FF1BE0C7
:10A0800028484462042200F124015620FFF710FF03
:10A0900012E024488462042200F128015A20FFF7CC
:10A0A00007FF09E01F48C462042200F12C015E2072
:10A0B000FFF7FEFE00E000BF00BF1A480088C0B2F4
:10A0C0008DF800001248001FC0788DF801000020B4
:10A0D0008DF802000A208DF8030000208DF804009E
:10A0E00002208DF8050006216846FFF79FFB054614
:10A0F000E8B28DF8060028128DF807000448001F0A
:10A10000807818B10821684606F08EF8012080E7B3
:10A11000D41E0020370000203B0000204300002018
:10A12000441E0020E41C00201CB50121032005F082
:10A13000F3FC0A20009001208DF8040000208DF827
:10A14000060001208DF807008DF8050069461748C4
:10A1500000F030F80821154800F097F84FF44070EF
:10A16000009001208DF8040000208DF806000120E9
:10A170008DF807008DF8050069460D4800F01AF8C3
:10A180004FF480700A4918310880000100900120C6
:10A190008DF804008DF806008DF807008DF8050095
:10A1A0006946034800F006F81CBD000000000240AC
:10A1B00000040240F0B502460B46002100240025B1
:10A1C000002000BF35E0012606FA01F41E6806EA09
:10A1D0000405A5422CD110684F000326BE40B043B1
:10A1E0001E794F00BE40304310601E79012E02D010
:10A1F0001E79022E12D190684F000326BE40B04354
:10A200005E794F00BE4030439060908801268E40BA
:10A21000B0439E798E40B6B230439080D0684F00F4
:10A220000326BE40B043DE794F00BE403043D060CD
:10A23000491C1029C7D3F0BDF0B5002300244D07F9
:10A24000ED0E02FA05F3CE1000F1200555F8265068
:10A250004E07F70E0F26BE40B543CF1000F1200683
:10A2600046F82750CE1000F1200555F8265045EA53
:10A270000304CE1000F1200545F82640F0BD828A87
:10A280004A408282704741837047018370470000D3
:10A2900010B54FF6FF740948FEF7E5FE00BF022136
:10A2A0000648FEF7F7FD20B9201EA4F101018CB28B
:10A2B000F5D10248FEF7EAFD10BD00000024014080
:10A2C0002DE9F04F85B004464FF00009CB46002041
:10A2D0000290824619E000BF00BFFDF73DFF0290EB
:10A2E00000BF00BFFFF7D4FF814400BF00BF02984A
:10A2F000FDF736FF00BF00BF04AA0520039903F055
:10A3000023FC0AF1010000F0FF0AA245E3DBB9FBE0
:10A31000F4F94846FEF7D8F9094A0A4BCDE900019D
:10A32000FEF7D2F807460022074BFEF73FF9054635
:10A33000FEF71AFA8346584605B0BDE8F08F0000D4
:10A340002592E865149F42400000B0401FB50020F0
:10A350000090019002900390102269464FF4C07063
:10A36000FFF786FD00240EE0012000EB44001DF8FD
:10A3700000001DF8141040EA0121054800EB4400DC
:10A380000180601CC4B2082CEEDB012004B010BDBB
:10A390004C1E002010B588B0012005F0EFFC042011
:10A3A000009003208DF8040000208DF80700694616
:10A3B0002448FFF7FFFE4FF6FF7400BF212005F091
:10A3C000A7FC20B9201EA4F101018CB2F6D1012115
:10A3D000480205F0D1FB02A8FEF74AFE00200290D9
:10A3E0008DF80C0001208DF80D00002004900690DF
:10A3F00001208DF81C0002A91348FEF755FD072324
:10A40000012202211048FEF782FD10210E48FEF7BE
:10A4100035FD01224FF440310B48FEF76FFD01215D
:10A420000948FEF720FD4FF6FF7400BF40210648A3
:10A43000FEF730FD20B9201EA4F101018CB2F5D148
:10A4400008B010BD000002400024014038B50020D3
:10A4500000900024022269461620FFF7E3FC9DF8D5
:10A460000000122879D09DF801003428FAD002218A
:10A470009148FFF704FF01209049088000204880A0
:10A4800048608860142088814FF40070C8818C482F
:10A4900008610020486118223220FFF709FD0221DF
:10A4A0008548FFF7ECFE00BF0BE004EB8401480099
:10A4B000FEF7EBF88149183101EB84010860601C5C
:10A4C000C4B2062CF1DB7F487C4908631C2218319A
:10A4D0004A20FFF7EDFC02217748FFF7D0FE002469
:10A4E00007E000217548343000EB84000160601CF7
:10A4F000C4B2052CF5DB002407E000216F4848308A
:10A5000000EB84000160601CC4B2052CF5DB002464
:10A5100007E0002169485C3000EB84000160601CAA
:10A52000C4B2052CF5DB002407E00021634870303D
:10A5300000EB84000160601CC4B2052CF5DB002434
:10A5400007E000215D48843000EB84000160601C5E
:10A55000C4B2052CF5DB002408E04AE0002157488E
:10A56000983000EB84000160601CC4B2052CF5DB60
:10A570007822524934316620FFF79AFC02214E4876
:10A58000FFF77DFE03204D49A1F8AC00A1F8AE0015
:10A590000422AC31DE20FFF78BFC02214648FFF796
:10A5A0006EFE0120484908704848808CC0B240F4D3
:10A5B00080704649888412208DF8000034208DF880
:10A5C0000100022269461620FFF772FC02213A4878
:10A5D000FFF755FE34208DF8000012208DF80100A1
:10A5E000022269462420FFF763FC02213248FFF76C
:10A5F00046FE00208DF800008DF801000222694619
:10A600002420FFF70FFC9DF8000034280ED19DF8A0
:10A61000010012280AD101202B4908702B48808C98
:10A62000C0B240F480702949888409E0002026499E
:10A6300008702648808CC0B240F40070234988849A
:10A64000B0221E493220FFF7EDFB1C48B0F8AC00E9
:10A65000002805DB1948B0F8AC00B0F5807F03DDB9
:10A6600003201649A1F8AC0014480088012803DB38
:10A6700012480088F72802DD0120104908800F48A1
:10A68000B0F8AE00012804DB0C48B0F8AE00072893
:10A6900003DD03200949A1F8AE0040F2C6200B49B2
:10A6A000088040F20140488002210348FFF7E7FD9F
:10A6B000FFF74CFE38BD000000000240E41C002003
:10A6C000F2D21C410000A04143000020441E0020A3
:10A6D00010B5464800880006000C4449098840EA45
:10A6E000112043490880414840880006000C3F493A
:10A6F000498840EA11203E4948803C48006A0006EB
:10A700003A49096A01F47F4140EA01203749096A60
:10A7100001F47F0140EA11203449096A40EA1160DE
:10A72000334908623148808C0006000C2F49898C1F
:10A7300040EA11202E4988842C49D1F83E0005F0CA
:10A74000CEFF2B49C1F83E002849D1F8260005F07C
:10A75000C6FF2749C1F826002449D1F83A0005F080
:10A76000BEFF2349C1F83A002049D1F82A0005F07C
:10A77000B6FF1F49C1F82A001C49D1F82E0005F088
:10A78000AEFF1B49C1F82E00002414E01748083022
:10A7900000EB440000880006010C1448083000EB70
:10A7A0004400008841EA10211148083000EB4400C1
:10A7B0000180601CC4B2082CE8DB0C49D1F83600DB
:10A7C00005F08DFF0A49C1F836000849D1F832007A
:10A7D00005F085FF0649C1F832000449D1F842006E
:10A7E00005F07DFF0249C1F8420010BD441E002063
:10A7F0008A1E002010B504466A4880786A49098894
:10A80000884271D16748C07844285AD010DC0928A2
:10A8100039D006DC03281CD004281ED0062871D1AC
:10A8200026E0102833D041283BD043286AD147E0A6
:10A8300048284AD006DC452844D0462843D047283B
:10A8400060D141E049284BD0662835D0682859D1DD
:10A850004BE0E0B201F05AFB58E0E0B201F0C2FA7E
:10A860005248808C00F47F40801C504988844DE021
:10A87000E0B201F087FD4D48808C00F47F40C01CA1
:10A880004A49888442E0204605F0B2FA3EE001F0F1
:10A8900077FE4648808C00F47F40001D4349888441
:10A8A00034E0E0B201F06AFC4048808C00F47F4064
:10A8B000401D3E49888429E0E0B201F0C7FC25E054
:10A8C00000BF00BF00BF00BF00BFE0B2FFF782FBC8
:10A8D0003648808C00F47F40C01D3449888415E0E0
:10A8E000E0B2FEF7C1FF11E011E0E0B201F0FAF9C9
:10A8F0002E48808C00F47F4040F009002B4988846A
:10A9000004E0FFE7012001F015FC00BF48E0254806
:10A910008078B0BB2348C078462825D008DC412881
:10A920000FD043281DD044281CD0452836D11AE02A
:10A9300047281AD0482819D066280ED068282DD16B
:10A9400020E0E0B201F01AFC1848808C00F47F404F
:10A9500040F011001549888421E0E0B201F076FC56
:10A960001DE000BF00BF00BF00BF00BFE0B2FFF7A7
:10A9700031FB0E48808C00F47F40C01D0B49888459
:10A980000DE00DE0E0B201F0ADF90848808C00F474
:10A990007F4040F013000549888400E000BF00BFFD
:10A9A00010BD0000D01E0020E41C0020441E00202A
:10A9B0000EB500BF20212348FFF765FC40E0224888
:10A9C0000078002833D0002507E005F0E5FCC1B28F
:10A9D0001D48801C4155681CC5B21B484078A842E0
:10A9E000F3DC1948447805F0C7FC0020164948708C
:10A9F0000870A01EC1B21448801CFEF717FF06465F
:10AA0000A01E1149891C0A5C601E085C42EA0021F4
:10AA1000B14209D0601E0C49891C085CFF2806D190
:10AA2000A01E085CFF2802D12046FFF7E3FE02A823
:10AA3000002101230A46CDE90010084603F0E6F89C
:10AA4000BDE7000000040240D01E002010B5714890
:10AA500000880006000C6F49098840EA11206E4901
:10AA600008806C4840880006000C6A49498840EA22
:10AA70001120694948806749486805F030FE6649F9
:10AA800048606449886805F02AFE63498860614827
:10AA900080890006000C5F49898940EA11205E49DF
:10AAA00088815C48C0890006000C5A49C98940EA7F
:10AAB00011205949C8815749086905F010FE5649C7
:10AAC00008615449486905F00AFE53494861002469
:10AAD0000EE05049183101EB8401086805F0FFFDD4
:10AAE00001464D48183000EB84000160601CC4B280
:10AAF000062CEEDB4749086B05F0F1FD464908637B
:10AB000000240DE04349343101EB8401086805F06D
:10AB1000E6FD4149343101EB84010860601CC4B298
:10AB2000052CEFDB00240DE03A49483101EB8401AC
:10AB3000086805F0D4FD3849483101EB840108600C
:10AB4000601CC4B2052CEFDB00240EE031495C31FF
:10AB500001EB8401086805F0C2FD01462E485C3017
:10AB600000EB84000160601CC4B2052CEEDB002405
:10AB70000EE02849703101EB8401086805F0AFFD53
:10AB800001462548703000EB84000160601CC4B2AF
:10AB9000052CEEDB00240DE01E49843101EB84011D
:10ABA000086805F09CFD1C49843101EB84010860B4
:10ABB000601CC4B2052CEFDB00240DE01549983170
:10ABC00001EB8401086805F08AFD1349983101EB17
:10ABD00084010860601CC4B2052CEFDB0D48B0F89E
:10ABE000AC000006000C0B49B1F8AC1040EA112093
:10ABF0000949A1F8AC000748B0F8AE000006000C07
:10AC00000449B1F8AE1040EA11200349A1F8AE00A2
:10AC100010BD0000E41C0020941D00200EB500BFF4
:10AC20001BE04FF400700D49088002A80021282382
:10AC30000A46CDE90010084602F0E8FF4FF4007024
:10AC40000649891E088002A800214FF4C273012220
:10AC5000CDE90010084602F0D9FFE2E71A040240ED
:10AC60000EB500BF0CE04FF480700649088002A8C2
:10AC7000002164230A46CDE90010084602F0C6FF11
:10AC8000F1E700001804024003B5FBB0182173A8D7
:10AC9000FDF791FA18216DA8FDF78DFA00206C9050
:10ACA00000216B916A9000BF28215EA8FDF783FA0E
:10ACB000282154A8FDF77FFA28214AA8FDF77BFA3E
:10ACC000282140A8FDF777FA282136A8FDF773FA66
:10ACD00028212CA8FDF76FFA302120A8FDF76BFA88
:10ACE00000BF00BF00BF202112A8FDF764FAFC4896
:10ACF000C08900F47060B0F5807F10D1F948FA493E
:10AD0000CDE91201F949FA4ACDE91412F949FA4A92
:10AD1000CDE916120021F94ACDE918125FE0F0489A
:10AD2000C08900F47060B0F5007F11D1F448F54996
:10AD3000CDE91201F449F54ACDE91412F449F54A76
:10AD4000CDE916124FF03331F34ACDE9181246E03F
:10AD5000E348C08900F47060B0F5407F10D1EF483F
:10AD6000EF49CDE91201EF49EF4ACDE91412EF495D
:10AD7000EF4ACDE91612EF49EF4ACDE918122EE05D
:10AD8000D748C08900F47060B0F5806F10D1EB48EF
:10AD9000EB49CDE91201EB49EB4ACDE91412EB493D
:10ADA000EB4ACDE91612EB49EB4ACDE9181216E051
:10ADB000CB48C08900F47060B0F5A06F0FD1E748B0
:10ADC000E749CDE91201E749E74ACDE91412E7491D
:10ADD000E74ACDE91612E749E74ACDE91812002102
:10ADE000E64868916990DDE91601CDE90A01699BA1
:10ADF000689AFDF769FBCDE90E01DDE91401CDE9A3
:10AE00000401699B689AFDF75FFBCDE90601699B28
:10AE1000689AFDF759FBCDE90A01DDE91201CDE998
:10AE20000201699B689AFDF74FFBCDE90401699B1C
:10AE3000689AFDF749FBCDE90601699B689AFDF721
:10AE400043FBCDE90801DDE90A23FDF796FACDE9D8
:10AE50000C01DDE90E23FDF790FACDE91001DDE9E3
:10AE60001801CDE90E01DDE91023FDF786FACDE9E1
:10AE70001A017C98FDF735FC69916890DDE91601AF
:10AE8000CDE90A01699B689AFDF71EFBCDE90E0129
:10AE9000DDE91401CDE90401699B689AFDF714FB13
:10AEA000CDE90601699B689AFDF70EFBCDE90A0121
:10AEB000DDE91201CDE90201699B689AFDF704FB07
:10AEC000CDE90401699B689AFDF7FEFACDE9060118
:10AED000699B689AFDF7F8FACDE90801DDE90A23D4
:10AEE000FDF74BFACDE90C01DDE90E23FDF745FA3C
:10AEF000CDE91001DDE91801CDE90E01DDE91023EE
:10AF0000FDF73BFACDE91C01002079901DE0744863
:10AF100080890D90FDF7C2FB0F907998FDF7BEFB7D
:10AF20000E900F99FDF7B9F995491090FDF7B5F915
:10AF300094491190FDF7E3F9014673AA799842F814
:10AF400020107998401CC1B2799179980628DEDBEF
:10AF50007B996A916248C16911916A98FDF720FC5A
:10AF600029D25F4880690E905D48C1690D91DDE985
:10AF70000D01FDF78CF9109073990C9174990B9158
:10AF8000DDE90B01FDF783F90E9055488069014614
:10AF90000C906A98FDF77BF90D900E99FDF77DF9FD
:10AFA0000F901099FDF7ABF9119073991091FDF77F
:10AFB0001CF96B9011E14A48006A014611906A98A9
:10AFC000FDF7EEFB29D24648C0690E904448016A5D
:10AFD0000D91DDE90D01FDF75AF9109074990C916E
:10AFE00075990B91DDE90B01FDF751F90E903C4885
:10AFF000C06901460C906A98FDF749F90D900E99C9
:10B00000FDF74BF90F901099FDF779F911907499AC
:10B010001091FDF7EAF86B90DFE03148416A119139
:10B020006A98FDF7BDFB29D22D48006A0E902C4886
:10B03000416A0D91DDE90D01FDF729F9109075992F
:10B040000C9176990B91DDE90B01FDF720F90E903B
:10B050002348006A01460C906A98FDF718F90D9094
:10B060000E99FDF71AF90F901099FDF748F9119014
:10B0700075991091FDF7B9F86B90AEE01848806AA9
:10B08000014611906A98FDF78BFB7ED21448406A06
:10B090000E901348816A0D91DDE90D01FDF7F7F877
:10B0A000109076980C9077990B9101460B98FDF7CC
:10B0B000EEF80E900A48406A01460C906A98FDF737
:10B0C000E6F80D900E99FDF7E8F80F901099FDF74E
:10B0D00016F9119076991091FDF787F86B907CE046
:10B0E000E41C00204A541144361F543E0E95F83C8F
:10B0F0007C22DABE641B5D4A0279FB3E0000F03F11
:10B1000073A8BD91751A283E54525F4AE824C7BE01
:10B110004BC2CFC99C7838BF3333F13F97D5F71D69
:10B12000BEC062BE643801FA3BE3B43E3447567E8B
:10B13000198C41BFF0A7C64B3789F13F8CB00DD1B8
:10B14000BE8760BE6DD9997A4875A43E72CE3E45E1
:10B15000C4833CBF736891ED7C3FF13F6BAFCDD0B2
:10B16000317956BEDE65A6BF952F8ABE8EBDCDD184
:10B17000996A3CBF713D0AD7A370F13F000034408B
:10B1800000007A440000A040FFE7FE48816A0E916B
:10B19000C16A0D91DDE90D01FDF779F810907799FD
:10B1A0000C9178990B91DDE90B01FDF770F80E9089
:10B1B000F448806A01460C906A98FDF768F80D9093
:10B1C0000E99FDF76AF80F901099FDF798F8119015
:10B1D00077991091FDF709F86B90EA48006907909C
:10B1E000FDF77FFA0022E84BCDE90A01DDE91A01FB
:10B1F000FDF76AF9CDE90801DDE90A23FDF764F9F5
:10B20000CDE90E016B98FDF76CFACDE90C01DDE993
:10B210000E23FDF7CBF9CDE91001FDF7A5FA6C90EF
:10B22000DA496C98FDF739F86C90D9496C98C1F8F7
:10B230003200D4488168D6481191D0F8321010916C
:10B24000DDE91001FDF723F8D149C1F83600CD48FA
:10B25000016908460791FDF744FA0022CA4BCDE97F
:10B260000A01DDE91C01FDF72FF9CDE90801DDE94F
:10B270000A23FDF729F9CDE90E016B98FDF731FAA4
:10B28000CDE90C01DDE90E23FDF790F9CDE91001C0
:10B29000FDF76AFA6C90BD496C98FCF7FEFF6C9064
:10B2A0000021799126E0B74800690990FDF719FA65
:10B2B000CDE90A01DDE91C23FDF706F9CDE90E0110
:10B2C00073A9799851F8201008460B91FDF709FAF7
:10B2D000CDE90C01DDE90E23FDF768F9CDE9100198
:10B2E000FDF742FA6DAA799942F821007998401C3D
:10B2F000C0B2799079980628D5DB0020799018E0C3
:10B30000A0483430799900EB8100016808460F911C
:10B31000FDF7E7F900229C4BCDE91001FDF746F956
:10B320005EAB799A03EBC20203C27998401CC0B2AB
:10B33000799079980528E3DB0020799018E091480E
:10B340004830799900EB8100016808460F91FDF7BC
:10B35000C8F900228C4BCDE91001FDF727F954AB59
:10B36000799A03EBC20203C27998401CC0B279906B
:10B3700079980528E3DB0020799018E081485C305B
:10B38000799900EB8100016808460F91FDF7A9F952
:10B3900000227D4BCDE91001FDF708F94AAB799AFF
:10B3A00003EBC20203C27998401CC0B2799079982D
:10B3B0000528E3DB0020799018E072487030799915
:10B3C00000EB8100016808460F91FDF78AF9002221
:10B3D0006D4BCDE91001FDF7E9F840AB799A03EB2D
:10B3E000C20203C27998401CC0B2799079980528AE
:10B3F000E3DB0020799018E062498431799801EB11
:10B400008000016808460F91FDF76BF900225E4B42
:10B41000CDE91001FDF7CAF836AB799A03EBC20209
:10B4200003C27998401CC0B2799079980528E3DB73
:10B430000020799018E053499831799801EB800009
:10B44000016808460F91FDF74CF900224E4BCDE9FB
:10B450001001FDF7ABF82CAB799A03EBC20203C2E3
:10B460007998401CC0B2799079980528E3DB6199FE
:10B470006098CDE90A01699B689AFDF725F8CDE946
:10B480000E0163996298CDE90401699B689AFDF702
:10B490001BF8CDE90601699B689AFDF715F80022B3
:10B4A0003C4BCDE90A016999689805F0ADF9CDE901
:10B4B000020165996498CDE90001DDE90223FDF7F9
:10B4C00003F80022344BCDE906016999689805F02C
:10B4D0009BF9CDE9020167996698CDE90001DDE9A4
:10B4E0000223FCF7F1FFCDE90401DDE90623FCF7B7
:10B4F00044FFCDE90801DDE90A23FCF73EFFCDE971
:10B500000C01DDE90E23FCF738FFCDE910015F994E
:10B510005E98CDE90E01DDE91023FCF72EFFCDE9A1
:10B52000200157995698CDE90A01699B689AFCF762
:10B53000CBFFCDE90E0159995898CDE90401699BDB
:10B54000689AFCF7C1FFCDE90601699B689AFCF790
:10B55000BBFF00220F4BCDE90A016999689805F0FD
:10B5600053F9CDE902015B995A98CDE90001DDE973
:10B570000223FCF7A9FF0022074BCDE906016999D8
:10B5800068980BE0E41C002000408F4000007A44E3
:10B59000441E0020000008400000104005F034F96F
:10B5A000CDE902015D995C98CDE90001DDE9022356
:10B5B000FCF78AFFCDE90401DDE90623FCF7DDFE97
:10B5C000CDE90801DDE90A23FCF7D7FECDE90C013E
:10B5D000DDE90E23FCF7D1FECDE910015599549811
:10B5E000CDE90E01DDE91023FCF7C7FECDE922010C
:10B5F0004D994C98CDE90A01699B689AFCF764FF64
:10B60000CDE90E014F994E98CDE90401699B689AE6
:10B61000FCF75AFFCDE90601699B689AFCF754FFD5
:10B620000022FE4BCDE90A016999689805F0ECF813
:10B63000CDE9020151995098CDE90001DDE90223DD
:10B64000FCF742FF0022F64BCDE9060169996898A4
:10B6500005F0DAF8CDE9020153995298CDE90001DD
:10B66000DDE90223FCF730FFCDE90401DDE9062323
:10B67000FCF783FECDE90801DDE90A23FCF77DFE36
:10B68000CDE90C01DDE90E23FCF777FECDE91001D1
:10B690004B994A98CDE90E01DDE91023FCF76DFEC8
:10B6A000CDE9240143994298CDE90A01699B689A42
:10B6B000FCF70AFFCDE90E0145994498CDE9040154
:10B6C000699B689AFCF700FFCDE90601699B689ABF
:10B6D000FCF7FAFE0022D14BCDE90A01699968987E
:10B6E00005F092F8CDE9020147994698CDE90001AD
:10B6F000DDE90223FCF7E8FE0022C94BCDE9060193
:10B700006999689805F080F8CDE90201499948984F
:10B71000CDE90001DDE90223FCF7D6FECDE9040105
:10B72000DDE90623FCF729FECDE90801DDE90A235E
:10B73000FCF723FECDE90C01DDE90E23FCF71DFE2D
:10B74000CDE9100141994098CDE90E01DDE91023C2
:10B75000FCF713FECDE92601DDE93801CDE90A0148
:10B76000699B689AFCF7B0FECDE90E01DDE93A016C
:10B77000CDE90401699B689AFCF7A6FECDE90601B4
:10B78000699B689AFCF7A0FE0022A44BCDE90A0150
:10B790006999689805F038F8CDE90201DDE93C01C6
:10B7A000CDE90001DDE90223FCF78EFE00229C4B6F
:10B7B000CDE906016999689805F026F8CDE90201FE
:10B7C000DDE93E01CDE90001DDE90223FCF77CFE65
:10B7D000CDE90401DDE90623FCF7CFFDCDE9080141
:10B7E000DDE90A23FCF7C9FDCDE90C01DDE90E23F3
:10B7F000FCF7C3FDCDE91001DDE93601CDE90E010D
:10B80000DDE91023FCF7B9FDCDE92801DDE92E01C2
:10B81000CDE90A01699B689AFCF756FECDE90E0155
:10B82000DDE93001CDE90401699B689AFCF74CFE23
:10B83000CDE90601699B689AFCF746FE0022774B2A
:10B84000CDE90A016999689804F0DEFFCDE90201AB
:10B85000DDE93201CDE90001DDE90223FCF734FE28
:10B8600000226F4BCDE906016999689804F0CCFF7E
:10B87000CDE90201DDE93401CDE90001DDE9022372
:10B88000FCF722FECDE90401DDE90623FCF775FD96
:10B89000CDE90801DDE90A23FCF76FFDCDE90C01D4
:10B8A000DDE90E23FCF769FDCDE91001DDE92C018E
:10B8B000CDE90E01DDE91023FCF75FFD0246CDE97D
:10B8C0002A210020799020E0564800690D90FCF76D
:10B8D00008FFCDE90E01DDE91C23FCF7F5FDCDE9FC
:10B8E000100120A9799801EBC00103C9CDE90E012F
:10B8F000DDE91023FCF75AFE20AB799A03EBC20274
:10B9000003C27998401CC0B2799079980628DBDB95
:10B910004448C069014611906A98FCF741FF3CD247
:10B920006D990A916E990991DDE90901FCF7AFFC67
:10B930000B90FCF7D6FECDE90E01DDE92001CDE943
:10B940000601DDE92201CDE90401DDE90623FCF76A
:10B95000B5FDCDE90A016D98014606906C98FCF79B
:10B9600096FC0790FCF7BDFECDE90801DDE90A234E
:10B97000FCF7AAFDCDE90C01DDE90E23FCF716FE6C
:10B98000CDE91001DDE92001CDE90E01DDE910234B
:10B99000FCF7F3FCCDE91E010FE12248006A0146E5
:10B9A00011906A98FCF7FCFE43D26E990A916F9948
:10B9B0000991DDE90901FCF76AFC0B90FCF791FEA7
:10B9C000CDE90E01DDE92201CDE90601DDE9240121
:10B9D000CDE90401DDE90623FCF770FDCDE90A019C
:10B9E0006E9906916C98FCF752FC0790FCF779FE73
:10B9F000CDE90801DDE90A23FCF766FDCDE90C017C
:10BA0000DDE90E23FCF7D2FDCDE91001DDE92201CD
:10BA1000CDE90E01DDE9102306E00000000008403A
:10BA200000001040E41C0020FCF7A7FCCDE91E013B
:10BA3000C3E07248406A014611906A98FCF7B0FE74
:10BA40003CD26F990A9170990991DDE90901FCF7DF
:10BA50001EFC0B90FCF745FECDE90E01DDE924014B
:10BA6000CDE90601DDE92601CDE90401DDE9062382
:10BA7000FCF724FDCDE90A016F98014606906C9809
:10BA8000FCF705FC0790FCF72CFECDE90801DDE989
:10BA90000A23FCF719FDCDE90C01DDE90E23FCF7C3
:10BAA00085FDCDE91001DDE92401CDE90E01DDE9D7
:10BAB0001023FCF762FCCDE91E017EE04F48806A4E
:10BAC000014611906A98FCF76BFE3BD270990A917F
:10BAD00071990991DDE90901FCF7D9FB0B90FCF79D
:10BAE00000FECDE90E01DDE92601CDE90601DDE923
:10BAF0002801CDE90401DDE90623FCF7DFFCCDE9EF
:10BB00000A01709906916C98FCF7C1FB0790FCF74D
:10BB1000E8FDCDE90801DDE90A23FCF7D5FCCDE914
:10BB20000C01DDE90E23FCF741FDCDE91001DDE953
:10BB30002601CDE90E01DDE91023FCF71EFCCDE95D
:10BB40001E013AE071990A9172990991DDE90901A2
:10BB5000FCF79DFB0B90FCF7C4FDCDE90E01DDE980
:10BB60002801CDE90601DDE92A01CDE90401DDE97D
:10BB70000623FCF7A3FCCDE90A01719906916C98A4
:10BB8000FCF785FB0790FCF7ACFDCDE90801DDE98A
:10BB90000A23FCF799FCCDE90C01DDE90E23FCF743
:10BBA00005FDCDE91001DDE92801CDE90E01DDE952
:10BBB0001023FCF7E2FBCDE91E016C98FCF791FD28
:10BBC000CDE90E01DDE91E23FCF778FCCDE910017B
:10BBD000FCF7CAFD6C900A496B98C1F82E006C986E
:10BBE000C1F83A0005484068014611906C98FCF78E
:10BBF0004EFB0349C1F83E007DB000BDE41C0020AF
:10BC0000441E00200EB500BF02A800210B460122F1
:10BC1000CDE90010084601F0F9FF23E000201249A9
:10BC200008701248808C00F47F4040F022000F49D9
:10BC30008884FEF7AFFB0520FEF742FB0B49C1F8F5
:10BC40004200002004F09AF800214FF4007003F045
:10BC500093FF02A800210B460222CDE900100846FE
:10BC600001F0D4FFDAE7000022000020441E00208B
:10BC700030B505460C4622460021284600F001F862
:10BC800030BD2DE9F04103460C4617460FB9BDE81B
:10BC9000F08103B9FBE70025002202E02D022543D5
:10BCA000521C042AFAD3384603F0030C1946BCF19F
:10BCB000000F08D0624603E001F8014B401E521C01
:10BCC00008B1042AF8D30E4601E020C6001F04285C
:10BCD000FBD2314602E001F8014B401E0028FAD1A8
:10BCE00000BFD4E770B5C0B005460026082D00D0CF
:10BCF0000426042235493648FCF768FA00B10426C8
:10BD00003448007800B905264EB13048001F8078CD
:10BD100028B1304600F00EFA002040B070BDFEF7AA
:10BD200095FE2D480088C0B28DF800002748001FFE
:10BD3000C0788DF8010000208DF802008DF8030016
:10BD40008DF8040058208DF80500B0208DF806000D
:10BD5000B02222490DF10700FCF714FAB72168461A
:10BD6000FDF764FD0446E0B28DF8B70020128DF8AF
:10BD7000B8000120184908800020486088604FF40E
:10BD80000070C8811648086100204880142088810E
:10BD90000320A1F8AC00A1F8AE0014223220FEF777
:10BDA00087F802220C49AC31DE20FEF781F8074803
:10BDB000001F807818B1B921684604F035FA0649A9
:10BDC000B1F8AE0004F048FA0120A6E7D41E002026
:10BDD0003300002043000020E41C0020941D0020BC
:10BDE000F2D21C412DE9F04FC1B081464FF0000A5C
:10BDF00043484179007941EA00244148C17980797A
:10BE000041EA002804EB0800401E85B24FF0230BE6
:10BE10004FF6FF7000EA4806B9F1080F01D04FF065
:10BE2000040AB8F1000F01D14FF0020A112C0FD013
:10BE3000142C0DD0162C0BD0182C09D01A2C07D08E
:10BE40001C2C05D01E2C03D0202C01D0222C01D17B
:10BE50004FF0020A102D0FD0132D0DD0152D0BD041
:10BE6000172D09D0192D07D01B2D05D01D2D03D05E
:10BE70001F2D01D0212D01D14FF0020AABF101009D
:10BE8000A84201DA4FF0020AABF10100A04201DA48
:10BE90004FF0020ABAF1000F06D0504600F04AF9FE
:10BEA000002041B0BDE8F08FFEF712FC1548008875
:10BEB000C0B28DF804001248C0788DF80500F0B2C9
:10BEC0008DF80600104800EB440132460DF10700E2
:10BED000FCF758F9F01CC1B201A8FDF7A7FC074612
:10BEE00001AAF01C17543912301D115404488078EF
:10BEF00020B1701D81B201A804F096F90120D0E7AD
:10BF0000D01E0020E41C00208A1E00202DE9F04FE6
:10BF1000C1B081464FF0000A83484179007941EA77
:10BF200000248148C179807941EA002804EB0800A7
:10BF3000401E85B24FF0580B4FF6FF7000EA4806DE
:10BF4000B9F1080F01D04FF0040AB8F1000F01D188
:10BF50004FF0020A032C4FD0052C4DD0092C4BD0AA
:10BF60000B2C49D00D2C47D00F2C45D0112C43D091
:10BF7000132C41D0152C3FD0172C3DD0192C3BD081
:10BF80001B2C39D01D2C37D01F2C35D0212C33D071
:10BF9000232C31D0252C2FD0272C2DD0292C2BD061
:10BFA0002B2C29D02D2C27D02F2C25D0312C23D051
:10BFB000332C21D0352C1FD0372C1DD0392C1BD041
:10BFC0003B2C19D03D2C17D03F2C15D0412C13D031
:10BFD000432C11D0452C0FD0472C0DD0492C0BD021
:10BFE0004B2C09D04D2C07D04F2C05D0512C03D011
:10BFF000532C01D0552C01D14FF0020A022D4FD005
:10C00000042D4DD0082D4BD00A2D49D00C2D47D0F2
:10C010000E2D45D0102D43D0122D41D0142D3FD0E0
:10C02000162D3DD0182D3BD01A2D39D01C2D37D0D0
:10C030001E2D35D0202D33D0222D31D0242D2FD0C0
:10C04000262D2DD0282D2BD02A2D29D02C2D27D0B0
:10C050002E2D25D0302D23D0322D21D0342D1FD0A0
:10C06000362D1DD0382D1BD03A2D19D03C2D17D090
:10C070003E2D15D0402D13D0422D11D0442D0FD080
:10C08000462D0DD0482D0BD04A2D09D04C2D07D070
:10C090004E2D05D0502D03D0522D01D0542D01D15D
:10C0A0004FF0020AABF10100A84201DA4FF0020A98
:10C0B000ABF10100A04201DA4FF0020ABAF1000F21
:10C0C00006D0504600F036F8002041B0BDE8F08FB1
:10C0D000FEF7BCFC15480088C0B28DF80400124879
:10C0E000C0788DF80500F0B28DF80600104800EB1E
:10C0F000440132460DF10700FCF744F8F01CC1B2D0
:10C1000001A8FDF793FB074601AAF01C175439124A
:10C11000301D11540448807820B1701D81B201A8EF
:10C1200004F082F80120D0E7D01E0020E41C00209B
:10C13000941D00207CB50446DCB10E480088C0B2D6
:10C140008DF800000C48C07840F080008DF80100A8
:10C150008DF8024003216846FDF768FB0546E8B20A
:10C160008DF8030028128DF804000521684604F0BC
:10C170005BF87CBDE41C0020D01E0020FEB5054607
:10C180000026082D00D0042604222C492C48FCF758
:10C190001DF800B1042646B12848001F807820B160
:10C1A0003046FFF7C7FF0020FEBD2648D0F832001A
:10C1B000254988602348D0F83A0048602148D0F8E3
:10C1C000260008630422091D3620FDF771FE0422B3
:10C1D0001D4908313A20FDF76BFE04221A4930311F
:10C1E0006220FDF765FE18480088C0B28DF8000097
:10C1F0001248001FC0788DF8010000208DF8020061
:10C2000002208DF8030000208DF8040004208DF832
:10C21000050006216846FDF709FB0446E0B28DF8EB
:10C22000060020128DF807000448001F807818B11E
:10C230000821684603F0F8FF0120B5E7D41E00206E
:10C2400037000020441E0020E41C0020FEB50546F7
:10C2500000260327082D00D0042604224349444821
:10C26000FBF7B4FF08B9012708E004223F49414821
:10C27000FBF7ACFF08B9022700E0042646B13B48B3
:10C28000001F807820B13046FFF754FF0020FEBD2C
:10C29000012F2BD101203849087034208DF800007F
:10C2A00012208DF80100022269462420FDF700FECD
:10C2B0003248808CC0B240F4807030498884304865
:10C2C0000088C0B28DF800002848001FC0788DF8A3
:10C2D000010040208DF8020060208DF803008020CE
:10C2E0008DF80400A0208DF805002AE0022F28D147
:10C2F0000020214908708DF800008DF8010002220D
:10C3000069462420FDF7D4FD1C48808CC0B240F45F
:10C3100000701A4988841A480088C0B28DF800005D
:10C320001248001FC0788DF8010044208DF80200EB
:10C3300066208DF8030088208DF80400AA208DF86F
:10C34000050006216846FDF771FA0446E0B28DF853
:10C35000060020128DF807000448001F807818B1ED
:10C360000821684603F060FF012090E7D41E0020FA
:10C370003F0000203700002043000020441E002022
:10C38000E41C00202DE9FF41064600277A48417948
:10C39000007941EA00247848C179807941EA002097
:10C3A0000090082E00D0042754B1012C08D0062C90
:10C3B00006D0072C04D0562C02D0572C00D00227D0
:10C3C000072C48D005DC4CB1012C1FD0062C73D1B2
:10C3D00026E0562C72D0572CF9D188E0BDF8000029
:10C3E00018B1BDF80000F72806DD0320FFF7A2FE14
:10C3F000002004B0BDE8F081BDF800005F4908806E
:10C40000022269463220FDF753FD8DE0BDF80000A1
:10C410005A494880022269463420FDF749FD83E0ED
:10C42000BDF80000142803D0BDF80000642801D135
:10C43000012000E0002020B90320FFF77BFE002050
:10C44000D7E7BDF800004D498881022269463E20A9
:10C45000FDF72EFD68E0BDF800000121B1EB202FB3
:10C4600017D0BDF800000221B1EB202F11D0BDF88C
:10C4700000000321B1EB202F0BD0BDF800000421F8
:10C48000B1EB202F05D0BDF800000521B1EB202F26
:10C4900001D1012000E0002020B90320FFF74AFE6F
:10C4A0000020A6E7BDF800003449C8810222694691
:10C4B0004020FDF7FDFC37E031E0FFE7BDF800006C
:10C4C000002804DBBDF80000B0F5807F04DD032008
:10C4D000FFF730FE00208CE7BDF800002749A1F8E7
:10C4E000AC0002226946DE20FDF7E2FC1CE0BDF84C
:10C4F0000000012803DBBDF80000072804DD03204D
:10C50000FFF718FE002074E7BDF800001B49A1F8F2
:10C51000AC0002226946E020FDF7CAFC04E00320DB
:10C52000FFF708FE002064E700BF27B13846FFF799
:10C5300001FE00205DE711480088C0B28DF80400BC
:10C540000D48C0788DF805000B484068CDF806000E
:10C55000062101A8FDF76AF90546E8B28DF80A0040
:10C5600028128DF80B000448807818B1082101A822
:10C5700003F05AFE01203CE7D01E0020E41C0020FE
:10C580002DE9F04F85B00027BB46FE484179007980
:10C5900041EA0024FB48C179807941EA0028F94842
:10C5A00090F8089004EB0800401E85B24FF0580A3E
:10C5B000B8F1000F02D0B9F1000F00D10227032C0F
:10C5C0004FD0052C4DD0092C4BD00B2C49D00D2C25
:10C5D00047D00F2C45D0112C43D0132C41D0152C13
:10C5E0003FD0172C3DD0192C3BD01B2C39D01D2C03
:10C5F00037D01F2C35D0212C33D0232C31D0252CF3
:10C600002FD0272C2DD0292C2BD02B2C29D02D2CE2
:10C6100027D02F2C25D0312C23D0332C21D0352CD2
:10C620001FD0372C1DD0392C1BD03B2C19D03D2CC2
:10C6300017D03F2C15D0412C13D0432C11D0452CB2
:10C640000FD0472C0DD0492C0BD04B2C09D04D2CA2
:10C6500007D04F2C05D0512C03D0532C01D0552C92
:10C6600000D10227022D4FD0042D4DD0082D4BD0E4
:10C670000A2D49D00C2D47D00E2D45D0102D43D07A
:10C68000122D41D0142D3FD0162D3DD0182D3BD06A
:10C690001A2D39D01C2D37D01E2D35D0202D33D05A
:10C6A000222D31D0242D2FD0262D2DD0282D2BD04A
:10C6B0002A2D29D02C2D27D02E2D25D0302D23D03A
:10C6C000322D21D0342D1FD0362D1DD0382D1BD02A
:10C6D0003A2D19D03C2D17D03E2D15D0402D13D01A
:10C6E000422D11D0442D0FD0462D0DD0482D0BD00A
:10C6F0004A2D09D04C2D07D04E2D05D0502D03D0FA
:10C70000522D01D0542D00D10227AAF10100A842D8
:10C7100000DA0227AAF10100A04200DA0227092D5F
:10C7200001DD4FF0010B092C01DD4FF0010B9648A4
:10C73000007818B9BBF1010F00D1052737B1384691
:10C74000FFF7F8FC002005B0BDE8F08FB0228F495C
:10C750008F48FBF717FD8E4901EB44004A46894993
:10C760000931FBF70FFD00274CB989480088000606
:10C77000000C8749098840EA112085490880012C6E
:10C780000BDC012D09DB824840880006000C804943
:10C79000498840EA11207E494880022C07DC032D9D
:10C7A00005DB7B49486803F09AFF79494860042C0F
:10C7B00007DC052D05DB7649886803F090FF744996
:10C7C0008860062C0BDC062D09DB71488089000689
:10C7D000000C6F49898940EA11206D498881072C36
:10C7E0000BDC072D09DB6A48C0890006000C68498C
:10C7F000C98940EA11206649C881082C07DC092D47
:10C8000005DB6349086903F06AFF614908610A2C86
:10C8100007DC0B2D05DB5E49486903F060FF5C49CE
:10C8200048610C2C07DC0D2D05DB5949886903F0A4
:10C8300056FF574988610E2C07DC0F2D05DB544944
:10C84000C86903F04CFF5249C861102C07DC112D58
:10C8500005DB4F49086A03F042FF4D490862122C7C
:10C8600007DC132D05DB4A49486A03F038FF4849C5
:10C870004862142C07DC152D05DB4549886A03F056
:10C880002EFF43498862162C07DC172D05DB404933
:10C89000C86A03F024FF3E49C862182C07DC192D32
:10C8A00005DB3B49086B03F01AFF394908631A2C72
:10C8B00007DC1B2D05DB3649486B03F010FF3449BC
:10C8C00048631C2C07DC1D2D05DB3149886B03F008
:10C8D00006FF2F4988631E2C07DC1F2D05DB2C4922
:10C8E000C86B03F0FCFE2A49C863202C07DC212D0D
:10C8F00005DB2749086C03F0F2FE25490864222C69
:10C9000007DC232D05DB2249486C03F0E8FE2049B3
:10C910004864242C07DC252D05DB1D49886C03F0B9
:10C92000DEFE1B498864262C07DC272D05DB184911
:10C93000C86C03F0D4FE1649C864282C07DC292DE6
:10C9400005DB1349086D03F0CAFE114908652A2C5E
:10C9500007DC2B2D05DB0E49486D03F0C0FE0C49AA
:10C9600048652C2C07DC2D2D05DB0949886D03F06B
:10C97000B6FE074988652E2C10DC2F2D0EDB0449EE
:10C98000C86D07E0D01E002043000020E41C0020FA
:10C99000941D002003F0A3FEB149C865302C07DCCC
:10C9A000312D05DBAE49086E03F099FEAC490866EF
:10C9B000322C07DC332D05DBA949486E03F08FFECE
:10C9C000A7494866342C07DC352D05DBA449886E61
:10C9D00003F085FEA2498866362C07DC372D05DB7F
:10C9E0009F49C86E03F07BFE9D49C866382C07DC62
:10C9F000392D05DB9A49086F03F071FE98490867E5
:10CA00003A2C07DC3B2D05DB9549486F03F067FEA8
:10CA1000934948673C2C07DC3D2D05DB9049886F26
:10CA200003F05DFE8E4988673E2C07DC3F2D05DB59
:10CA30008B49C86F03F053FE8949C867402C09DC55
:10CA4000412D07DB8649D1F8800003F048FE844978
:10CA5000C1F88000422C09DC432D07DB8049D1F866
:10CA6000840003F03CFE7E49C1F88400442C09DCBC
:10CA7000452D07DB7A49D1F8880003F030FE78496C
:10CA8000C1F88800462C09DC472D07DB7449D1F832
:10CA90008C0003F024FE7249C1F88C00482C09DC9C
:10CAA000492D07DB6E49D1F8900003F018FE6C4960
:10CAB000C1F890004A2C09DC4B2D07DB6849D1F8FE
:10CAC000940003F00CFE6649C1F894004C2C09DC7C
:10CAD0004D2D07DB6249D1F8980003F000FE604954
:10CAE000C1F898004E2C09DC4F2D07DB5C49D1F8CA
:10CAF0009C0003F0F4FD5A49C1F89C00502C09DC5D
:10CB0000512D07DB5649D1F8A00003F0E8FD544948
:10CB1000C1F8A000522C09DC532D07DB5049D1F895
:10CB2000A40003F0DCFD4E49C1F8A400542C09DC3C
:10CB3000552D07DB4A49D1F8A80003F0D0FD48493C
:10CB4000C1F8A800562C0EDC562D0CDB4448B0F87A
:10CB5000AC000006000C4249B1F8AC1040EA1120CC
:10CB60003F49A1F8AC00572C0EDC572D0CDB3C489C
:10CB7000B0F8AE000006000C3949B1F8AE1040EA3A
:10CB800011203749A1F8AE003548008818B1344863
:10CB90000088F72800DD03273148B0F8AC000028F2
:10CBA00005DB2F48B0F8AC00B0F5807F00DD03272F
:10CBB0002B48B0F8AE00012804DB2948B0F8AE00DD
:10CBC000072800DD032726490869FBF78AFD254A67
:10CBD000254BCDE90001FBF797FD0AD320490869F1
:10CBE000FBF77FFD0022214BCDE90001FBF7A4FDFF
:10CBF00000D2032757B9B02219491D48FBF7C2FAE2
:10CC0000B02217493220FDF753F907E01948807820
:10CC100020B13846FFF78EFA002094E514480088CA
:10CC2000C0B28DF808001348C0788DF8090011488B
:10CC30004068CDF80A00062102A8FCF7F7FD064679
:10CC4000F0B28DF80E0030128DF80F000948807890
:10CC500018B1082102A803F0E7FA012073E50000EB
:10CC6000941D00208FC2F5285C8F234000002440D3
:10CC7000E41C0020D01E002070B5002100230F22EC
:10CC8000C4781CB3174C246804F4E064C4F5E06471
:10CC9000C4F30721C1F10404E3B20A4144789C4083
:10CCA000E1B28478144021430C07210E0E4C057824
:10CCB0006155047804F01F050124AC4005786D111E
:10CCC000AD0005F1E025C5F8004109E0047804F065
:10CCD0001F050124AC40054D0678761145F8264025
:10CCE00070BD00000CED00E000E400E080E100E039
:10CCF00002490143024A1160704700000000FA0532
:10CD00000CED00E07047000010B50348006810B15A
:10CD100001480068804710BD8C00002070B50446B3
:10CD200000F0BCF8002045490870454908704549A5
:10CD300008704549086045490860454908704549FB
:10CD400008704549087045490860454908604549EB
:10CD5000086045490870454800680A21B0FBF1F0B9
:10CD6000434908604348006858B14348056845B1E5
:10CD70004048066803E0761E002028602D1D002E26
:10CD8000F9D100203D4908603D4908603D490860EF
:10CD90003D4908603D4908603D4908603D490860DB
:10CDA0003D49087001F044FC01F07EFC204601F092
:10CDB000FDF9208800B170BD204601F05DFA2088A1
:10CDC00000B1F8E7204601F063FA208800B1F2E7ED
:10CDD000204601F0A3FA208800B1ECE7204601F0DC
:10CDE00057FC208800B1E6E7204601F0A7FD208827
:10CDF00000B1E0E7204601F0BDFF208800B1DAE78E
:10CE0000204601F001FA208800B1D4E7204602F064
:10CE10002FFC208800B1CEE7204601F011FF2088CA
:10CE200000B1C8E7204602F093FC208800B1C2E7B9
:10CE300001F0E6F8FFF766FF00BFBCE7A0000020A6
:10CE4000A1000020D40000202C010020300100208F
:10CE5000BA000020BB000020BC000020C800002059
:10CE6000CC000020D0000020DC000020C41201080B
:10CE7000D8000020941201089012010880000020C0
:10CE800084000020880000208C00002090000020FA
:10CE900094000020980000200A0100200A4A11682E
:10CEA000002002E0002204C1401C084A126890429F
:10CEB000F8D3054A1268054B1B6802EB8302121F68
:10CEC000034B1A6070470000901201089412010889
:10CED0003801002008480078012800D07047074832
:10CEE0000078FA2800DBF9E704480078401C034981
:10CEF000087000BFF2E70000A1000020A0000020A1
:10CF000010B500242E480078012800D010BD00BFC5
:10CF1000FBF722F9044600BF2A48007828B900BF71
:10CF20002046FBF71DF900BFF0E726480078401EB9
:10CF30002449087008460078002805DD00BF204617
:10CF4000FBF70EF900BFE1E71F480078002805DD78
:10CF500000BF2046FBF704F900BFD7E701F054FB00
:10CF60001A4908700846007800EB4000184951F84B
:10CF70002000184908600846006817490968884277
:10CF800005D100BF2046FBF7EBF800BFBEE7114814
:10CF90000068D0F89000401C0E490968C1F8900064
:10CFA0000E480068401C0D4908604FF080500C4945
:10CFB000086000BF2046FBF7D3F800BF00BFA5E71D
:10CFC000A1000020A0000020D4000020BB00002011
:10CFD000F03A0020300100202C0100200001002048
:10CFE00004ED00E010B5002420480078002800DDA2
:10CFF00010BD1F480078002800DDF9E700BFFBF7EF
:10D00000ABF8044600BF01F0FFFA1A490870084661
:10D01000007800EB4000184951F8200017490860DB
:10D020000846006816490968884205D100BF2046B5
:10D03000FBF796F800BFDBE710480068D0F89000D7
:10D04000401C0E490968C1F890000E480068401C59
:10D050000C4908604FF080500B49086000BF204623
:10D06000FBF77EF800BF00BFC2E70000A000002071
:10D07000D4000020BB000020F03A00203001002046
:10D080002C0100200001002004ED00E070B50446F2
:10D09000002518480078002803DD46F662502080FD
:10D0A00070BD15480078012803D045F689602080BE
:10D0B000F6E712480078FA2803DB45F209202080C1
:10D0C000EEE700BF00BFFBF747F8054600BF00BF13
:10D0D0000A480078401C0949087001F09BFB00BF1A
:10D0E00000BF2846FBF73CF800BF00BF00202080AF
:10D0F00000BFD5E7A0000020A1000020D400002040
:10D100002DE9F04105460C461646002700BF00BF3A
:10D11000FBF722F8074600BF00BF012D03D0002017
:10D120000D49087002E001200B49087014B10B484A
:10D13000046006E00A4800680A21B0FBF1F00749E4
:10D14000086000BF00BF3846FBF70AF800BF00BF09
:10D1500000203080BDE8F081DC000020D8000020F5
:10D16000C412010870B50446002520480078002844
:10D1700003DD46F66550208070BD1D48007801280B
:10D1800003D045F689602080F6E71A48007818B980
:10D1900046F664502080EFE700BF00BFFAF7DCFFDF
:10D1A000054600BF00BF13480078401E11490870B3
:10D1B0000846007800280ADD00BF00BF2846FAF7BD
:10D1C000CFFF00BF00BF46F663502080D4E701F0D8
:10D1D0002FFB00BF00BF2846FAF7C2FF00BF00BF09
:10D1E000FFF700FF0020208000BFC5E7A00000205F
:10D1F000A1000020D400002010B504461248007899
:10D20000E8B901F001FA11490870084600781049A0
:10D2100008700E48007800EB40000E4951F82000DD
:10D220000D490860084600680C490860012006495D
:10D230000870FBF733FC43F69920208002E045F6A6
:10D240008A60208010BD0000A1000020BB000020EB
:10D25000BA000020F03A0020300100202C0100200C
:10D260002DE9F04107464FF0000800BF00BFFAF774
:10D2700073FF804600BF00BF00203B4908803B4948
:10D2800008603B4908603B4908603B4908603B49EE
:10D29000088100BF00BF4046FAF762FF00BF00BF31
:10D2A00000BF00BFFAF758FF804600BF00BF3448F8
:10D2B000046800BF00BF4046FAF752FF00BF00BF3E
:10D2C00021E000BF00BFFAF747FF804600BF00BF64
:10D2D00000207834E06320602063A061A082E082B7
:10D2E0006062A062FCF79CFA2062783C04F164065C
:10D2F0000020B081D4F8BC4000BF00BF4046FAF720
:10D300002FFF00BF00BF002CDBD100BF00BFFAF72A
:10D3100023FF804600BF00BF1A48056800BF00BF5A
:10D320004046FAF71DFF00BF00BF12E000BF00BF7C
:10D33000FAF712FF804600BF00BF05F1200600206B
:10D34000B081AD6900BF00BF4046FAF709FF00BFDA
:10D3500000BF002DEAD102F09FF802F0F5FA00209C
:10D360003880BDE8F0810000EA000020FC000020C9
:10D37000100100201C010020CC000020E43A002015
:10D3800004010020C0000020F8B5044600266946CC
:10D39000324800F079FBBDF8000018B1BDF800007C
:10D3A0002080F8BD6A460021022000F0CDFBBDF8C8
:10D3B000000018B1BDF800002080F2E700BF00BFF8
:10D3C000FAF7CAFE064600BF00BF002024490860E5
:10D3D00000BF00BF3046FAF7C3FE00BF00BF002504
:10D3E0002048006820490968884205D91D4800681E
:10D3F0001D490968B0FBF1F525B91A4800680A21F2
:10D40000B0FBF1F56A460021284600F09DFB694615
:10D41000124800F021F9BDF8000018B1BDF8000075
:10D420002080BEE700BF00BFFAF796FE064600BFA9
:10D4300000BF00200D490860094800680C490860D9
:10D4400001200C49087000BF00BF3046FAF788FE83
:10D4500000BF00BF0020208000BFA2E7383D0020B1
:10D46000EC000020C4120108AC120108FC000020EE
:10D47000F0000020F800002010B50348006810B14B
:10D4800001480068804710BD900000202DE9FF4F43
:10D4900085B004469046DDE91995159F139E00203E
:10D4A000029061480078002805DD47F24A10288084
:10D4B00009B0BDE8F08F1CB947F2AD102880F7E73E
:10D4C000B8F1000F03D147F24F102880F0E71EB9E2
:10D4D00046F62F602880EBE754480068874203D265
:10D4E00046F630602880E3E71498B84203D346F646
:10D4F00031602880DCE71298102803D346F27320AD
:10D500002880D5E712980F2806D14948844203D0D5
:10D5100046F273202880CBE7204601F03BFC002038
:10D52000288009F0010088B109F0020070B1B3460B
:10D530000020049007E00020CBF800000BF1040B62
:10D540000498401C04900498B842F4D3149806EB55
:10D5500080000390CDE9007932464046039B08994C
:10D5600000F032FA8346C4F828800898E0620698F2
:10D570002062129884F83700C4F800B00398A060C5
:10D5800017986065179818B92A480068A06501E0E7
:10D590001798A065189860606662A763A4F83C902D
:10D5A0004FF0000A08E0002104F17C0040F82A1046
:10D5B0000AF1010000F0FF0ABAF1000FF3D004F104
:10D5C0006400169900F0A2FE204600F039F800BF72
:10D5D00000BFFAF7C1FD029000BF00BF94F837000A
:10D5E00001F032F8204601F0A7F8204601F0AAFB2E
:10D5F00011480088401C1049088010480078012814
:10D6000007D000BF00BF0298FAF7AAFD00BF00BF15
:10D610004EE700BF00BF0298FAF7A2FD00BF00BFAF
:10D62000FFF7E0FC00BF43E7A0000020C0120108A4
:10D63000203A0020D800002008010020A10000208E
:10D6400010B504460348006818B12046014909682E
:10D65000884710BD8000002070B504460D460026A6
:10D6600015480078002803DD47F25510288070BD6A
:10D6700000BF00BFFAF770FD064600BF00BF1CB137
:10D680000E48006884420AD100BF00BF3046FAF756
:10D6900067FD00BF00BF47F257102880E7E700BFD3
:10D6A00000BF3046FAF75CFD00BF00BF29462046A8
:10D6B00001F0E4FB00BFDAE7A00000202C0100200D
:10D6C00010B504460348006818B1204601490968AE
:10D6D000884710BD880000202DE9F04780460E469F
:10D6E00014461D464FF000096F480078002805DDFC
:10D6F00046F2AE1028800020BDE8F0871EB1B6F5D6
:10D70000004F02D100E000BF04E045F6256028800C
:10D710000020F1E700BF0CB10020206000BF00BF77
:10D72000FAF71AFD814600BF00BF60480068406CF0
:10D73000A8B35E480068406C401E5C4909684864B4
:10D740005A480068476C1CB158480068006C20605B
:10D75000FCF766F855490968096C401A534909688D
:10D76000C1F8A40051480068D0F8A8004F490968E2
:10D77000D1F8A410884207D24C480068D0F8A40021
:10D780004A490968C1F8A80000BF00BF4846FAF737
:10D79000E7FC00BF00BF002028803846ACE7FFE769
:10D7A00006F4004058B100BF00BF4846FAF7D8FC65
:10D7B00000BF00BF46F2B010288000209CE73C4824
:10D7C000007800280BDD00BF00BF4846FAF7C8FC10
:10D7D00000BF00BF46F66350288000208CE7434618
:10D7E00007220021084600F0A5FD00BF00BF484603
:10D7F000FAF7B6FC00BF00BFFFF7F4FB00BF00BFA5
:10D80000FAF7AAFC814600BF00BF2848006890F8DC
:10D81000350020B1012826D0032834D12CE0FCB1FA
:10D8200022480068006C2060FBF7FAFF1F49096876
:10D83000096C401A1D490968C1F8A4001B4800681A
:10D84000D0F8A80019490968D1F8A410884207D275
:10D8500016480068D0F8A40014490968C1F8A80067
:10D860000020288013E01CB110480068006C206084
:10D8700046F2A91028800AE00CB10020206047F28F
:10D88000D920288003E046F62E60288000BF00BF24
:10D8900006480068476C00BF00BF4846FAF760FCC6
:10D8A00000BF00BF384627E7A00000202C01002061
:10D8B000D40000202DE9F04106460D4614461DB166
:10D8C000B5F5004F02D100E000BF05E045F6256048
:10D8D00020800020BDE8F08100BFFBF7A1FF80465B
:10D8E000234642462946304601F05AFB0746384651
:10D8F000F0E700002DE9F04705460E4617461C46A6
:10D900004FF0000A2E480078002804DD47F2591035
:10D910002080BDE8F0871EB946F2D5202080F8E7C8
:10D920001FB946F2D5202080F3E700BF00BFFAF709
:10D9300013FC824600BF00BF0DB922480568286865
:10D9400068B900BF00BF5046FAF70AFC00BF00BF2D
:10D9500000203060386047F252102080D9E795F8F7
:10D960003C0000F0010068B900BF00BF5046FAF764
:10D97000F7FB00BF00BF00203060386047F2541052
:10D980002080C6E700BF00BF5046FAF7E9FB00BFA2
:10D9900000BF4FF00008D5F8249003E009F1040916
:10D9A00008F10108D9F800000028F7D0C6F8008077
:10D9B000A86BA0EB080038600020208000BFA8E71B
:10D9C000A00000202C010020F0B50446DDE905563A
:10D9D00002EB85004FF0807C071F3846C7F800C077
:10D9E000071F38463C60DFF89CC0071F3846C7F861
:10D9F00000C04FF0123C071F3846C7F800C04FF078
:10DA0000033C071F3846C7F800C04FF0023C071F11
:10DA10003846C7F800C0071F38463B60071F384626
:10DA200039604FF0113C071F3846C7F800C04FF06F
:10DA3000103C071F3846C7F800C04FF0093C071FCD
:10DA40003846C7F800C04FF0083C071F3846C7F8F3
:10DA500000C04FF0073C071F3846C7F800C04FF022
:10DA6000063C071F3846C7F800C04FF0053C071FAB
:10DA70003846C7F800C04FF0043C071F3846C7F8C7
:10DA800000C0F0BD7DEF000870B505460C460A48A1
:10DA90000078002803DD47F25D10208070BD074844
:10DAA000854203D147F25B102080F7E721462846E4
:10DAB00001F058FB00BFF1E7A0000020203A002051
:10DAC00010B51D48006810B11B4800688047FBF77F
:10DAD000A7FE04461948006819490968884215D00C
