:020000040800F2
:100000007014002011010008730600086D05000837
:10001000710600087D0100080112000800000000C0
:10002000000000000000000000000000A50800081B
:1000300001020008000000000D0700086D0900081B
:100040002B0100082B0100082B0100082B010008E0
:100050002B0100082B0100082B0100082B010008D0
:100060002B0100082B0100082B0100082B010008C0
:100070002B0100082B0100082B0100082B010008B0
:100080002B0100082B0100082B0100082B010008A0
:100090002B0100082B0100082B0100082B01000890
:1000A0002B0100082B0100082B0100082B01000880
:1000B0002B0100082B0100082B0100082B01000870
:1000C0002B0100082B0100082B0100082B01000860
:1000D0002B010008210B00082B0100082B01000850
:1000E0002B0100082B0100082B0100082B01000840
:1000F0002B010008DFF80CD000F02EF80048004774
:10010000751300087014002080F308887047000001
:100110000648804706480047FEE7FEE7FEE7FEE7A1
:10012000FEE7FEE7FEE7FEE7FEE7FEE781090008DF
:10013000F5000008D2B201E000F8012B491EFBD205
:1001400070470022F6E710B513460A4604461946E2
:10015000FFF7F0FF204610BD064C074D06E0E068B3
:1001600040F0010394E8070098471034AC42F6D3FE
:10017000FFF7C4FF1414000834140008FEE770B53C
:1001800004464FF6FF7000234AF201050FE014F811
:10019000012B50400022C60702D085EA500000E043
:1001A0004008521CD2B2082AF5D35B1CDBB28B424A
:1001B000EDD370BD10B500F083FC03480021A0F81A
:1001C0000110017010BD00006400002002480168A9
:1001D00041F0010101607047043C0240054800689D
:1001E000C00705D003480449083001600349016095
:1001F00070470000043C0240EFCDAB8905040302C8
:100200007047000001B503480099016001680029AA
:10021000FCD108BD0000002070B50D460A49164605
:10022000441872B6FFF7DAFF00F068F80128FBD037
:1002300003E014F8010B05F8010B761EB6B2F8D2F4
:10024000FFF7C4FF62B670BD0000080870B50E4627
:100250000C491546441872B6FFF7C0FF00F04EF87F
:100260000428FBD107E016F8010B04F8010B00F09D
:1002700045F80128FBD06D1EADB2F4D2FFF7A6FF02
:1002800062B670BD000008080149086070470000B0
:10029000183C024070B505464FF40046304600F069
:1002A00081F8042815D10B4C206840F400702060C0
:1002B000206840F00800206000202860304600F0F0
:1002C00071F8216821F008012160216821F4007192
:1002D000216070BD043C024070B505464FF40046F5
:1002E0000C46304600F05EF8042805D12C603046FC
:1002F000BDE8704000F056B870BD00000849042009
:100300000A68D20701D0012070470A68D20501D5DA
:1003100002207047096811F4F05FFAD0032070479B
:10032000183C024010B500F029F8BDE8104041F635
:100330000270FFF7A9BF00000248016841F0020106
:1003400001607047043C024010B5A0F10802182A71
:1003500001D20F2901D9012010BD000300EB0124B7
:1003600072B604F10064FFF7DDFF2046FFF792FF4D
:10037000FFF7E2FF62B6002010BD0000064800B59E
:100380000068800707D5FFF729FF034803490C30B1
:1003900001600349016000BD043C0240BFAE9D8C7A
:1003A0001615141308B5034604208DF80000FFF756
:1003B000A5FF8DF8000004E0FFF7A0FF8DF8000016
:1003C0005B1E9DF80000012801D013B104E0002B52
:1003D000F2D105208DF800009DF8000008BD000056
:1003E0007CB50121032000F093F901248DF804402D
:1003F000002602208DF8066000908DF80740032546
:100400008DF805506946094800F014F88DF804404D
:100410004FF408708DF8066000908DF807408DF855
:1004200005506946024800F005F87CBD0000024016
:1004300000040240F0B5002201274FF0030E0B68C4
:1004400007FA02F52B40AB4227D10668530091F81A
:1004500004C00EFA03F4A6430CFA03FC4CEA060CA3
:10046000C0F800C00E79012E01D0022E0FD186688F
:1004700091F805C0A6430CFA03FC4CEA060CC0F840
:1004800008C08688AE438D79954035438580C56820
:10049000A543CC799C402C43C460521C102ACED377
:1004A000F0BD4B07DB0E9A40C90810B500EB810088
:1004B000016A0F249C40A1430162016A1143016259
:1004C00010BD000070B58EB0142108A8FFF739FEEA
:1004D0000021009101910291224B03910491059119
:1004E00006910C46084608AA07911D5C1554401C4D
:1004F000C0B21328F9D300206D4613189B782B54F3
:10050000401CC0B20E28F8D39DF832008DF80E00C2
:100510008DF80F101449002001EB400335F810202E
:1005200052BADA80401CC0B20828F5D34FF4C07626
:10053000102204A93046FFF76FFE002104A86B5C6F
:10054000425C9A4201D0641CE4B2491CC9B2102931
:10055000F5D324B1102269463046FFF777FE0EB07E
:10056000012070BDF41300082C000020FEE70000FD
:1005700010B54FF4C06000F0AFF800F059F8FFF785
:100580002FFF4FF4165000F039FA0449202008805C
:10059000BDE810400520FFF735BE00001A040240F8
:1005A0003EB500200090019002900520FFF72AFE42
:1005B0001C4C1B486062082084F8200002466946F3
:1005C0000020FFF729FE9DF80000DDF8011040EA49
:1005D0000121154841609DF80410DDF8052041EA2D
:1005E0000221816040F2C620608040F20140A0807C
:1005F000FFF768FF0D48818A81F0020181820222A3
:10060000694640F2B220FFF707FE9DF80000208007
:10061000208810B12088F72801D9012020803EBD14
:10062000008000082C000020000000200000024094
:1006300070B50E484FF47A714FF0FF350068B0FB8B
:10064000F1F1491EB1F1807F0AD24FF0E0246161DF
:100650000F21284600F04AF80020A0610720206101
:100660002846BDE87040002100F040B8540000204A
:10067000FEE7704730B50F23C27801780125FAB143
:10068000144A126801F1E02102F4E062C2F5E0626E
:10069000C2F30722C2F10404D3404278A240847816
:1006A0001C401443220181F80024007800F01F014F
:1006B0008D404009800000F1E020C0F8005130BDBD
:1006C00001F01F0085404809800000F1E020C0F8DB
:1006D000805130BD0CED00E002490843024908603A
:1006E000704700000000FA050CED00E00907090E54
:1006F000002806DA00F00F0000F1E02080F8141D59
:10070000704700F1E02080F8001470477047000047
:10071000044A0029116801D0014300E081431160BF
:10072000704700001C380240044A0029116801D0BB
:10073000014300E08143116070470000203802400F
:1007400030B5264B1968A3F1040211F00C014FF4E7
:10075000004405D004290AD008290AD00C290BD05E
:100760001168C1F34231491C8C4004601BE01C49F4
:1007700018E04FF4E10115E019681A6801F47011EE
:10078000184C02F4400204EB91410978012404EB77
:1007900092521C6814F4803F1ED04FF4E104614370
:1007A000B1FBF2F1016019680F2202EA11110D4A42
:1007B0000932545C0168E14041601C68072505EA84
:1007C0001424145D21FA04F484601B6805EAD32321
:1007D000D25CD140C16030BD014CE0E70838024036
:1007E0000024F400120000201CB5002000900190AD
:1007F000124801888DF80010A2218DF8011041885F
:10080000090A8DF8021041888DF803108188090AC1
:100810008DF8041080888DF8050006216846FFF7E2
:10082000AEFC8DF80600000A8DF807000821684626
:1008300000F0D0F8FFF7BEFC1CBD00002C0000202B
:100840001CB5002404220194694610460094FFF769
:10085000FDFC12480460124800888DF80000A320B7
:100860008DF8010044208DF8020066208DF8030009
:1008700088208DF80400AA208DF80500062168461E
:10088000FFF77DFC8DF80600000A8DF807000821AF
:10089000684600F09FF8FFF78DFC1CBD08000020A3
:1008A0002C000020704700000CB500222C4900925B
:1008B0000192086840F4803008604FF4A043086853
:1008C00000F4003001900098401C0090019810B98D
:1008D00000989842F3D1086880033FD50120019029
:1008E0002048026842F004020260026842F00202FC
:1008F0000260026842F00102026019482430026876
:1009000042F080520260C214174802604268D20668
:10091000FCD4134808300268026002680260026872
:100920000260026822F47D020260026842F4110251
:1009300002600A6842F080720A600A689201FCD57F
:10094000016821F003010160016841F003010160C9
:100950000168C1F381010329FAD10CBD01920CBDDC
:1009600000380240003C024000700040034801682B
:10097000002902D00168491E016070470000002074
:10098000104810B5016841F4807101600D490831CB
:100990000A680D4B1A400A6002680C4B1A4002604C
:1009A000026822F480220260086820F47D0008605A
:1009B000091D00200860FFF777FF05494FF0006030
:1009C000086010BD003802400CC0FF88FEFFFEEE3C
:1009D00008ED00E00A4610B5064920240C8000BF4F
:1009E0000146054800F09AF900BF0248801C0480C7
:1009F00010BD00001804024000380140F0B587B077
:100A0000074625208DF8180001258DF819508DF81E
:100A10001A508DF81B5006A8FFF72CFE0121880301
:100A2000FFF782FE244E072206213046FFF739FDEC
:100A3000072211463046FFF734FD40200090022087
:100A40008DF8040003208DF8050000248DF8064081
:100A50008DF8075069463046FFF7ECFC8020009087
:100A600069463046FFF7E6FCADF80C40ADF80E40A5
:100A7000ADF81040ADF814400C20104CADF8120049
:100A8000029702A9204600F0DFF8012240F225512A
:100A9000204600F0C0F8012240F22441204600F038
:100AA000BAF84021204600F07DF80121204600F0F0
:100AB00082F807B0F0BD0000000402400038014099
:100AC0000348002141600160024841700170704795
:100AD0006802002010000020054803C8814202D1AE
:100AE0004FF6FF7070474FF47A7000F003B80000C3
:100AF000680200200949D1E9003203E0401E0004E9
:100B0000000C08D09A42F9D0C2F308000844521CE5
:100B10004A60007A70474FF6FF7070476802002005
:100B20002DE9F0411D4F40F225581B4C41463846F7
:100B300000F052F81A4E00B3384600F000F9C5B282
:100B40004146384600F031F83078002813D1D4E916
:100B50000001411AB1F5007F06D2C0F3080020441D
:100B600005722068401C20602088A188401AC0F3CC
:100B70000800A6F80100BDE8F08140F224413C469F
:100B8000384600F029F80028F5D020880348001DD9
:100B9000008801203070EEE7680200200038014034
:100BA00064000020C943018070470A0A0121914076
:100BB000C943018070470029818902D041F4005166
:100BC00001E021F400518181704702460020128823
:100BD0000A4200D00120704770B501F01F050126C0
:100BE0000024C1F3421306FA05F2012B0FD0022BA9
:100BF0000FD0838A4FEA11210088134206FA01F6CA
:100C000000EA060001D000B10124204670BD8389AE
:100C1000F0E7038AEEE710B5C1F3421301F01F04B9
:100C20000121A140012B07D0022B07D01430002A4C
:100C3000026805D00A4304E00C30F8E71030F6E70C
:100C40008A43026010BD00007FB50446008A0D464D
:100C500020F44051E88808432082A18941F20C60C9
:100C60008143A8882A8910436A890A431043A081D6
:100C7000A08A20F44071A8890843A0826846FFF743
:100C80005FFD1948844201D1039800E00298A189D0
:100C9000090400EBC00101EB0010296801D54900EF
:100CA00000E08900B0FBF1F06422B0FBF2F1090131
:100CB0000B096FF018056B4300EB8300A3891D043B
:100CC0004FF0320306D503EBC000B0FBF2F000F0AA
:100CD000070005E003EB0010B0FBF2F000F00F009E
:100CE000084320817FBD00000038014070B50D46EB
:100CF000064600244021FFF768FF2946304600F0F1
:100D000022F84FF4A02540213046FFF75EFF00286F
:100D100003D12046641CA842F5D370BD2DE9F041F3
:100D200016460D460746002405E015F8011B384617
:100D3000FFF7DCFF641CB442F7D3BDE8F081808884
:100D4000C0F308007047C1F30801818070470000BC
:100D50002DE9F04FC5B00024409441944FF48071C8
:100D600068464294FFF7EDF9DFF880840026ADF87D
:100D70000C41DFF8749408F10205DFF874B44FF405
:100D80007A7A6C1EB9F81410574681F00201A9F85E
:100D900014100CE00A20FFF735FAB9F8141081F0AE
:100DA0000201A9F814107F1E3F043F0C71D098F87F
:100DB00000100029EED0002706E0FFF78DFE08EBBB
:100DC0000701C8707F1CBFB2B8F80100B842F4D860
:100DD000B8F801004746801EC1B2F81CFFF7CFF9F2
:100DE000B7F80110095DB7F80120525D41EA022110
:100DF00081420AD0B7F801103846495DFF2942D137
:100E0000B0F80100005DFF283DD1F978BBF8002063
:100E10005846914206D1B7F80110082902D1397914
:100E2000252908D0F978008881422AD1B7F8010035
:100E3000082823D025E000888DF80001A5208DF832
:100E4000010144208DF8020166208DF803018820FD
:100E50008DF80401AA208DF80501062140A8FFF7AE
:100E60008EF98DF80601000A8DF80701082140A8C7
:100E7000FFF7B0FDFFF79EF9B8460BE0387922285E
:100E800004D0FFF797F9FFF795F97BE7FFF7ACFC84
:100E9000F9E77FE057460CE00A20FFF7B3F9B9F80D
:100EA000141081F00201A9F814107F1E3F043F0CBA
:100EB00070D098F800100029EED0002706E0FFF768
:100EC0000BFE08EB0701C8707F1CBFB2B8F8010029
:100ED000B842F4D8B8F801004746801EC1B2F81CE9
:100EE000FFF74DF9B7F80110095DB7F80120525D21
:100EF00041EA022181420AD0B7F801103846495D23
:100F0000FF2912D1B0F80100005DFF280DD1F9785A
:100F1000BBF80000814206D1B7F801000C2802D1CD
:100F20003879262804D0FFF745F9FFF743F9B1E7F0
:100F3000AE4988794A7940EA02225846ABF8162031
:100F40008A7ACB7942EA03620B7A4F7A1B0443EA2E
:100F500007231A43CBF818200A7BC97A42EA0121F9
:100F6000ABF81C10BBF81C10ABF81E1090F820104A
:100F70008269012303EB1232114480F8211090F8AA
:100F800021101F2902D91F2180F8211090F82080FC
:100F900083460FE04FE090F8227005E03946404666
:100FA000FFF7D2F97F1CBFB2102FF7D908F101006B
:100FB0001FFA80F89BF8212058464245EBD28C4816
:100FC00000888DF80001A6208DF8010144208DF8DD
:100FD000020166208DF8030188208DF804014FF08E
:100FE000AA0B8DF805B1062140A8FFF7C8F88DF8C7
:100FF0000601000A8DF80701082140A8FFF7EAFC66
:10100000FFF7D8F8DFF8E4A14FF47A77D0460CE088
:101010000A20FFF7F7F8B9F8141081F00201A9F8D7
:1010200014107F1E3F043F0C05D098F800100029D3
:10103000EED000270AE045B00020BDE8F08FFFF7B2
:101040004BFD08EB0701C8707F1CBFB2B8F8010068
:10105000B842F4D8B8F801004746801EC1B2F81C67
:10106000FFF78DF8B7F80110095DB7F80120525D60
:1010700041EA0221814209D0B7F80110495DFF29F8
:1010800015D1B7F80100005DFF2810D1F878DFF81E
:101090006081B8F80010884207D1B7F80100B0F5B8
:1010A000837F02D13879272804D0FFF783F8FFF730
:1010B00081F8A9E740216846FFF743F80020EC4695
:1010C00007EB8001CA798B7A42EA03624B7A097A8C
:1010D0001B0443EA01210A434CF82020401C80B243
:1010E0004028EDD3761CD8F82400B6B240226146E1
:1010F00000F0EEF8D8F8240000F58070C8F824005D
:10110000B8F81C00401EA8F81C00FFF753F8B8F808
:101110001C00F0B1B8F800008DF80001A7208DF890
:101120000101300A8DF8020188208DF804018DF844
:1011300003618DF805B1062140A8FFF720F88DF86E
:101140000601000A8DF80701082140A8FFF742FCBC
:10115000ADE70320ADF80C01022243A94FF458700B
:10116000FFF774F8B8F800008DF80001B7208DF88B
:101170000101D8F81800000E8DF80201D8F8180007
:10118000000C8DF80301D8F81800000A8DF804014E
:10119000D8F818008DF80501062140A8FEF7EFFFEA
:1011A0008DF80601000A8DF80701082140A8FFF715
:1011B00011FC08278DF800718DF801718DF802710E
:1011C00004228DF8037140A91046FFF73FF8094843
:1011D0004168B7EB116F02D100F0B6F867E7074935
:1011E00005480860FEE7000000000240640000209F
:1011F0002C000020008000080400FA050CED00E03F
:10120000FEE700002DE9F0472F4EDFF8B8904FF4CD
:101210007A7506F10208771C0520FEF7F3FFB9F88E
:10122000141081F00201A9F814106D1E2D042D0C6C
:1012300004D030780028EFD0002408E00020BDE87A
:10124000F087FFF749FC3119C870641CA4B2B6F8E6
:101250000100A042F5D8B6F801003446801EC1B2A4
:10126000F01CFEF78CFFB6F80110CA5DB6F801302D
:1012700013F8081042EA012181420BD0B4F8012092
:10128000204612F80810FF2915D1B0F80100C05D02
:10129000FF2810D1E0780D49098888420BD1B4F8B5
:1012A0000100082807D12079222801D1FFF79CFAF4
:1012B0002079232802D0FEF77DFFADE7FFF7C0FAC3
:1012C000BCE7000000000240640000202C00002069
:1012D0002DE9F04105468846114812490026284468
:1012E0001746884201D2A80702D00220BDE8F0814B
:1012F00072B6FFF717F800240AE058F824102846C1
:10130000FEF7EAFF042801D0012603E0641C2D1D2E
:10131000BC42F2D3FFF710F862B63046E6E70000B1
:101320000080FFF7FF7F010002E008C8121F08C11C
:10133000002AFAD170477047002001E001C1121F56
:10134000002AFBD17047000010B50168074A114020
:10135000B1F1005F09D14168054C21600068FEF7DA
:10136000D3FE2068BDE81040004710BD0000FE2FEE
:101370000C0000201948FFF7E3F9FFF7F9F8FFF731
:101380000FF9DFF85C90DFF85C80174D174C184FB1
:101390004FF008364FF0080AA868B04219D1A08A69
:1013A00080F00200A082FFF72DFFA868B0420BD1A9
:1013B0007A683846BAEB126F06D1A18A81F0020131
:1013C000A182FFF7C1FFE7E7FFF7C2FCC8F8009072
:1013D000FEE7FFF7BDFCC8F80090FEE754000020D0
:1013E0000400FA050CED00E00000002000000240BF
:1013F000008000082A2A5445535448434637313068
:10140000313030322A2A3500000000000000000090
:101410000000000034140008000000202C00000030
:1014200028130008601400082C0000204414000059
:041430003813000865
:020000040800F2
:1014340000000000000000000000000000000000A8
:101444000000030406080C101820300000000001FE
:0C1454000203040102030406070809005B
:04000005080000F5FA
:00000001FF
